{
  "contractName": "SampleContract",
  "abi": [
    {
      "constant": true,
      "inputs": [
        {
          "name": "_bytes1",
          "type": "bytes1"
        }
      ],
      "name": "bytes1FunctionReturnsBytes",
      "outputs": [
        {
          "name": "__bytes",
          "type": "bytes"
        }
      ],
      "payable": false,
      "stateMutability": "pure",
      "type": "function"
    },
    {
      "constant": true,
      "inputs": [
        {
          "name": "_int8",
          "type": "int8"
        }
      ],
      "name": "int8FunctionReturnsUint",
      "outputs": [
        {
          "name": "__uint",
          "type": "uint256"
        }
      ],
      "payable": false,
      "stateMutability": "pure",
      "type": "function"
    },
    {
      "constant": true,
      "inputs": [
        {
          "name": "_bytes1",
          "type": "bytes1"
        }
      ],
      "name": "bytes1FunctionReturnsAddress",
      "outputs": [
        {
          "name": "__address",
          "type": "address"
        }
      ],
      "payable": false,
      "stateMutability": "pure",
      "type": "function"
    },
    {
      "constant": true,
      "inputs": [
        {
          "name": "_byte",
          "type": "bytes1"
        }
      ],
      "name": "byteFunctionReturnsBytes",
      "outputs": [
        {
          "name": "__bytes",
          "type": "bytes"
        }
      ],
      "payable": false,
      "stateMutability": "pure",
      "type": "function"
    },
    {
      "constant": true,
      "inputs": [
        {
          "name": "_bytes1",
          "type": "bytes1"
        }
      ],
      "name": "bytes1FunctionReturnsInt256",
      "outputs": [
        {
          "name": "__int256",
          "type": "int256"
        }
      ],
      "payable": false,
      "stateMutability": "pure",
      "type": "function"
    },
    {
      "constant": true,
      "inputs": [
        {
          "name": "_int8",
          "type": "int8"
        }
      ],
      "name": "int8FunctionReturnsAddress",
      "outputs": [
        {
          "name": "__address",
          "type": "address"
        }
      ],
      "payable": false,
      "stateMutability": "pure",
      "type": "function"
    },
    {
      "constant": true,
      "inputs": [
        {
          "name": "_uint8",
          "type": "uint8"
        }
      ],
      "name": "uint8FunctionReturnsUint256",
      "outputs": [
        {
          "name": "__uint256",
          "type": "uint256"
        }
      ],
      "payable": false,
      "stateMutability": "pure",
      "type": "function"
    },
    {
      "constant": true,
      "inputs": [
        {
          "name": "_uint",
          "type": "uint256"
        }
      ],
      "name": "uintFunctionReturnsInt256",
      "outputs": [
        {
          "name": "__int256",
          "type": "int256"
        }
      ],
      "payable": false,
      "stateMutability": "pure",
      "type": "function"
    },
    {
      "constant": true,
      "inputs": [
        {
          "name": "_string",
          "type": "string"
        }
      ],
      "name": "stringFunctionReturnsBytes",
      "outputs": [
        {
          "name": "__bytes",
          "type": "bytes"
        }
      ],
      "payable": false,
      "stateMutability": "pure",
      "type": "function"
    },
    {
      "constant": true,
      "inputs": [
        {
          "name": "_uint",
          "type": "uint256"
        }
      ],
      "name": "uintFunctionReturnsBytes32",
      "outputs": [
        {
          "name": "__bytes32",
          "type": "bytes32"
        }
      ],
      "payable": false,
      "stateMutability": "pure",
      "type": "function"
    },
    {
      "constant": true,
      "inputs": [
        {
          "name": "_int",
          "type": "int256"
        }
      ],
      "name": "intFunctionReturnsUint8",
      "outputs": [
        {
          "name": "__uint8",
          "type": "uint8"
        }
      ],
      "payable": false,
      "stateMutability": "pure",
      "type": "function"
    },
    {
      "constant": true,
      "inputs": [
        {
          "name": "_byte",
          "type": "bytes1"
        }
      ],
      "name": "byteFunctionReturnsInt8",
      "outputs": [
        {
          "name": "__int8",
          "type": "int8"
        }
      ],
      "payable": false,
      "stateMutability": "pure",
      "type": "function"
    },
    {
      "constant": true,
      "inputs": [
        {
          "name": "_bytes1",
          "type": "bytes1"
        }
      ],
      "name": "bytes1FunctionReturnsBytes1",
      "outputs": [
        {
          "name": "__bytes1",
          "type": "bytes1"
        }
      ],
      "payable": false,
      "stateMutability": "pure",
      "type": "function"
    },
    {
      "constant": true,
      "inputs": [
        {
          "name": "_int256",
          "type": "int256"
        }
      ],
      "name": "int256FunctionReturnsUint",
      "outputs": [
        {
          "name": "__uint",
          "type": "uint256"
        }
      ],
      "payable": false,
      "stateMutability": "pure",
      "type": "function"
    },
    {
      "constant": true,
      "inputs": [
        {
          "name": "_int8",
          "type": "int8"
        }
      ],
      "name": "int8FunctionReturnsByte",
      "outputs": [
        {
          "name": "__byte",
          "type": "bytes1"
        }
      ],
      "payable": false,
      "stateMutability": "pure",
      "type": "function"
    },
    {
      "constant": true,
      "inputs": [
        {
          "name": "_uint",
          "type": "uint256"
        }
      ],
      "name": "uintFunctionReturnsBool",
      "outputs": [
        {
          "name": "__bool",
          "type": "bool"
        }
      ],
      "payable": false,
      "stateMutability": "pure",
      "type": "function"
    },
    {
      "constant": true,
      "inputs": [
        {
          "name": "_int8",
          "type": "int8"
        }
      ],
      "name": "int8FunctionReturnsInt8",
      "outputs": [
        {
          "name": "__int8",
          "type": "int8"
        }
      ],
      "payable": false,
      "stateMutability": "pure",
      "type": "function"
    },
    {
      "constant": true,
      "inputs": [
        {
          "name": "_uint256",
          "type": "uint256"
        }
      ],
      "name": "uint256FunctionReturnsBool",
      "outputs": [
        {
          "name": "__bool",
          "type": "bool"
        }
      ],
      "payable": false,
      "stateMutability": "pure",
      "type": "function"
    },
    {
      "constant": true,
      "inputs": [
        {
          "name": "_bytes32",
          "type": "bytes32"
        }
      ],
      "name": "bytes32FunctionReturnsUint",
      "outputs": [
        {
          "name": "__uint",
          "type": "uint256"
        }
      ],
      "payable": false,
      "stateMutability": "pure",
      "type": "function"
    },
    {
      "constant": true,
      "inputs": [
        {
          "name": "_uint8",
          "type": "uint8"
        }
      ],
      "name": "uint8FunctionReturnsInt256",
      "outputs": [
        {
          "name": "__int256",
          "type": "int256"
        }
      ],
      "payable": false,
      "stateMutability": "pure",
      "type": "function"
    },
    {
      "constant": true,
      "inputs": [
        {
          "name": "_uint8",
          "type": "uint8"
        }
      ],
      "name": "uint8FunctionReturnsString",
      "outputs": [
        {
          "name": "__string",
          "type": "string"
        }
      ],
      "payable": false,
      "stateMutability": "pure",
      "type": "function"
    },
    {
      "constant": true,
      "inputs": [
        {
          "name": "_uint256",
          "type": "uint256"
        }
      ],
      "name": "uint256FunctionReturnsBytes",
      "outputs": [
        {
          "name": "__bytes",
          "type": "bytes"
        }
      ],
      "payable": false,
      "stateMutability": "pure",
      "type": "function"
    },
    {
      "constant": true,
      "inputs": [
        {
          "name": "_bytes1",
          "type": "bytes1"
        }
      ],
      "name": "bytes1FunctionReturnsUint",
      "outputs": [
        {
          "name": "__uint",
          "type": "uint256"
        }
      ],
      "payable": false,
      "stateMutability": "pure",
      "type": "function"
    },
    {
      "constant": true,
      "inputs": [
        {
          "name": "_byte",
          "type": "bytes1"
        }
      ],
      "name": "byteFunctionReturnsString",
      "outputs": [
        {
          "name": "__string",
          "type": "string"
        }
      ],
      "payable": false,
      "stateMutability": "pure",
      "type": "function"
    },
    {
      "constant": true,
      "inputs": [
        {
          "name": "_uint",
          "type": "uint256"
        }
      ],
      "name": "uintFunctionReturnsInt8",
      "outputs": [
        {
          "name": "__int8",
          "type": "int8"
        }
      ],
      "payable": false,
      "stateMutability": "pure",
      "type": "function"
    },
    {
      "constant": true,
      "inputs": [
        {
          "name": "_bytes",
          "type": "bytes"
        }
      ],
      "name": "bytesFunctionReturnsUint256",
      "outputs": [
        {
          "name": "__uint256",
          "type": "uint256"
        }
      ],
      "payable": false,
      "stateMutability": "pure",
      "type": "function"
    },
    {
      "constant": true,
      "inputs": [
        {
          "name": "_uint",
          "type": "uint256"
        }
      ],
      "name": "uintFunctionReturnsBytes1",
      "outputs": [
        {
          "name": "__bytes1",
          "type": "bytes1"
        }
      ],
      "payable": false,
      "stateMutability": "pure",
      "type": "function"
    },
    {
      "constant": true,
      "inputs": [
        {
          "name": "_int",
          "type": "int256"
        }
      ],
      "name": "intInt256FunctionReturnsIntInt256",
      "outputs": [
        {
          "name": "__int",
          "type": "int256"
        },
        {
          "name": "_int256_",
          "type": "int256"
        }
      ],
      "payable": false,
      "stateMutability": "pure",
      "type": "function"
    },
    {
      "constant": true,
      "inputs": [
        {
          "name": "_bytes",
          "type": "bytes"
        }
      ],
      "name": "bytesFunctionReturnsInt256",
      "outputs": [
        {
          "name": "__int256",
          "type": "int256"
        }
      ],
      "payable": false,
      "stateMutability": "pure",
      "type": "function"
    },
    {
      "constant": true,
      "inputs": [
        {
          "name": "_string",
          "type": "string"
        }
      ],
      "name": "stringFunctionReturnsInt256",
      "outputs": [
        {
          "name": "__int256",
          "type": "int256"
        }
      ],
      "payable": false,
      "stateMutability": "pure",
      "type": "function"
    },
    {
      "constant": true,
      "inputs": [
        {
          "name": "_uint8",
          "type": "uint8"
        }
      ],
      "name": "uint8FunctionReturnsByte",
      "outputs": [
        {
          "name": "__byte",
          "type": "bytes1"
        }
      ],
      "payable": false,
      "stateMutability": "pure",
      "type": "function"
    },
    {
      "constant": true,
      "inputs": [
        {
          "name": "_int",
          "type": "int256"
        }
      ],
      "name": "intFunctionReturnsInt",
      "outputs": [
        {
          "name": "__int",
          "type": "int256"
        }
      ],
      "payable": false,
      "stateMutability": "pure",
      "type": "function"
    },
    {
      "constant": true,
      "inputs": [
        {
          "name": "_bytes32",
          "type": "bytes32"
        }
      ],
      "name": "bytes32FunctionReturnsBytes",
      "outputs": [
        {
          "name": "__bytes",
          "type": "bytes"
        }
      ],
      "payable": false,
      "stateMutability": "pure",
      "type": "function"
    },
    {
      "constant": true,
      "inputs": [
        {
          "name": "_address",
          "type": "address"
        }
      ],
      "name": "addressFunctionReturnsUint8",
      "outputs": [
        {
          "name": "__uint8",
          "type": "uint8"
        }
      ],
      "payable": false,
      "stateMutability": "pure",
      "type": "function"
    },
    {
      "constant": true,
      "inputs": [
        {
          "name": "_bool",
          "type": "bool"
        }
      ],
      "name": "boolFunctionReturnsUint8",
      "outputs": [
        {
          "name": "__uint8",
          "type": "uint8"
        }
      ],
      "payable": false,
      "stateMutability": "pure",
      "type": "function"
    },
    {
      "constant": true,
      "inputs": [
        {
          "name": "_uint256",
          "type": "uint256"
        }
      ],
      "name": "uint256FunctionReturnsBytes32",
      "outputs": [
        {
          "name": "__bytes32",
          "type": "bytes32"
        }
      ],
      "payable": false,
      "stateMutability": "pure",
      "type": "function"
    },
    {
      "constant": true,
      "inputs": [
        {
          "name": "_uint256",
          "type": "uint256"
        }
      ],
      "name": "uint256FunctionReturnsInt8",
      "outputs": [
        {
          "name": "__int8",
          "type": "int8"
        }
      ],
      "payable": false,
      "stateMutability": "pure",
      "type": "function"
    },
    {
      "constant": true,
      "inputs": [
        {
          "name": "_int256",
          "type": "int256"
        }
      ],
      "name": "int256FunctionReturnsString",
      "outputs": [
        {
          "name": "__string",
          "type": "string"
        }
      ],
      "payable": false,
      "stateMutability": "pure",
      "type": "function"
    },
    {
      "constant": true,
      "inputs": [
        {
          "name": "_bytes32",
          "type": "bytes32"
        }
      ],
      "name": "bytes32FunctionReturnsString",
      "outputs": [
        {
          "name": "__string",
          "type": "string"
        }
      ],
      "payable": false,
      "stateMutability": "pure",
      "type": "function"
    },
    {
      "constant": true,
      "inputs": [
        {
          "name": "_bool",
          "type": "bool"
        }
      ],
      "name": "boolFunctionReturnsAddress",
      "outputs": [
        {
          "name": "__address",
          "type": "address"
        }
      ],
      "payable": false,
      "stateMutability": "pure",
      "type": "function"
    },
    {
      "constant": true,
      "inputs": [
        {
          "name": "_address",
          "type": "address"
        }
      ],
      "name": "addressFunctionReturnsInt",
      "outputs": [
        {
          "name": "__int",
          "type": "int256"
        }
      ],
      "payable": false,
      "stateMutability": "pure",
      "type": "function"
    },
    {
      "constant": true,
      "inputs": [
        {
          "name": "_bytes1",
          "type": "bytes1"
        }
      ],
      "name": "bytes1Int256FunctionReturnsBytes1Int256",
      "outputs": [
        {
          "name": "__bytes1",
          "type": "bytes1"
        },
        {
          "name": "_int256_",
          "type": "int256"
        }
      ],
      "payable": false,
      "stateMutability": "pure",
      "type": "function"
    },
    {
      "constant": true,
      "inputs": [
        {
          "name": "_int8",
          "type": "int8"
        }
      ],
      "name": "int8FunctionReturnsBytes",
      "outputs": [
        {
          "name": "__bytes",
          "type": "bytes"
        }
      ],
      "payable": false,
      "stateMutability": "pure",
      "type": "function"
    },
    {
      "constant": true,
      "inputs": [
        {
          "name": "_byte",
          "type": "bytes1"
        }
      ],
      "name": "byteFunctionReturnsBytes1",
      "outputs": [
        {
          "name": "__bytes1",
          "type": "bytes1"
        }
      ],
      "payable": false,
      "stateMutability": "pure",
      "type": "function"
    },
    {
      "constant": true,
      "inputs": [
        {
          "name": "_uint8",
          "type": "uint8"
        }
      ],
      "name": "uint8FunctionReturnsAddress",
      "outputs": [
        {
          "name": "__address",
          "type": "address"
        }
      ],
      "payable": false,
      "stateMutability": "pure",
      "type": "function"
    },
    {
      "constant": true,
      "inputs": [
        {
          "name": "_string",
          "type": "string"
        }
      ],
      "name": "stringFunctionReturnsInt8",
      "outputs": [
        {
          "name": "__int8",
          "type": "int8"
        }
      ],
      "payable": false,
      "stateMutability": "pure",
      "type": "function"
    },
    {
      "constant": true,
      "inputs": [
        {
          "name": "_int256",
          "type": "int256"
        }
      ],
      "name": "int256FunctionReturnsInt",
      "outputs": [
        {
          "name": "__int",
          "type": "int256"
        }
      ],
      "payable": false,
      "stateMutability": "pure",
      "type": "function"
    },
    {
      "constant": true,
      "inputs": [
        {
          "name": "_bytes32",
          "type": "bytes32"
        }
      ],
      "name": "bytes32FunctionReturnsBool",
      "outputs": [
        {
          "name": "__bool",
          "type": "bool"
        }
      ],
      "payable": false,
      "stateMutability": "pure",
      "type": "function"
    },
    {
      "constant": true,
      "inputs": [
        {
          "name": "_int",
          "type": "int256"
        }
      ],
      "name": "intFunctionReturnsBytes32",
      "outputs": [
        {
          "name": "__bytes32",
          "type": "bytes32"
        }
      ],
      "payable": false,
      "stateMutability": "pure",
      "type": "function"
    },
    {
      "constant": true,
      "inputs": [
        {
          "name": "_uint8",
          "type": "uint8"
        }
      ],
      "name": "uint8FunctionReturnsBytes",
      "outputs": [
        {
          "name": "__bytes",
          "type": "bytes"
        }
      ],
      "payable": false,
      "stateMutability": "pure",
      "type": "function"
    },
    {
      "constant": true,
      "inputs": [
        {
          "name": "_bytes32",
          "type": "bytes32"
        }
      ],
      "name": "bytes32FunctionReturnsByte",
      "outputs": [
        {
          "name": "__byte",
          "type": "bytes1"
        }
      ],
      "payable": false,
      "stateMutability": "pure",
      "type": "function"
    },
    {
      "constant": true,
      "inputs": [
        {
          "name": "_int8",
          "type": "int8"
        }
      ],
      "name": "int8FunctionReturnsInt256",
      "outputs": [
        {
          "name": "__int256",
          "type": "int256"
        }
      ],
      "payable": false,
      "stateMutability": "pure",
      "type": "function"
    },
    {
      "constant": true,
      "inputs": [
        {
          "name": "_byte",
          "type": "bytes1"
        }
      ],
      "name": "byteFunctionReturnsByte",
      "outputs": [
        {
          "name": "__byte",
          "type": "bytes1"
        }
      ],
      "payable": false,
      "stateMutability": "pure",
      "type": "function"
    },
    {
      "constant": true,
      "inputs": [
        {
          "name": "_uint256",
          "type": "uint256"
        }
      ],
      "name": "uint256FunctionReturnsUint8",
      "outputs": [
        {
          "name": "__uint8",
          "type": "uint8"
        }
      ],
      "payable": false,
      "stateMutability": "pure",
      "type": "function"
    },
    {
      "constant": true,
      "inputs": [
        {
          "name": "_uint256",
          "type": "uint256"
        }
      ],
      "name": "uint256FunctionReturnsAddress",
      "outputs": [
        {
          "name": "__address",
          "type": "address"
        }
      ],
      "payable": false,
      "stateMutability": "pure",
      "type": "function"
    },
    {
      "constant": true,
      "inputs": [
        {
          "name": "_bool",
          "type": "bool"
        }
      ],
      "name": "boolFunctionReturnsInt8",
      "outputs": [
        {
          "name": "__int8",
          "type": "int8"
        }
      ],
      "payable": false,
      "stateMutability": "pure",
      "type": "function"
    },
    {
      "constant": true,
      "inputs": [
        {
          "name": "_bool",
          "type": "bool"
        }
      ],
      "name": "boolFunctionReturnsString",
      "outputs": [
        {
          "name": "__string",
          "type": "string"
        }
      ],
      "payable": false,
      "stateMutability": "pure",
      "type": "function"
    },
    {
      "constant": true,
      "inputs": [
        {
          "name": "_bytes",
          "type": "bytes"
        }
      ],
      "name": "bytesFunctionReturnsInt",
      "outputs": [
        {
          "name": "__int",
          "type": "int256"
        }
      ],
      "payable": false,
      "stateMutability": "pure",
      "type": "function"
    },
    {
      "constant": true,
      "inputs": [
        {
          "name": "_bool",
          "type": "bool"
        }
      ],
      "name": "boolFunctionReturnsBytes32",
      "outputs": [
        {
          "name": "__bytes32",
          "type": "bytes32"
        }
      ],
      "payable": false,
      "stateMutability": "pure",
      "type": "function"
    },
    {
      "constant": true,
      "inputs": [
        {
          "name": "_uint",
          "type": "uint256"
        }
      ],
      "name": "uintUint256FunctionReturnsUintUint256",
      "outputs": [
        {
          "name": "__uint",
          "type": "uint256"
        },
        {
          "name": "_uint256_",
          "type": "uint256"
        }
      ],
      "payable": false,
      "stateMutability": "pure",
      "type": "function"
    },
    {
      "constant": true,
      "inputs": [
        {
          "name": "_bytes1",
          "type": "bytes1"
        }
      ],
      "name": "bytes1FunctionReturnsBytes32",
      "outputs": [
        {
          "name": "__bytes32",
          "type": "bytes32"
        }
      ],
      "payable": false,
      "stateMutability": "pure",
      "type": "function"
    },
    {
      "constant": true,
      "inputs": [
        {
          "name": "_uint256",
          "type": "uint256"
        }
      ],
      "name": "uint256FunctionReturnsUint256",
      "outputs": [
        {
          "name": "__uint256",
          "type": "uint256"
        }
      ],
      "payable": false,
      "stateMutability": "pure",
      "type": "function"
    },
    {
      "constant": true,
      "inputs": [
        {
          "name": "_int8",
          "type": "int8"
        }
      ],
      "name": "int8FunctionReturnsUint8",
      "outputs": [
        {
          "name": "__uint8",
          "type": "uint8"
        }
      ],
      "payable": false,
      "stateMutability": "pure",
      "type": "function"
    },
    {
      "constant": true,
      "inputs": [
        {
          "name": "_uint8",
          "type": "uint8"
        }
      ],
      "name": "uint8AddressFunctionReturnsUint8Address",
      "outputs": [
        {
          "name": "__uint8",
          "type": "uint8"
        },
        {
          "name": "_address_",
          "type": "address"
        }
      ],
      "payable": false,
      "stateMutability": "pure",
      "type": "function"
    },
    {
      "constant": true,
      "inputs": [
        {
          "name": "_int8",
          "type": "int8"
        }
      ],
      "name": "int8FunctionReturnsBytes1",
      "outputs": [
        {
          "name": "__bytes1",
          "type": "bytes1"
        }
      ],
      "payable": false,
      "stateMutability": "pure",
      "type": "function"
    },
    {
      "constant": true,
      "inputs": [
        {
          "name": "_string",
          "type": "string"
        }
      ],
      "name": "stringFunctionReturnsBytes1",
      "outputs": [
        {
          "name": "__bytes1",
          "type": "bytes1"
        }
      ],
      "payable": false,
      "stateMutability": "pure",
      "type": "function"
    },
    {
      "constant": true,
      "inputs": [
        {
          "name": "_bool",
          "type": "bool"
        }
      ],
      "name": "boolFunctionReturnsBool",
      "outputs": [
        {
          "name": "__bool",
          "type": "bool"
        }
      ],
      "payable": false,
      "stateMutability": "pure",
      "type": "function"
    },
    {
      "constant": true,
      "inputs": [
        {
          "name": "_int",
          "type": "int256"
        }
      ],
      "name": "intFunctionReturnsBytes",
      "outputs": [
        {
          "name": "__bytes",
          "type": "bytes"
        }
      ],
      "payable": false,
      "stateMutability": "pure",
      "type": "function"
    },
    {
      "constant": true,
      "inputs": [
        {
          "name": "_int8",
          "type": "int8"
        }
      ],
      "name": "int8FunctionReturnsString",
      "outputs": [
        {
          "name": "__string",
          "type": "string"
        }
      ],
      "payable": false,
      "stateMutability": "pure",
      "type": "function"
    },
    {
      "constant": true,
      "inputs": [
        {
          "name": "_int256",
          "type": "int256"
        }
      ],
      "name": "int256FunctionReturnsAddress",
      "outputs": [
        {
          "name": "__address",
          "type": "address"
        }
      ],
      "payable": false,
      "stateMutability": "pure",
      "type": "function"
    },
    {
      "constant": true,
      "inputs": [
        {
          "name": "_uint256",
          "type": "uint256"
        }
      ],
      "name": "uint256FunctionReturnsString",
      "outputs": [
        {
          "name": "__string",
          "type": "string"
        }
      ],
      "payable": false,
      "stateMutability": "pure",
      "type": "function"
    },
    {
      "constant": true,
      "inputs": [
        {
          "name": "_bool",
          "type": "bool"
        }
      ],
      "name": "boolIntFunctionReturnsBoolInt",
      "outputs": [
        {
          "name": "__bool",
          "type": "bool"
        },
        {
          "name": "_int_",
          "type": "int256"
        }
      ],
      "payable": false,
      "stateMutability": "pure",
      "type": "function"
    },
    {
      "constant": true,
      "inputs": [
        {
          "name": "_string",
          "type": "string"
        }
      ],
      "name": "stringFunctionReturnsAddress",
      "outputs": [
        {
          "name": "__address",
          "type": "address"
        }
      ],
      "payable": false,
      "stateMutability": "pure",
      "type": "function"
    },
    {
      "constant": true,
      "inputs": [
        {
          "name": "_byte",
          "type": "bytes1"
        }
      ],
      "name": "byteFunctionReturnsUint",
      "outputs": [
        {
          "name": "__uint",
          "type": "uint256"
        }
      ],
      "payable": false,
      "stateMutability": "pure",
      "type": "function"
    },
    {
      "constant": true,
      "inputs": [
        {
          "name": "_byte",
          "type": "bytes1"
        }
      ],
      "name": "byteFunctionReturnsInt",
      "outputs": [
        {
          "name": "__int",
          "type": "int256"
        }
      ],
      "payable": false,
      "stateMutability": "pure",
      "type": "function"
    },
    {
      "constant": true,
      "inputs": [
        {
          "name": "_int256",
          "type": "int256"
        }
      ],
      "name": "int256FunctionReturnsByte",
      "outputs": [
        {
          "name": "__byte",
          "type": "bytes1"
        }
      ],
      "payable": false,
      "stateMutability": "pure",
      "type": "function"
    },
    {
      "constant": true,
      "inputs": [
        {
          "name": "_int256",
          "type": "int256"
        }
      ],
      "name": "int256FunctionReturnsUint8",
      "outputs": [
        {
          "name": "__uint8",
          "type": "uint8"
        }
      ],
      "payable": false,
      "stateMutability": "pure",
      "type": "function"
    },
    {
      "constant": true,
      "inputs": [
        {
          "name": "_bytes32",
          "type": "bytes32"
        }
      ],
      "name": "bytes32FunctionReturnsInt",
      "outputs": [
        {
          "name": "__int",
          "type": "int256"
        }
      ],
      "payable": false,
      "stateMutability": "pure",
      "type": "function"
    },
    {
      "constant": true,
      "inputs": [
        {
          "name": "_int256",
          "type": "int256"
        }
      ],
      "name": "int256FunctionReturnsBytes",
      "outputs": [
        {
          "name": "__bytes",
          "type": "bytes"
        }
      ],
      "payable": false,
      "stateMutability": "pure",
      "type": "function"
    },
    {
      "constant": true,
      "inputs": [
        {
          "name": "_byte",
          "type": "bytes1"
        }
      ],
      "name": "byteFunctionReturnsAddress",
      "outputs": [
        {
          "name": "__address",
          "type": "address"
        }
      ],
      "payable": false,
      "stateMutability": "pure",
      "type": "function"
    },
    {
      "constant": true,
      "inputs": [
        {
          "name": "_address",
          "type": "address"
        }
      ],
      "name": "addressFunctionReturnsAddress",
      "outputs": [
        {
          "name": "__address",
          "type": "address"
        }
      ],
      "payable": false,
      "stateMutability": "pure",
      "type": "function"
    },
    {
      "constant": true,
      "inputs": [
        {
          "name": "_uint256",
          "type": "uint256"
        }
      ],
      "name": "uint256FunctionReturnsInt",
      "outputs": [
        {
          "name": "__int",
          "type": "int256"
        }
      ],
      "payable": false,
      "stateMutability": "pure",
      "type": "function"
    },
    {
      "constant": true,
      "inputs": [
        {
          "name": "_int256",
          "type": "int256"
        }
      ],
      "name": "int256FunctionReturnsBytes1",
      "outputs": [
        {
          "name": "__bytes1",
          "type": "bytes1"
        }
      ],
      "payable": false,
      "stateMutability": "pure",
      "type": "function"
    },
    {
      "constant": true,
      "inputs": [
        {
          "name": "_byte",
          "type": "bytes1"
        }
      ],
      "name": "byteBytes32FunctionReturnsByteBytes32",
      "outputs": [
        {
          "name": "__byte",
          "type": "bytes1"
        },
        {
          "name": "_bytes32_",
          "type": "bytes32"
        }
      ],
      "payable": false,
      "stateMutability": "pure",
      "type": "function"
    },
    {
      "constant": true,
      "inputs": [
        {
          "name": "_address",
          "type": "address"
        }
      ],
      "name": "addressFunctionReturnsInt256",
      "outputs": [
        {
          "name": "__int256",
          "type": "int256"
        }
      ],
      "payable": false,
      "stateMutability": "pure",
      "type": "function"
    },
    {
      "constant": true,
      "inputs": [
        {
          "name": "_address",
          "type": "address"
        }
      ],
      "name": "addressFunctionReturnsBytes",
      "outputs": [
        {
          "name": "__bytes",
          "type": "bytes"
        }
      ],
      "payable": false,
      "stateMutability": "pure",
      "type": "function"
    },
    {
      "constant": true,
      "inputs": [
        {
          "name": "_address",
          "type": "address"
        }
      ],
      "name": "addressInt256FunctionReturnsAddressInt256",
      "outputs": [
        {
          "name": "__address",
          "type": "address"
        },
        {
          "name": "_int256_",
          "type": "int256"
        }
      ],
      "payable": false,
      "stateMutability": "pure",
      "type": "function"
    },
    {
      "constant": true,
      "inputs": [
        {
          "name": "_bytes",
          "type": "bytes"
        }
      ],
      "name": "bytesFunctionReturnsBool",
      "outputs": [
        {
          "name": "__bool",
          "type": "bool"
        }
      ],
      "payable": false,
      "stateMutability": "pure",
      "type": "function"
    },
    {
      "constant": true,
      "inputs": [
        {
          "name": "_uint8",
          "type": "uint8"
        }
      ],
      "name": "uint8FunctionReturnsUint8",
      "outputs": [
        {
          "name": "__uint8",
          "type": "uint8"
        }
      ],
      "payable": false,
      "stateMutability": "pure",
      "type": "function"
    },
    {
      "constant": true,
      "inputs": [
        {
          "name": "_bytes",
          "type": "bytes"
        }
      ],
      "name": "bytesFunctionReturnsAddress",
      "outputs": [
        {
          "name": "__address",
          "type": "address"
        }
      ],
      "payable": false,
      "stateMutability": "pure",
      "type": "function"
    },
    {
      "constant": true,
      "inputs": [
        {
          "name": "_string",
          "type": "string"
        }
      ],
      "name": "stringFunctionReturnsUint256",
      "outputs": [
        {
          "name": "__uint256",
          "type": "uint256"
        }
      ],
      "payable": false,
      "stateMutability": "pure",
      "type": "function"
    },
    {
      "constant": true,
      "inputs": [
        {
          "name": "_address",
          "type": "address"
        }
      ],
      "name": "addressFunctionReturnsInt8",
      "outputs": [
        {
          "name": "__int8",
          "type": "int8"
        }
      ],
      "payable": false,
      "stateMutability": "pure",
      "type": "function"
    },
    {
      "constant": true,
      "inputs": [
        {
          "name": "_uint",
          "type": "uint256"
        }
      ],
      "name": "uintFunctionReturnsUint256",
      "outputs": [
        {
          "name": "__uint256",
          "type": "uint256"
        }
      ],
      "payable": false,
      "stateMutability": "pure",
      "type": "function"
    },
    {
      "constant": true,
      "inputs": [
        {
          "name": "_string",
          "type": "string"
        }
      ],
      "name": "stringFunctionReturnsString",
      "outputs": [
        {
          "name": "__string",
          "type": "string"
        }
      ],
      "payable": false,
      "stateMutability": "pure",
      "type": "function"
    },
    {
      "constant": true,
      "inputs": [
        {
          "name": "_bool",
          "type": "bool"
        }
      ],
      "name": "boolFunctionReturnsBytes",
      "outputs": [
        {
          "name": "__bytes",
          "type": "bytes"
        }
      ],
      "payable": false,
      "stateMutability": "pure",
      "type": "function"
    },
    {
      "constant": true,
      "inputs": [
        {
          "name": "_bytes",
          "type": "bytes"
        }
      ],
      "name": "bytesFunctionReturnsString",
      "outputs": [
        {
          "name": "__string",
          "type": "string"
        }
      ],
      "payable": false,
      "stateMutability": "pure",
      "type": "function"
    },
    {
      "constant": true,
      "inputs": [
        {
          "name": "_int8",
          "type": "int8"
        }
      ],
      "name": "int8FunctionReturnsInt",
      "outputs": [
        {
          "name": "__int",
          "type": "int256"
        }
      ],
      "payable": false,
      "stateMutability": "pure",
      "type": "function"
    },
    {
      "constant": true,
      "inputs": [
        {
          "name": "_uint",
          "type": "uint256"
        }
      ],
      "name": "uintFunctionReturnsUint",
      "outputs": [
        {
          "name": "__uint",
          "type": "uint256"
        }
      ],
      "payable": false,
      "stateMutability": "pure",
      "type": "function"
    },
    {
      "constant": true,
      "inputs": [
        {
          "name": "_bytes",
          "type": "bytes"
        }
      ],
      "name": "bytesFunctionReturnsUint",
      "outputs": [
        {
          "name": "__uint",
          "type": "uint256"
        }
      ],
      "payable": false,
      "stateMutability": "pure",
      "type": "function"
    },
    {
      "constant": true,
      "inputs": [
        {
          "name": "_bool",
          "type": "bool"
        }
      ],
      "name": "boolFunctionReturnsUint",
      "outputs": [
        {
          "name": "__uint",
          "type": "uint256"
        }
      ],
      "payable": false,
      "stateMutability": "pure",
      "type": "function"
    },
    {
      "constant": true,
      "inputs": [
        {
          "name": "_bytes",
          "type": "bytes"
        }
      ],
      "name": "bytesFunctionReturnsUint8",
      "outputs": [
        {
          "name": "__uint8",
          "type": "uint8"
        }
      ],
      "payable": false,
      "stateMutability": "pure",
      "type": "function"
    },
    {
      "constant": true,
      "inputs": [
        {
          "name": "_uint8",
          "type": "uint8"
        }
      ],
      "name": "uint8FunctionReturnsInt",
      "outputs": [
        {
          "name": "__int",
          "type": "int256"
        }
      ],
      "payable": false,
      "stateMutability": "pure",
      "type": "function"
    },
    {
      "constant": true,
      "inputs": [
        {
          "name": "_bytes32",
          "type": "bytes32"
        }
      ],
      "name": "bytes32FunctionReturnsInt8",
      "outputs": [
        {
          "name": "__int8",
          "type": "int8"
        }
      ],
      "payable": false,
      "stateMutability": "pure",
      "type": "function"
    },
    {
      "constant": true,
      "inputs": [
        {
          "name": "_string",
          "type": "string"
        }
      ],
      "name": "stringFunctionReturnsBytes32",
      "outputs": [
        {
          "name": "__bytes32",
          "type": "bytes32"
        }
      ],
      "payable": false,
      "stateMutability": "pure",
      "type": "function"
    },
    {
      "constant": true,
      "inputs": [
        {
          "name": "_uint256",
          "type": "uint256"
        }
      ],
      "name": "uint256FunctionReturnsInt256",
      "outputs": [
        {
          "name": "__int256",
          "type": "int256"
        }
      ],
      "payable": false,
      "stateMutability": "pure",
      "type": "function"
    },
    {
      "constant": true,
      "inputs": [
        {
          "name": "_uint",
          "type": "uint256"
        }
      ],
      "name": "uintFunctionReturnsBytes",
      "outputs": [
        {
          "name": "__bytes",
          "type": "bytes"
        }
      ],
      "payable": false,
      "stateMutability": "pure",
      "type": "function"
    },
    {
      "constant": true,
      "inputs": [
        {
          "name": "_byte",
          "type": "bytes1"
        }
      ],
      "name": "byteFunctionReturnsInt256",
      "outputs": [
        {
          "name": "__int256",
          "type": "int256"
        }
      ],
      "payable": false,
      "stateMutability": "pure",
      "type": "function"
    },
    {
      "constant": true,
      "inputs": [
        {
          "name": "_int256",
          "type": "int256"
        }
      ],
      "name": "int256FunctionReturnsInt256",
      "outputs": [
        {
          "name": "__int256",
          "type": "int256"
        }
      ],
      "payable": false,
      "stateMutability": "pure",
      "type": "function"
    },
    {
      "constant": true,
      "inputs": [
        {
          "name": "_int",
          "type": "int256"
        }
      ],
      "name": "intFunctionReturnsString",
      "outputs": [
        {
          "name": "__string",
          "type": "string"
        }
      ],
      "payable": false,
      "stateMutability": "pure",
      "type": "function"
    },
    {
      "constant": true,
      "inputs": [
        {
          "name": "_uint",
          "type": "uint256"
        }
      ],
      "name": "uintFunctionReturnsInt",
      "outputs": [
        {
          "name": "__int",
          "type": "int256"
        }
      ],
      "payable": false,
      "stateMutability": "pure",
      "type": "function"
    },
    {
      "constant": true,
      "inputs": [
        {
          "name": "_string",
          "type": "string"
        }
      ],
      "name": "stringFunctionReturnsInt",
      "outputs": [
        {
          "name": "__int",
          "type": "int256"
        }
      ],
      "payable": false,
      "stateMutability": "pure",
      "type": "function"
    },
    {
      "constant": true,
      "inputs": [
        {
          "name": "_uint",
          "type": "uint256"
        }
      ],
      "name": "uintFunctionReturnsUint8",
      "outputs": [
        {
          "name": "__uint8",
          "type": "uint8"
        }
      ],
      "payable": false,
      "stateMutability": "pure",
      "type": "function"
    },
    {
      "constant": true,
      "inputs": [
        {
          "name": "_uint",
          "type": "uint256"
        }
      ],
      "name": "uintFunctionReturnsString",
      "outputs": [
        {
          "name": "__string",
          "type": "string"
        }
      ],
      "payable": false,
      "stateMutability": "pure",
      "type": "function"
    },
    {
      "constant": true,
      "inputs": [
        {
          "name": "_bool",
          "type": "bool"
        }
      ],
      "name": "boolFunctionReturnsUint256",
      "outputs": [
        {
          "name": "__uint256",
          "type": "uint256"
        }
      ],
      "payable": false,
      "stateMutability": "pure",
      "type": "function"
    },
    {
      "constant": true,
      "inputs": [
        {
          "name": "_bool",
          "type": "bool"
        }
      ],
      "name": "boolFunctionReturnsInt256",
      "outputs": [
        {
          "name": "__int256",
          "type": "int256"
        }
      ],
      "payable": false,
      "stateMutability": "pure",
      "type": "function"
    },
    {
      "constant": true,
      "inputs": [
        {
          "name": "_byte",
          "type": "bytes1"
        }
      ],
      "name": "byteFunctionReturnsUint256",
      "outputs": [
        {
          "name": "__uint256",
          "type": "uint256"
        }
      ],
      "payable": false,
      "stateMutability": "pure",
      "type": "function"
    },
    {
      "constant": true,
      "inputs": [
        {
          "name": "_uint8",
          "type": "uint8"
        }
      ],
      "name": "uint8FunctionReturnsBytes32",
      "outputs": [
        {
          "name": "__bytes32",
          "type": "bytes32"
        }
      ],
      "payable": false,
      "stateMutability": "pure",
      "type": "function"
    },
    {
      "constant": true,
      "inputs": [
        {
          "name": "_bytes",
          "type": "bytes"
        }
      ],
      "name": "bytesFunctionReturnsBytes1",
      "outputs": [
        {
          "name": "__bytes1",
          "type": "bytes1"
        }
      ],
      "payable": false,
      "stateMutability": "pure",
      "type": "function"
    },
    {
      "constant": true,
      "inputs": [
        {
          "name": "_bytes32",
          "type": "bytes32"
        }
      ],
      "name": "bytes32FunctionReturnsUint8",
      "outputs": [
        {
          "name": "__uint8",
          "type": "uint8"
        }
      ],
      "payable": false,
      "stateMutability": "pure",
      "type": "function"
    },
    {
      "constant": true,
      "inputs": [
        {
          "name": "_int8",
          "type": "int8"
        }
      ],
      "name": "int8FunctionReturnsBytes32",
      "outputs": [
        {
          "name": "__bytes32",
          "type": "bytes32"
        }
      ],
      "payable": false,
      "stateMutability": "pure",
      "type": "function"
    },
    {
      "constant": true,
      "inputs": [
        {
          "name": "_bytes32",
          "type": "bytes32"
        }
      ],
      "name": "bytes32FunctionReturnsBytes32",
      "outputs": [
        {
          "name": "__bytes32",
          "type": "bytes32"
        }
      ],
      "payable": false,
      "stateMutability": "pure",
      "type": "function"
    },
    {
      "constant": true,
      "inputs": [
        {
          "name": "_address",
          "type": "address"
        }
      ],
      "name": "addressFunctionReturnsUint",
      "outputs": [
        {
          "name": "__uint",
          "type": "uint256"
        }
      ],
      "payable": false,
      "stateMutability": "pure",
      "type": "function"
    },
    {
      "constant": true,
      "inputs": [
        {
          "name": "_bytes32",
          "type": "bytes32"
        }
      ],
      "name": "bytes32FunctionReturnsInt256",
      "outputs": [
        {
          "name": "__int256",
          "type": "int256"
        }
      ],
      "payable": false,
      "stateMutability": "pure",
      "type": "function"
    },
    {
      "constant": true,
      "inputs": [
        {
          "name": "_bytes",
          "type": "bytes"
        }
      ],
      "name": "bytesFunctionReturnsBytes32",
      "outputs": [
        {
          "name": "__bytes32",
          "type": "bytes32"
        }
      ],
      "payable": false,
      "stateMutability": "pure",
      "type": "function"
    },
    {
      "constant": true,
      "inputs": [
        {
          "name": "_bytes",
          "type": "bytes"
        }
      ],
      "name": "bytesInt256FunctionReturnsBytesInt256",
      "outputs": [
        {
          "name": "__bytes",
          "type": "bytes"
        },
        {
          "name": "_int256_",
          "type": "int256"
        }
      ],
      "payable": false,
      "stateMutability": "pure",
      "type": "function"
    },
    {
      "constant": true,
      "inputs": [
        {
          "name": "_bool",
          "type": "bool"
        }
      ],
      "name": "boolFunctionReturnsByte",
      "outputs": [
        {
          "name": "__byte",
          "type": "bytes1"
        }
      ],
      "payable": false,
      "stateMutability": "pure",
      "type": "function"
    },
    {
      "constant": true,
      "inputs": [
        {
          "name": "_uint",
          "type": "uint256"
        }
      ],
      "name": "uintFunctionReturnsByte",
      "outputs": [
        {
          "name": "__byte",
          "type": "bytes1"
        }
      ],
      "payable": false,
      "stateMutability": "pure",
      "type": "function"
    },
    {
      "constant": true,
      "inputs": [
        {
          "name": "_int256",
          "type": "int256"
        }
      ],
      "name": "int256FunctionReturnsBool",
      "outputs": [
        {
          "name": "__bool",
          "type": "bool"
        }
      ],
      "payable": false,
      "stateMutability": "pure",
      "type": "function"
    },
    {
      "constant": true,
      "inputs": [
        {
          "name": "_string",
          "type": "string"
        }
      ],
      "name": "stringFunctionReturnsUint",
      "outputs": [
        {
          "name": "__uint",
          "type": "uint256"
        }
      ],
      "payable": false,
      "stateMutability": "pure",
      "type": "function"
    },
    {
      "constant": true,
      "inputs": [
        {
          "name": "_bytes32",
          "type": "bytes32"
        }
      ],
      "name": "bytes32FunctionReturnsBytes1",
      "outputs": [
        {
          "name": "__bytes1",
          "type": "bytes1"
        }
      ],
      "payable": false,
      "stateMutability": "pure",
      "type": "function"
    },
    {
      "constant": true,
      "inputs": [
        {
          "name": "_uint8",
          "type": "uint8"
        }
      ],
      "name": "uint8FunctionReturnsInt8",
      "outputs": [
        {
          "name": "__int8",
          "type": "int8"
        }
      ],
      "payable": false,
      "stateMutability": "pure",
      "type": "function"
    },
    {
      "constant": true,
      "inputs": [
        {
          "name": "_uint256",
          "type": "uint256"
        }
      ],
      "name": "uint256FunctionReturnsBytes1",
      "outputs": [
        {
          "name": "__bytes1",
          "type": "bytes1"
        }
      ],
      "payable": false,
      "stateMutability": "pure",
      "type": "function"
    },
    {
      "constant": true,
      "inputs": [
        {
          "name": "_string",
          "type": "string"
        }
      ],
      "name": "stringFunctionReturnsByte",
      "outputs": [
        {
          "name": "__byte",
          "type": "bytes1"
        }
      ],
      "payable": false,
      "stateMutability": "pure",
      "type": "function"
    },
    {
      "constant": true,
      "inputs": [
        {
          "name": "_bytes",
          "type": "bytes"
        }
      ],
      "name": "bytesFunctionReturnsBytes",
      "outputs": [
        {
          "name": "__bytes",
          "type": "bytes"
        }
      ],
      "payable": false,
      "stateMutability": "pure",
      "type": "function"
    },
    {
      "constant": true,
      "inputs": [
        {
          "name": "_uint8",
          "type": "uint8"
        }
      ],
      "name": "uint8FunctionReturnsUint",
      "outputs": [
        {
          "name": "__uint",
          "type": "uint256"
        }
      ],
      "payable": false,
      "stateMutability": "pure",
      "type": "function"
    },
    {
      "constant": true,
      "inputs": [
        {
          "name": "_bool",
          "type": "bool"
        }
      ],
      "name": "boolFunctionReturnsInt",
      "outputs": [
        {
          "name": "__int",
          "type": "int256"
        }
      ],
      "payable": false,
      "stateMutability": "pure",
      "type": "function"
    },
    {
      "constant": true,
      "inputs": [
        {
          "name": "_bool",
          "type": "bool"
        }
      ],
      "name": "boolFunctionReturnsBytes1",
      "outputs": [
        {
          "name": "__bytes1",
          "type": "bytes1"
        }
      ],
      "payable": false,
      "stateMutability": "pure",
      "type": "function"
    },
    {
      "constant": true,
      "inputs": [
        {
          "name": "_uint8",
          "type": "uint8"
        }
      ],
      "name": "uint8FunctionReturnsBool",
      "outputs": [
        {
          "name": "__bool",
          "type": "bool"
        }
      ],
      "payable": false,
      "stateMutability": "pure",
      "type": "function"
    },
    {
      "constant": true,
      "inputs": [
        {
          "name": "_string",
          "type": "string"
        }
      ],
      "name": "stringInt256FunctionReturnsStringInt256",
      "outputs": [
        {
          "name": "__string",
          "type": "string"
        },
        {
          "name": "_int256_",
          "type": "int256"
        }
      ],
      "payable": false,
      "stateMutability": "pure",
      "type": "function"
    },
    {
      "constant": true,
      "inputs": [
        {
          "name": "_int256",
          "type": "int256"
        }
      ],
      "name": "int256FunctionReturnsUint256",
      "outputs": [
        {
          "name": "__uint256",
          "type": "uint256"
        }
      ],
      "payable": false,
      "stateMutability": "pure",
      "type": "function"
    },
    {
      "constant": true,
      "inputs": [
        {
          "name": "_address",
          "type": "address"
        }
      ],
      "name": "addressFunctionReturnsBytes32",
      "outputs": [
        {
          "name": "__bytes32",
          "type": "bytes32"
        }
      ],
      "payable": false,
      "stateMutability": "pure",
      "type": "function"
    },
    {
      "constant": true,
      "inputs": [
        {
          "name": "_int8",
          "type": "int8"
        }
      ],
      "name": "int8IntFunctionReturnsInt8Int",
      "outputs": [
        {
          "name": "__int8",
          "type": "int8"
        },
        {
          "name": "_int_",
          "type": "int256"
        }
      ],
      "payable": false,
      "stateMutability": "pure",
      "type": "function"
    },
    {
      "constant": true,
      "inputs": [
        {
          "name": "_int",
          "type": "int256"
        }
      ],
      "name": "intFunctionReturnsInt256",
      "outputs": [
        {
          "name": "__int256",
          "type": "int256"
        }
      ],
      "payable": false,
      "stateMutability": "pure",
      "type": "function"
    },
    {
      "constant": true,
      "inputs": [
        {
          "name": "_bytes1",
          "type": "bytes1"
        }
      ],
      "name": "bytes1FunctionReturnsUint256",
      "outputs": [
        {
          "name": "__uint256",
          "type": "uint256"
        }
      ],
      "payable": false,
      "stateMutability": "pure",
      "type": "function"
    },
    {
      "constant": true,
      "inputs": [
        {
          "name": "_byte",
          "type": "bytes1"
        }
      ],
      "name": "byteFunctionReturnsUint8",
      "outputs": [
        {
          "name": "__uint8",
          "type": "uint8"
        }
      ],
      "payable": false,
      "stateMutability": "pure",
      "type": "function"
    },
    {
      "constant": true,
      "inputs": [
        {
          "name": "_int",
          "type": "int256"
        }
      ],
      "name": "intFunctionReturnsUint256",
      "outputs": [
        {
          "name": "__uint256",
          "type": "uint256"
        }
      ],
      "payable": false,
      "stateMutability": "pure",
      "type": "function"
    },
    {
      "constant": true,
      "inputs": [
        {
          "name": "_string",
          "type": "string"
        }
      ],
      "name": "stringFunctionReturnsUint8",
      "outputs": [
        {
          "name": "__uint8",
          "type": "uint8"
        }
      ],
      "payable": false,
      "stateMutability": "pure",
      "type": "function"
    },
    {
      "constant": true,
      "inputs": [
        {
          "name": "_address",
          "type": "address"
        }
      ],
      "name": "addressFunctionReturnsUint256",
      "outputs": [
        {
          "name": "__uint256",
          "type": "uint256"
        }
      ],
      "payable": false,
      "stateMutability": "pure",
      "type": "function"
    },
    {
      "constant": true,
      "inputs": [
        {
          "name": "_int256",
          "type": "int256"
        }
      ],
      "name": "int256IntFunctionReturnsInt256Int",
      "outputs": [
        {
          "name": "__int256",
          "type": "int256"
        },
        {
          "name": "_int_",
          "type": "int256"
        }
      ],
      "payable": false,
      "stateMutability": "pure",
      "type": "function"
    },
    {
      "constant": true,
      "inputs": [
        {
          "name": "_int",
          "type": "int256"
        }
      ],
      "name": "intFunctionReturnsInt8",
      "outputs": [
        {
          "name": "__int8",
          "type": "int8"
        }
      ],
      "payable": false,
      "stateMutability": "pure",
      "type": "function"
    },
    {
      "constant": true,
      "inputs": [
        {
          "name": "_bytes1",
          "type": "bytes1"
        }
      ],
      "name": "bytes1FunctionReturnsInt8",
      "outputs": [
        {
          "name": "__int8",
          "type": "int8"
        }
      ],
      "payable": false,
      "stateMutability": "pure",
      "type": "function"
    },
    {
      "constant": true,
      "inputs": [
        {
          "name": "_int",
          "type": "int256"
        }
      ],
      "name": "intFunctionReturnsAddress",
      "outputs": [
        {
          "name": "__address",
          "type": "address"
        }
      ],
      "payable": false,
      "stateMutability": "pure",
      "type": "function"
    },
    {
      "constant": true,
      "inputs": [
        {
          "name": "_uint256",
          "type": "uint256"
        }
      ],
      "name": "uint256FunctionReturnsUint",
      "outputs": [
        {
          "name": "__uint",
          "type": "uint256"
        }
      ],
      "payable": false,
      "stateMutability": "pure",
      "type": "function"
    },
    {
      "constant": true,
      "inputs": [
        {
          "name": "_address",
          "type": "address"
        }
      ],
      "name": "addressFunctionReturnsBool",
      "outputs": [
        {
          "name": "__bool",
          "type": "bool"
        }
      ],
      "payable": false,
      "stateMutability": "pure",
      "type": "function"
    },
    {
      "constant": true,
      "inputs": [
        {
          "name": "_address",
          "type": "address"
        }
      ],
      "name": "addressFunctionReturnsByte",
      "outputs": [
        {
          "name": "__byte",
          "type": "bytes1"
        }
      ],
      "payable": false,
      "stateMutability": "pure",
      "type": "function"
    },
    {
      "constant": true,
      "inputs": [
        {
          "name": "_int",
          "type": "int256"
        }
      ],
      "name": "intFunctionReturnsBytes1",
      "outputs": [
        {
          "name": "__bytes1",
          "type": "bytes1"
        }
      ],
      "payable": false,
      "stateMutability": "pure",
      "type": "function"
    },
    {
      "constant": true,
      "inputs": [
        {
          "name": "_string",
          "type": "string"
        }
      ],
      "name": "stringFunctionReturnsBool",
      "outputs": [
        {
          "name": "__bool",
          "type": "bool"
        }
      ],
      "payable": false,
      "stateMutability": "pure",
      "type": "function"
    },
    {
      "constant": true,
      "inputs": [
        {
          "name": "_bytes1",
          "type": "bytes1"
        }
      ],
      "name": "bytes1FunctionReturnsByte",
      "outputs": [
        {
          "name": "__byte",
          "type": "bytes1"
        }
      ],
      "payable": false,
      "stateMutability": "pure",
      "type": "function"
    },
    {
      "constant": true,
      "inputs": [
        {
          "name": "_uint256",
          "type": "uint256"
        }
      ],
      "name": "uint256Bytes1FunctionReturnsUint256Bytes1",
      "outputs": [
        {
          "name": "__uint256",
          "type": "uint256"
        },
        {
          "name": "_bytes1_",
          "type": "bytes1"
        }
      ],
      "payable": false,
      "stateMutability": "pure",
      "type": "function"
    },
    {
      "constant": true,
      "inputs": [
        {
          "name": "_address",
          "type": "address"
        }
      ],
      "name": "addressFunctionReturnsBytes1",
      "outputs": [
        {
          "name": "__bytes1",
          "type": "bytes1"
        }
      ],
      "payable": false,
      "stateMutability": "pure",
      "type": "function"
    },
    {
      "constant": true,
      "inputs": [
        {
          "name": "_uint256",
          "type": "uint256"
        }
      ],
      "name": "uint256FunctionReturnsByte",
      "outputs": [
        {
          "name": "__byte",
          "type": "bytes1"
        }
      ],
      "payable": false,
      "stateMutability": "pure",
      "type": "function"
    },
    {
      "constant": true,
      "inputs": [
        {
          "name": "_byte",
          "type": "bytes1"
        }
      ],
      "name": "byteFunctionReturnsBytes32",
      "outputs": [
        {
          "name": "__bytes32",
          "type": "bytes32"
        }
      ],
      "payable": false,
      "stateMutability": "pure",
      "type": "function"
    },
    {
      "constant": true,
      "inputs": [
        {
          "name": "_bytes1",
          "type": "bytes1"
        }
      ],
      "name": "bytes1FunctionReturnsInt",
      "outputs": [
        {
          "name": "__int",
          "type": "int256"
        }
      ],
      "payable": false,
      "stateMutability": "pure",
      "type": "function"
    },
    {
      "constant": true,
      "inputs": [
        {
          "name": "_bytes",
          "type": "bytes"
        }
      ],
      "name": "bytesFunctionReturnsByte",
      "outputs": [
        {
          "name": "__byte",
          "type": "bytes1"
        }
      ],
      "payable": false,
      "stateMutability": "pure",
      "type": "function"
    },
    {
      "constant": true,
      "inputs": [
        {
          "name": "_int8",
          "type": "int8"
        }
      ],
      "name": "int8FunctionReturnsUint256",
      "outputs": [
        {
          "name": "__uint256",
          "type": "uint256"
        }
      ],
      "payable": false,
      "stateMutability": "pure",
      "type": "function"
    },
    {
      "constant": true,
      "inputs": [
        {
          "name": "_int256",
          "type": "int256"
        }
      ],
      "name": "int256FunctionReturnsInt8",
      "outputs": [
        {
          "name": "__int8",
          "type": "int8"
        }
      ],
      "payable": false,
      "stateMutability": "pure",
      "type": "function"
    },
    {
      "constant": true,
      "inputs": [
        {
          "name": "_bytes32",
          "type": "bytes32"
        }
      ],
      "name": "bytes32Bytes1FunctionReturnsBytes32Bytes1",
      "outputs": [
        {
          "name": "__bytes32",
          "type": "bytes32"
        },
        {
          "name": "_bytes1_",
          "type": "bytes1"
        }
      ],
      "payable": false,
      "stateMutability": "pure",
      "type": "function"
    },
    {
      "constant": true,
      "inputs": [
        {
          "name": "_uint8",
          "type": "uint8"
        }
      ],
      "name": "uint8FunctionReturnsBytes1",
      "outputs": [
        {
          "name": "__bytes1",
          "type": "bytes1"
        }
      ],
      "payable": false,
      "stateMutability": "pure",
      "type": "function"
    },
    {
      "constant": true,
      "inputs": [
        {
          "name": "_int8",
          "type": "int8"
        }
      ],
      "name": "int8FunctionReturnsBool",
      "outputs": [
        {
          "name": "__bool",
          "type": "bool"
        }
      ],
      "payable": false,
      "stateMutability": "pure",
      "type": "function"
    },
    {
      "inputs": [
        {
          "name": "_bytes",
          "type": "bytes"
        }
      ],
      "payable": false,
      "stateMutability": "pure",
      "type": "function",
      "constant": true,
      "name": "bytesFunctionReturnsInt8",
      "outputs": [
        {
          "name": "__int8",
          "type": "int8"
        }
      ]
    },
    {
      "anonymous": false,
      "inputs": [
        {
          "indexed": false,
          "name": "_bytes32",
          "type": "bytes32"
        }
      ],
      "name": "bytes32FunctionReturnsAddress",
      "type": "function",
      "constant": true,
      "outputs": [
        {
          "name": "__address",
          "type": "address"
        }
      ],
      "payable": false,
      "stateMutability": "pure"
    },
    {
      "anonymous": false,
      "inputs": [
        {
          "indexed": false,
          "name": "_int",
          "type": "int256"
        }
      ],
      "name": "intFunctionReturnsByte",
      "type": "function",
      "constant": true,
      "outputs": [
        {
          "name": "__byte",
          "type": "bytes1"
        }
      ],
      "payable": false,
      "stateMutability": "pure"
    },
    {
      "anonymous": false,
      "inputs": [
        {
          "indexed": false,
          "name": "_bytes1",
          "type": "bytes1"
        }
      ],
      "name": "bytes1FunctionReturnsUint8",
      "type": "function",
      "constant": true,
      "outputs": [
        {
          "name": "__uint8",
          "type": "uint8"
        }
      ],
      "payable": false,
      "stateMutability": "pure"
    },
    {
      "anonymous": false,
      "inputs": [
        {
          "indexed": false,
          "name": "_uint",
          "type": "uint256"
        }
      ],
      "name": "uintFunctionReturnsAddress",
      "type": "function",
      "constant": true,
      "outputs": [
        {
          "name": "__address",
          "type": "address"
        }
      ],
      "payable": false,
      "stateMutability": "pure"
    },
    {
      "anonymous": false,
      "inputs": [
        {
          "indexed": false,
          "name": "_byte",
          "type": "bytes1"
        }
      ],
      "name": "byteFunctionReturnsBool",
      "type": "function",
      "constant": true,
      "outputs": [
        {
          "name": "__bool",
          "type": "bool"
        }
      ],
      "payable": false,
      "stateMutability": "pure"
    },
    {
      "anonymous": false,
      "inputs": [
        {
          "indexed": false,
          "name": "_int",
          "type": "int256"
        }
      ],
      "name": "intFunctionReturnsBool",
      "type": "function",
      "constant": true,
      "outputs": [
        {
          "name": "__bool",
          "type": "bool"
        }
      ],
      "payable": false,
      "stateMutability": "pure"
    },
    {
      "anonymous": false,
      "inputs": [
        {
          "indexed": false,
          "name": "_bytes1",
          "type": "bytes1"
        }
      ],
      "name": "bytes1FunctionReturnsString",
      "type": "function",
      "constant": true,
      "outputs": [
        {
          "name": "__string",
          "type": "string"
        }
      ],
      "payable": false,
      "stateMutability": "pure"
    },
    {
      "anonymous": false,
      "inputs": [
        {
          "indexed": false,
          "name": "_bytes32",
          "type": "bytes32"
        }
      ],
      "name": "bytes32FunctionReturnsUint256",
      "type": "function",
      "constant": true,
      "outputs": [
        {
          "name": "__uint256",
          "type": "uint256"
        }
      ],
      "payable": false,
      "stateMutability": "pure"
    },
    {
      "anonymous": false,
      "inputs": [
        {
          "indexed": false,
          "name": "_address",
          "type": "address"
        }
      ],
      "name": "addressFunctionReturnsString",
      "type": "function",
      "constant": true,
      "outputs": [
        {
          "name": "__string",
          "type": "string"
        }
      ],
      "payable": false,
      "stateMutability": "pure"
    },
    {
      "anonymous": false,
      "inputs": [
        {
          "indexed": false,
          "name": "_int",
          "type": "int256"
        }
      ],
      "name": "intFunctionReturnsUint",
      "type": "function",
      "constant": true,
      "outputs": [
        {
          "name": "__uint",
          "type": "uint256"
        }
      ],
      "payable": false,
      "stateMutability": "pure"
    },
    {
      "anonymous": false,
      "inputs": [
        {
          "indexed": false,
          "name": "_int256",
          "type": "int256"
        }
      ],
      "name": "int256FunctionReturnsBytes32",
      "type": "function",
      "constant": true,
      "outputs": [
        {
          "name": "__bytes32",
          "type": "bytes32"
        }
      ],
      "payable": false,
      "stateMutability": "pure"
    },
    {
      "anonymous": false,
      "inputs": [
        {
          "indexed": false,
          "name": "_bytes1",
          "type": "bytes1"
        }
      ],
      "name": "bytes1FunctionReturnsBool",
      "type": "function",
      "constant": true,
      "outputs": [
        {
          "name": "__bool",
          "type": "bool"
        }
      ],
      "payable": false,
      "stateMutability": "pure"
    },
    {
      "anonymous": false,
      "inputs": [
        {
          "indexed": false,
          "name": "__string",
          "type": "string"
        }
      ],
      "name": "boolEventReturnsstring",
      "type": "constructor",
      "payable": false,
      "stateMutability": "nonpayable"
    },
    {
      "anonymous": false,
      "inputs": [
        {
          "indexed": false,
          "name": "__bool",
          "type": "bool"
        }
      ],
      "name": "BoolEventReturnsBool",
      "type": "event"
    },
    {
      "anonymous": false,
      "inputs": [
        {
          "indexed": false,
          "name": "__int",
          "type": "int256"
        }
      ],
      "name": "BoolEventReturnsInt",
      "type": "event"
    },
    {
      "anonymous": false,
      "inputs": [
        {
          "indexed": false,
          "name": "__int8",
          "type": "int8"
        }
      ],
      "name": "BoolEventReturnsInt8",
      "type": "event"
    },
    {
      "anonymous": false,
      "inputs": [
        {
          "indexed": false,
          "name": "__int256",
          "type": "int256"
        }
      ],
      "name": "BoolEventReturnsInt256",
      "type": "event"
    },
    {
      "anonymous": false,
      "inputs": [
        {
          "indexed": false,
          "name": "__uint",
          "type": "uint256"
        }
      ],
      "name": "BoolEventReturnsUint",
      "type": "event"
    },
    {
      "anonymous": false,
      "inputs": [
        {
          "indexed": false,
          "name": "__uint8",
          "type": "uint8"
        }
      ],
      "name": "BoolEventReturnsUint8",
      "type": "event"
    },
    {
      "anonymous": false,
      "inputs": [
        {
          "indexed": false,
          "name": "__uint256",
          "type": "uint256"
        }
      ],
      "name": "BoolEventReturnsUint256",
      "type": "event"
    },
    {
      "anonymous": false,
      "inputs": [
        {
          "indexed": false,
          "name": "__address",
          "type": "address"
        }
      ],
      "name": "BoolEventReturnsAddress",
      "type": "event"
    },
    {
      "anonymous": false,
      "inputs": [
        {
          "indexed": false,
          "name": "__byte",
          "type": "bytes1"
        }
      ],
      "name": "BoolEventReturnsByte",
      "type": "event"
    },
    {
      "anonymous": false,
      "inputs": [
        {
          "indexed": false,
          "name": "__bytes1",
          "type": "bytes1"
        }
      ],
      "name": "BoolEventReturnsBytes1",
      "type": "event"
    },
    {
      "anonymous": false,
      "inputs": [
        {
          "indexed": false,
          "name": "__bytes32",
          "type": "bytes32"
        }
      ],
      "name": "BoolEventReturnsBytes32",
      "type": "event"
    },
    {
      "anonymous": false,
      "inputs": [
        {
          "indexed": false,
          "name": "__bytes",
          "type": "bytes"
        }
      ],
      "name": "BoolEventReturnsBytes",
      "type": "event"
    },
    {
      "anonymous": false,
      "inputs": [
        {
          "indexed": false,
          "name": "__string",
          "type": "string"
        }
      ],
      "name": "BoolEventReturnsString",
      "type": "event"
    },
    {
      "anonymous": false,
      "inputs": [
        {
          "indexed": false,
          "name": "__bool",
          "type": "bool"
        }
      ],
      "name": "IntEventReturnsBool",
      "type": "event"
    },
    {
      "anonymous": false,
      "inputs": [
        {
          "indexed": false,
          "name": "__int",
          "type": "int256"
        }
      ],
      "name": "IntEventReturnsInt",
      "type": "event"
    },
    {
      "anonymous": false,
      "inputs": [
        {
          "indexed": false,
          "name": "__int8",
          "type": "int8"
        }
      ],
      "name": "IntEventReturnsInt8",
      "type": "event"
    },
    {
      "anonymous": false,
      "inputs": [
        {
          "indexed": false,
          "name": "__int256",
          "type": "int256"
        }
      ],
      "name": "IntEventReturnsInt256",
      "type": "event"
    },
    {
      "anonymous": false,
      "inputs": [
        {
          "indexed": false,
          "name": "__uint",
          "type": "uint256"
        }
      ],
      "name": "IntEventReturnsUint",
      "type": "event"
    },
    {
      "anonymous": false,
      "inputs": [
        {
          "indexed": false,
          "name": "__uint8",
          "type": "uint8"
        }
      ],
      "name": "IntEventReturnsUint8",
      "type": "event"
    },
    {
      "anonymous": false,
      "inputs": [
        {
          "indexed": false,
          "name": "__uint256",
          "type": "uint256"
        }
      ],
      "name": "IntEventReturnsUint256",
      "type": "event"
    },
    {
      "anonymous": false,
      "inputs": [
        {
          "indexed": false,
          "name": "__address",
          "type": "address"
        }
      ],
      "name": "IntEventReturnsAddress",
      "type": "event"
    },
    {
      "anonymous": false,
      "inputs": [
        {
          "indexed": false,
          "name": "__byte",
          "type": "bytes1"
        }
      ],
      "name": "IntEventReturnsByte",
      "type": "event"
    },
    {
      "anonymous": false,
      "inputs": [
        {
          "indexed": false,
          "name": "__bytes1",
          "type": "bytes1"
        }
      ],
      "name": "IntEventReturnsBytes1",
      "type": "event"
    },
    {
      "anonymous": false,
      "inputs": [
        {
          "indexed": false,
          "name": "__bytes32",
          "type": "bytes32"
        }
      ],
      "name": "IntEventReturnsBytes32",
      "type": "event"
    },
    {
      "anonymous": false,
      "inputs": [
        {
          "indexed": false,
          "name": "__bytes",
          "type": "bytes"
        }
      ],
      "name": "IntEventReturnsBytes",
      "type": "event"
    },
    {
      "anonymous": false,
      "inputs": [
        {
          "indexed": false,
          "name": "__string",
          "type": "string"
        }
      ],
      "name": "IntEventReturnsString",
      "type": "event"
    },
    {
      "anonymous": false,
      "inputs": [
        {
          "indexed": false,
          "name": "__bool",
          "type": "bool"
        }
      ],
      "name": "Int8EventReturnsBool",
      "type": "event"
    },
    {
      "anonymous": false,
      "inputs": [
        {
          "indexed": false,
          "name": "__int",
          "type": "int256"
        }
      ],
      "name": "Int8EventReturnsInt",
      "type": "event"
    },
    {
      "anonymous": false,
      "inputs": [
        {
          "indexed": false,
          "name": "__int8",
          "type": "int8"
        }
      ],
      "name": "Int8EventReturnsInt8",
      "type": "event"
    },
    {
      "anonymous": false,
      "inputs": [
        {
          "indexed": false,
          "name": "__int256",
          "type": "int256"
        }
      ],
      "name": "Int8EventReturnsInt256",
      "type": "event"
    },
    {
      "anonymous": false,
      "inputs": [
        {
          "indexed": false,
          "name": "__uint",
          "type": "uint256"
        }
      ],
      "name": "Int8EventReturnsUint",
      "type": "event"
    },
    {
      "anonymous": false,
      "inputs": [
        {
          "indexed": false,
          "name": "__uint8",
          "type": "uint8"
        }
      ],
      "name": "Int8EventReturnsUint8",
      "type": "event"
    },
    {
      "anonymous": false,
      "inputs": [
        {
          "indexed": false,
          "name": "__uint256",
          "type": "uint256"
        }
      ],
      "name": "Int8EventReturnsUint256",
      "type": "event"
    },
    {
      "anonymous": false,
      "inputs": [
        {
          "indexed": false,
          "name": "__address",
          "type": "address"
        }
      ],
      "name": "Int8EventReturnsAddress",
      "type": "event"
    },
    {
      "anonymous": false,
      "inputs": [
        {
          "indexed": false,
          "name": "__byte",
          "type": "bytes1"
        }
      ],
      "name": "Int8EventReturnsByte",
      "type": "event"
    },
    {
      "anonymous": false,
      "inputs": [
        {
          "indexed": false,
          "name": "__bytes1",
          "type": "bytes1"
        }
      ],
      "name": "Int8EventReturnsBytes1",
      "type": "event"
    },
    {
      "anonymous": false,
      "inputs": [
        {
          "indexed": false,
          "name": "__bytes32",
          "type": "bytes32"
        }
      ],
      "name": "Int8EventReturnsBytes32",
      "type": "event"
    },
    {
      "anonymous": false,
      "inputs": [
        {
          "indexed": false,
          "name": "__bytes",
          "type": "bytes"
        }
      ],
      "name": "Int8EventReturnsBytes",
      "type": "event"
    },
    {
      "anonymous": false,
      "inputs": [
        {
          "indexed": false,
          "name": "__string",
          "type": "string"
        }
      ],
      "name": "Int8EventReturnsString",
      "type": "event"
    },
    {
      "anonymous": false,
      "inputs": [
        {
          "indexed": false,
          "name": "__bool",
          "type": "bool"
        }
      ],
      "name": "Int256EventReturnsBool",
      "type": "event"
    },
    {
      "anonymous": false,
      "inputs": [
        {
          "indexed": false,
          "name": "__int",
          "type": "int256"
        }
      ],
      "name": "Int256EventReturnsInt",
      "type": "event"
    },
    {
      "anonymous": false,
      "inputs": [
        {
          "indexed": false,
          "name": "__int8",
          "type": "int8"
        }
      ],
      "name": "Int256EventReturnsInt8",
      "type": "event"
    },
    {
      "anonymous": false,
      "inputs": [
        {
          "indexed": false,
          "name": "__int256",
          "type": "int256"
        }
      ],
      "name": "Int256EventReturnsInt256",
      "type": "event"
    },
    {
      "anonymous": false,
      "inputs": [
        {
          "indexed": false,
          "name": "__uint",
          "type": "uint256"
        }
      ],
      "name": "Int256EventReturnsUint",
      "type": "event"
    },
    {
      "anonymous": false,
      "inputs": [
        {
          "indexed": false,
          "name": "__uint8",
          "type": "uint8"
        }
      ],
      "name": "Int256EventReturnsUint8",
      "type": "event"
    },
    {
      "anonymous": false,
      "inputs": [
        {
          "indexed": false,
          "name": "__uint256",
          "type": "uint256"
        }
      ],
      "name": "Int256EventReturnsUint256",
      "type": "event"
    },
    {
      "anonymous": false,
      "inputs": [
        {
          "indexed": false,
          "name": "__address",
          "type": "address"
        }
      ],
      "name": "Int256EventReturnsAddress",
      "type": "event"
    },
    {
      "anonymous": false,
      "inputs": [
        {
          "indexed": false,
          "name": "__byte",
          "type": "bytes1"
        }
      ],
      "name": "Int256EventReturnsByte",
      "type": "event"
    },
    {
      "anonymous": false,
      "inputs": [
        {
          "indexed": false,
          "name": "__bytes1",
          "type": "bytes1"
        }
      ],
      "name": "Int256EventReturnsBytes1",
      "type": "event"
    },
    {
      "anonymous": false,
      "inputs": [
        {
          "indexed": false,
          "name": "__bytes32",
          "type": "bytes32"
        }
      ],
      "name": "Int256EventReturnsBytes32",
      "type": "event"
    },
    {
      "anonymous": false,
      "inputs": [
        {
          "indexed": false,
          "name": "__bytes",
          "type": "bytes"
        }
      ],
      "name": "Int256EventReturnsBytes",
      "type": "event"
    },
    {
      "anonymous": false,
      "inputs": [
        {
          "indexed": false,
          "name": "__string",
          "type": "string"
        }
      ],
      "name": "Int256EventReturnsString",
      "type": "event"
    },
    {
      "anonymous": false,
      "inputs": [
        {
          "indexed": false,
          "name": "__bool",
          "type": "bool"
        }
      ],
      "name": "UintEventReturnsBool",
      "type": "event"
    },
    {
      "anonymous": false,
      "inputs": [
        {
          "indexed": false,
          "name": "__int",
          "type": "int256"
        }
      ],
      "name": "UintEventReturnsInt",
      "type": "event"
    },
    {
      "anonymous": false,
      "inputs": [
        {
          "indexed": false,
          "name": "__int8",
          "type": "int8"
        }
      ],
      "name": "UintEventReturnsInt8",
      "type": "event"
    },
    {
      "anonymous": false,
      "inputs": [
        {
          "indexed": false,
          "name": "__int256",
          "type": "int256"
        }
      ],
      "name": "UintEventReturnsInt256",
      "type": "event"
    },
    {
      "anonymous": false,
      "inputs": [
        {
          "indexed": false,
          "name": "__uint",
          "type": "uint256"
        }
      ],
      "name": "UintEventReturnsUint",
      "type": "event"
    },
    {
      "anonymous": false,
      "inputs": [
        {
          "indexed": false,
          "name": "__uint8",
          "type": "uint8"
        }
      ],
      "name": "UintEventReturnsUint8",
      "type": "event"
    },
    {
      "anonymous": false,
      "inputs": [
        {
          "indexed": false,
          "name": "__uint256",
          "type": "uint256"
        }
      ],
      "name": "UintEventReturnsUint256",
      "type": "event"
    },
    {
      "anonymous": false,
      "inputs": [
        {
          "indexed": false,
          "name": "__address",
          "type": "address"
        }
      ],
      "name": "UintEventReturnsAddress",
      "type": "event"
    },
    {
      "anonymous": false,
      "inputs": [
        {
          "indexed": false,
          "name": "__byte",
          "type": "bytes1"
        }
      ],
      "name": "UintEventReturnsByte",
      "type": "event"
    },
    {
      "anonymous": false,
      "inputs": [
        {
          "indexed": false,
          "name": "__bytes1",
          "type": "bytes1"
        }
      ],
      "name": "UintEventReturnsBytes1",
      "type": "event"
    },
    {
      "anonymous": false,
      "inputs": [
        {
          "indexed": false,
          "name": "__bytes32",
          "type": "bytes32"
        }
      ],
      "name": "UintEventReturnsBytes32",
      "type": "event"
    },
    {
      "anonymous": false,
      "inputs": [
        {
          "indexed": false,
          "name": "__bytes",
          "type": "bytes"
        }
      ],
      "name": "UintEventReturnsBytes",
      "type": "event"
    },
    {
      "anonymous": false,
      "inputs": [
        {
          "indexed": false,
          "name": "__string",
          "type": "string"
        }
      ],
      "name": "UintEventReturnsString",
      "type": "event"
    },
    {
      "anonymous": false,
      "inputs": [
        {
          "indexed": false,
          "name": "__bool",
          "type": "bool"
        }
      ],
      "name": "Uint8EventReturnsBool",
      "type": "event"
    },
    {
      "anonymous": false,
      "inputs": [
        {
          "indexed": false,
          "name": "__int",
          "type": "int256"
        }
      ],
      "name": "Uint8EventReturnsInt",
      "type": "event"
    },
    {
      "anonymous": false,
      "inputs": [
        {
          "indexed": false,
          "name": "__int8",
          "type": "int8"
        }
      ],
      "name": "Uint8EventReturnsInt8",
      "type": "event"
    },
    {
      "anonymous": false,
      "inputs": [
        {
          "indexed": false,
          "name": "__int256",
          "type": "int256"
        }
      ],
      "name": "Uint8EventReturnsInt256",
      "type": "event"
    },
    {
      "anonymous": false,
      "inputs": [
        {
          "indexed": false,
          "name": "__uint",
          "type": "uint256"
        }
      ],
      "name": "Uint8EventReturnsUint",
      "type": "event"
    },
    {
      "anonymous": false,
      "inputs": [
        {
          "indexed": false,
          "name": "__uint8",
          "type": "uint8"
        }
      ],
      "name": "Uint8EventReturnsUint8",
      "type": "event"
    },
    {
      "anonymous": false,
      "inputs": [
        {
          "indexed": false,
          "name": "__uint256",
          "type": "uint256"
        }
      ],
      "name": "Uint8EventReturnsUint256",
      "type": "event"
    },
    {
      "anonymous": false,
      "inputs": [
        {
          "indexed": false,
          "name": "__address",
          "type": "address"
        }
      ],
      "name": "Uint8EventReturnsAddress",
      "type": "event"
    },
    {
      "anonymous": false,
      "inputs": [
        {
          "indexed": false,
          "name": "__byte",
          "type": "bytes1"
        }
      ],
      "name": "Uint8EventReturnsByte",
      "type": "event"
    },
    {
      "anonymous": false,
      "inputs": [
        {
          "indexed": false,
          "name": "__bytes1",
          "type": "bytes1"
        }
      ],
      "name": "Uint8EventReturnsBytes1",
      "type": "event"
    },
    {
      "anonymous": false,
      "inputs": [
        {
          "indexed": false,
          "name": "__bytes32",
          "type": "bytes32"
        }
      ],
      "name": "Uint8EventReturnsBytes32",
      "type": "event"
    },
    {
      "anonymous": false,
      "inputs": [
        {
          "indexed": false,
          "name": "__bytes",
          "type": "bytes"
        }
      ],
      "name": "Uint8EventReturnsBytes",
      "type": "event"
    },
    {
      "anonymous": false,
      "inputs": [
        {
          "indexed": false,
          "name": "__string",
          "type": "string"
        }
      ],
      "name": "Uint8EventReturnsString",
      "type": "event"
    },
    {
      "anonymous": false,
      "inputs": [
        {
          "indexed": false,
          "name": "__bool",
          "type": "bool"
        }
      ],
      "name": "Uint256EventReturnsBool",
      "type": "event"
    },
    {
      "anonymous": false,
      "inputs": [
        {
          "indexed": false,
          "name": "__int",
          "type": "int256"
        }
      ],
      "name": "Uint256EventReturnsInt",
      "type": "event"
    },
    {
      "anonymous": false,
      "inputs": [
        {
          "indexed": false,
          "name": "__int8",
          "type": "int8"
        }
      ],
      "name": "Uint256EventReturnsInt8",
      "type": "event"
    },
    {
      "anonymous": false,
      "inputs": [
        {
          "indexed": false,
          "name": "__int256",
          "type": "int256"
        }
      ],
      "name": "Uint256EventReturnsInt256",
      "type": "event"
    },
    {
      "anonymous": false,
      "inputs": [
        {
          "indexed": false,
          "name": "__uint",
          "type": "uint256"
        }
      ],
      "name": "Uint256EventReturnsUint",
      "type": "event"
    },
    {
      "anonymous": false,
      "inputs": [
        {
          "indexed": false,
          "name": "__uint8",
          "type": "uint8"
        }
      ],
      "name": "Uint256EventReturnsUint8",
      "type": "event"
    },
    {
      "anonymous": false,
      "inputs": [
        {
          "indexed": false,
          "name": "__uint256",
          "type": "uint256"
        }
      ],
      "name": "Uint256EventReturnsUint256",
      "type": "event"
    },
    {
      "anonymous": false,
      "inputs": [
        {
          "indexed": false,
          "name": "__address",
          "type": "address"
        }
      ],
      "name": "Uint256EventReturnsAddress",
      "type": "event"
    },
    {
      "anonymous": false,
      "inputs": [
        {
          "indexed": false,
          "name": "__byte",
          "type": "bytes1"
        }
      ],
      "name": "Uint256EventReturnsByte",
      "type": "event"
    },
    {
      "anonymous": false,
      "inputs": [
        {
          "indexed": false,
          "name": "__bytes1",
          "type": "bytes1"
        }
      ],
      "name": "Uint256EventReturnsBytes1",
      "type": "event"
    },
    {
      "anonymous": false,
      "inputs": [
        {
          "indexed": false,
          "name": "__bytes32",
          "type": "bytes32"
        }
      ],
      "name": "Uint256EventReturnsBytes32",
      "type": "event"
    },
    {
      "anonymous": false,
      "inputs": [
        {
          "indexed": false,
          "name": "__bytes",
          "type": "bytes"
        }
      ],
      "name": "Uint256EventReturnsBytes",
      "type": "event"
    },
    {
      "anonymous": false,
      "inputs": [
        {
          "indexed": false,
          "name": "__string",
          "type": "string"
        }
      ],
      "name": "Uint256EventReturnsString",
      "type": "event"
    },
    {
      "anonymous": false,
      "inputs": [
        {
          "indexed": false,
          "name": "__bool",
          "type": "bool"
        }
      ],
      "name": "AddressEventReturnsBool",
      "type": "event"
    },
    {
      "anonymous": false,
      "inputs": [
        {
          "indexed": false,
          "name": "__int",
          "type": "int256"
        }
      ],
      "name": "AddressEventReturnsInt",
      "type": "event"
    },
    {
      "anonymous": false,
      "inputs": [
        {
          "indexed": false,
          "name": "__int8",
          "type": "int8"
        }
      ],
      "name": "AddressEventReturnsInt8",
      "type": "event"
    },
    {
      "anonymous": false,
      "inputs": [
        {
          "indexed": false,
          "name": "__int256",
          "type": "int256"
        }
      ],
      "name": "AddressEventReturnsInt256",
      "type": "event"
    },
    {
      "anonymous": false,
      "inputs": [
        {
          "indexed": false,
          "name": "__uint",
          "type": "uint256"
        }
      ],
      "name": "AddressEventReturnsUint",
      "type": "event"
    },
    {
      "anonymous": false,
      "inputs": [
        {
          "indexed": false,
          "name": "__uint8",
          "type": "uint8"
        }
      ],
      "name": "AddressEventReturnsUint8",
      "type": "event"
    },
    {
      "anonymous": false,
      "inputs": [
        {
          "indexed": false,
          "name": "__uint256",
          "type": "uint256"
        }
      ],
      "name": "AddressEventReturnsUint256",
      "type": "event"
    },
    {
      "anonymous": false,
      "inputs": [
        {
          "indexed": false,
          "name": "__address",
          "type": "address"
        }
      ],
      "name": "AddressEventReturnsAddress",
      "type": "event"
    },
    {
      "anonymous": false,
      "inputs": [
        {
          "indexed": false,
          "name": "__byte",
          "type": "bytes1"
        }
      ],
      "name": "AddressEventReturnsByte",
      "type": "event"
    },
    {
      "anonymous": false,
      "inputs": [
        {
          "indexed": false,
          "name": "__bytes1",
          "type": "bytes1"
        }
      ],
      "name": "AddressEventReturnsBytes1",
      "type": "event"
    },
    {
      "anonymous": false,
      "inputs": [
        {
          "indexed": false,
          "name": "__bytes32",
          "type": "bytes32"
        }
      ],
      "name": "AddressEventReturnsBytes32",
      "type": "event"
    },
    {
      "anonymous": false,
      "inputs": [
        {
          "indexed": false,
          "name": "__bytes",
          "type": "bytes"
        }
      ],
      "name": "AddressEventReturnsBytes",
      "type": "event"
    },
    {
      "anonymous": false,
      "inputs": [
        {
          "indexed": false,
          "name": "__string",
          "type": "string"
        }
      ],
      "name": "AddressEventReturnsString",
      "type": "event"
    },
    {
      "anonymous": false,
      "inputs": [
        {
          "indexed": false,
          "name": "__bool",
          "type": "bool"
        }
      ],
      "name": "ByteEventReturnsBool",
      "type": "event"
    },
    {
      "anonymous": false,
      "inputs": [
        {
          "indexed": false,
          "name": "__int",
          "type": "int256"
        }
      ],
      "name": "ByteEventReturnsInt",
      "type": "event"
    },
    {
      "anonymous": false,
      "inputs": [
        {
          "indexed": false,
          "name": "__int8",
          "type": "int8"
        }
      ],
      "name": "ByteEventReturnsInt8",
      "type": "event"
    },
    {
      "anonymous": false,
      "inputs": [
        {
          "indexed": false,
          "name": "__int256",
          "type": "int256"
        }
      ],
      "name": "ByteEventReturnsInt256",
      "type": "event"
    },
    {
      "anonymous": false,
      "inputs": [
        {
          "indexed": false,
          "name": "__uint",
          "type": "uint256"
        }
      ],
      "name": "ByteEventReturnsUint",
      "type": "event"
    },
    {
      "anonymous": false,
      "inputs": [
        {
          "indexed": false,
          "name": "__uint8",
          "type": "uint8"
        }
      ],
      "name": "ByteEventReturnsUint8",
      "type": "event"
    },
    {
      "anonymous": false,
      "inputs": [
        {
          "indexed": false,
          "name": "__uint256",
          "type": "uint256"
        }
      ],
      "name": "ByteEventReturnsUint256",
      "type": "event"
    },
    {
      "anonymous": false,
      "inputs": [
        {
          "indexed": false,
          "name": "__address",
          "type": "address"
        }
      ],
      "name": "ByteEventReturnsAddress",
      "type": "event"
    },
    {
      "anonymous": false,
      "inputs": [
        {
          "indexed": false,
          "name": "__byte",
          "type": "bytes1"
        }
      ],
      "name": "ByteEventReturnsByte",
      "type": "event"
    },
    {
      "anonymous": false,
      "inputs": [
        {
          "indexed": false,
          "name": "__bytes1",
          "type": "bytes1"
        }
      ],
      "name": "ByteEventReturnsBytes1",
      "type": "event"
    },
    {
      "anonymous": false,
      "inputs": [
        {
          "indexed": false,
          "name": "__bytes32",
          "type": "bytes32"
        }
      ],
      "name": "ByteEventReturnsBytes32",
      "type": "event"
    },
    {
      "anonymous": false,
      "inputs": [
        {
          "indexed": false,
          "name": "__bytes",
          "type": "bytes"
        }
      ],
      "name": "ByteEventReturnsBytes",
      "type": "event"
    },
    {
      "anonymous": false,
      "inputs": [
        {
          "indexed": false,
          "name": "__string",
          "type": "string"
        }
      ],
      "name": "ByteEventReturnsString",
      "type": "event"
    },
    {
      "anonymous": false,
      "inputs": [
        {
          "indexed": false,
          "name": "__bool",
          "type": "bool"
        }
      ],
      "name": "Bytes1EventReturnsBool",
      "type": "event"
    },
    {
      "anonymous": false,
      "inputs": [
        {
          "indexed": false,
          "name": "__int",
          "type": "int256"
        }
      ],
      "name": "Bytes1EventReturnsInt",
      "type": "event"
    },
    {
      "anonymous": false,
      "inputs": [
        {
          "indexed": false,
          "name": "__int8",
          "type": "int8"
        }
      ],
      "name": "Bytes1EventReturnsInt8",
      "type": "event"
    },
    {
      "anonymous": false,
      "inputs": [
        {
          "indexed": false,
          "name": "__int256",
          "type": "int256"
        }
      ],
      "name": "Bytes1EventReturnsInt256",
      "type": "event"
    },
    {
      "anonymous": false,
      "inputs": [
        {
          "indexed": false,
          "name": "__uint",
          "type": "uint256"
        }
      ],
      "name": "Bytes1EventReturnsUint",
      "type": "event"
    },
    {
      "anonymous": false,
      "inputs": [
        {
          "indexed": false,
          "name": "__uint8",
          "type": "uint8"
        }
      ],
      "name": "Bytes1EventReturnsUint8",
      "type": "event"
    },
    {
      "anonymous": false,
      "inputs": [
        {
          "indexed": false,
          "name": "__uint256",
          "type": "uint256"
        }
      ],
      "name": "Bytes1EventReturnsUint256",
      "type": "event"
    },
    {
      "anonymous": false,
      "inputs": [
        {
          "indexed": false,
          "name": "__address",
          "type": "address"
        }
      ],
      "name": "Bytes1EventReturnsAddress",
      "type": "event"
    },
    {
      "anonymous": false,
      "inputs": [
        {
          "indexed": false,
          "name": "__byte",
          "type": "bytes1"
        }
      ],
      "name": "Bytes1EventReturnsByte",
      "type": "event"
    },
    {
      "anonymous": false,
      "inputs": [
        {
          "indexed": false,
          "name": "__bytes1",
          "type": "bytes1"
        }
      ],
      "name": "Bytes1EventReturnsBytes1",
      "type": "event"
    },
    {
      "anonymous": false,
      "inputs": [
        {
          "indexed": false,
          "name": "__bytes32",
          "type": "bytes32"
        }
      ],
      "name": "Bytes1EventReturnsBytes32",
      "type": "event"
    },
    {
      "anonymous": false,
      "inputs": [
        {
          "indexed": false,
          "name": "__bytes",
          "type": "bytes"
        }
      ],
      "name": "Bytes1EventReturnsBytes",
      "type": "event"
    },
    {
      "anonymous": false,
      "inputs": [
        {
          "indexed": false,
          "name": "__string",
          "type": "string"
        }
      ],
      "name": "Bytes1EventReturnsString",
      "type": "event"
    },
    {
      "anonymous": false,
      "inputs": [
        {
          "indexed": false,
          "name": "__bool",
          "type": "bool"
        }
      ],
      "name": "Bytes32EventReturnsBool",
      "type": "event"
    },
    {
      "anonymous": false,
      "inputs": [
        {
          "indexed": false,
          "name": "__int",
          "type": "int256"
        }
      ],
      "name": "Bytes32EventReturnsInt",
      "type": "event"
    },
    {
      "anonymous": false,
      "inputs": [
        {
          "indexed": false,
          "name": "__int8",
          "type": "int8"
        }
      ],
      "name": "Bytes32EventReturnsInt8",
      "type": "event"
    },
    {
      "anonymous": false,
      "inputs": [
        {
          "indexed": false,
          "name": "__int256",
          "type": "int256"
        }
      ],
      "name": "Bytes32EventReturnsInt256",
      "type": "event"
    },
    {
      "anonymous": false,
      "inputs": [
        {
          "indexed": false,
          "name": "__uint",
          "type": "uint256"
        }
      ],
      "name": "Bytes32EventReturnsUint",
      "type": "event"
    },
    {
      "anonymous": false,
      "inputs": [
        {
          "indexed": false,
          "name": "__uint8",
          "type": "uint8"
        }
      ],
      "name": "Bytes32EventReturnsUint8",
      "type": "event"
    },
    {
      "anonymous": false,
      "inputs": [
        {
          "indexed": false,
          "name": "__uint256",
          "type": "uint256"
        }
      ],
      "name": "Bytes32EventReturnsUint256",
      "type": "event"
    },
    {
      "anonymous": false,
      "inputs": [
        {
          "indexed": false,
          "name": "__address",
          "type": "address"
        }
      ],
      "name": "Bytes32EventReturnsAddress",
      "type": "event"
    },
    {
      "anonymous": false,
      "inputs": [
        {
          "indexed": false,
          "name": "__byte",
          "type": "bytes1"
        }
      ],
      "name": "Bytes32EventReturnsByte",
      "type": "event"
    },
    {
      "anonymous": false,
      "inputs": [
        {
          "indexed": false,
          "name": "__bytes1",
          "type": "bytes1"
        }
      ],
      "name": "Bytes32EventReturnsBytes1",
      "type": "event"
    },
    {
      "anonymous": false,
      "inputs": [
        {
          "indexed": false,
          "name": "__bytes32",
          "type": "bytes32"
        }
      ],
      "name": "Bytes32EventReturnsBytes32",
      "type": "event"
    },
    {
      "anonymous": false,
      "inputs": [
        {
          "indexed": false,
          "name": "__bytes",
          "type": "bytes"
        }
      ],
      "name": "Bytes32EventReturnsBytes",
      "type": "event"
    },
    {
      "anonymous": false,
      "inputs": [
        {
          "indexed": false,
          "name": "__string",
          "type": "string"
        }
      ],
      "name": "Bytes32EventReturnsString",
      "type": "event"
    },
    {
      "anonymous": false,
      "inputs": [
        {
          "indexed": false,
          "name": "__bool",
          "type": "bool"
        }
      ],
      "name": "BytesEventReturnsBool",
      "type": "event"
    },
    {
      "anonymous": false,
      "inputs": [
        {
          "indexed": false,
          "name": "__int",
          "type": "int256"
        }
      ],
      "name": "BytesEventReturnsInt",
      "type": "event"
    },
    {
      "anonymous": false,
      "inputs": [
        {
          "indexed": false,
          "name": "__int8",
          "type": "int8"
        }
      ],
      "name": "BytesEventReturnsInt8",
      "type": "event"
    },
    {
      "anonymous": false,
      "inputs": [
        {
          "indexed": false,
          "name": "__int256",
          "type": "int256"
        }
      ],
      "name": "BytesEventReturnsInt256",
      "type": "event"
    },
    {
      "anonymous": false,
      "inputs": [
        {
          "indexed": false,
          "name": "__uint",
          "type": "uint256"
        }
      ],
      "name": "BytesEventReturnsUint",
      "type": "event"
    },
    {
      "anonymous": false,
      "inputs": [
        {
          "indexed": false,
          "name": "__uint8",
          "type": "uint8"
        }
      ],
      "name": "BytesEventReturnsUint8",
      "type": "event"
    },
    {
      "anonymous": false,
      "inputs": [
        {
          "indexed": false,
          "name": "__uint256",
          "type": "uint256"
        }
      ],
      "name": "BytesEventReturnsUint256",
      "type": "event"
    },
    {
      "anonymous": false,
      "inputs": [
        {
          "indexed": false,
          "name": "__address",
          "type": "address"
        }
      ],
      "name": "BytesEventReturnsAddress",
      "type": "event"
    },
    {
      "anonymous": false,
      "inputs": [
        {
          "indexed": false,
          "name": "__byte",
          "type": "bytes1"
        }
      ],
      "name": "BytesEventReturnsByte",
      "type": "event"
    },
    {
      "anonymous": false,
      "inputs": [
        {
          "indexed": false,
          "name": "__bytes1",
          "type": "bytes1"
        }
      ],
      "name": "BytesEventReturnsBytes1",
      "type": "event"
    },
    {
      "anonymous": false,
      "inputs": [
        {
          "indexed": false,
          "name": "__bytes32",
          "type": "bytes32"
        }
      ],
      "name": "BytesEventReturnsBytes32",
      "type": "event"
    },
    {
      "anonymous": false,
      "inputs": [
        {
          "indexed": false,
          "name": "__bytes",
          "type": "bytes"
        }
      ],
      "name": "BytesEventReturnsBytes",
      "type": "event"
    },
    {
      "anonymous": false,
      "inputs": [
        {
          "indexed": false,
          "name": "__string",
          "type": "string"
        }
      ],
      "name": "BytesEventReturnsString",
      "type": "event"
    },
    {
      "anonymous": false,
      "inputs": [
        {
          "indexed": false,
          "name": "__bool",
          "type": "bool"
        }
      ],
      "name": "StringEventReturnsBool",
      "type": "event"
    },
    {
      "anonymous": false,
      "inputs": [
        {
          "indexed": false,
          "name": "__int",
          "type": "int256"
        }
      ],
      "name": "StringEventReturnsInt",
      "type": "event"
    },
    {
      "anonymous": false,
      "inputs": [
        {
          "indexed": false,
          "name": "__int8",
          "type": "int8"
        }
      ],
      "name": "StringEventReturnsInt8",
      "type": "event"
    },
    {
      "anonymous": false,
      "inputs": [
        {
          "indexed": false,
          "name": "__int256",
          "type": "int256"
        }
      ],
      "name": "StringEventReturnsInt256",
      "type": "event"
    },
    {
      "anonymous": false,
      "inputs": [
        {
          "indexed": false,
          "name": "__uint",
          "type": "uint256"
        }
      ],
      "name": "StringEventReturnsUint",
      "type": "event"
    },
    {
      "anonymous": false,
      "inputs": [
        {
          "indexed": false,
          "name": "__uint8",
          "type": "uint8"
        }
      ],
      "name": "StringEventReturnsUint8",
      "type": "event"
    },
    {
      "anonymous": false,
      "inputs": [
        {
          "indexed": false,
          "name": "__uint256",
          "type": "uint256"
        }
      ],
      "name": "StringEventReturnsUint256",
      "type": "event"
    },
    {
      "anonymous": false,
      "inputs": [
        {
          "indexed": false,
          "name": "__address",
          "type": "address"
        }
      ],
      "name": "StringEventReturnsAddress",
      "type": "event"
    },
    {
      "anonymous": false,
      "inputs": [
        {
          "indexed": false,
          "name": "__byte",
          "type": "bytes1"
        }
      ],
      "name": "StringEventReturnsByte",
      "type": "event"
    },
    {
      "anonymous": false,
      "inputs": [
        {
          "indexed": false,
          "name": "__bytes1",
          "type": "bytes1"
        }
      ],
      "name": "StringEventReturnsBytes1",
      "type": "event"
    },
    {
      "anonymous": false,
      "inputs": [
        {
          "indexed": false,
          "name": "__bytes32",
          "type": "bytes32"
        }
      ],
      "name": "StringEventReturnsBytes32",
      "type": "event"
    },
    {
      "anonymous": false,
      "inputs": [
        {
          "indexed": false,
          "name": "__bytes",
          "type": "bytes"
        }
      ],
      "name": "StringEventReturnsBytes",
      "type": "event"
    },
    {
      "anonymous": false,
      "inputs": [
        {
          "indexed": false,
          "name": "__string",
          "type": "string"
        }
      ],
      "name": "StringEventReturnsString",
      "type": "event"
    }
  ],
  "bytecode": "0x6060604052341561000f57600080fd5b615d8e806200001f6000396000f300606060405260043610610805576000357c0100000000000000000000000000000000000000000000000000000000900463ffffffff1680626fb2061461080a578062e985a3146108c8578062f81aed14610902578063027e3e22146109875780630380892d14610a4557806304858d0814610a9e57806305251f9c14610b04578063067f9e9a14610b3e57806308771eb714610b75578063096bfe7914610c4b5780630a1ceeed14610c8a5780630b4d699c14610cc75780630e38a12d14610d265780630fe6e1c614610dc3578063112aa9a714610dfa578063123216e614610e7857806312733fc514610eb35780631305471f14610ef35780631360e77914610f2e57806315affe8e14610f695780631727467f14610fa3578063185944cf146110425780631a5cf37f146110de5780631c9fe4d1146111375780631cd1725b146111f557806327bdc8451461123257806327cb7842146112a35780632832a7001461131e57806328b5605b1461135c57806329fdf7aa146113cd5780632aafb2cc1461143e5780632b5f9835146114bc5780632e9c5ac5146114f35780632f23c341146115935780633122b1d1146115e657806332e329ef1461162557806332fb21251461166457806334a54d79146116a1578063358fecab1461173d578063368526de146117dd578063372517cd146118425780633a5ebbd21461188f5780633a647b56146119335780633ad21295146119d25780633bbc28b714611a6f5780633c1a2ae614611ad55780633c7d54f914611b4c5780633d7852a514611b835780633e0b4a7c14611bc25780633efc5dca14611c0157806340bb621c14611ca05780634216d27514611d1f57806343b815e414611d5957806344c8e22b14611df657806349f2de5e14611e335780634c87b16914611e965780634fb720a514611ed5578063526b8a6014611f73578063528cb97514611fe4578063536a04ce14612025578063556dcea5146120635780635671e1b8146120c45780635b2d81c7146120fb5780635bf092ef1461213b5780635d091268146121ae5780635d55f7fc1461222c5780635eca7b78146122e157806360a7557c1461231e57806361052a01146123ba57806365131d371461245957806369ad91cc146124bc5780636c89116c146125585780636cfe539a1461259c5780636dad3056146126395780636e26076d146126925780636e5be6b1146126eb5780636e97e81c14612766578063723124ec146127a3578063728f1624146127de57806373f065c11461287a578063744e63f3146128ff578063754098ae146129785780637663f6ed146129af57806376c5d75514612a2a57806379180f8814612ad6578063797c89ac14612b235780637ab771cb14612bd55780637c59972e14612c555780637def099114612cca57806380b450f714612d0a5780638353312014612da7578063860e344214612e1857806387dc77ed14612e6b578063896b390d14612ea25780638c6c829b14612f785780638e45769d146130165780638e8a1e79146130ec5780638edaafeb146131265780638f4edf2d1461315d578063909c5bb8146131ce57806391cc836e14613207578063939bdd661461327e5780639498f85c146132b857806395ad8e56146132f957806396891a191461337257806396ac78cb146133a957806399aa03fc146134455780639a10b1a41461349e5780639e06b25a146134d55780639f7ca27a146135715780639f896579146135a85780639fedb61514613619578063a0f4d07014613656578063a143e4ba146136f2578063a22bc3061461372b578063a256cb9e14613764578063a257b721146137bd578063a85acf27146137ff578063a8d5c2b2146138b4578063a951dee7146138f5578063ac1ae6b114613937578063ad2624581461397a578063b54f3db4146139c7578063b763e0c914613a02578063b987356d14613a7b578063b9d3f15f14613b58578063bb81b31814613bd5578063bc3c124e14613c50578063bdaee96614613c8b578063be0b31fd14613cfc578063be585a9314613d7b578063c047314914613dbb578063c052eb8f14613e36578063c1a76b5f14613eeb578063c55ea0aa14613fc1578063c745ef7d14613ffb578063c85bb06314614034578063ca43ba23146140b1578063cdb50df1146140ef578063cdfcfd70146141cc578063ce99927e14614203578063cf8552f714614258578063cfbe6c041461429f578063d06ed331146142d6578063d28ff59c1461432f578063d42972861461438e578063d49271fc146143c5578063d61531431461443c578063d7eeeb6314614489578063da7c19b3146144c7578063dbb7427014614504578063dbe3bccc14614563578063dd5ba4da146145c6578063dd65d825146145fd578063ddd938e91461464e578063de6061d5146146df578063e13dc5db1461475a578063e16f09ec146147cf578063e1b25c251461486c578063e278ea8c146148ee578063e2b199541461497f578063e30f57ee146149fa578063e58ee8c114614a5b578063e5fcfab114614ab4578063e607698b14614b69578063e6c05cf414614ba3578063e8629a6214614be0578063ea2851be14614c6e578063ead90f1114614cec578063ecc1d69714614d2a578063ed12e01e14614da1578063effef2c514614e08578063f061606b14614e83578063f0f4909014614ee2578063f103f29014614f45578063f26480aa14614fa2578063f75d780314614fdd578063f78d5a6b1461509b578063f8056911146150d6578063fa4c385714615188578063fb203748146151bf578063fbfe5c20146151fe575b600080fd5b341561081557600080fd5b61084d60048080357effffffffffffffffffffffffffffffffffffffffffffffffffffffffffffff191690602001909190505061525b565b6040518080602001828103825283818151815260200191508051906020019080838360005b8381101561088d578082015181840152602081019050610872565b50505050905090810190601f1680156108ba5780820380516001836020036101000a031916815260200191505b509250505060405180910390f35b34156108d357600080fd5b6108ec600480803560000b90602001909190505061526e565b6040518082815260200191505060405180910390f35b341561090d57600080fd5b61094560048080357effffffffffffffffffffffffffffffffffffffffffffffffffffffffffffff191690602001909190505061527a565b604051808273ffffffffffffffffffffffffffffffffffffffff1673ffffffffffffffffffffffffffffffffffffffff16815260200191505060405180910390f35b341561099257600080fd5b6109ca60048080357effffffffffffffffffffffffffffffffffffffffffffffffffffffffffffff1916906020019091905050615286565b6040518080602001828103825283818151815260200191508051906020019080838360005b83811015610a0a5780820151818401526020810190506109ef565b50505050905090810190601f168015610a375780820380516001836020036101000a031916815260200191505b509250505060405180910390f35b3415610a5057600080fd5b610a8860048080357effffffffffffffffffffffffffffffffffffffffffffffffffffffffffffff1916906020019091905050615299565b6040518082815260200191505060405180910390f35b3415610aa957600080fd5b610ac2600480803560000b9060200190919050506152a5565b604051808273ffffffffffffffffffffffffffffffffffffffff1673ffffffffffffffffffffffffffffffffffffffff16815260200191505060405180910390f35b3415610b0f57600080fd5b610b28600480803560ff169060200190919050506152b1565b6040518082815260200191505060405180910390f35b3415610b4957600080fd5b610b5f60048080359060200190919050506152bd565b6040518082815260200191505060405180910390f35b3415610b8057600080fd5b610bd0600480803590602001908201803590602001908080601f016020809104026020016040519081016040528093929190818152602001838380828437820191505050505050919050506152c9565b6040518080602001828103825283818151815260200191508051906020019080838360005b83811015610c10578082015181840152602081019050610bf5565b50505050905090810190601f168015610c3d5780820380516001836020036101000a031916815260200191505b509250505060405180910390f35b3415610c5657600080fd5b610c6c60048080359060200190919050506152dc565b60405180826000191660001916815260200191505060405180910390f35b3415610c9557600080fd5b610cab60048080359060200190919050506152e8565b604051808260ff1660ff16815260200191505060405180910390f35b3415610cd257600080fd5b610d0a60048080357effffffffffffffffffffffffffffffffffffffffffffffffffffffffffffff19169060200190919050506152f4565b604051808260000b60000b815260200191505060405180910390f35b3415610d3157600080fd5b610d6960048080357effffffffffffffffffffffffffffffffffffffffffffffffffffffffffffff1916906020019091905050615300565b60405180827effffffffffffffffffffffffffffffffffffffffffffffffffffffffffffff19167effffffffffffffffffffffffffffffffffffffffffffffffffffffffffffff1916815260200191505060405180910390f35b3415610dce57600080fd5b610de4600480803590602001909190505061530c565b6040518082815260200191505060405180910390f35b3415610e0557600080fd5b610e1e600480803560000b906020019091905050615318565b60405180827effffffffffffffffffffffffffffffffffffffffffffffffffffffffffffff19167effffffffffffffffffffffffffffffffffffffffffffffffffffffffffffff1916815260200191505060405180910390f35b3415610e8357600080fd5b610e996004808035906020019091905050615324565b604051808215151515815260200191505060405180910390f35b3415610ebe57600080fd5b610ed7600480803560000b906020019091905050615330565b604051808260000b60000b815260200191505060405180910390f35b3415610efe57600080fd5b610f14600480803590602001909190505061533c565b604051808215151515815260200191505060405180910390f35b3415610f3957600080fd5b610f53600480803560001916906020019091905050615348565b6040518082815260200191505060405180910390f35b3415610f7457600080fd5b610f8d600480803560ff16906020019091905050615354565b6040518082815260200191505060405180910390f35b3415610fae57600080fd5b610fc7600480803560ff16906020019091905050615360565b6040518080602001828103825283818151815260200191508051906020019080838360005b83811015611007578082015181840152602081019050610fec565b50505050905090810190601f1680156110345780820380516001836020036101000a031916815260200191505b509250505060405180910390f35b341561104d57600080fd5b6110636004808035906020019091905050615373565b6040518080602001828103825283818151815260200191508051906020019080838360005b838110156110a3578082015181840152602081019050611088565b50505050905090810190601f1680156110d05780820380516001836020036101000a031916815260200191505b509250505060405180910390f35b34156110e957600080fd5b61112160048080357effffffffffffffffffffffffffffffffffffffffffffffffffffffffffffff1916906020019091905050615386565b6040518082815260200191505060405180910390f35b341561114257600080fd5b61117a60048080357effffffffffffffffffffffffffffffffffffffffffffffffffffffffffffff1916906020019091905050615392565b6040518080602001828103825283818151815260200191508051906020019080838360005b838110156111ba57808201518184015260208101905061119f565b50505050905090810190601f1680156111e75780820380516001836020036101000a031916815260200191505b509250505060405180910390f35b341561120057600080fd5b61121660048080359060200190919050506153a5565b604051808260000b60000b815260200191505060405180910390f35b341561123d57600080fd5b61128d600480803590602001908201803590602001908080601f016020809104026020016040519081016040528093929190818152602001838380828437820191505050505050919050506153b1565b6040518082815260200191505060405180910390f35b34156112ae57600080fd5b6112c460048080359060200190919050506153bd565b60405180827effffffffffffffffffffffffffffffffffffffffffffffffffffffffffffff19167effffffffffffffffffffffffffffffffffffffffffffffffffffffffffffff1916815260200191505060405180910390f35b341561132957600080fd5b61133f60048080359060200190919050506153c9565b604051808381526020018281526020019250505060405180910390f35b341561136757600080fd5b6113b7600480803590602001908201803590602001908080601f016020809104026020016040519081016040528093929190818152602001838380828437820191505050505050919050506153dc565b6040518082815260200191505060405180910390f35b34156113d857600080fd5b611428600480803590602001908201803590602001908080601f016020809104026020016040519081016040528093929190818152602001838380828437820191505050505050919050506153e8565b6040518082815260200191505060405180910390f35b341561144957600080fd5b611462600480803560ff169060200190919050506153f4565b60405180827effffffffffffffffffffffffffffffffffffffffffffffffffffffffffffff19167effffffffffffffffffffffffffffffffffffffffffffffffffffffffffffff1916815260200191505060405180910390f35b34156114c757600080fd5b6114dd6004808035906020019091905050615400565b6040518082815260200191505060405180910390f35b34156114fe57600080fd5b61151860048080356000191690602001909190505061540c565b6040518080602001828103825283818151815260200191508051906020019080838360005b8381101561155857808201518184015260208101905061153d565b50505050905090810190601f1680156115855780820380516001836020036101000a031916815260200191505b509250505060405180910390f35b341561159e57600080fd5b6115ca600480803573ffffffffffffffffffffffffffffffffffffffff1690602001909190505061541f565b604051808260ff1660ff16815260200191505060405180910390f35b34156115f157600080fd5b6116096004808035151590602001909190505061542b565b604051808260ff1660ff16815260200191505060405180910390f35b341561163057600080fd5b6116466004808035906020019091905050615437565b60405180826000191660001916815260200191505060405180910390f35b341561166f57600080fd5b6116856004808035906020019091905050615443565b604051808260000b60000b815260200191505060405180910390f35b34156116ac57600080fd5b6116c2600480803590602001909190505061544f565b6040518080602001828103825283818151815260200191508051906020019080838360005b838110156117025780820151818401526020810190506116e7565b50505050905090810190601f16801561172f5780820380516001836020036101000a031916815260200191505b509250505060405180910390f35b341561174857600080fd5b611762600480803560001916906020019091905050615462565b6040518080602001828103825283818151815260200191508051906020019080838360005b838110156117a2578082015181840152602081019050611787565b50505050905090810190601f1680156117cf5780820380516001836020036101000a031916815260200191505b509250505060405180910390f35b34156117e857600080fd5b61180060048080351515906020019091905050615475565b604051808273ffffffffffffffffffffffffffffffffffffffff1673ffffffffffffffffffffffffffffffffffffffff16815260200191505060405180910390f35b341561184d57600080fd5b611879600480803573ffffffffffffffffffffffffffffffffffffffff16906020019091905050615481565b6040518082815260200191505060405180910390f35b341561189a57600080fd5b6118d260048080357effffffffffffffffffffffffffffffffffffffffffffffffffffffffffffff191690602001909190505061548d565b60405180837effffffffffffffffffffffffffffffffffffffffffffffffffffffffffffff19167effffffffffffffffffffffffffffffffffffffffffffffffffffffffffffff191681526020018281526020019250505060405180910390f35b341561193e57600080fd5b611957600480803560000b9060200190919050506154a0565b6040518080602001828103825283818151815260200191508051906020019080838360005b8381101561199757808201518184015260208101905061197c565b50505050905090810190601f1680156119c45780820380516001836020036101000a031916815260200191505b509250505060405180910390f35b34156119dd57600080fd5b611a1560048080357effffffffffffffffffffffffffffffffffffffffffffffffffffffffffffff19169060200190919050506154b3565b60405180827effffffffffffffffffffffffffffffffffffffffffffffffffffffffffffff19167effffffffffffffffffffffffffffffffffffffffffffffffffffffffffffff1916815260200191505060405180910390f35b3415611a7a57600080fd5b611a93600480803560ff169060200190919050506154bf565b604051808273ffffffffffffffffffffffffffffffffffffffff1673ffffffffffffffffffffffffffffffffffffffff16815260200191505060405180910390f35b3415611ae057600080fd5b611b30600480803590602001908201803590602001908080601f016020809104026020016040519081016040528093929190818152602001838380828437820191505050505050919050506154cb565b604051808260000b60000b815260200191505060405180910390f35b3415611b5757600080fd5b611b6d60048080359060200190919050506154d7565b6040518082815260200191505060405180910390f35b3415611b8e57600080fd5b611ba86004808035600019169060200190919050506154e3565b604051808215151515815260200191505060405180910390f35b3415611bcd57600080fd5b611be360048080359060200190919050506154ef565b60405180826000191660001916815260200191505060405180910390f35b3415611c0c57600080fd5b611c25600480803560ff169060200190919050506154fb565b6040518080602001828103825283818151815260200191508051906020019080838360005b83811015611c65578082015181840152602081019050611c4a565b50505050905090810190601f168015611c925780820380516001836020036101000a031916815260200191505b509250505060405180910390f35b3415611cab57600080fd5b611cc560048080356000191690602001909190505061550e565b60405180827effffffffffffffffffffffffffffffffffffffffffffffffffffffffffffff19167effffffffffffffffffffffffffffffffffffffffffffffffffffffffffffff1916815260200191505060405180910390f35b3415611d2a57600080fd5b611d43600480803560000b90602001909190505061551a565b6040518082815260200191505060405180910390f35b3415611d6457600080fd5b611d9c60048080357effffffffffffffffffffffffffffffffffffffffffffffffffffffffffffff1916906020019091905050615526565b60405180827effffffffffffffffffffffffffffffffffffffffffffffffffffffffffffff19167effffffffffffffffffffffffffffffffffffffffffffffffffffffffffffff1916815260200191505060405180910390f35b3415611e0157600080fd5b611e176004808035906020019091905050615532565b604051808260ff1660ff16815260200191505060405180910390f35b3415611e3e57600080fd5b611e54600480803590602001909190505061553e565b604051808273ffffffffffffffffffffffffffffffffffffffff1673ffffffffffffffffffffffffffffffffffffffff16815260200191505060405180910390f35b3415611ea157600080fd5b611eb96004808035151590602001909190505061554a565b604051808260000b60000b815260200191505060405180910390f35b3415611ee057600080fd5b611ef860048080351515906020019091905050615556565b6040518080602001828103825283818151815260200191508051906020019080838360005b83811015611f38578082015181840152602081019050611f1d565b50505050905090810190601f168015611f655780820380516001836020036101000a031916815260200191505b509250505060405180910390f35b3415611f7e57600080fd5b611fce600480803590602001908201803590602001908080601f01602080910402602001604051908101604052809392919081815260200183838082843782019150505050505091905050615569565b6040518082815260200191505060405180910390f35b3415611fef57600080fd5b61200760048080351515906020019091905050615575565b60405180826000191660001916815260200191505060405180910390f35b341561203057600080fd5b6120466004808035906020019091905050615581565b604051808381526020018281526020019250505060405180910390f35b341561206e57600080fd5b6120a660048080357effffffffffffffffffffffffffffffffffffffffffffffffffffffffffffff1916906020019091905050615594565b60405180826000191660001916815260200191505060405180910390f35b34156120cf57600080fd5b6120e560048080359060200190919050506155a0565b6040518082815260200191505060405180910390f35b341561210657600080fd5b61211f600480803560000b9060200190919050506155ac565b604051808260ff1660ff16815260200191505060405180910390f35b341561214657600080fd5b61215f600480803560ff169060200190919050506155b8565b604051808360ff1660ff1681526020018273ffffffffffffffffffffffffffffffffffffffff1673ffffffffffffffffffffffffffffffffffffffff1681526020019250505060405180910390f35b34156121b957600080fd5b6121d2600480803560000b9060200190919050506155cb565b60405180827effffffffffffffffffffffffffffffffffffffffffffffffffffffffffffff19167effffffffffffffffffffffffffffffffffffffffffffffffffffffffffffff1916815260200191505060405180910390f35b341561223757600080fd5b612287600480803590602001908201803590602001908080601f016020809104026020016040519081016040528093929190818152602001838380828437820191505050505050919050506155d7565b60405180827effffffffffffffffffffffffffffffffffffffffffffffffffffffffffffff19167effffffffffffffffffffffffffffffffffffffffffffffffffffffffffffff1916815260200191505060405180910390f35b34156122ec57600080fd5b612304600480803515159060200190919050506155e3565b604051808215151515815260200191505060405180910390f35b341561232957600080fd5b61233f60048080359060200190919050506155ef565b6040518080602001828103825283818151815260200191508051906020019080838360005b8381101561237f578082015181840152602081019050612364565b50505050905090810190601f1680156123ac5780820380516001836020036101000a031916815260200191505b509250505060405180910390f35b34156123c557600080fd5b6123de600480803560000b906020019091905050615602565b6040518080602001828103825283818151815260200191508051906020019080838360005b8381101561241e578082015181840152602081019050612403565b50505050905090810190601f16801561244b5780820380516001836020036101000a031916815260200191505b509250505060405180910390f35b341561246457600080fd5b61247a6004808035906020019091905050615615565b604051808273ffffffffffffffffffffffffffffffffffffffff1673ffffffffffffffffffffffffffffffffffffffff16815260200191505060405180910390f35b34156124c757600080fd5b6124dd6004808035906020019091905050615621565b6040518080602001828103825283818151815260200191508051906020019080838360005b8381101561251d578082015181840152602081019050612502565b50505050905090810190601f16801561254a5780820380516001836020036101000a031916815260200191505b509250505060405180910390f35b341561256357600080fd5b61257b60048080351515906020019091905050615634565b60405180831515151581526020018281526020019250505060405180910390f35b34156125a757600080fd5b6125f7600480803590602001908201803590602001908080601f01602080910402602001604051908101604052809392919081815260200183838082843782019150505050505091905050615647565b604051808273ffffffffffffffffffffffffffffffffffffffff1673ffffffffffffffffffffffffffffffffffffffff16815260200191505060405180910390f35b341561264457600080fd5b61267c60048080357effffffffffffffffffffffffffffffffffffffffffffffffffffffffffffff1916906020019091905050615653565b6040518082815260200191505060405180910390f35b341561269d57600080fd5b6126d560048080357effffffffffffffffffffffffffffffffffffffffffffffffffffffffffffff191690602001909190505061565f565b6040518082815260200191505060405180910390f35b34156126f657600080fd5b61270c600480803590602001909190505061566b565b60405180827effffffffffffffffffffffffffffffffffffffffffffffffffffffffffffff19167effffffffffffffffffffffffffffffffffffffffffffffffffffffffffffff1916815260200191505060405180910390f35b341561277157600080fd5b6127876004808035906020019091905050615677565b604051808260ff1660ff16815260200191505060405180910390f35b34156127ae57600080fd5b6127c8600480803560001916906020019091905050615683565b6040518082815260200191505060405180910390f35b34156127e957600080fd5b6127ff600480803590602001909190505061568f565b6040518080602001828103825283818151815260200191508051906020019080838360005b8381101561283f578082015181840152602081019050612824565b50505050905090810190601f16801561286c5780820380516001836020036101000a031916815260200191505b509250505060405180910390f35b341561288557600080fd5b6128bd60048080357effffffffffffffffffffffffffffffffffffffffffffffffffffffffffffff19169060200190919050506156a2565b604051808273ffffffffffffffffffffffffffffffffffffffff1673ffffffffffffffffffffffffffffffffffffffff16815260200191505060405180910390f35b341561290a57600080fd5b612936600480803573ffffffffffffffffffffffffffffffffffffffff169060200190919050506156ae565b604051808273ffffffffffffffffffffffffffffffffffffffff1673ffffffffffffffffffffffffffffffffffffffff16815260200191505060405180910390f35b341561298357600080fd5b61299960048080359060200190919050506156ba565b6040518082815260200191505060405180910390f35b34156129ba57600080fd5b6129d060048080359060200190919050506156c6565b60405180827effffffffffffffffffffffffffffffffffffffffffffffffffffffffffffff19167effffffffffffffffffffffffffffffffffffffffffffffffffffffffffffff1916815260200191505060405180910390f35b3415612a3557600080fd5b612a6d60048080357effffffffffffffffffffffffffffffffffffffffffffffffffffffffffffff19169060200190919050506156d2565b60405180837effffffffffffffffffffffffffffffffffffffffffffffffffffffffffffff19167effffffffffffffffffffffffffffffffffffffffffffffffffffffffffffff1916815260200182600019166000191681526020019250505060405180910390f35b3415612ae157600080fd5b612b0d600480803573ffffffffffffffffffffffffffffffffffffffff169060200190919050506156e5565b6040518082815260200191505060405180910390f35b3415612b2e57600080fd5b612b5a600480803573ffffffffffffffffffffffffffffffffffffffff169060200190919050506156f1565b6040518080602001828103825283818151815260200191508051906020019080838360005b83811015612b9a578082015181840152602081019050612b7f565b50505050905090810190601f168015612bc75780820380516001836020036101000a031916815260200191505b509250505060405180910390f35b3415612be057600080fd5b612c0c600480803573ffffffffffffffffffffffffffffffffffffffff16906020019091905050615704565b604051808373ffffffffffffffffffffffffffffffffffffffff1673ffffffffffffffffffffffffffffffffffffffff1681526020018281526020019250505060405180910390f35b3415612c6057600080fd5b612cb0600480803590602001908201803590602001908080601f01602080910402602001604051908101604052809392919081815260200183838082843782019150505050505091905050615717565b604051808215151515815260200191505060405180910390f35b3415612cd557600080fd5b612cee600480803560ff16906020019091905050615723565b604051808260ff1660ff16815260200191505060405180910390f35b3415612d1557600080fd5b612d65600480803590602001908201803590602001908080601f0160208091040260200160405190810160405280939291908181526020018383808284378201915050505050509190505061572f565b604051808273ffffffffffffffffffffffffffffffffffffffff1673ffffffffffffffffffffffffffffffffffffffff16815260200191505060405180910390f35b3415612db257600080fd5b612e02600480803590602001908201803590602001908080601f0160208091040260200160405190810160405280939291908181526020018383808284378201915050505050509190505061573b565b6040518082815260200191505060405180910390f35b3415612e2357600080fd5b612e4f600480803573ffffffffffffffffffffffffffffffffffffffff16906020019091905050615747565b604051808260000b60000b815260200191505060405180910390f35b3415612e7657600080fd5b612e8c6004808035906020019091905050615753565b6040518082815260200191505060405180910390f35b3415612ead57600080fd5b612efd600480803590602001908201803590602001908080601f0160208091040260200160405190810160405280939291908181526020018383808284378201915050505050509190505061575f565b6040518080602001828103825283818151815260200191508051906020019080838360005b83811015612f3d578082015181840152602081019050612f22565b50505050905090810190601f168015612f6a5780820380516001836020036101000a031916815260200191505b509250505060405180910390f35b3415612f8357600080fd5b612f9b60048080351515906020019091905050615772565b6040518080602001828103825283818151815260200191508051906020019080838360005b83811015612fdb578082015181840152602081019050612fc0565b50505050905090810190601f1680156130085780820380516001836020036101000a031916815260200191505b509250505060405180910390f35b341561302157600080fd5b613071600480803590602001908201803590602001908080601f01602080910402602001604051908101604052809392919081815260200183838082843782019150505050505091905050615785565b6040518080602001828103825283818151815260200191508051906020019080838360005b838110156130b1578082015181840152602081019050613096565b50505050905090810190601f1680156130de5780820380516001836020036101000a031916815260200191505b509250505060405180910390f35b34156130f757600080fd5b613110600480803560000b906020019091905050615798565b6040518082815260200191505060405180910390f35b341561313157600080fd5b61314760048080359060200190919050506157a4565b6040518082815260200191505060405180910390f35b341561316857600080fd5b6131b8600480803590602001908201803590602001908080601f016020809104026020016040519081016040528093929190818152602001838380828437820191505050505050919050506157b0565b6040518082815260200191505060405180910390f35b34156131d957600080fd5b6131f1600480803515159060200190919050506157bc565b6040518082815260200191505060405180910390f35b341561321257600080fd5b613262600480803590602001908201803590602001908080601f016020809104026020016040519081016040528093929190818152602001838380828437820191505050505050919050506157c8565b604051808260ff1660ff16815260200191505060405180910390f35b341561328957600080fd5b6132a2600480803560ff169060200190919050506157d4565b6040518082815260200191505060405180910390f35b34156132c357600080fd5b6132dd6004808035600019169060200190919050506157e0565b604051808260000b60000b815260200191505060405180910390f35b341561330457600080fd5b613354600480803590602001908201803590602001908080601f016020809104026020016040519081016040528093929190818152602001838380828437820191505050505050919050506157ec565b60405180826000191660001916815260200191505060405180910390f35b341561337d57600080fd5b61339360048080359060200190919050506157f8565b6040518082815260200191505060405180910390f35b34156133b457600080fd5b6133ca6004808035906020019091905050615804565b6040518080602001828103825283818151815260200191508051906020019080838360005b8381101561340a5780820151818401526020810190506133ef565b50505050905090810190601f1680156134375780820380516001836020036101000a031916815260200191505b509250505060405180910390f35b341561345057600080fd5b61348860048080357effffffffffffffffffffffffffffffffffffffffffffffffffffffffffffff1916906020019091905050615817565b6040518082815260200191505060405180910390f35b34156134a957600080fd5b6134bf6004808035906020019091905050615823565b6040518082815260200191505060405180910390f35b34156134e057600080fd5b6134f6600480803590602001909190505061582f565b6040518080602001828103825283818151815260200191508051906020019080838360005b8381101561353657808201518184015260208101905061351b565b50505050905090810190601f1680156135635780820380516001836020036101000a031916815260200191505b509250505060405180910390f35b341561357c57600080fd5b6135926004808035906020019091905050615842565b6040518082815260200191505060405180910390f35b34156135b357600080fd5b613603600480803590602001908201803590602001908080601f0160208091040260200160405190810160405280939291908181526020018383808284378201915050505050509190505061584e565b6040518082815260200191505060405180910390f35b341561362457600080fd5b61363a600480803590602001909190505061585a565b604051808260ff1660ff16815260200191505060405180910390f35b341561366157600080fd5b6136776004808035906020019091905050615866565b6040518080602001828103825283818151815260200191508051906020019080838360005b838110156136b757808201518184015260208101905061369c565b50505050905090810190601f1680156136e45780820380516001836020036101000a031916815260200191505b509250505060405180910390f35b34156136fd57600080fd5b61371560048080351515906020019091905050615879565b6040518082815260200191505060405180910390f35b341561373657600080fd5b61374e60048080351515906020019091905050615885565b6040518082815260200191505060405180910390f35b341561376f57600080fd5b6137a760048080357effffffffffffffffffffffffffffffffffffffffffffffffffffffffffffff1916906020019091905050615891565b6040518082815260200191505060405180910390f35b34156137c857600080fd5b6137e1600480803560ff1690602001909190505061589d565b60405180826000191660001916815260200191505060405180910390f35b341561380a57600080fd5b61385a600480803590602001908201803590602001908080601f016020809104026020016040519081016040528093929190818152602001838380828437820191505050505050919050506158a9565b60405180827effffffffffffffffffffffffffffffffffffffffffffffffffffffffffffff19167effffffffffffffffffffffffffffffffffffffffffffffffffffffffffffff1916815260200191505060405180910390f35b34156138bf57600080fd5b6138d96004808035600019169060200190919050506158b5565b604051808260ff1660ff16815260200191505060405180910390f35b341561390057600080fd5b613919600480803560000b9060200190919050506158c1565b60405180826000191660001916815260200191505060405180910390f35b341561394257600080fd5b61395c6004808035600019169060200190919050506158cd565b60405180826000191660001916815260200191505060405180910390f35b341561398557600080fd5b6139b1600480803573ffffffffffffffffffffffffffffffffffffffff169060200190919050506158d9565b6040518082815260200191505060405180910390f35b34156139d257600080fd5b6139ec6004808035600019169060200190919050506158e5565b6040518082815260200191505060405180910390f35b3415613a0d57600080fd5b613a5d600480803590602001908201803590602001908080601f016020809104026020016040519081016040528093929190818152602001838380828437820191505050505050919050506158f1565b60405180826000191660001916815260200191505060405180910390f35b3415613a8657600080fd5b613ad6600480803590602001908201803590602001908080601f016020809104026020016040519081016040528093929190818152602001838380828437820191505050505050919050506158fd565b6040518080602001838152602001828103825284818151815260200191508051906020019080838360005b83811015613b1c578082015181840152602081019050613b01565b50505050905090810190601f168015613b495780820380516001836020036101000a031916815260200191505b50935050505060405180910390f35b3415613b6357600080fd5b613b7b600480803515159060200190919050506159b3565b60405180827effffffffffffffffffffffffffffffffffffffffffffffffffffffffffffff19167effffffffffffffffffffffffffffffffffffffffffffffffffffffffffffff1916815260200191505060405180910390f35b3415613be057600080fd5b613bf660048080359060200190919050506159bf565b60405180827effffffffffffffffffffffffffffffffffffffffffffffffffffffffffffff19167effffffffffffffffffffffffffffffffffffffffffffffffffffffffffffff1916815260200191505060405180910390f35b3415613c5b57600080fd5b613c7160048080359060200190919050506159cb565b604051808215151515815260200191505060405180910390f35b3415613c9657600080fd5b613ce6600480803590602001908201803590602001908080601f016020809104026020016040519081016040528093929190818152602001838380828437820191505050505050919050506159d7565b6040518082815260200191505060405180910390f35b3415613d0757600080fd5b613d216004808035600019169060200190919050506159e3565b60405180827effffffffffffffffffffffffffffffffffffffffffffffffffffffffffffff19167effffffffffffffffffffffffffffffffffffffffffffffffffffffffffffff1916815260200191505060405180910390f35b3415613d8657600080fd5b613d9f600480803560ff169060200190919050506159ef565b604051808260000b60000b815260200191505060405180910390f35b3415613dc657600080fd5b613ddc60048080359060200190919050506159fb565b60405180827effffffffffffffffffffffffffffffffffffffffffffffffffffffffffffff19167effffffffffffffffffffffffffffffffffffffffffffffffffffffffffffff1916815260200191505060405180910390f35b3415613e4157600080fd5b613e91600480803590602001908201803590602001908080601f01602080910402602001604051908101604052809392919081815260200183838082843782019150505050505091905050615a07565b60405180827effffffffffffffffffffffffffffffffffffffffffffffffffffffffffffff19167effffffffffffffffffffffffffffffffffffffffffffffffffffffffffffff1916815260200191505060405180910390f35b3415613ef657600080fd5b613f46600480803590602001908201803590602001908080601f01602080910402602001604051908101604052809392919081815260200183838082843782019150505050505091905050615a13565b6040518080602001828103825283818151815260200191508051906020019080838360005b83811015613f86578082015181840152602081019050613f6b565b50505050905090810190601f168015613fb35780820380516001836020036101000a031916815260200191505b509250505060405180910390f35b3415613fcc57600080fd5b613fe5600480803560ff16906020019091905050615a26565b6040518082815260200191505060405180910390f35b341561400657600080fd5b61401e60048080351515906020019091905050615a32565b6040518082815260200191505060405180910390f35b341561403f57600080fd5b61405760048080351515906020019091905050615a3e565b60405180827effffffffffffffffffffffffffffffffffffffffffffffffffffffffffffff19167effffffffffffffffffffffffffffffffffffffffffffffffffffffffffffff1916815260200191505060405180910390f35b34156140bc57600080fd5b6140d5600480803560ff16906020019091905050615a4a565b604051808215151515815260200191505060405180910390f35b34156140fa57600080fd5b61414a600480803590602001908201803590602001908080601f01602080910402602001604051908101604052809392919081815260200183838082843782019150505050505091905050615a56565b6040518080602001838152602001828103825284818151815260200191508051906020019080838360005b83811015614190578082015181840152602081019050614175565b50505050905090810190601f1680156141bd5780820380516001836020036101000a031916815260200191505b50935050505060405180910390f35b34156141d757600080fd5b6141ed6004808035906020019091905050615b0c565b6040518082815260200191505060405180910390f35b341561420e57600080fd5b61423a600480803573ffffffffffffffffffffffffffffffffffffffff16906020019091905050615b18565b60405180826000191660001916815260200191505060405180910390f35b341561426357600080fd5b61427c600480803560000b906020019091905050615b24565b604051808360000b60000b81526020018281526020019250505060405180910390f35b34156142aa57600080fd5b6142c06004808035906020019091905050615b37565b6040518082815260200191505060405180910390f35b34156142e157600080fd5b61431960048080357effffffffffffffffffffffffffffffffffffffffffffffffffffffffffffff1916906020019091905050615b43565b6040518082815260200191505060405180910390f35b341561433a57600080fd5b61437260048080357effffffffffffffffffffffffffffffffffffffffffffffffffffffffffffff1916906020019091905050615b4f565b604051808260ff1660ff16815260200191505060405180910390f35b341561439957600080fd5b6143af6004808035906020019091905050615b5b565b6040518082815260200191505060405180910390f35b34156143d057600080fd5b614420600480803590602001908201803590602001908080601f01602080910402602001604051908101604052809392919081815260200183838082843782019150505050505091905050615b67565b604051808260ff1660ff16815260200191505060405180910390f35b341561444757600080fd5b614473600480803573ffffffffffffffffffffffffffffffffffffffff16906020019091905050615b73565b6040518082815260200191505060405180910390f35b341561449457600080fd5b6144aa6004808035906020019091905050615b7f565b604051808381526020018281526020019250505060405180910390f35b34156144d257600080fd5b6144e86004808035906020019091905050615b92565b604051808260000b60000b815260200191505060405180910390f35b341561450f57600080fd5b61454760048080357effffffffffffffffffffffffffffffffffffffffffffffffffffffffffffff1916906020019091905050615b9e565b604051808260000b60000b815260200191505060405180910390f35b341561456e57600080fd5b6145846004808035906020019091905050615baa565b604051808273ffffffffffffffffffffffffffffffffffffffff1673ffffffffffffffffffffffffffffffffffffffff16815260200191505060405180910390f35b34156145d157600080fd5b6145e76004808035906020019091905050615bb6565b6040518082815260200191505060405180910390f35b341561460857600080fd5b614634600480803573ffffffffffffffffffffffffffffffffffffffff16906020019091905050615bc2565b604051808215151515815260200191505060405180910390f35b341561465957600080fd5b614685600480803573ffffffffffffffffffffffffffffffffffffffff16906020019091905050615bce565b60405180827effffffffffffffffffffffffffffffffffffffffffffffffffffffffffffff19167effffffffffffffffffffffffffffffffffffffffffffffffffffffffffffff1916815260200191505060405180910390f35b34156146ea57600080fd5b6147006004808035906020019091905050615bda565b60405180827effffffffffffffffffffffffffffffffffffffffffffffffffffffffffffff19167effffffffffffffffffffffffffffffffffffffffffffffffffffffffffffff1916815260200191505060405180910390f35b341561476557600080fd5b6147b5600480803590602001908201803590602001908080601f01602080910402602001604051908101604052809392919081815260200183838082843782019150505050505091905050615be6565b604051808215151515815260200191505060405180910390f35b34156147da57600080fd5b61481260048080357effffffffffffffffffffffffffffffffffffffffffffffffffffffffffffff1916906020019091905050615bf2565b60405180827effffffffffffffffffffffffffffffffffffffffffffffffffffffffffffff19167effffffffffffffffffffffffffffffffffffffffffffffffffffffffffffff1916815260200191505060405180910390f35b341561487757600080fd5b61488d6004808035906020019091905050615bfe565b60405180838152602001827effffffffffffffffffffffffffffffffffffffffffffffffffffffffffffff19167effffffffffffffffffffffffffffffffffffffffffffffffffffffffffffff191681526020019250505060405180910390f35b34156148f957600080fd5b614925600480803573ffffffffffffffffffffffffffffffffffffffff16906020019091905050615c11565b60405180827effffffffffffffffffffffffffffffffffffffffffffffffffffffffffffff19167effffffffffffffffffffffffffffffffffffffffffffffffffffffffffffff1916815260200191505060405180910390f35b341561498a57600080fd5b6149a06004808035906020019091905050615c1d565b60405180827effffffffffffffffffffffffffffffffffffffffffffffffffffffffffffff19167effffffffffffffffffffffffffffffffffffffffffffffffffffffffffffff1916815260200191505060405180910390f35b3415614a0557600080fd5b614a3d60048080357effffffffffffffffffffffffffffffffffffffffffffffffffffffffffffff1916906020019091905050615c29565b60405180826000191660001916815260200191505060405180910390f35b3415614a6657600080fd5b614a9e60048080357effffffffffffffffffffffffffffffffffffffffffffffffffffffffffffff1916906020019091905050615c35565b6040518082815260200191505060405180910390f35b3415614abf57600080fd5b614b0f600480803590602001908201803590602001908080601f01602080910402602001604051908101604052809392919081815260200183838082843782019150505050505091905050615c41565b60405180827effffffffffffffffffffffffffffffffffffffffffffffffffffffffffffff19167effffffffffffffffffffffffffffffffffffffffffffffffffffffffffffff1916815260200191505060405180910390f35b3415614b7457600080fd5b614b8d600480803560000b906020019091905050615c4d565b6040518082815260200191505060405180910390f35b3415614bae57600080fd5b614bc46004808035906020019091905050615c59565b604051808260000b60000b815260200191505060405180910390f35b3415614beb57600080fd5b614c05600480803560001916906020019091905050615c65565b604051808360001916600019168152602001827effffffffffffffffffffffffffffffffffffffffffffffffffffffffffffff19167effffffffffffffffffffffffffffffffffffffffffffffffffffffffffffff191681526020019250505060405180910390f35b3415614c7957600080fd5b614c92600480803560ff16906020019091905050615c78565b60405180827effffffffffffffffffffffffffffffffffffffffffffffffffffffffffffff19167effffffffffffffffffffffffffffffffffffffffffffffffffffffffffffff1916815260200191505060405180910390f35b3415614cf757600080fd5b614d10600480803560000b906020019091905050615c84565b604051808215151515815260200191505060405180910390f35b3415614d3557600080fd5b614d85600480803590602001908201803590602001908080601f01602080910402602001604051908101604052809392919081815260200183838082843782019150505050505091905050615c90565b604051808260000b60000b815260200191505060405180910390f35b3415614dac57600080fd5b614dc6600480803560001916906020019091905050615c9c565b604051808273ffffffffffffffffffffffffffffffffffffffff1673ffffffffffffffffffffffffffffffffffffffff16815260200191505060405180910390f35b3415614e1357600080fd5b614e296004808035906020019091905050615ca8565b60405180827effffffffffffffffffffffffffffffffffffffffffffffffffffffffffffff19167effffffffffffffffffffffffffffffffffffffffffffffffffffffffffffff1916815260200191505060405180910390f35b3415614e8e57600080fd5b614ec660048080357effffffffffffffffffffffffffffffffffffffffffffffffffffffffffffff1916906020019091905050615cb4565b604051808260ff1660ff16815260200191505060405180910390f35b3415614eed57600080fd5b614f036004808035906020019091905050615cc0565b604051808273ffffffffffffffffffffffffffffffffffffffff1673ffffffffffffffffffffffffffffffffffffffff16815260200191505060405180910390f35b3415614f5057600080fd5b614f8860048080357effffffffffffffffffffffffffffffffffffffffffffffffffffffffffffff1916906020019091905050615ccc565b604051808215151515815260200191505060405180910390f35b3415614fad57600080fd5b614fc36004808035906020019091905050615cd8565b604051808215151515815260200191505060405180910390f35b3415614fe857600080fd5b61502060048080357effffffffffffffffffffffffffffffffffffffffffffffffffffffffffffff1916906020019091905050615ce4565b6040518080602001828103825283818151815260200191508051906020019080838360005b83811015615060578082015181840152602081019050615045565b50505050905090810190601f16801561508d5780820380516001836020036101000a031916815260200191505b509250505060405180910390f35b34156150a657600080fd5b6150c0600480803560001916906020019091905050615cf7565b6040518082815260200191505060405180910390f35b34156150e157600080fd5b61510d600480803573ffffffffffffffffffffffffffffffffffffffff16906020019091905050615d03565b6040518080602001828103825283818151815260200191508051906020019080838360005b8381101561514d578082015181840152602081019050615132565b50505050905090810190601f16801561517a5780820380516001836020036101000a031916815260200191505b509250505060405180910390f35b341561519357600080fd5b6151a96004808035906020019091905050615d16565b6040518082815260200191505060405180910390f35b34156151ca57600080fd5b6151e06004808035906020019091905050615d22565b60405180826000191660001916815260200191505060405180910390f35b341561520957600080fd5b61524160048080357effffffffffffffffffffffffffffffffffffffffffffffffffffffffffffff1916906020019091905050615d2e565b604051808215151515815260200191505060405180910390f35b615263615d3a565b600081915050919050565b60008081915050919050565b60008081915050919050565b61528e615d3a565b600081915050919050565b60008081915050919050565b60008081915050919050565b60008081915050919050565b60008081915050919050565b6152d1615d3a565b600081915050919050565b60008081915050919050565b60008081915050919050565b60008081915050919050565b60008081915050919050565b60008081915050919050565b60008081915050919050565b60008081915050919050565b60008081915050919050565b60008081915050919050565b60008081915050919050565b60008081915050919050565b615368615d4e565b600081915050919050565b61537b615d3a565b600081915050919050565b60008081915050919050565b61539a615d4e565b600081915050919050565b60008081915050919050565b60008081915050919050565b60008081915050919050565b6000806000808181935093505050915091565b60008081915050919050565b60008081915050919050565b60008081915050919050565b60008081915050919050565b615414615d3a565b600081915050919050565b60008081915050919050565b60008081915050919050565b60008081915050919050565b60008081915050919050565b615457615d4e565b600081915050919050565b61546a615d4e565b600081915050919050565b60008081915050919050565b60008081915050919050565b6000806000808181935093505050915091565b6154a8615d3a565b600081915050919050565b60008081915050919050565b60008081915050919050565b60008081915050919050565b60008081915050919050565b60008081915050919050565b60008081915050919050565b615503615d3a565b600081915050919050565b60008081915050919050565b60008081915050919050565b60008081915050919050565b60008081915050919050565b60008081915050919050565b60008081915050919050565b61555e615d4e565b600081915050919050565b60008081915050919050565b60008081915050919050565b6000806000808181935093505050915091565b60008081915050919050565b60008081915050919050565b60008081915050919050565b6000806000808181935093505050915091565b60008081915050919050565b60008081915050919050565b60008081915050919050565b6155f7615d3a565b600081915050919050565b61560a615d4e565b600081915050919050565b60008081915050919050565b615629615d4e565b600081915050919050565b6000806000808181935093505050915091565b60008081915050919050565b60008081915050919050565b60008081915050919050565b60008081915050919050565b60008081915050919050565b60008081915050919050565b615697615d3a565b600081915050919050565b60008081915050919050565b60008081915050919050565b60008081915050919050565b60008081915050919050565b6000806000808181935093505050915091565b60008081915050919050565b6156f9615d3a565b600081915050919050565b6000806000808181935093505050915091565b60008081915050919050565b60008081915050919050565b60008081915050919050565b60008081915050919050565b60008081915050919050565b60008081915050919050565b615767615d4e565b600081915050919050565b61577a615d3a565b600081915050919050565b61578d615d4e565b600081915050919050565b60008081915050919050565b60008081915050919050565b60008081915050919050565b60008081915050919050565b60008081915050919050565b60008081915050919050565b60008081915050919050565b60008081915050919050565b60008081915050919050565b61580c615d3a565b600081915050919050565b60008081915050919050565b60008081915050919050565b615837615d4e565b600081915050919050565b60008081915050919050565b60008081915050919050565b60008081915050919050565b61586e615d4e565b600081915050919050565b60008081915050919050565b60008081915050919050565b60008081915050919050565b60008081915050919050565b60008081915050919050565b60008081915050919050565b60008081915050919050565b60008081915050919050565b60008081915050919050565b60008081915050919050565b60008081915050919050565b615905615d3a565b60008060008181818054600181600116156101000203166002900480601f0160208091040260200160405190810160405280929190818152602001828054600181600116156101000203166002900480156159a15780601f10615976576101008083540402835291602001916159a1565b820191906000526020600020905b81548152906001019060200180831161598457829003601f168201915b50505050509150935093505050915091565b60008081915050919050565b60008081915050919050565b60008081915050919050565b60008081915050919050565b60008081915050919050565b60008081915050919050565b60008081915050919050565b60008081915050919050565b615a1b615d3a565b600081915050919050565b60008081915050919050565b60008081915050919050565b60008081915050919050565b60008081915050919050565b615a5e615d4e565b60008060008181818054600181600116156101000203166002900480601f016020809104026020016040519081016040528092919081815260200182805460018160011615610100020316600290048015615afa5780601f10615acf57610100808354040283529160200191615afa565b820191906000526020600020905b815481529060010190602001808311615add57829003601f168201915b50505050509150935093505050915091565b60008081915050919050565b60008081915050919050565b6000806000808181935093505050915091565b60008081915050919050565b60008081915050919050565b60008081915050919050565b60008081915050919050565b60008081915050919050565b60008081915050919050565b6000806000808181935093505050915091565b60008081915050919050565b60008081915050919050565b60008081915050919050565b60008081915050919050565b60008081915050919050565b60008081915050919050565b60008081915050919050565b60008081915050919050565b60008081915050919050565b6000806000808181935093505050915091565b60008081915050919050565b60008081915050919050565b60008081915050919050565b60008081915050919050565b60008081915050919050565b60008081915050919050565b60008081915050919050565b6000806000808181935093505050915091565b60008081915050919050565b60008081915050919050565b60008081915050919050565b60008081915050919050565b60008081915050919050565b60008081915050919050565b60008081915050919050565b60008081915050919050565b60008081915050919050565b615cec615d4e565b600081915050919050565b60008081915050919050565b615d0b615d4e565b600081915050919050565b60008081915050919050565b60008081915050919050565b60008081915050919050565b602060405190810160405280600081525090565b6020604051908101604052806000815250905600a165627a7a723058207f0bee903aa2a267d5bb7e1c937372cdca406479d15fe3927fe34559b4745e5f0029",
  "source": "pragma solidity ^0.4.17;\ncontract SampleContract {\n  bool _bool;\n  int _int;\n  int8 _int8;\n  int256 _int256;\n  uint _uint;\n  uint8 _uint8;\n  uint256 _uint256;\n  address _address;\n  byte _byte;\n  bytes1 _bytes1;\n  bytes32 _bytes32;\n  bytes _bytes;\n  string _string;\n  function SampleContract() {}\n  function boolFunctionReturnsBool (bool _bool) public pure returns(bool __bool){\n    bool ___bool;\n    return __bool;\n  }\n  event BoolEventReturnsBool(bool __bool);\n  function boolFunctionReturnsInt (bool _bool) public pure returns(int __int){\n    int ___int;\n    return __int;\n  }\n  event BoolEventReturnsInt(int __int);\n  function boolFunctionReturnsInt8 (bool _bool) public pure returns(int8 __int8){\n    int8 ___int8;\n    return __int8;\n  }\n  event BoolEventReturnsInt8(int8 __int8);\n  function boolFunctionReturnsInt256 (bool _bool) public pure returns(int256 __int256){\n    int256 ___int256;\n    return __int256;\n  }\n  event BoolEventReturnsInt256(int256 __int256);\n  function boolFunctionReturnsUint (bool _bool) public pure returns(uint __uint){\n    uint ___uint;\n    return __uint;\n  }\n  event BoolEventReturnsUint(uint __uint);\n  function boolFunctionReturnsUint8 (bool _bool) public pure returns(uint8 __uint8){\n    uint8 ___uint8;\n    return __uint8;\n  }\n  event BoolEventReturnsUint8(uint8 __uint8);\n  function boolFunctionReturnsUint256 (bool _bool) public pure returns(uint256 __uint256){\n    uint256 ___uint256;\n    return __uint256;\n  }\n  event BoolEventReturnsUint256(uint256 __uint256);\n  function boolFunctionReturnsAddress (bool _bool) public pure returns(address __address){\n    address ___address;\n    return __address;\n  }\n  event BoolEventReturnsAddress(address __address);\n  function boolFunctionReturnsByte (bool _bool) public pure returns(byte __byte){\n    byte ___byte;\n    return __byte;\n  }\n  event BoolEventReturnsByte(byte __byte);\n  function boolFunctionReturnsBytes1 (bool _bool) public pure returns(bytes1 __bytes1){\n    bytes1 ___bytes1;\n    return __bytes1;\n  }\n  event BoolEventReturnsBytes1(bytes1 __bytes1);\n  function boolFunctionReturnsBytes32 (bool _bool) public pure returns(bytes32 __bytes32){\n    bytes32 ___bytes32;\n    return __bytes32;\n  }\n  event BoolEventReturnsBytes32(bytes32 __bytes32);\n  function boolFunctionReturnsBytes (bool _bool) public pure returns(bytes __bytes){\n    bytes ___bytes;\n    return __bytes;\n  }\n  event BoolEventReturnsBytes(bytes __bytes);\n  function boolFunctionReturnsString (bool _bool) public pure returns(string __string){\n    string ___string;\n    return __string;\n  }\n  event BoolEventReturnsString(string __string);\n  function boolIntFunctionReturnsBoolInt (bool _bool) public pure returns(bool __bool, int _int_){\n    bool ___bool;\n    int ___int;\n    return (___bool, ___int);\n  }\n  function intFunctionReturnsBool (int _int) public pure returns(bool __bool){\n    bool ___bool;\n    return __bool;\n  }\n  event IntEventReturnsBool(bool __bool);\n  function intFunctionReturnsInt (int _int) public pure returns(int __int){\n    int ___int;\n    return __int;\n  }\n  event IntEventReturnsInt(int __int);\n  function intFunctionReturnsInt8 (int _int) public pure returns(int8 __int8){\n    int8 ___int8;\n    return __int8;\n  }\n  event IntEventReturnsInt8(int8 __int8);\n  function intFunctionReturnsInt256 (int _int) public pure returns(int256 __int256){\n    int256 ___int256;\n    return __int256;\n  }\n  event IntEventReturnsInt256(int256 __int256);\n  function intFunctionReturnsUint (int _int) public pure returns(uint __uint){\n    uint ___uint;\n    return __uint;\n  }\n  event IntEventReturnsUint(uint __uint);\n  function intFunctionReturnsUint8 (int _int) public pure returns(uint8 __uint8){\n    uint8 ___uint8;\n    return __uint8;\n  }\n  event IntEventReturnsUint8(uint8 __uint8);\n  function intFunctionReturnsUint256 (int _int) public pure returns(uint256 __uint256){\n    uint256 ___uint256;\n    return __uint256;\n  }\n  event IntEventReturnsUint256(uint256 __uint256);\n  function intFunctionReturnsAddress (int _int) public pure returns(address __address){\n    address ___address;\n    return __address;\n  }\n  event IntEventReturnsAddress(address __address);\n  function intFunctionReturnsByte (int _int) public pure returns(byte __byte){\n    byte ___byte;\n    return __byte;\n  }\n  event IntEventReturnsByte(byte __byte);\n  function intFunctionReturnsBytes1 (int _int) public pure returns(bytes1 __bytes1){\n    bytes1 ___bytes1;\n    return __bytes1;\n  }\n  event IntEventReturnsBytes1(bytes1 __bytes1);\n  function intFunctionReturnsBytes32 (int _int) public pure returns(bytes32 __bytes32){\n    bytes32 ___bytes32;\n    return __bytes32;\n  }\n  event IntEventReturnsBytes32(bytes32 __bytes32);\n  function intFunctionReturnsBytes (int _int) public pure returns(bytes __bytes){\n    bytes ___bytes;\n    return __bytes;\n  }\n  event IntEventReturnsBytes(bytes __bytes);\n  function intFunctionReturnsString (int _int) public pure returns(string __string){\n    string ___string;\n    return __string;\n  }\n  event IntEventReturnsString(string __string);\n  function intInt256FunctionReturnsIntInt256 (int _int) public pure returns(int __int, int256 _int256_){\n    int ___int;\n    int256 ___int256;\n    return (___int, ___int256);\n  }\n  function int8FunctionReturnsBool (int8 _int8) public pure returns(bool __bool){\n    bool ___bool;\n    return __bool;\n  }\n  event Int8EventReturnsBool(bool __bool);\n  function int8FunctionReturnsInt (int8 _int8) public pure returns(int __int){\n    int ___int;\n    return __int;\n  }\n  event Int8EventReturnsInt(int __int);\n  function int8FunctionReturnsInt8 (int8 _int8) public pure returns(int8 __int8){\n    int8 ___int8;\n    return __int8;\n  }\n  event Int8EventReturnsInt8(int8 __int8);\n  function int8FunctionReturnsInt256 (int8 _int8) public pure returns(int256 __int256){\n    int256 ___int256;\n    return __int256;\n  }\n  event Int8EventReturnsInt256(int256 __int256);\n  function int8FunctionReturnsUint (int8 _int8) public pure returns(uint __uint){\n    uint ___uint;\n    return __uint;\n  }\n  event Int8EventReturnsUint(uint __uint);\n  function int8FunctionReturnsUint8 (int8 _int8) public pure returns(uint8 __uint8){\n    uint8 ___uint8;\n    return __uint8;\n  }\n  event Int8EventReturnsUint8(uint8 __uint8);\n  function int8FunctionReturnsUint256 (int8 _int8) public pure returns(uint256 __uint256){\n    uint256 ___uint256;\n    return __uint256;\n  }\n  event Int8EventReturnsUint256(uint256 __uint256);\n  function int8FunctionReturnsAddress (int8 _int8) public pure returns(address __address){\n    address ___address;\n    return __address;\n  }\n  event Int8EventReturnsAddress(address __address);\n  function int8FunctionReturnsByte (int8 _int8) public pure returns(byte __byte){\n    byte ___byte;\n    return __byte;\n  }\n  event Int8EventReturnsByte(byte __byte);\n  function int8FunctionReturnsBytes1 (int8 _int8) public pure returns(bytes1 __bytes1){\n    bytes1 ___bytes1;\n    return __bytes1;\n  }\n  event Int8EventReturnsBytes1(bytes1 __bytes1);\n  function int8FunctionReturnsBytes32 (int8 _int8) public pure returns(bytes32 __bytes32){\n    bytes32 ___bytes32;\n    return __bytes32;\n  }\n  event Int8EventReturnsBytes32(bytes32 __bytes32);\n  function int8FunctionReturnsBytes (int8 _int8) public pure returns(bytes __bytes){\n    bytes ___bytes;\n    return __bytes;\n  }\n  event Int8EventReturnsBytes(bytes __bytes);\n  function int8FunctionReturnsString (int8 _int8) public pure returns(string __string){\n    string ___string;\n    return __string;\n  }\n  event Int8EventReturnsString(string __string);\n  function int8IntFunctionReturnsInt8Int (int8 _int8) public pure returns(int8 __int8, int _int_){\n    int8 ___int8;\n    int ___int;\n    return (___int8, ___int);\n  }\n  function int256FunctionReturnsBool (int256 _int256) public pure returns(bool __bool){\n    bool ___bool;\n    return __bool;\n  }\n  event Int256EventReturnsBool(bool __bool);\n  function int256FunctionReturnsInt (int256 _int256) public pure returns(int __int){\n    int ___int;\n    return __int;\n  }\n  event Int256EventReturnsInt(int __int);\n  function int256FunctionReturnsInt8 (int256 _int256) public pure returns(int8 __int8){\n    int8 ___int8;\n    return __int8;\n  }\n  event Int256EventReturnsInt8(int8 __int8);\n  function int256FunctionReturnsInt256 (int256 _int256) public pure returns(int256 __int256){\n    int256 ___int256;\n    return __int256;\n  }\n  event Int256EventReturnsInt256(int256 __int256);\n  function int256FunctionReturnsUint (int256 _int256) public pure returns(uint __uint){\n    uint ___uint;\n    return __uint;\n  }\n  event Int256EventReturnsUint(uint __uint);\n  function int256FunctionReturnsUint8 (int256 _int256) public pure returns(uint8 __uint8){\n    uint8 ___uint8;\n    return __uint8;\n  }\n  event Int256EventReturnsUint8(uint8 __uint8);\n  function int256FunctionReturnsUint256 (int256 _int256) public pure returns(uint256 __uint256){\n    uint256 ___uint256;\n    return __uint256;\n  }\n  event Int256EventReturnsUint256(uint256 __uint256);\n  function int256FunctionReturnsAddress (int256 _int256) public pure returns(address __address){\n    address ___address;\n    return __address;\n  }\n  event Int256EventReturnsAddress(address __address);\n  function int256FunctionReturnsByte (int256 _int256) public pure returns(byte __byte){\n    byte ___byte;\n    return __byte;\n  }\n  event Int256EventReturnsByte(byte __byte);\n  function int256FunctionReturnsBytes1 (int256 _int256) public pure returns(bytes1 __bytes1){\n    bytes1 ___bytes1;\n    return __bytes1;\n  }\n  event Int256EventReturnsBytes1(bytes1 __bytes1);\n  function int256FunctionReturnsBytes32 (int256 _int256) public pure returns(bytes32 __bytes32){\n    bytes32 ___bytes32;\n    return __bytes32;\n  }\n  event Int256EventReturnsBytes32(bytes32 __bytes32);\n  function int256FunctionReturnsBytes (int256 _int256) public pure returns(bytes __bytes){\n    bytes ___bytes;\n    return __bytes;\n  }\n  event Int256EventReturnsBytes(bytes __bytes);\n  function int256FunctionReturnsString (int256 _int256) public pure returns(string __string){\n    string ___string;\n    return __string;\n  }\n  event Int256EventReturnsString(string __string);\n  function int256IntFunctionReturnsInt256Int (int256 _int256) public pure returns(int256 __int256, int _int_){\n    int256 ___int256;\n    int ___int;\n    return (___int256, ___int);\n  }\n  function uintFunctionReturnsBool (uint _uint) public pure returns(bool __bool){\n    bool ___bool;\n    return __bool;\n  }\n  event UintEventReturnsBool(bool __bool);\n  function uintFunctionReturnsInt (uint _uint) public pure returns(int __int){\n    int ___int;\n    return __int;\n  }\n  event UintEventReturnsInt(int __int);\n  function uintFunctionReturnsInt8 (uint _uint) public pure returns(int8 __int8){\n    int8 ___int8;\n    return __int8;\n  }\n  event UintEventReturnsInt8(int8 __int8);\n  function uintFunctionReturnsInt256 (uint _uint) public pure returns(int256 __int256){\n    int256 ___int256;\n    return __int256;\n  }\n  event UintEventReturnsInt256(int256 __int256);\n  function uintFunctionReturnsUint (uint _uint) public pure returns(uint __uint){\n    uint ___uint;\n    return __uint;\n  }\n  event UintEventReturnsUint(uint __uint);\n  function uintFunctionReturnsUint8 (uint _uint) public pure returns(uint8 __uint8){\n    uint8 ___uint8;\n    return __uint8;\n  }\n  event UintEventReturnsUint8(uint8 __uint8);\n  function uintFunctionReturnsUint256 (uint _uint) public pure returns(uint256 __uint256){\n    uint256 ___uint256;\n    return __uint256;\n  }\n  event UintEventReturnsUint256(uint256 __uint256);\n  function uintFunctionReturnsAddress (uint _uint) public pure returns(address __address){\n    address ___address;\n    return __address;\n  }\n  event UintEventReturnsAddress(address __address);\n  function uintFunctionReturnsByte (uint _uint) public pure returns(byte __byte){\n    byte ___byte;\n    return __byte;\n  }\n  event UintEventReturnsByte(byte __byte);\n  function uintFunctionReturnsBytes1 (uint _uint) public pure returns(bytes1 __bytes1){\n    bytes1 ___bytes1;\n    return __bytes1;\n  }\n  event UintEventReturnsBytes1(bytes1 __bytes1);\n  function uintFunctionReturnsBytes32 (uint _uint) public pure returns(bytes32 __bytes32){\n    bytes32 ___bytes32;\n    return __bytes32;\n  }\n  event UintEventReturnsBytes32(bytes32 __bytes32);\n  function uintFunctionReturnsBytes (uint _uint) public pure returns(bytes __bytes){\n    bytes ___bytes;\n    return __bytes;\n  }\n  event UintEventReturnsBytes(bytes __bytes);\n  function uintFunctionReturnsString (uint _uint) public pure returns(string __string){\n    string ___string;\n    return __string;\n  }\n  event UintEventReturnsString(string __string);\n  function uintUint256FunctionReturnsUintUint256 (uint _uint) public pure returns(uint __uint, uint256 _uint256_){\n    uint ___uint;\n    uint256 ___uint256;\n    return (___uint, ___uint256);\n  }\n  function uint8FunctionReturnsBool (uint8 _uint8) public pure returns(bool __bool){\n    bool ___bool;\n    return __bool;\n  }\n  event Uint8EventReturnsBool(bool __bool);\n  function uint8FunctionReturnsInt (uint8 _uint8) public pure returns(int __int){\n    int ___int;\n    return __int;\n  }\n  event Uint8EventReturnsInt(int __int);\n  function uint8FunctionReturnsInt8 (uint8 _uint8) public pure returns(int8 __int8){\n    int8 ___int8;\n    return __int8;\n  }\n  event Uint8EventReturnsInt8(int8 __int8);\n  function uint8FunctionReturnsInt256 (uint8 _uint8) public pure returns(int256 __int256){\n    int256 ___int256;\n    return __int256;\n  }\n  event Uint8EventReturnsInt256(int256 __int256);\n  function uint8FunctionReturnsUint (uint8 _uint8) public pure returns(uint __uint){\n    uint ___uint;\n    return __uint;\n  }\n  event Uint8EventReturnsUint(uint __uint);\n  function uint8FunctionReturnsUint8 (uint8 _uint8) public pure returns(uint8 __uint8){\n    uint8 ___uint8;\n    return __uint8;\n  }\n  event Uint8EventReturnsUint8(uint8 __uint8);\n  function uint8FunctionReturnsUint256 (uint8 _uint8) public pure returns(uint256 __uint256){\n    uint256 ___uint256;\n    return __uint256;\n  }\n  event Uint8EventReturnsUint256(uint256 __uint256);\n  function uint8FunctionReturnsAddress (uint8 _uint8) public pure returns(address __address){\n    address ___address;\n    return __address;\n  }\n  event Uint8EventReturnsAddress(address __address);\n  function uint8FunctionReturnsByte (uint8 _uint8) public pure returns(byte __byte){\n    byte ___byte;\n    return __byte;\n  }\n  event Uint8EventReturnsByte(byte __byte);\n  function uint8FunctionReturnsBytes1 (uint8 _uint8) public pure returns(bytes1 __bytes1){\n    bytes1 ___bytes1;\n    return __bytes1;\n  }\n  event Uint8EventReturnsBytes1(bytes1 __bytes1);\n  function uint8FunctionReturnsBytes32 (uint8 _uint8) public pure returns(bytes32 __bytes32){\n    bytes32 ___bytes32;\n    return __bytes32;\n  }\n  event Uint8EventReturnsBytes32(bytes32 __bytes32);\n  function uint8FunctionReturnsBytes (uint8 _uint8) public pure returns(bytes __bytes){\n    bytes ___bytes;\n    return __bytes;\n  }\n  event Uint8EventReturnsBytes(bytes __bytes);\n  function uint8FunctionReturnsString (uint8 _uint8) public pure returns(string __string){\n    string ___string;\n    return __string;\n  }\n  event Uint8EventReturnsString(string __string);\n  function uint8AddressFunctionReturnsUint8Address (uint8 _uint8) public pure returns(uint8 __uint8, address _address_){\n    uint8 ___uint8;\n    address ___address;\n    return (___uint8, ___address);\n  }\n  function uint256FunctionReturnsBool (uint256 _uint256) public pure returns(bool __bool){\n    bool ___bool;\n    return __bool;\n  }\n  event Uint256EventReturnsBool(bool __bool);\n  function uint256FunctionReturnsInt (uint256 _uint256) public pure returns(int __int){\n    int ___int;\n    return __int;\n  }\n  event Uint256EventReturnsInt(int __int);\n  function uint256FunctionReturnsInt8 (uint256 _uint256) public pure returns(int8 __int8){\n    int8 ___int8;\n    return __int8;\n  }\n  event Uint256EventReturnsInt8(int8 __int8);\n  function uint256FunctionReturnsInt256 (uint256 _uint256) public pure returns(int256 __int256){\n    int256 ___int256;\n    return __int256;\n  }\n  event Uint256EventReturnsInt256(int256 __int256);\n  function uint256FunctionReturnsUint (uint256 _uint256) public pure returns(uint __uint){\n    uint ___uint;\n    return __uint;\n  }\n  event Uint256EventReturnsUint(uint __uint);\n  function uint256FunctionReturnsUint8 (uint256 _uint256) public pure returns(uint8 __uint8){\n    uint8 ___uint8;\n    return __uint8;\n  }\n  event Uint256EventReturnsUint8(uint8 __uint8);\n  function uint256FunctionReturnsUint256 (uint256 _uint256) public pure returns(uint256 __uint256){\n    uint256 ___uint256;\n    return __uint256;\n  }\n  event Uint256EventReturnsUint256(uint256 __uint256);\n  function uint256FunctionReturnsAddress (uint256 _uint256) public pure returns(address __address){\n    address ___address;\n    return __address;\n  }\n  event Uint256EventReturnsAddress(address __address);\n  function uint256FunctionReturnsByte (uint256 _uint256) public pure returns(byte __byte){\n    byte ___byte;\n    return __byte;\n  }\n  event Uint256EventReturnsByte(byte __byte);\n  function uint256FunctionReturnsBytes1 (uint256 _uint256) public pure returns(bytes1 __bytes1){\n    bytes1 ___bytes1;\n    return __bytes1;\n  }\n  event Uint256EventReturnsBytes1(bytes1 __bytes1);\n  function uint256FunctionReturnsBytes32 (uint256 _uint256) public pure returns(bytes32 __bytes32){\n    bytes32 ___bytes32;\n    return __bytes32;\n  }\n  event Uint256EventReturnsBytes32(bytes32 __bytes32);\n  function uint256FunctionReturnsBytes (uint256 _uint256) public pure returns(bytes __bytes){\n    bytes ___bytes;\n    return __bytes;\n  }\n  event Uint256EventReturnsBytes(bytes __bytes);\n  function uint256FunctionReturnsString (uint256 _uint256) public pure returns(string __string){\n    string ___string;\n    return __string;\n  }\n  event Uint256EventReturnsString(string __string);\n  function uint256Bytes1FunctionReturnsUint256Bytes1 (uint256 _uint256) public pure returns(uint256 __uint256, bytes1 _bytes1_){\n    uint256 ___uint256;\n    bytes1 ___bytes1;\n    return (___uint256, ___bytes1);\n  }\n  function addressFunctionReturnsBool (address _address) public pure returns(bool __bool){\n    bool ___bool;\n    return __bool;\n  }\n  event AddressEventReturnsBool(bool __bool);\n  function addressFunctionReturnsInt (address _address) public pure returns(int __int){\n    int ___int;\n    return __int;\n  }\n  event AddressEventReturnsInt(int __int);\n  function addressFunctionReturnsInt8 (address _address) public pure returns(int8 __int8){\n    int8 ___int8;\n    return __int8;\n  }\n  event AddressEventReturnsInt8(int8 __int8);\n  function addressFunctionReturnsInt256 (address _address) public pure returns(int256 __int256){\n    int256 ___int256;\n    return __int256;\n  }\n  event AddressEventReturnsInt256(int256 __int256);\n  function addressFunctionReturnsUint (address _address) public pure returns(uint __uint){\n    uint ___uint;\n    return __uint;\n  }\n  event AddressEventReturnsUint(uint __uint);\n  function addressFunctionReturnsUint8 (address _address) public pure returns(uint8 __uint8){\n    uint8 ___uint8;\n    return __uint8;\n  }\n  event AddressEventReturnsUint8(uint8 __uint8);\n  function addressFunctionReturnsUint256 (address _address) public pure returns(uint256 __uint256){\n    uint256 ___uint256;\n    return __uint256;\n  }\n  event AddressEventReturnsUint256(uint256 __uint256);\n  function addressFunctionReturnsAddress (address _address) public pure returns(address __address){\n    address ___address;\n    return __address;\n  }\n  event AddressEventReturnsAddress(address __address);\n  function addressFunctionReturnsByte (address _address) public pure returns(byte __byte){\n    byte ___byte;\n    return __byte;\n  }\n  event AddressEventReturnsByte(byte __byte);\n  function addressFunctionReturnsBytes1 (address _address) public pure returns(bytes1 __bytes1){\n    bytes1 ___bytes1;\n    return __bytes1;\n  }\n  event AddressEventReturnsBytes1(bytes1 __bytes1);\n  function addressFunctionReturnsBytes32 (address _address) public pure returns(bytes32 __bytes32){\n    bytes32 ___bytes32;\n    return __bytes32;\n  }\n  event AddressEventReturnsBytes32(bytes32 __bytes32);\n  function addressFunctionReturnsBytes (address _address) public pure returns(bytes __bytes){\n    bytes ___bytes;\n    return __bytes;\n  }\n  event AddressEventReturnsBytes(bytes __bytes);\n  function addressFunctionReturnsString (address _address) public pure returns(string __string){\n    string ___string;\n    return __string;\n  }\n  event AddressEventReturnsString(string __string);\n  function addressInt256FunctionReturnsAddressInt256 (address _address) public pure returns(address __address, int256 _int256_){\n    address ___address;\n    int256 ___int256;\n    return (___address, ___int256);\n  }\n  function byteFunctionReturnsBool (byte _byte) public pure returns(bool __bool){\n    bool ___bool;\n    return __bool;\n  }\n  event ByteEventReturnsBool(bool __bool);\n  function byteFunctionReturnsInt (byte _byte) public pure returns(int __int){\n    int ___int;\n    return __int;\n  }\n  event ByteEventReturnsInt(int __int);\n  function byteFunctionReturnsInt8 (byte _byte) public pure returns(int8 __int8){\n    int8 ___int8;\n    return __int8;\n  }\n  event ByteEventReturnsInt8(int8 __int8);\n  function byteFunctionReturnsInt256 (byte _byte) public pure returns(int256 __int256){\n    int256 ___int256;\n    return __int256;\n  }\n  event ByteEventReturnsInt256(int256 __int256);\n  function byteFunctionReturnsUint (byte _byte) public pure returns(uint __uint){\n    uint ___uint;\n    return __uint;\n  }\n  event ByteEventReturnsUint(uint __uint);\n  function byteFunctionReturnsUint8 (byte _byte) public pure returns(uint8 __uint8){\n    uint8 ___uint8;\n    return __uint8;\n  }\n  event ByteEventReturnsUint8(uint8 __uint8);\n  function byteFunctionReturnsUint256 (byte _byte) public pure returns(uint256 __uint256){\n    uint256 ___uint256;\n    return __uint256;\n  }\n  event ByteEventReturnsUint256(uint256 __uint256);\n  function byteFunctionReturnsAddress (byte _byte) public pure returns(address __address){\n    address ___address;\n    return __address;\n  }\n  event ByteEventReturnsAddress(address __address);\n  function byteFunctionReturnsByte (byte _byte) public pure returns(byte __byte){\n    byte ___byte;\n    return __byte;\n  }\n  event ByteEventReturnsByte(byte __byte);\n  function byteFunctionReturnsBytes1 (byte _byte) public pure returns(bytes1 __bytes1){\n    bytes1 ___bytes1;\n    return __bytes1;\n  }\n  event ByteEventReturnsBytes1(bytes1 __bytes1);\n  function byteFunctionReturnsBytes32 (byte _byte) public pure returns(bytes32 __bytes32){\n    bytes32 ___bytes32;\n    return __bytes32;\n  }\n  event ByteEventReturnsBytes32(bytes32 __bytes32);\n  function byteFunctionReturnsBytes (byte _byte) public pure returns(bytes __bytes){\n    bytes ___bytes;\n    return __bytes;\n  }\n  event ByteEventReturnsBytes(bytes __bytes);\n  function byteFunctionReturnsString (byte _byte) public pure returns(string __string){\n    string ___string;\n    return __string;\n  }\n  event ByteEventReturnsString(string __string);\n  function byteBytes32FunctionReturnsByteBytes32 (byte _byte) public pure returns(byte __byte, bytes32 _bytes32_){\n    byte ___byte;\n    bytes32 ___bytes32;\n    return (___byte, ___bytes32);\n  }\n  function bytes1FunctionReturnsBool (bytes1 _bytes1) public pure returns(bool __bool){\n    bool ___bool;\n    return __bool;\n  }\n  event Bytes1EventReturnsBool(bool __bool);\n  function bytes1FunctionReturnsInt (bytes1 _bytes1) public pure returns(int __int){\n    int ___int;\n    return __int;\n  }\n  event Bytes1EventReturnsInt(int __int);\n  function bytes1FunctionReturnsInt8 (bytes1 _bytes1) public pure returns(int8 __int8){\n    int8 ___int8;\n    return __int8;\n  }\n  event Bytes1EventReturnsInt8(int8 __int8);\n  function bytes1FunctionReturnsInt256 (bytes1 _bytes1) public pure returns(int256 __int256){\n    int256 ___int256;\n    return __int256;\n  }\n  event Bytes1EventReturnsInt256(int256 __int256);\n  function bytes1FunctionReturnsUint (bytes1 _bytes1) public pure returns(uint __uint){\n    uint ___uint;\n    return __uint;\n  }\n  event Bytes1EventReturnsUint(uint __uint);\n  function bytes1FunctionReturnsUint8 (bytes1 _bytes1) public pure returns(uint8 __uint8){\n    uint8 ___uint8;\n    return __uint8;\n  }\n  event Bytes1EventReturnsUint8(uint8 __uint8);\n  function bytes1FunctionReturnsUint256 (bytes1 _bytes1) public pure returns(uint256 __uint256){\n    uint256 ___uint256;\n    return __uint256;\n  }\n  event Bytes1EventReturnsUint256(uint256 __uint256);\n  function bytes1FunctionReturnsAddress (bytes1 _bytes1) public pure returns(address __address){\n    address ___address;\n    return __address;\n  }\n  event Bytes1EventReturnsAddress(address __address);\n  function bytes1FunctionReturnsByte (bytes1 _bytes1) public pure returns(byte __byte){\n    byte ___byte;\n    return __byte;\n  }\n  event Bytes1EventReturnsByte(byte __byte);\n  function bytes1FunctionReturnsBytes1 (bytes1 _bytes1) public pure returns(bytes1 __bytes1){\n    bytes1 ___bytes1;\n    return __bytes1;\n  }\n  event Bytes1EventReturnsBytes1(bytes1 __bytes1);\n  function bytes1FunctionReturnsBytes32 (bytes1 _bytes1) public pure returns(bytes32 __bytes32){\n    bytes32 ___bytes32;\n    return __bytes32;\n  }\n  event Bytes1EventReturnsBytes32(bytes32 __bytes32);\n  function bytes1FunctionReturnsBytes (bytes1 _bytes1) public pure returns(bytes __bytes){\n    bytes ___bytes;\n    return __bytes;\n  }\n  event Bytes1EventReturnsBytes(bytes __bytes);\n  function bytes1FunctionReturnsString (bytes1 _bytes1) public pure returns(string __string){\n    string ___string;\n    return __string;\n  }\n  event Bytes1EventReturnsString(string __string);\n  function bytes1Int256FunctionReturnsBytes1Int256 (bytes1 _bytes1) public pure returns(bytes1 __bytes1, int256 _int256_){\n    bytes1 ___bytes1;\n    int256 ___int256;\n    return (___bytes1, ___int256);\n  }\n  function bytes32FunctionReturnsBool (bytes32 _bytes32) public pure returns(bool __bool){\n    bool ___bool;\n    return __bool;\n  }\n  event Bytes32EventReturnsBool(bool __bool);\n  function bytes32FunctionReturnsInt (bytes32 _bytes32) public pure returns(int __int){\n    int ___int;\n    return __int;\n  }\n  event Bytes32EventReturnsInt(int __int);\n  function bytes32FunctionReturnsInt8 (bytes32 _bytes32) public pure returns(int8 __int8){\n    int8 ___int8;\n    return __int8;\n  }\n  event Bytes32EventReturnsInt8(int8 __int8);\n  function bytes32FunctionReturnsInt256 (bytes32 _bytes32) public pure returns(int256 __int256){\n    int256 ___int256;\n    return __int256;\n  }\n  event Bytes32EventReturnsInt256(int256 __int256);\n  function bytes32FunctionReturnsUint (bytes32 _bytes32) public pure returns(uint __uint){\n    uint ___uint;\n    return __uint;\n  }\n  event Bytes32EventReturnsUint(uint __uint);\n  function bytes32FunctionReturnsUint8 (bytes32 _bytes32) public pure returns(uint8 __uint8){\n    uint8 ___uint8;\n    return __uint8;\n  }\n  event Bytes32EventReturnsUint8(uint8 __uint8);\n  function bytes32FunctionReturnsUint256 (bytes32 _bytes32) public pure returns(uint256 __uint256){\n    uint256 ___uint256;\n    return __uint256;\n  }\n  event Bytes32EventReturnsUint256(uint256 __uint256);\n  function bytes32FunctionReturnsAddress (bytes32 _bytes32) public pure returns(address __address){\n    address ___address;\n    return __address;\n  }\n  event Bytes32EventReturnsAddress(address __address);\n  function bytes32FunctionReturnsByte (bytes32 _bytes32) public pure returns(byte __byte){\n    byte ___byte;\n    return __byte;\n  }\n  event Bytes32EventReturnsByte(byte __byte);\n  function bytes32FunctionReturnsBytes1 (bytes32 _bytes32) public pure returns(bytes1 __bytes1){\n    bytes1 ___bytes1;\n    return __bytes1;\n  }\n  event Bytes32EventReturnsBytes1(bytes1 __bytes1);\n  function bytes32FunctionReturnsBytes32 (bytes32 _bytes32) public pure returns(bytes32 __bytes32){\n    bytes32 ___bytes32;\n    return __bytes32;\n  }\n  event Bytes32EventReturnsBytes32(bytes32 __bytes32);\n  function bytes32FunctionReturnsBytes (bytes32 _bytes32) public pure returns(bytes __bytes){\n    bytes ___bytes;\n    return __bytes;\n  }\n  event Bytes32EventReturnsBytes(bytes __bytes);\n  function bytes32FunctionReturnsString (bytes32 _bytes32) public pure returns(string __string){\n    string ___string;\n    return __string;\n  }\n  event Bytes32EventReturnsString(string __string);\n  function bytes32Bytes1FunctionReturnsBytes32Bytes1 (bytes32 _bytes32) public pure returns(bytes32 __bytes32, bytes1 _bytes1_){\n    bytes32 ___bytes32;\n    bytes1 ___bytes1;\n    return (___bytes32, ___bytes1);\n  }\n  function bytesFunctionReturnsBool (bytes _bytes) public pure returns(bool __bool){\n    bool ___bool;\n    return __bool;\n  }\n  event BytesEventReturnsBool(bool __bool);\n  function bytesFunctionReturnsInt (bytes _bytes) public pure returns(int __int){\n    int ___int;\n    return __int;\n  }\n  event BytesEventReturnsInt(int __int);\n  function bytesFunctionReturnsInt8 (bytes _bytes) public pure returns(int8 __int8){\n    int8 ___int8;\n    return __int8;\n  }\n  event BytesEventReturnsInt8(int8 __int8);\n  function bytesFunctionReturnsInt256 (bytes _bytes) public pure returns(int256 __int256){\n    int256 ___int256;\n    return __int256;\n  }\n  event BytesEventReturnsInt256(int256 __int256);\n  function bytesFunctionReturnsUint (bytes _bytes) public pure returns(uint __uint){\n    uint ___uint;\n    return __uint;\n  }\n  event BytesEventReturnsUint(uint __uint);\n  function bytesFunctionReturnsUint8 (bytes _bytes) public pure returns(uint8 __uint8){\n    uint8 ___uint8;\n    return __uint8;\n  }\n  event BytesEventReturnsUint8(uint8 __uint8);\n  function bytesFunctionReturnsUint256 (bytes _bytes) public pure returns(uint256 __uint256){\n    uint256 ___uint256;\n    return __uint256;\n  }\n  event BytesEventReturnsUint256(uint256 __uint256);\n  function bytesFunctionReturnsAddress (bytes _bytes) public pure returns(address __address){\n    address ___address;\n    return __address;\n  }\n  event BytesEventReturnsAddress(address __address);\n  function bytesFunctionReturnsByte (bytes _bytes) public pure returns(byte __byte){\n    byte ___byte;\n    return __byte;\n  }\n  event BytesEventReturnsByte(byte __byte);\n  function bytesFunctionReturnsBytes1 (bytes _bytes) public pure returns(bytes1 __bytes1){\n    bytes1 ___bytes1;\n    return __bytes1;\n  }\n  event BytesEventReturnsBytes1(bytes1 __bytes1);\n  function bytesFunctionReturnsBytes32 (bytes _bytes) public pure returns(bytes32 __bytes32){\n    bytes32 ___bytes32;\n    return __bytes32;\n  }\n  event BytesEventReturnsBytes32(bytes32 __bytes32);\n  function bytesFunctionReturnsBytes (bytes _bytes) public pure returns(bytes __bytes){\n    bytes ___bytes;\n    return __bytes;\n  }\n  event BytesEventReturnsBytes(bytes __bytes);\n  function bytesFunctionReturnsString (bytes _bytes) public pure returns(string __string){\n    string ___string;\n    return __string;\n  }\n  event BytesEventReturnsString(string __string);\n  function bytesInt256FunctionReturnsBytesInt256 (bytes _bytes) public pure returns(bytes __bytes, int256 _int256_){\n    bytes ___bytes;\n    int256 ___int256;\n    return (___bytes, ___int256);\n  }\n  function stringFunctionReturnsBool (string _string) public pure returns(bool __bool){\n    bool ___bool;\n    return __bool;\n  }\n  event StringEventReturnsBool(bool __bool);\n  function stringFunctionReturnsInt (string _string) public pure returns(int __int){\n    int ___int;\n    return __int;\n  }\n  event StringEventReturnsInt(int __int);\n  function stringFunctionReturnsInt8 (string _string) public pure returns(int8 __int8){\n    int8 ___int8;\n    return __int8;\n  }\n  event StringEventReturnsInt8(int8 __int8);\n  function stringFunctionReturnsInt256 (string _string) public pure returns(int256 __int256){\n    int256 ___int256;\n    return __int256;\n  }\n  event StringEventReturnsInt256(int256 __int256);\n  function stringFunctionReturnsUint (string _string) public pure returns(uint __uint){\n    uint ___uint;\n    return __uint;\n  }\n  event StringEventReturnsUint(uint __uint);\n  function stringFunctionReturnsUint8 (string _string) public pure returns(uint8 __uint8){\n    uint8 ___uint8;\n    return __uint8;\n  }\n  event StringEventReturnsUint8(uint8 __uint8);\n  function stringFunctionReturnsUint256 (string _string) public pure returns(uint256 __uint256){\n    uint256 ___uint256;\n    return __uint256;\n  }\n  event StringEventReturnsUint256(uint256 __uint256);\n  function stringFunctionReturnsAddress (string _string) public pure returns(address __address){\n    address ___address;\n    return __address;\n  }\n  event StringEventReturnsAddress(address __address);\n  function stringFunctionReturnsByte (string _string) public pure returns(byte __byte){\n    byte ___byte;\n    return __byte;\n  }\n  event StringEventReturnsByte(byte __byte);\n  function stringFunctionReturnsBytes1 (string _string) public pure returns(bytes1 __bytes1){\n    bytes1 ___bytes1;\n    return __bytes1;\n  }\n  event StringEventReturnsBytes1(bytes1 __bytes1);\n  function stringFunctionReturnsBytes32 (string _string) public pure returns(bytes32 __bytes32){\n    bytes32 ___bytes32;\n    return __bytes32;\n  }\n  event StringEventReturnsBytes32(bytes32 __bytes32);\n  function stringFunctionReturnsBytes (string _string) public pure returns(bytes __bytes){\n    bytes ___bytes;\n    return __bytes;\n  }\n  event StringEventReturnsBytes(bytes __bytes);\n  function stringFunctionReturnsString (string _string) public pure returns(string __string){\n    string ___string;\n    return __string;\n  }\n  event StringEventReturnsString(string __string);\n  function stringInt256FunctionReturnsStringInt256 (string _string) public pure returns(string __string, int256 _int256_){\n    string ___string;\n    int256 ___int256;\n    return (___string, ___int256);\n  }\n\n}",
  "sourcePath": "/Users/billy/Documents/htdocs/dapp-scratch/contracts/SampleContract.sol",
  "compiler": {
    "name": "solc",
    "version": "0.4.18+commit.9cf6e910.Emscripten.clang"
  },
  "schemaVersion": "1.0.1",
  "updatedAt": "2017-11-08T13:58:46.605Z"
}