{
  "contractName": "SampleContract",
  "abi": [
    {
      "constant": true,
      "inputs": [
        {
          "name": "_bytes1",
          "type": "bytes1"
        }
      ],
      "name": "bytes1FunctionReturnsBytes",
      "outputs": [
        {
          "name": "__bytes",
          "type": "bytes"
        }
      ],
      "payable": false,
      "stateMutability": "view",
      "type": "function"
    },
    {
      "constant": true,
      "inputs": [
        {
          "name": "_int8",
          "type": "int8"
        }
      ],
      "name": "int8FunctionReturnsUint",
      "outputs": [
        {
          "name": "__uint",
          "type": "uint256"
        }
      ],
      "payable": false,
      "stateMutability": "view",
      "type": "function"
    },
    {
      "constant": true,
      "inputs": [
        {
          "name": "_bytes1",
          "type": "bytes1"
        }
      ],
      "name": "bytes1FunctionReturnsAddress",
      "outputs": [
        {
          "name": "__address",
          "type": "address"
        }
      ],
      "payable": false,
      "stateMutability": "view",
      "type": "function"
    },
    {
      "constant": true,
      "inputs": [
        {
          "name": "_string",
          "type": "string"
        }
      ],
      "name": "stringUint8FunctionReturnsStringUint8",
      "outputs": [
        {
          "name": "__string",
          "type": "string"
        },
        {
          "name": "_uint8_",
          "type": "uint8"
        }
      ],
      "payable": false,
      "stateMutability": "view",
      "type": "function"
    },
    {
      "constant": true,
      "inputs": [
        {
          "name": "_byte",
          "type": "bytes1"
        }
      ],
      "name": "byteFunctionReturnsBytes",
      "outputs": [
        {
          "name": "__bytes",
          "type": "bytes"
        }
      ],
      "payable": false,
      "stateMutability": "view",
      "type": "function"
    },
    {
      "constant": true,
      "inputs": [
        {
          "name": "_bytes1",
          "type": "bytes1"
        }
      ],
      "name": "bytes1FunctionReturnsInt256",
      "outputs": [
        {
          "name": "__int256",
          "type": "int256"
        }
      ],
      "payable": false,
      "stateMutability": "view",
      "type": "function"
    },
    {
      "constant": true,
      "inputs": [
        {
          "name": "_int8",
          "type": "int8"
        }
      ],
      "name": "int8FunctionReturnsAddress",
      "outputs": [
        {
          "name": "__address",
          "type": "address"
        }
      ],
      "payable": false,
      "stateMutability": "view",
      "type": "function"
    },
    {
      "constant": true,
      "inputs": [
        {
          "name": "_uint8",
          "type": "uint8"
        }
      ],
      "name": "uint8FunctionReturnsUint256",
      "outputs": [
        {
          "name": "__uint256",
          "type": "uint256"
        }
      ],
      "payable": false,
      "stateMutability": "view",
      "type": "function"
    },
    {
      "constant": true,
      "inputs": [
        {
          "name": "_uint",
          "type": "uint256"
        }
      ],
      "name": "uintFunctionReturnsInt256",
      "outputs": [
        {
          "name": "__int256",
          "type": "int256"
        }
      ],
      "payable": false,
      "stateMutability": "view",
      "type": "function"
    },
    {
      "constant": true,
      "inputs": [
        {
          "name": "_string",
          "type": "string"
        }
      ],
      "name": "stringFunctionReturnsBytes",
      "outputs": [
        {
          "name": "__bytes",
          "type": "bytes"
        }
      ],
      "payable": false,
      "stateMutability": "view",
      "type": "function"
    },
    {
      "constant": true,
      "inputs": [
        {
          "name": "_uint",
          "type": "uint256"
        }
      ],
      "name": "uintFunctionReturnsBytes32",
      "outputs": [
        {
          "name": "__bytes32",
          "type": "bytes32"
        }
      ],
      "payable": false,
      "stateMutability": "view",
      "type": "function"
    },
    {
      "constant": true,
      "inputs": [
        {
          "name": "_int",
          "type": "int256"
        }
      ],
      "name": "intFunctionReturnsUint8",
      "outputs": [
        {
          "name": "__uint8",
          "type": "uint8"
        }
      ],
      "payable": false,
      "stateMutability": "view",
      "type": "function"
    },
    {
      "constant": true,
      "inputs": [
        {
          "name": "_byte",
          "type": "bytes1"
        }
      ],
      "name": "byteFunctionReturnsInt8",
      "outputs": [
        {
          "name": "__int8",
          "type": "int8"
        }
      ],
      "payable": false,
      "stateMutability": "view",
      "type": "function"
    },
    {
      "constant": true,
      "inputs": [
        {
          "name": "_bytes1",
          "type": "bytes1"
        }
      ],
      "name": "bytes1FunctionReturnsBytes1",
      "outputs": [
        {
          "name": "__bytes1",
          "type": "bytes1"
        }
      ],
      "payable": false,
      "stateMutability": "view",
      "type": "function"
    },
    {
      "constant": true,
      "inputs": [
        {
          "name": "_int256",
          "type": "int256"
        }
      ],
      "name": "int256FunctionReturnsUint",
      "outputs": [
        {
          "name": "__uint",
          "type": "uint256"
        }
      ],
      "payable": false,
      "stateMutability": "view",
      "type": "function"
    },
    {
      "constant": true,
      "inputs": [
        {
          "name": "_int8",
          "type": "int8"
        }
      ],
      "name": "int8FunctionReturnsByte",
      "outputs": [
        {
          "name": "__byte",
          "type": "bytes1"
        }
      ],
      "payable": false,
      "stateMutability": "view",
      "type": "function"
    },
    {
      "constant": true,
      "inputs": [
        {
          "name": "_uint",
          "type": "uint256"
        }
      ],
      "name": "uintFunctionReturnsBool",
      "outputs": [
        {
          "name": "__bool",
          "type": "bool"
        }
      ],
      "payable": false,
      "stateMutability": "view",
      "type": "function"
    },
    {
      "constant": true,
      "inputs": [
        {
          "name": "_int8",
          "type": "int8"
        }
      ],
      "name": "int8FunctionReturnsInt8",
      "outputs": [
        {
          "name": "__int8",
          "type": "int8"
        }
      ],
      "payable": false,
      "stateMutability": "view",
      "type": "function"
    },
    {
      "constant": true,
      "inputs": [
        {
          "name": "_uint256",
          "type": "uint256"
        }
      ],
      "name": "uint256FunctionReturnsBool",
      "outputs": [
        {
          "name": "__bool",
          "type": "bool"
        }
      ],
      "payable": false,
      "stateMutability": "view",
      "type": "function"
    },
    {
      "constant": true,
      "inputs": [
        {
          "name": "_bytes32",
          "type": "bytes32"
        }
      ],
      "name": "bytes32FunctionReturnsUint",
      "outputs": [
        {
          "name": "__uint",
          "type": "uint256"
        }
      ],
      "payable": false,
      "stateMutability": "view",
      "type": "function"
    },
    {
      "constant": true,
      "inputs": [
        {
          "name": "_uint8",
          "type": "uint8"
        }
      ],
      "name": "uint8FunctionReturnsInt256",
      "outputs": [
        {
          "name": "__int256",
          "type": "int256"
        }
      ],
      "payable": false,
      "stateMutability": "view",
      "type": "function"
    },
    {
      "constant": true,
      "inputs": [
        {
          "name": "_uint8",
          "type": "uint8"
        }
      ],
      "name": "uint8FunctionReturnsString",
      "outputs": [
        {
          "name": "__string",
          "type": "string"
        }
      ],
      "payable": false,
      "stateMutability": "view",
      "type": "function"
    },
    {
      "constant": true,
      "inputs": [
        {
          "name": "_uint256",
          "type": "uint256"
        }
      ],
      "name": "uint256FunctionReturnsBytes",
      "outputs": [
        {
          "name": "__bytes",
          "type": "bytes"
        }
      ],
      "payable": false,
      "stateMutability": "view",
      "type": "function"
    },
    {
      "constant": true,
      "inputs": [
        {
          "name": "_bytes1",
          "type": "bytes1"
        }
      ],
      "name": "bytes1FunctionReturnsUint",
      "outputs": [
        {
          "name": "__uint",
          "type": "uint256"
        }
      ],
      "payable": false,
      "stateMutability": "view",
      "type": "function"
    },
    {
      "constant": true,
      "inputs": [
        {
          "name": "_byte",
          "type": "bytes1"
        }
      ],
      "name": "byteFunctionReturnsString",
      "outputs": [
        {
          "name": "__string",
          "type": "string"
        }
      ],
      "payable": false,
      "stateMutability": "view",
      "type": "function"
    },
    {
      "constant": true,
      "inputs": [
        {
          "name": "_uint",
          "type": "uint256"
        }
      ],
      "name": "uintFunctionReturnsInt8",
      "outputs": [
        {
          "name": "__int8",
          "type": "int8"
        }
      ],
      "payable": false,
      "stateMutability": "view",
      "type": "function"
    },
    {
      "constant": false,
      "inputs": [
        {
          "name": "__byte",
          "type": "bytes1"
        }
      ],
      "name": "changeByte",
      "outputs": [],
      "payable": false,
      "stateMutability": "nonpayable",
      "type": "function"
    },
    {
      "constant": true,
      "inputs": [
        {
          "name": "_bytes",
          "type": "bytes"
        }
      ],
      "name": "bytesFunctionReturnsUint256",
      "outputs": [
        {
          "name": "__uint256",
          "type": "uint256"
        }
      ],
      "payable": false,
      "stateMutability": "view",
      "type": "function"
    },
    {
      "constant": true,
      "inputs": [
        {
          "name": "_uint",
          "type": "uint256"
        }
      ],
      "name": "uintFunctionReturnsBytes1",
      "outputs": [
        {
          "name": "__bytes1",
          "type": "bytes1"
        }
      ],
      "payable": false,
      "stateMutability": "view",
      "type": "function"
    },
    {
      "constant": true,
      "inputs": [
        {
          "name": "_bytes",
          "type": "bytes"
        }
      ],
      "name": "bytesFunctionReturnsInt256",
      "outputs": [
        {
          "name": "__int256",
          "type": "int256"
        }
      ],
      "payable": false,
      "stateMutability": "view",
      "type": "function"
    },
    {
      "constant": true,
      "inputs": [
        {
          "name": "_string",
          "type": "string"
        }
      ],
      "name": "stringFunctionReturnsInt256",
      "outputs": [
        {
          "name": "__int256",
          "type": "int256"
        }
      ],
      "payable": false,
      "stateMutability": "view",
      "type": "function"
    },
    {
      "constant": true,
      "inputs": [
        {
          "name": "_uint8",
          "type": "uint8"
        }
      ],
      "name": "uint8FunctionReturnsByte",
      "outputs": [
        {
          "name": "__byte",
          "type": "bytes1"
        }
      ],
      "payable": false,
      "stateMutability": "view",
      "type": "function"
    },
    {
      "constant": true,
      "inputs": [
        {
          "name": "_int",
          "type": "int256"
        }
      ],
      "name": "intFunctionReturnsInt",
      "outputs": [
        {
          "name": "__int",
          "type": "int256"
        }
      ],
      "payable": false,
      "stateMutability": "view",
      "type": "function"
    },
    {
      "constant": true,
      "inputs": [
        {
          "name": "_bytes32",
          "type": "bytes32"
        }
      ],
      "name": "bytes32FunctionReturnsBytes",
      "outputs": [
        {
          "name": "__bytes",
          "type": "bytes"
        }
      ],
      "payable": false,
      "stateMutability": "view",
      "type": "function"
    },
    {
      "constant": true,
      "inputs": [
        {
          "name": "_address",
          "type": "address"
        }
      ],
      "name": "addressFunctionReturnsUint8",
      "outputs": [
        {
          "name": "__uint8",
          "type": "uint8"
        }
      ],
      "payable": false,
      "stateMutability": "view",
      "type": "function"
    },
    {
      "constant": true,
      "inputs": [
        {
          "name": "_bool",
          "type": "bool"
        }
      ],
      "name": "boolFunctionReturnsUint8",
      "outputs": [
        {
          "name": "__uint8",
          "type": "uint8"
        }
      ],
      "payable": false,
      "stateMutability": "view",
      "type": "function"
    },
    {
      "constant": true,
      "inputs": [
        {
          "name": "_uint256",
          "type": "uint256"
        }
      ],
      "name": "uint256FunctionReturnsBytes32",
      "outputs": [
        {
          "name": "__bytes32",
          "type": "bytes32"
        }
      ],
      "payable": false,
      "stateMutability": "view",
      "type": "function"
    },
    {
      "constant": true,
      "inputs": [
        {
          "name": "_uint256",
          "type": "uint256"
        }
      ],
      "name": "uint256FunctionReturnsInt8",
      "outputs": [
        {
          "name": "__int8",
          "type": "int8"
        }
      ],
      "payable": false,
      "stateMutability": "view",
      "type": "function"
    },
    {
      "constant": true,
      "inputs": [
        {
          "name": "_int256",
          "type": "int256"
        }
      ],
      "name": "int256FunctionReturnsString",
      "outputs": [
        {
          "name": "__string",
          "type": "string"
        }
      ],
      "payable": false,
      "stateMutability": "view",
      "type": "function"
    },
    {
      "constant": true,
      "inputs": [
        {
          "name": "_bytes32",
          "type": "bytes32"
        }
      ],
      "name": "bytes32FunctionReturnsString",
      "outputs": [
        {
          "name": "__string",
          "type": "string"
        }
      ],
      "payable": false,
      "stateMutability": "view",
      "type": "function"
    },
    {
      "constant": true,
      "inputs": [
        {
          "name": "_bool",
          "type": "bool"
        }
      ],
      "name": "boolFunctionReturnsAddress",
      "outputs": [
        {
          "name": "__address",
          "type": "address"
        }
      ],
      "payable": false,
      "stateMutability": "view",
      "type": "function"
    },
    {
      "constant": true,
      "inputs": [
        {
          "name": "_address",
          "type": "address"
        }
      ],
      "name": "addressFunctionReturnsInt",
      "outputs": [
        {
          "name": "__int",
          "type": "int256"
        }
      ],
      "payable": false,
      "stateMutability": "view",
      "type": "function"
    },
    {
      "constant": true,
      "inputs": [
        {
          "name": "_bytes1",
          "type": "bytes1"
        }
      ],
      "name": "bytes1Int256FunctionReturnsBytes1Int256",
      "outputs": [
        {
          "name": "__bytes1",
          "type": "bytes1"
        },
        {
          "name": "_int256_",
          "type": "int256"
        }
      ],
      "payable": false,
      "stateMutability": "view",
      "type": "function"
    },
    {
      "constant": true,
      "inputs": [
        {
          "name": "_int8",
          "type": "int8"
        }
      ],
      "name": "int8FunctionReturnsBytes",
      "outputs": [
        {
          "name": "__bytes",
          "type": "bytes"
        }
      ],
      "payable": false,
      "stateMutability": "view",
      "type": "function"
    },
    {
      "constant": false,
      "inputs": [
        {
          "name": "__bytes32",
          "type": "bytes32"
        }
      ],
      "name": "changeBytes32",
      "outputs": [],
      "payable": false,
      "stateMutability": "nonpayable",
      "type": "function"
    },
    {
      "constant": true,
      "inputs": [
        {
          "name": "_byte",
          "type": "bytes1"
        }
      ],
      "name": "byteFunctionReturnsBytes1",
      "outputs": [
        {
          "name": "__bytes1",
          "type": "bytes1"
        }
      ],
      "payable": false,
      "stateMutability": "view",
      "type": "function"
    },
    {
      "constant": true,
      "inputs": [
        {
          "name": "_uint8",
          "type": "uint8"
        }
      ],
      "name": "uint8FunctionReturnsAddress",
      "outputs": [
        {
          "name": "__address",
          "type": "address"
        }
      ],
      "payable": false,
      "stateMutability": "view",
      "type": "function"
    },
    {
      "constant": true,
      "inputs": [
        {
          "name": "_string",
          "type": "string"
        }
      ],
      "name": "stringFunctionReturnsInt8",
      "outputs": [
        {
          "name": "__int8",
          "type": "int8"
        }
      ],
      "payable": false,
      "stateMutability": "view",
      "type": "function"
    },
    {
      "constant": true,
      "inputs": [
        {
          "name": "_int256",
          "type": "int256"
        }
      ],
      "name": "int256FunctionReturnsInt",
      "outputs": [
        {
          "name": "__int",
          "type": "int256"
        }
      ],
      "payable": false,
      "stateMutability": "view",
      "type": "function"
    },
    {
      "constant": true,
      "inputs": [
        {
          "name": "_bytes32",
          "type": "bytes32"
        }
      ],
      "name": "bytes32FunctionReturnsBool",
      "outputs": [
        {
          "name": "__bool",
          "type": "bool"
        }
      ],
      "payable": false,
      "stateMutability": "view",
      "type": "function"
    },
    {
      "constant": true,
      "inputs": [
        {
          "name": "_int",
          "type": "int256"
        }
      ],
      "name": "intFunctionReturnsBytes32",
      "outputs": [
        {
          "name": "__bytes32",
          "type": "bytes32"
        }
      ],
      "payable": false,
      "stateMutability": "view",
      "type": "function"
    },
    {
      "constant": true,
      "inputs": [
        {
          "name": "_uint8",
          "type": "uint8"
        }
      ],
      "name": "uint8FunctionReturnsBytes",
      "outputs": [
        {
          "name": "__bytes",
          "type": "bytes"
        }
      ],
      "payable": false,
      "stateMutability": "view",
      "type": "function"
    },
    {
      "constant": true,
      "inputs": [
        {
          "name": "_uint256",
          "type": "uint256"
        }
      ],
      "name": "uint256Int256FunctionReturnsUint256Int256",
      "outputs": [
        {
          "name": "__uint256",
          "type": "uint256"
        },
        {
          "name": "_int256_",
          "type": "int256"
        }
      ],
      "payable": false,
      "stateMutability": "view",
      "type": "function"
    },
    {
      "constant": true,
      "inputs": [
        {
          "name": "_bytes",
          "type": "bytes"
        }
      ],
      "name": "bytesStringFunctionReturnsBytesString",
      "outputs": [
        {
          "name": "__bytes",
          "type": "bytes"
        },
        {
          "name": "_string_",
          "type": "string"
        }
      ],
      "payable": false,
      "stateMutability": "view",
      "type": "function"
    },
    {
      "constant": true,
      "inputs": [
        {
          "name": "_bytes32",
          "type": "bytes32"
        }
      ],
      "name": "bytes32FunctionReturnsByte",
      "outputs": [
        {
          "name": "__byte",
          "type": "bytes1"
        }
      ],
      "payable": false,
      "stateMutability": "view",
      "type": "function"
    },
    {
      "constant": true,
      "inputs": [
        {
          "name": "_int8",
          "type": "int8"
        }
      ],
      "name": "int8FunctionReturnsInt256",
      "outputs": [
        {
          "name": "__int256",
          "type": "int256"
        }
      ],
      "payable": false,
      "stateMutability": "view",
      "type": "function"
    },
    {
      "constant": true,
      "inputs": [
        {
          "name": "_address",
          "type": "address"
        }
      ],
      "name": "addressUint8FunctionReturnsAddressUint8",
      "outputs": [
        {
          "name": "__address",
          "type": "address"
        },
        {
          "name": "_uint8_",
          "type": "uint8"
        }
      ],
      "payable": false,
      "stateMutability": "view",
      "type": "function"
    },
    {
      "constant": true,
      "inputs": [
        {
          "name": "_byte",
          "type": "bytes1"
        }
      ],
      "name": "byteFunctionReturnsByte",
      "outputs": [
        {
          "name": "__byte",
          "type": "bytes1"
        }
      ],
      "payable": false,
      "stateMutability": "view",
      "type": "function"
    },
    {
      "constant": true,
      "inputs": [
        {
          "name": "_uint256",
          "type": "uint256"
        }
      ],
      "name": "uint256FunctionReturnsUint8",
      "outputs": [
        {
          "name": "__uint8",
          "type": "uint8"
        }
      ],
      "payable": false,
      "stateMutability": "view",
      "type": "function"
    },
    {
      "constant": true,
      "inputs": [
        {
          "name": "_uint256",
          "type": "uint256"
        }
      ],
      "name": "uint256FunctionReturnsAddress",
      "outputs": [
        {
          "name": "__address",
          "type": "address"
        }
      ],
      "payable": false,
      "stateMutability": "view",
      "type": "function"
    },
    {
      "constant": true,
      "inputs": [
        {
          "name": "_bool",
          "type": "bool"
        }
      ],
      "name": "boolFunctionReturnsInt8",
      "outputs": [
        {
          "name": "__int8",
          "type": "int8"
        }
      ],
      "payable": false,
      "stateMutability": "view",
      "type": "function"
    },
    {
      "constant": true,
      "inputs": [
        {
          "name": "_bool",
          "type": "bool"
        }
      ],
      "name": "boolFunctionReturnsString",
      "outputs": [
        {
          "name": "__string",
          "type": "string"
        }
      ],
      "payable": false,
      "stateMutability": "view",
      "type": "function"
    },
    {
      "constant": true,
      "inputs": [
        {
          "name": "_bytes",
          "type": "bytes"
        }
      ],
      "name": "bytesFunctionReturnsInt",
      "outputs": [
        {
          "name": "__int",
          "type": "int256"
        }
      ],
      "payable": false,
      "stateMutability": "view",
      "type": "function"
    },
    {
      "constant": true,
      "inputs": [
        {
          "name": "_bool",
          "type": "bool"
        }
      ],
      "name": "boolFunctionReturnsBytes32",
      "outputs": [
        {
          "name": "__bytes32",
          "type": "bytes32"
        }
      ],
      "payable": false,
      "stateMutability": "view",
      "type": "function"
    },
    {
      "constant": true,
      "inputs": [
        {
          "name": "_int8",
          "type": "int8"
        }
      ],
      "name": "int8AddressFunctionReturnsInt8Address",
      "outputs": [
        {
          "name": "__int8",
          "type": "int8"
        },
        {
          "name": "_address_",
          "type": "address"
        }
      ],
      "payable": false,
      "stateMutability": "view",
      "type": "function"
    },
    {
      "constant": true,
      "inputs": [
        {
          "name": "_bytes1",
          "type": "bytes1"
        }
      ],
      "name": "bytes1FunctionReturnsBytes32",
      "outputs": [
        {
          "name": "__bytes32",
          "type": "bytes32"
        }
      ],
      "payable": false,
      "stateMutability": "view",
      "type": "function"
    },
    {
      "constant": false,
      "inputs": [
        {
          "name": "__int8",
          "type": "int8"
        }
      ],
      "name": "changeInt8",
      "outputs": [],
      "payable": false,
      "stateMutability": "nonpayable",
      "type": "function"
    },
    {
      "constant": true,
      "inputs": [
        {
          "name": "_uint256",
          "type": "uint256"
        }
      ],
      "name": "uint256FunctionReturnsUint256",
      "outputs": [
        {
          "name": "__uint256",
          "type": "uint256"
        }
      ],
      "payable": false,
      "stateMutability": "view",
      "type": "function"
    },
    {
      "constant": true,
      "inputs": [
        {
          "name": "_int8",
          "type": "int8"
        }
      ],
      "name": "int8FunctionReturnsUint8",
      "outputs": [
        {
          "name": "__uint8",
          "type": "uint8"
        }
      ],
      "payable": false,
      "stateMutability": "view",
      "type": "function"
    },
    {
      "constant": true,
      "inputs": [
        {
          "name": "_uint8",
          "type": "uint8"
        }
      ],
      "name": "uint8AddressFunctionReturnsUint8Address",
      "outputs": [
        {
          "name": "__uint8",
          "type": "uint8"
        },
        {
          "name": "_address_",
          "type": "address"
        }
      ],
      "payable": false,
      "stateMutability": "view",
      "type": "function"
    },
    {
      "constant": true,
      "inputs": [
        {
          "name": "_int8",
          "type": "int8"
        }
      ],
      "name": "int8FunctionReturnsBytes1",
      "outputs": [
        {
          "name": "__bytes1",
          "type": "bytes1"
        }
      ],
      "payable": false,
      "stateMutability": "view",
      "type": "function"
    },
    {
      "constant": true,
      "inputs": [
        {
          "name": "_string",
          "type": "string"
        }
      ],
      "name": "stringFunctionReturnsBytes1",
      "outputs": [
        {
          "name": "__bytes1",
          "type": "bytes1"
        }
      ],
      "payable": false,
      "stateMutability": "view",
      "type": "function"
    },
    {
      "constant": false,
      "inputs": [
        {
          "name": "__string",
          "type": "string"
        }
      ],
      "name": "changeString",
      "outputs": [],
      "payable": false,
      "stateMutability": "nonpayable",
      "type": "function"
    },
    {
      "constant": true,
      "inputs": [
        {
          "name": "_bool",
          "type": "bool"
        }
      ],
      "name": "boolFunctionReturnsBool",
      "outputs": [
        {
          "name": "__bool",
          "type": "bool"
        }
      ],
      "payable": false,
      "stateMutability": "view",
      "type": "function"
    },
    {
      "constant": true,
      "inputs": [
        {
          "name": "_int",
          "type": "int256"
        }
      ],
      "name": "intFunctionReturnsBytes",
      "outputs": [
        {
          "name": "__bytes",
          "type": "bytes"
        }
      ],
      "payable": false,
      "stateMutability": "view",
      "type": "function"
    },
    {
      "constant": true,
      "inputs": [
        {
          "name": "_int8",
          "type": "int8"
        }
      ],
      "name": "int8FunctionReturnsString",
      "outputs": [
        {
          "name": "__string",
          "type": "string"
        }
      ],
      "payable": false,
      "stateMutability": "view",
      "type": "function"
    },
    {
      "constant": true,
      "inputs": [
        {
          "name": "_int256",
          "type": "int256"
        }
      ],
      "name": "int256FunctionReturnsAddress",
      "outputs": [
        {
          "name": "__address",
          "type": "address"
        }
      ],
      "payable": false,
      "stateMutability": "view",
      "type": "function"
    },
    {
      "constant": true,
      "inputs": [
        {
          "name": "_bytes32",
          "type": "bytes32"
        }
      ],
      "name": "bytes32Uint8FunctionReturnsBytes32Uint8",
      "outputs": [
        {
          "name": "__bytes32",
          "type": "bytes32"
        },
        {
          "name": "_uint8_",
          "type": "uint8"
        }
      ],
      "payable": false,
      "stateMutability": "view",
      "type": "function"
    },
    {
      "constant": true,
      "inputs": [
        {
          "name": "_uint256",
          "type": "uint256"
        }
      ],
      "name": "uint256FunctionReturnsString",
      "outputs": [
        {
          "name": "__string",
          "type": "string"
        }
      ],
      "payable": false,
      "stateMutability": "view",
      "type": "function"
    },
    {
      "constant": true,
      "inputs": [
        {
          "name": "_string",
          "type": "string"
        }
      ],
      "name": "stringFunctionReturnsAddress",
      "outputs": [
        {
          "name": "__address",
          "type": "address"
        }
      ],
      "payable": false,
      "stateMutability": "view",
      "type": "function"
    },
    {
      "constant": false,
      "inputs": [
        {
          "name": "__bool",
          "type": "bool"
        }
      ],
      "name": "changeBool",
      "outputs": [],
      "payable": false,
      "stateMutability": "nonpayable",
      "type": "function"
    },
    {
      "constant": true,
      "inputs": [
        {
          "name": "_byte",
          "type": "bytes1"
        }
      ],
      "name": "byteFunctionReturnsUint",
      "outputs": [
        {
          "name": "__uint",
          "type": "uint256"
        }
      ],
      "payable": false,
      "stateMutability": "view",
      "type": "function"
    },
    {
      "constant": true,
      "inputs": [
        {
          "name": "_byte",
          "type": "bytes1"
        }
      ],
      "name": "byteFunctionReturnsInt",
      "outputs": [
        {
          "name": "__int",
          "type": "int256"
        }
      ],
      "payable": false,
      "stateMutability": "view",
      "type": "function"
    },
    {
      "constant": true,
      "inputs": [
        {
          "name": "_int256",
          "type": "int256"
        }
      ],
      "name": "int256FunctionReturnsByte",
      "outputs": [
        {
          "name": "__byte",
          "type": "bytes1"
        }
      ],
      "payable": false,
      "stateMutability": "view",
      "type": "function"
    },
    {
      "constant": true,
      "inputs": [
        {
          "name": "_int256",
          "type": "int256"
        }
      ],
      "name": "int256FunctionReturnsUint8",
      "outputs": [
        {
          "name": "__uint8",
          "type": "uint8"
        }
      ],
      "payable": false,
      "stateMutability": "view",
      "type": "function"
    },
    {
      "constant": true,
      "inputs": [
        {
          "name": "_bytes32",
          "type": "bytes32"
        }
      ],
      "name": "bytes32FunctionReturnsInt",
      "outputs": [
        {
          "name": "__int",
          "type": "int256"
        }
      ],
      "payable": false,
      "stateMutability": "view",
      "type": "function"
    },
    {
      "constant": true,
      "inputs": [
        {
          "name": "_int256",
          "type": "int256"
        }
      ],
      "name": "int256FunctionReturnsBytes",
      "outputs": [
        {
          "name": "__bytes",
          "type": "bytes"
        }
      ],
      "payable": false,
      "stateMutability": "view",
      "type": "function"
    },
    {
      "constant": true,
      "inputs": [
        {
          "name": "_byte",
          "type": "bytes1"
        }
      ],
      "name": "byteFunctionReturnsAddress",
      "outputs": [
        {
          "name": "__address",
          "type": "address"
        }
      ],
      "payable": false,
      "stateMutability": "view",
      "type": "function"
    },
    {
      "constant": true,
      "inputs": [
        {
          "name": "_address",
          "type": "address"
        }
      ],
      "name": "addressFunctionReturnsAddress",
      "outputs": [
        {
          "name": "__address",
          "type": "address"
        }
      ],
      "payable": false,
      "stateMutability": "view",
      "type": "function"
    },
    {
      "constant": true,
      "inputs": [
        {
          "name": "_uint256",
          "type": "uint256"
        }
      ],
      "name": "uint256FunctionReturnsInt",
      "outputs": [
        {
          "name": "__int",
          "type": "int256"
        }
      ],
      "payable": false,
      "stateMutability": "view",
      "type": "function"
    },
    {
      "constant": true,
      "inputs": [
        {
          "name": "_int256",
          "type": "int256"
        }
      ],
      "name": "int256FunctionReturnsBytes1",
      "outputs": [
        {
          "name": "__bytes1",
          "type": "bytes1"
        }
      ],
      "payable": false,
      "stateMutability": "view",
      "type": "function"
    },
    {
      "constant": true,
      "inputs": [
        {
          "name": "_address",
          "type": "address"
        }
      ],
      "name": "addressFunctionReturnsInt256",
      "outputs": [
        {
          "name": "__int256",
          "type": "int256"
        }
      ],
      "payable": false,
      "stateMutability": "view",
      "type": "function"
    },
    {
      "constant": true,
      "inputs": [
        {
          "name": "_address",
          "type": "address"
        }
      ],
      "name": "addressFunctionReturnsBytes",
      "outputs": [
        {
          "name": "__bytes",
          "type": "bytes"
        }
      ],
      "payable": false,
      "stateMutability": "view",
      "type": "function"
    },
    {
      "constant": true,
      "inputs": [
        {
          "name": "_bytes",
          "type": "bytes"
        }
      ],
      "name": "bytesFunctionReturnsBool",
      "outputs": [
        {
          "name": "__bool",
          "type": "bool"
        }
      ],
      "payable": false,
      "stateMutability": "view",
      "type": "function"
    },
    {
      "constant": true,
      "inputs": [
        {
          "name": "_uint8",
          "type": "uint8"
        }
      ],
      "name": "uint8FunctionReturnsUint8",
      "outputs": [
        {
          "name": "__uint8",
          "type": "uint8"
        }
      ],
      "payable": false,
      "stateMutability": "view",
      "type": "function"
    },
    {
      "constant": true,
      "inputs": [
        {
          "name": "_bytes",
          "type": "bytes"
        }
      ],
      "name": "bytesFunctionReturnsAddress",
      "outputs": [
        {
          "name": "__address",
          "type": "address"
        }
      ],
      "payable": false,
      "stateMutability": "view",
      "type": "function"
    },
    {
      "constant": false,
      "inputs": [
        {
          "name": "__bytes1",
          "type": "bytes1"
        }
      ],
      "name": "changeBytes1",
      "outputs": [],
      "payable": false,
      "stateMutability": "nonpayable",
      "type": "function"
    },
    {
      "constant": true,
      "inputs": [
        {
          "name": "_string",
          "type": "string"
        }
      ],
      "name": "stringFunctionReturnsUint256",
      "outputs": [
        {
          "name": "__uint256",
          "type": "uint256"
        }
      ],
      "payable": false,
      "stateMutability": "view",
      "type": "function"
    },
    {
      "constant": true,
      "inputs": [
        {
          "name": "_address",
          "type": "address"
        }
      ],
      "name": "addressFunctionReturnsInt8",
      "outputs": [
        {
          "name": "__int8",
          "type": "int8"
        }
      ],
      "payable": false,
      "stateMutability": "view",
      "type": "function"
    },
    {
      "constant": true,
      "inputs": [
        {
          "name": "_uint",
          "type": "uint256"
        }
      ],
      "name": "uintFunctionReturnsUint256",
      "outputs": [
        {
          "name": "__uint256",
          "type": "uint256"
        }
      ],
      "payable": false,
      "stateMutability": "view",
      "type": "function"
    },
    {
      "constant": true,
      "inputs": [
        {
          "name": "_string",
          "type": "string"
        }
      ],
      "name": "stringFunctionReturnsString",
      "outputs": [
        {
          "name": "__string",
          "type": "string"
        }
      ],
      "payable": false,
      "stateMutability": "view",
      "type": "function"
    },
    {
      "constant": true,
      "inputs": [
        {
          "name": "_int",
          "type": "int256"
        }
      ],
      "name": "intBytes32FunctionReturnsIntBytes32",
      "outputs": [
        {
          "name": "__int",
          "type": "int256"
        },
        {
          "name": "_bytes32_",
          "type": "bytes32"
        }
      ],
      "payable": false,
      "stateMutability": "view",
      "type": "function"
    },
    {
      "constant": true,
      "inputs": [
        {
          "name": "_bool",
          "type": "bool"
        }
      ],
      "name": "boolFunctionReturnsBytes",
      "outputs": [
        {
          "name": "__bytes",
          "type": "bytes"
        }
      ],
      "payable": false,
      "stateMutability": "view",
      "type": "function"
    },
    {
      "constant": true,
      "inputs": [
        {
          "name": "_bytes",
          "type": "bytes"
        }
      ],
      "name": "bytesFunctionReturnsString",
      "outputs": [
        {
          "name": "__string",
          "type": "string"
        }
      ],
      "payable": false,
      "stateMutability": "view",
      "type": "function"
    },
    {
      "constant": true,
      "inputs": [
        {
          "name": "_int8",
          "type": "int8"
        }
      ],
      "name": "int8FunctionReturnsInt",
      "outputs": [
        {
          "name": "__int",
          "type": "int256"
        }
      ],
      "payable": false,
      "stateMutability": "view",
      "type": "function"
    },
    {
      "constant": true,
      "inputs": [
        {
          "name": "_uint",
          "type": "uint256"
        }
      ],
      "name": "uintFunctionReturnsUint",
      "outputs": [
        {
          "name": "__uint",
          "type": "uint256"
        }
      ],
      "payable": false,
      "stateMutability": "view",
      "type": "function"
    },
    {
      "constant": true,
      "inputs": [
        {
          "name": "_bytes",
          "type": "bytes"
        }
      ],
      "name": "bytesFunctionReturnsUint",
      "outputs": [
        {
          "name": "__uint",
          "type": "uint256"
        }
      ],
      "payable": false,
      "stateMutability": "view",
      "type": "function"
    },
    {
      "constant": true,
      "inputs": [
        {
          "name": "_bool",
          "type": "bool"
        }
      ],
      "name": "boolFunctionReturnsUint",
      "outputs": [
        {
          "name": "__uint",
          "type": "uint256"
        }
      ],
      "payable": false,
      "stateMutability": "view",
      "type": "function"
    },
    {
      "constant": true,
      "inputs": [
        {
          "name": "_bytes",
          "type": "bytes"
        }
      ],
      "name": "bytesFunctionReturnsUint8",
      "outputs": [
        {
          "name": "__uint8",
          "type": "uint8"
        }
      ],
      "payable": false,
      "stateMutability": "view",
      "type": "function"
    },
    {
      "constant": true,
      "inputs": [
        {
          "name": "_uint8",
          "type": "uint8"
        }
      ],
      "name": "uint8FunctionReturnsInt",
      "outputs": [
        {
          "name": "__int",
          "type": "int256"
        }
      ],
      "payable": false,
      "stateMutability": "view",
      "type": "function"
    },
    {
      "constant": true,
      "inputs": [
        {
          "name": "_bytes32",
          "type": "bytes32"
        }
      ],
      "name": "bytes32FunctionReturnsInt8",
      "outputs": [
        {
          "name": "__int8",
          "type": "int8"
        }
      ],
      "payable": false,
      "stateMutability": "view",
      "type": "function"
    },
    {
      "constant": false,
      "inputs": [
        {
          "name": "__uint256",
          "type": "uint256"
        }
      ],
      "name": "changeUint256",
      "outputs": [],
      "payable": false,
      "stateMutability": "nonpayable",
      "type": "function"
    },
    {
      "constant": true,
      "inputs": [
        {
          "name": "_string",
          "type": "string"
        }
      ],
      "name": "stringFunctionReturnsBytes32",
      "outputs": [
        {
          "name": "__bytes32",
          "type": "bytes32"
        }
      ],
      "payable": false,
      "stateMutability": "view",
      "type": "function"
    },
    {
      "constant": true,
      "inputs": [
        {
          "name": "_uint256",
          "type": "uint256"
        }
      ],
      "name": "uint256FunctionReturnsInt256",
      "outputs": [
        {
          "name": "__int256",
          "type": "int256"
        }
      ],
      "payable": false,
      "stateMutability": "view",
      "type": "function"
    },
    {
      "constant": true,
      "inputs": [
        {
          "name": "_uint",
          "type": "uint256"
        }
      ],
      "name": "uintFunctionReturnsBytes",
      "outputs": [
        {
          "name": "__bytes",
          "type": "bytes"
        }
      ],
      "payable": false,
      "stateMutability": "view",
      "type": "function"
    },
    {
      "constant": true,
      "inputs": [
        {
          "name": "_byte",
          "type": "bytes1"
        }
      ],
      "name": "byteFunctionReturnsInt256",
      "outputs": [
        {
          "name": "__int256",
          "type": "int256"
        }
      ],
      "payable": false,
      "stateMutability": "view",
      "type": "function"
    },
    {
      "constant": true,
      "inputs": [
        {
          "name": "_int256",
          "type": "int256"
        }
      ],
      "name": "int256FunctionReturnsInt256",
      "outputs": [
        {
          "name": "__int256",
          "type": "int256"
        }
      ],
      "payable": false,
      "stateMutability": "view",
      "type": "function"
    },
    {
      "constant": true,
      "inputs": [
        {
          "name": "_int",
          "type": "int256"
        }
      ],
      "name": "intFunctionReturnsString",
      "outputs": [
        {
          "name": "__string",
          "type": "string"
        }
      ],
      "payable": false,
      "stateMutability": "view",
      "type": "function"
    },
    {
      "constant": true,
      "inputs": [
        {
          "name": "_uint",
          "type": "uint256"
        }
      ],
      "name": "uintFunctionReturnsInt",
      "outputs": [
        {
          "name": "__int",
          "type": "int256"
        }
      ],
      "payable": false,
      "stateMutability": "view",
      "type": "function"
    },
    {
      "constant": true,
      "inputs": [
        {
          "name": "_string",
          "type": "string"
        }
      ],
      "name": "stringFunctionReturnsInt",
      "outputs": [
        {
          "name": "__int",
          "type": "int256"
        }
      ],
      "payable": false,
      "stateMutability": "view",
      "type": "function"
    },
    {
      "constant": true,
      "inputs": [
        {
          "name": "_uint",
          "type": "uint256"
        }
      ],
      "name": "uintFunctionReturnsUint8",
      "outputs": [
        {
          "name": "__uint8",
          "type": "uint8"
        }
      ],
      "payable": false,
      "stateMutability": "view",
      "type": "function"
    },
    {
      "constant": false,
      "inputs": [
        {
          "name": "__uint",
          "type": "uint256"
        }
      ],
      "name": "changeUint",
      "outputs": [],
      "payable": false,
      "stateMutability": "nonpayable",
      "type": "function"
    },
    {
      "constant": true,
      "inputs": [
        {
          "name": "_uint",
          "type": "uint256"
        }
      ],
      "name": "uintFunctionReturnsString",
      "outputs": [
        {
          "name": "__string",
          "type": "string"
        }
      ],
      "payable": false,
      "stateMutability": "view",
      "type": "function"
    },
    {
      "constant": true,
      "inputs": [
        {
          "name": "_bool",
          "type": "bool"
        }
      ],
      "name": "boolFunctionReturnsUint256",
      "outputs": [
        {
          "name": "__uint256",
          "type": "uint256"
        }
      ],
      "payable": false,
      "stateMutability": "view",
      "type": "function"
    },
    {
      "constant": true,
      "inputs": [
        {
          "name": "_bool",
          "type": "bool"
        }
      ],
      "name": "boolFunctionReturnsInt256",
      "outputs": [
        {
          "name": "__int256",
          "type": "int256"
        }
      ],
      "payable": false,
      "stateMutability": "view",
      "type": "function"
    },
    {
      "constant": true,
      "inputs": [
        {
          "name": "_byte",
          "type": "bytes1"
        }
      ],
      "name": "byteFunctionReturnsUint256",
      "outputs": [
        {
          "name": "__uint256",
          "type": "uint256"
        }
      ],
      "payable": false,
      "stateMutability": "view",
      "type": "function"
    },
    {
      "constant": true,
      "inputs": [
        {
          "name": "_uint8",
          "type": "uint8"
        }
      ],
      "name": "uint8FunctionReturnsBytes32",
      "outputs": [
        {
          "name": "__bytes32",
          "type": "bytes32"
        }
      ],
      "payable": false,
      "stateMutability": "view",
      "type": "function"
    },
    {
      "constant": false,
      "inputs": [
        {
          "name": "__int256",
          "type": "int256"
        }
      ],
      "name": "changeInt256",
      "outputs": [],
      "payable": false,
      "stateMutability": "nonpayable",
      "type": "function"
    },
    {
      "constant": true,
      "inputs": [
        {
          "name": "_bytes",
          "type": "bytes"
        }
      ],
      "name": "bytesFunctionReturnsBytes1",
      "outputs": [
        {
          "name": "__bytes1",
          "type": "bytes1"
        }
      ],
      "payable": false,
      "stateMutability": "view",
      "type": "function"
    },
    {
      "constant": true,
      "inputs": [
        {
          "name": "_bytes32",
          "type": "bytes32"
        }
      ],
      "name": "bytes32FunctionReturnsUint8",
      "outputs": [
        {
          "name": "__uint8",
          "type": "uint8"
        }
      ],
      "payable": false,
      "stateMutability": "view",
      "type": "function"
    },
    {
      "constant": true,
      "inputs": [
        {
          "name": "_int8",
          "type": "int8"
        }
      ],
      "name": "int8FunctionReturnsBytes32",
      "outputs": [
        {
          "name": "__bytes32",
          "type": "bytes32"
        }
      ],
      "payable": false,
      "stateMutability": "view",
      "type": "function"
    },
    {
      "constant": true,
      "inputs": [
        {
          "name": "_bytes32",
          "type": "bytes32"
        }
      ],
      "name": "bytes32FunctionReturnsBytes32",
      "outputs": [
        {
          "name": "__bytes32",
          "type": "bytes32"
        }
      ],
      "payable": false,
      "stateMutability": "view",
      "type": "function"
    },
    {
      "constant": true,
      "inputs": [
        {
          "name": "_address",
          "type": "address"
        }
      ],
      "name": "addressFunctionReturnsUint",
      "outputs": [
        {
          "name": "__uint",
          "type": "uint256"
        }
      ],
      "payable": false,
      "stateMutability": "view",
      "type": "function"
    },
    {
      "constant": true,
      "inputs": [
        {
          "name": "_bytes32",
          "type": "bytes32"
        }
      ],
      "name": "bytes32FunctionReturnsInt256",
      "outputs": [
        {
          "name": "__int256",
          "type": "int256"
        }
      ],
      "payable": false,
      "stateMutability": "view",
      "type": "function"
    },
    {
      "constant": true,
      "inputs": [
        {
          "name": "_bytes",
          "type": "bytes"
        }
      ],
      "name": "bytesFunctionReturnsBytes32",
      "outputs": [
        {
          "name": "__bytes32",
          "type": "bytes32"
        }
      ],
      "payable": false,
      "stateMutability": "view",
      "type": "function"
    },
    {
      "constant": true,
      "inputs": [
        {
          "name": "_bool",
          "type": "bool"
        }
      ],
      "name": "boolFunctionReturnsByte",
      "outputs": [
        {
          "name": "__byte",
          "type": "bytes1"
        }
      ],
      "payable": false,
      "stateMutability": "view",
      "type": "function"
    },
    {
      "constant": true,
      "inputs": [
        {
          "name": "_uint",
          "type": "uint256"
        }
      ],
      "name": "uintFunctionReturnsByte",
      "outputs": [
        {
          "name": "__byte",
          "type": "bytes1"
        }
      ],
      "payable": false,
      "stateMutability": "view",
      "type": "function"
    },
    {
      "constant": true,
      "inputs": [
        {
          "name": "_int256",
          "type": "int256"
        }
      ],
      "name": "int256FunctionReturnsBool",
      "outputs": [
        {
          "name": "__bool",
          "type": "bool"
        }
      ],
      "payable": false,
      "stateMutability": "view",
      "type": "function"
    },
    {
      "constant": true,
      "inputs": [
        {
          "name": "_string",
          "type": "string"
        }
      ],
      "name": "stringFunctionReturnsUint",
      "outputs": [
        {
          "name": "__uint",
          "type": "uint256"
        }
      ],
      "payable": false,
      "stateMutability": "view",
      "type": "function"
    },
    {
      "constant": true,
      "inputs": [
        {
          "name": "_bytes32",
          "type": "bytes32"
        }
      ],
      "name": "bytes32FunctionReturnsBytes1",
      "outputs": [
        {
          "name": "__bytes1",
          "type": "bytes1"
        }
      ],
      "payable": false,
      "stateMutability": "view",
      "type": "function"
    },
    {
      "constant": true,
      "inputs": [
        {
          "name": "_uint8",
          "type": "uint8"
        }
      ],
      "name": "uint8FunctionReturnsInt8",
      "outputs": [
        {
          "name": "__int8",
          "type": "int8"
        }
      ],
      "payable": false,
      "stateMutability": "view",
      "type": "function"
    },
    {
      "constant": true,
      "inputs": [
        {
          "name": "_uint256",
          "type": "uint256"
        }
      ],
      "name": "uint256FunctionReturnsBytes1",
      "outputs": [
        {
          "name": "__bytes1",
          "type": "bytes1"
        }
      ],
      "payable": false,
      "stateMutability": "view",
      "type": "function"
    },
    {
      "constant": true,
      "inputs": [
        {
          "name": "_string",
          "type": "string"
        }
      ],
      "name": "stringFunctionReturnsByte",
      "outputs": [
        {
          "name": "__byte",
          "type": "bytes1"
        }
      ],
      "payable": false,
      "stateMutability": "view",
      "type": "function"
    },
    {
      "constant": true,
      "inputs": [
        {
          "name": "_bytes",
          "type": "bytes"
        }
      ],
      "name": "bytesFunctionReturnsBytes",
      "outputs": [
        {
          "name": "__bytes",
          "type": "bytes"
        }
      ],
      "payable": false,
      "stateMutability": "view",
      "type": "function"
    },
    {
      "constant": true,
      "inputs": [
        {
          "name": "_uint8",
          "type": "uint8"
        }
      ],
      "name": "uint8FunctionReturnsUint",
      "outputs": [
        {
          "name": "__uint",
          "type": "uint256"
        }
      ],
      "payable": false,
      "stateMutability": "view",
      "type": "function"
    },
    {
      "constant": true,
      "inputs": [
        {
          "name": "_bool",
          "type": "bool"
        }
      ],
      "name": "boolFunctionReturnsInt",
      "outputs": [
        {
          "name": "__int",
          "type": "int256"
        }
      ],
      "payable": false,
      "stateMutability": "view",
      "type": "function"
    },
    {
      "constant": true,
      "inputs": [
        {
          "name": "_bool",
          "type": "bool"
        }
      ],
      "name": "boolFunctionReturnsBytes1",
      "outputs": [
        {
          "name": "__bytes1",
          "type": "bytes1"
        }
      ],
      "payable": false,
      "stateMutability": "view",
      "type": "function"
    },
    {
      "constant": true,
      "inputs": [
        {
          "name": "_uint8",
          "type": "uint8"
        }
      ],
      "name": "uint8FunctionReturnsBool",
      "outputs": [
        {
          "name": "__bool",
          "type": "bool"
        }
      ],
      "payable": false,
      "stateMutability": "view",
      "type": "function"
    },
    {
      "constant": true,
      "inputs": [
        {
          "name": "_int256",
          "type": "int256"
        }
      ],
      "name": "int256FunctionReturnsUint256",
      "outputs": [
        {
          "name": "__uint256",
          "type": "uint256"
        }
      ],
      "payable": false,
      "stateMutability": "view",
      "type": "function"
    },
    {
      "constant": true,
      "inputs": [
        {
          "name": "_address",
          "type": "address"
        }
      ],
      "name": "addressFunctionReturnsBytes32",
      "outputs": [
        {
          "name": "__bytes32",
          "type": "bytes32"
        }
      ],
      "payable": false,
      "stateMutability": "view",
      "type": "function"
    },
    {
      "constant": true,
      "inputs": [
        {
          "name": "_int",
          "type": "int256"
        }
      ],
      "name": "intFunctionReturnsInt256",
      "outputs": [
        {
          "name": "__int256",
          "type": "int256"
        }
      ],
      "payable": false,
      "stateMutability": "view",
      "type": "function"
    },
    {
      "constant": true,
      "inputs": [
        {
          "name": "_bytes1",
          "type": "bytes1"
        }
      ],
      "name": "bytes1FunctionReturnsUint256",
      "outputs": [
        {
          "name": "__uint256",
          "type": "uint256"
        }
      ],
      "payable": false,
      "stateMutability": "view",
      "type": "function"
    },
    {
      "constant": true,
      "inputs": [
        {
          "name": "_byte",
          "type": "bytes1"
        }
      ],
      "name": "byteFunctionReturnsUint8",
      "outputs": [
        {
          "name": "__uint8",
          "type": "uint8"
        }
      ],
      "payable": false,
      "stateMutability": "view",
      "type": "function"
    },
    {
      "constant": true,
      "inputs": [
        {
          "name": "_byte",
          "type": "bytes1"
        }
      ],
      "name": "byteBytesFunctionReturnsByteBytes",
      "outputs": [
        {
          "name": "__byte",
          "type": "bytes1"
        },
        {
          "name": "_bytes_",
          "type": "bytes"
        }
      ],
      "payable": false,
      "stateMutability": "view",
      "type": "function"
    },
    {
      "constant": true,
      "inputs": [
        {
          "name": "_int",
          "type": "int256"
        }
      ],
      "name": "intFunctionReturnsUint256",
      "outputs": [
        {
          "name": "__uint256",
          "type": "uint256"
        }
      ],
      "payable": false,
      "stateMutability": "view",
      "type": "function"
    },
    {
      "constant": false,
      "inputs": [
        {
          "name": "__uint8",
          "type": "uint8"
        }
      ],
      "name": "changeUint8",
      "outputs": [],
      "payable": false,
      "stateMutability": "nonpayable",
      "type": "function"
    },
    {
      "constant": true,
      "inputs": [
        {
          "name": "_string",
          "type": "string"
        }
      ],
      "name": "stringFunctionReturnsUint8",
      "outputs": [
        {
          "name": "__uint8",
          "type": "uint8"
        }
      ],
      "payable": false,
      "stateMutability": "view",
      "type": "function"
    },
    {
      "constant": true,
      "inputs": [
        {
          "name": "_address",
          "type": "address"
        }
      ],
      "name": "addressFunctionReturnsUint256",
      "outputs": [
        {
          "name": "__uint256",
          "type": "uint256"
        }
      ],
      "payable": false,
      "stateMutability": "view",
      "type": "function"
    },
    {
      "constant": true,
      "inputs": [
        {
          "name": "_int256",
          "type": "int256"
        }
      ],
      "name": "int256BytesFunctionReturnsInt256Bytes",
      "outputs": [
        {
          "name": "__int256",
          "type": "int256"
        },
        {
          "name": "_bytes_",
          "type": "bytes"
        }
      ],
      "payable": false,
      "stateMutability": "view",
      "type": "function"
    },
    {
      "constant": true,
      "inputs": [
        {
          "name": "_int",
          "type": "int256"
        }
      ],
      "name": "intFunctionReturnsInt8",
      "outputs": [
        {
          "name": "__int8",
          "type": "int8"
        }
      ],
      "payable": false,
      "stateMutability": "view",
      "type": "function"
    },
    {
      "constant": true,
      "inputs": [
        {
          "name": "_bytes1",
          "type": "bytes1"
        }
      ],
      "name": "bytes1FunctionReturnsInt8",
      "outputs": [
        {
          "name": "__int8",
          "type": "int8"
        }
      ],
      "payable": false,
      "stateMutability": "view",
      "type": "function"
    },
    {
      "constant": true,
      "inputs": [
        {
          "name": "_int",
          "type": "int256"
        }
      ],
      "name": "intFunctionReturnsAddress",
      "outputs": [
        {
          "name": "__address",
          "type": "address"
        }
      ],
      "payable": false,
      "stateMutability": "view",
      "type": "function"
    },
    {
      "constant": true,
      "inputs": [
        {
          "name": "_uint256",
          "type": "uint256"
        }
      ],
      "name": "uint256FunctionReturnsUint",
      "outputs": [
        {
          "name": "__uint",
          "type": "uint256"
        }
      ],
      "payable": false,
      "stateMutability": "view",
      "type": "function"
    },
    {
      "constant": true,
      "inputs": [
        {
          "name": "_address",
          "type": "address"
        }
      ],
      "name": "addressFunctionReturnsBool",
      "outputs": [
        {
          "name": "__bool",
          "type": "bool"
        }
      ],
      "payable": false,
      "stateMutability": "view",
      "type": "function"
    },
    {
      "constant": true,
      "inputs": [
        {
          "name": "_address",
          "type": "address"
        }
      ],
      "name": "addressFunctionReturnsByte",
      "outputs": [
        {
          "name": "__byte",
          "type": "bytes1"
        }
      ],
      "payable": false,
      "stateMutability": "view",
      "type": "function"
    },
    {
      "constant": true,
      "inputs": [
        {
          "name": "_int",
          "type": "int256"
        }
      ],
      "name": "intFunctionReturnsBytes1",
      "outputs": [
        {
          "name": "__bytes1",
          "type": "bytes1"
        }
      ],
      "payable": false,
      "stateMutability": "view",
      "type": "function"
    },
    {
      "constant": true,
      "inputs": [
        {
          "name": "_uint",
          "type": "uint256"
        }
      ],
      "name": "uintUint8FunctionReturnsUintUint8",
      "outputs": [
        {
          "name": "__uint",
          "type": "uint256"
        },
        {
          "name": "_uint8_",
          "type": "uint8"
        }
      ],
      "payable": false,
      "stateMutability": "view",
      "type": "function"
    },
    {
      "constant": true,
      "inputs": [
        {
          "name": "_string",
          "type": "string"
        }
      ],
      "name": "stringFunctionReturnsBool",
      "outputs": [
        {
          "name": "__bool",
          "type": "bool"
        }
      ],
      "payable": false,
      "stateMutability": "view",
      "type": "function"
    },
    {
      "constant": true,
      "inputs": [
        {
          "name": "_bytes1",
          "type": "bytes1"
        }
      ],
      "name": "bytes1FunctionReturnsByte",
      "outputs": [
        {
          "name": "__byte",
          "type": "bytes1"
        }
      ],
      "payable": false,
      "stateMutability": "view",
      "type": "function"
    },
    {
      "constant": true,
      "inputs": [
        {
          "name": "_address",
          "type": "address"
        }
      ],
      "name": "addressFunctionReturnsBytes1",
      "outputs": [
        {
          "name": "__bytes1",
          "type": "bytes1"
        }
      ],
      "payable": false,
      "stateMutability": "view",
      "type": "function"
    },
    {
      "constant": true,
      "inputs": [
        {
          "name": "_uint256",
          "type": "uint256"
        }
      ],
      "name": "uint256FunctionReturnsByte",
      "outputs": [
        {
          "name": "__byte",
          "type": "bytes1"
        }
      ],
      "payable": false,
      "stateMutability": "view",
      "type": "function"
    },
    {
      "constant": true,
      "inputs": [
        {
          "name": "_byte",
          "type": "bytes1"
        }
      ],
      "name": "byteFunctionReturnsBytes32",
      "outputs": [
        {
          "name": "__bytes32",
          "type": "bytes32"
        }
      ],
      "payable": false,
      "stateMutability": "view",
      "type": "function"
    },
    {
      "constant": true,
      "inputs": [
        {
          "name": "_bytes1",
          "type": "bytes1"
        }
      ],
      "name": "bytes1FunctionReturnsInt",
      "outputs": [
        {
          "name": "__int",
          "type": "int256"
        }
      ],
      "payable": false,
      "stateMutability": "view",
      "type": "function"
    },
    {
      "constant": true,
      "inputs": [
        {
          "name": "_bytes",
          "type": "bytes"
        }
      ],
      "name": "bytesFunctionReturnsByte",
      "outputs": [
        {
          "name": "__byte",
          "type": "bytes1"
        }
      ],
      "payable": false,
      "stateMutability": "view",
      "type": "function"
    },
    {
      "constant": true,
      "inputs": [
        {
          "name": "_int8",
          "type": "int8"
        }
      ],
      "name": "int8FunctionReturnsUint256",
      "outputs": [
        {
          "name": "__uint256",
          "type": "uint256"
        }
      ],
      "payable": false,
      "stateMutability": "view",
      "type": "function"
    },
    {
      "constant": true,
      "inputs": [
        {
          "name": "_int256",
          "type": "int256"
        }
      ],
      "name": "int256FunctionReturnsInt8",
      "outputs": [
        {
          "name": "__int8",
          "type": "int8"
        }
      ],
      "payable": false,
      "stateMutability": "view",
      "type": "function"
    },
    {
      "constant": true,
      "inputs": [
        {
          "name": "_uint8",
          "type": "uint8"
        }
      ],
      "name": "uint8FunctionReturnsBytes1",
      "outputs": [
        {
          "name": "__bytes1",
          "type": "bytes1"
        }
      ],
      "payable": false,
      "stateMutability": "view",
      "type": "function"
    },
    {
      "constant": true,
      "inputs": [
        {
          "name": "_int8",
          "type": "int8"
        }
      ],
      "name": "int8FunctionReturnsBool",
      "outputs": [
        {
          "name": "__bool",
          "type": "bool"
        }
      ],
      "payable": false,
      "stateMutability": "view",
      "type": "function"
    },
    {
      "constant": true,
      "inputs": [
        {
          "name": "_bytes",
          "type": "bytes"
        }
      ],
      "name": "bytesFunctionReturnsInt8",
      "outputs": [
        {
          "name": "__int8",
          "type": "int8"
        }
      ],
      "payable": false,
      "stateMutability": "view",
      "type": "function"
    },
    {
      "constant": true,
      "inputs": [
        {
          "name": "_bytes32",
          "type": "bytes32"
        }
      ],
      "name": "bytes32FunctionReturnsAddress",
      "outputs": [
        {
          "name": "__address",
          "type": "address"
        }
      ],
      "payable": false,
      "stateMutability": "view",
      "type": "function"
    },
    {
      "constant": true,
      "inputs": [
        {
          "name": "_bool",
          "type": "bool"
        }
      ],
      "name": "boolUint256FunctionReturnsBoolUint256",
      "outputs": [
        {
          "name": "__bool",
          "type": "bool"
        },
        {
          "name": "_uint256_",
          "type": "uint256"
        }
      ],
      "payable": false,
      "stateMutability": "view",
      "type": "function"
    },
    {
      "constant": true,
      "inputs": [
        {
          "name": "_int",
          "type": "int256"
        }
      ],
      "name": "intFunctionReturnsByte",
      "outputs": [
        {
          "name": "__byte",
          "type": "bytes1"
        }
      ],
      "payable": false,
      "stateMutability": "view",
      "type": "function"
    },
    {
      "constant": true,
      "inputs": [
        {
          "name": "_bytes1",
          "type": "bytes1"
        }
      ],
      "name": "bytes1FunctionReturnsUint8",
      "outputs": [
        {
          "name": "__uint8",
          "type": "uint8"
        }
      ],
      "payable": false,
      "stateMutability": "view",
      "type": "function"
    },
    {
      "constant": true,
      "inputs": [
        {
          "name": "_uint",
          "type": "uint256"
        }
      ],
      "name": "uintFunctionReturnsAddress",
      "outputs": [
        {
          "name": "__address",
          "type": "address"
        }
      ],
      "payable": false,
      "stateMutability": "view",
      "type": "function"
    },
    {
      "constant": true,
      "inputs": [
        {
          "name": "_byte",
          "type": "bytes1"
        }
      ],
      "name": "byteFunctionReturnsBool",
      "outputs": [
        {
          "name": "__bool",
          "type": "bool"
        }
      ],
      "payable": false,
      "stateMutability": "view",
      "type": "function"
    },
    {
      "constant": false,
      "inputs": [
        {
          "name": "__int",
          "type": "int256"
        }
      ],
      "name": "changeInt",
      "outputs": [],
      "payable": false,
      "stateMutability": "nonpayable",
      "type": "function"
    },
    {
      "constant": true,
      "inputs": [
        {
          "name": "_int",
          "type": "int256"
        }
      ],
      "name": "intFunctionReturnsBool",
      "outputs": [
        {
          "name": "__bool",
          "type": "bool"
        }
      ],
      "payable": false,
      "stateMutability": "view",
      "type": "function"
    },
    {
      "constant": true,
      "inputs": [
        {
          "name": "_bytes1",
          "type": "bytes1"
        }
      ],
      "name": "bytes1FunctionReturnsString",
      "outputs": [
        {
          "name": "__string",
          "type": "string"
        }
      ],
      "payable": false,
      "stateMutability": "view",
      "type": "function"
    },
    {
      "constant": true,
      "inputs": [
        {
          "name": "_bytes32",
          "type": "bytes32"
        }
      ],
      "name": "bytes32FunctionReturnsUint256",
      "outputs": [
        {
          "name": "__uint256",
          "type": "uint256"
        }
      ],
      "payable": false,
      "stateMutability": "view",
      "type": "function"
    },
    {
      "constant": true,
      "inputs": [
        {
          "name": "_address",
          "type": "address"
        }
      ],
      "name": "addressFunctionReturnsString",
      "outputs": [
        {
          "name": "__string",
          "type": "string"
        }
      ],
      "payable": false,
      "stateMutability": "view",
      "type": "function"
    },
    {
      "constant": false,
      "inputs": [
        {
          "name": "__bytes",
          "type": "bytes"
        }
      ],
      "name": "changeBytes",
      "outputs": [],
      "payable": false,
      "stateMutability": "nonpayable",
      "type": "function"
    },
    {
      "constant": true,
      "inputs": [
        {
          "name": "_int",
          "type": "int256"
        }
      ],
      "name": "intFunctionReturnsUint",
      "outputs": [
        {
          "name": "__uint",
          "type": "uint256"
        }
      ],
      "payable": false,
      "stateMutability": "view",
      "type": "function"
    },
    {
      "constant": true,
      "inputs": [
        {
          "name": "_int256",
          "type": "int256"
        }
      ],
      "name": "int256FunctionReturnsBytes32",
      "outputs": [
        {
          "name": "__bytes32",
          "type": "bytes32"
        }
      ],
      "payable": false,
      "stateMutability": "view",
      "type": "function"
    },
    {
      "constant": true,
      "inputs": [
        {
          "name": "_bytes1",
          "type": "bytes1"
        }
      ],
      "name": "bytes1FunctionReturnsBool",
      "outputs": [
        {
          "name": "__bool",
          "type": "bool"
        }
      ],
      "payable": false,
      "stateMutability": "view",
      "type": "function"
    },
    {
      "constant": false,
      "inputs": [
        {
          "name": "__address",
          "type": "address"
        }
      ],
      "name": "changeAddress",
      "outputs": [],
      "payable": false,
      "stateMutability": "nonpayable",
      "type": "function"
    },
    {
      "inputs": [],
      "payable": false,
      "stateMutability": "nonpayable",
      "type": "constructor"
    },
    {
      "anonymous": false,
      "inputs": [
        {
          "indexed": false,
          "name": "__bool",
          "type": "bool"
        }
      ],
      "name": "BoolEventReturnsBool",
      "type": "event"
    },
    {
      "anonymous": false,
      "inputs": [
        {
          "indexed": false,
          "name": "__int",
          "type": "int256"
        }
      ],
      "name": "BoolEventReturnsInt",
      "type": "event"
    },
    {
      "anonymous": false,
      "inputs": [
        {
          "indexed": false,
          "name": "__int8",
          "type": "int8"
        }
      ],
      "name": "BoolEventReturnsInt8",
      "type": "event"
    },
    {
      "anonymous": false,
      "inputs": [
        {
          "indexed": false,
          "name": "__int256",
          "type": "int256"
        }
      ],
      "name": "BoolEventReturnsInt256",
      "type": "event"
    },
    {
      "anonymous": false,
      "inputs": [
        {
          "indexed": false,
          "name": "__uint",
          "type": "uint256"
        }
      ],
      "name": "BoolEventReturnsUint",
      "type": "event"
    },
    {
      "anonymous": false,
      "inputs": [
        {
          "indexed": false,
          "name": "__uint8",
          "type": "uint8"
        }
      ],
      "name": "BoolEventReturnsUint8",
      "type": "event"
    },
    {
      "anonymous": false,
      "inputs": [
        {
          "indexed": false,
          "name": "__uint256",
          "type": "uint256"
        }
      ],
      "name": "BoolEventReturnsUint256",
      "type": "event"
    },
    {
      "anonymous": false,
      "inputs": [
        {
          "indexed": false,
          "name": "__address",
          "type": "address"
        }
      ],
      "name": "BoolEventReturnsAddress",
      "type": "event"
    },
    {
      "anonymous": false,
      "inputs": [
        {
          "indexed": false,
          "name": "__byte",
          "type": "bytes1"
        }
      ],
      "name": "BoolEventReturnsByte",
      "type": "event"
    },
    {
      "anonymous": false,
      "inputs": [
        {
          "indexed": false,
          "name": "__bytes1",
          "type": "bytes1"
        }
      ],
      "name": "BoolEventReturnsBytes1",
      "type": "event"
    },
    {
      "anonymous": false,
      "inputs": [
        {
          "indexed": false,
          "name": "__bytes32",
          "type": "bytes32"
        }
      ],
      "name": "BoolEventReturnsBytes32",
      "type": "event"
    },
    {
      "anonymous": false,
      "inputs": [
        {
          "indexed": false,
          "name": "__bytes",
          "type": "bytes"
        }
      ],
      "name": "BoolEventReturnsBytes",
      "type": "event"
    },
    {
      "anonymous": false,
      "inputs": [
        {
          "indexed": false,
          "name": "__string",
          "type": "string"
        }
      ],
      "name": "BoolEventReturnsString",
      "type": "event"
    },
    {
      "anonymous": false,
      "inputs": [
        {
          "indexed": false,
          "name": "__bool",
          "type": "bool"
        }
      ],
      "name": "IntEventReturnsBool",
      "type": "event"
    },
    {
      "anonymous": false,
      "inputs": [
        {
          "indexed": false,
          "name": "__int",
          "type": "int256"
        }
      ],
      "name": "IntEventReturnsInt",
      "type": "event"
    },
    {
      "anonymous": false,
      "inputs": [
        {
          "indexed": false,
          "name": "__int8",
          "type": "int8"
        }
      ],
      "name": "IntEventReturnsInt8",
      "type": "event"
    },
    {
      "anonymous": false,
      "inputs": [
        {
          "indexed": false,
          "name": "__int256",
          "type": "int256"
        }
      ],
      "name": "IntEventReturnsInt256",
      "type": "event"
    },
    {
      "anonymous": false,
      "inputs": [
        {
          "indexed": false,
          "name": "__uint",
          "type": "uint256"
        }
      ],
      "name": "IntEventReturnsUint",
      "type": "event"
    },
    {
      "anonymous": false,
      "inputs": [
        {
          "indexed": false,
          "name": "__uint8",
          "type": "uint8"
        }
      ],
      "name": "IntEventReturnsUint8",
      "type": "event"
    },
    {
      "anonymous": false,
      "inputs": [
        {
          "indexed": false,
          "name": "__uint256",
          "type": "uint256"
        }
      ],
      "name": "IntEventReturnsUint256",
      "type": "event"
    },
    {
      "anonymous": false,
      "inputs": [
        {
          "indexed": false,
          "name": "__address",
          "type": "address"
        }
      ],
      "name": "IntEventReturnsAddress",
      "type": "event"
    },
    {
      "anonymous": false,
      "inputs": [
        {
          "indexed": false,
          "name": "__byte",
          "type": "bytes1"
        }
      ],
      "name": "IntEventReturnsByte",
      "type": "event"
    },
    {
      "anonymous": false,
      "inputs": [
        {
          "indexed": false,
          "name": "__bytes1",
          "type": "bytes1"
        }
      ],
      "name": "IntEventReturnsBytes1",
      "type": "event"
    },
    {
      "anonymous": false,
      "inputs": [
        {
          "indexed": false,
          "name": "__bytes32",
          "type": "bytes32"
        }
      ],
      "name": "IntEventReturnsBytes32",
      "type": "event"
    },
    {
      "anonymous": false,
      "inputs": [
        {
          "indexed": false,
          "name": "__bytes",
          "type": "bytes"
        }
      ],
      "name": "IntEventReturnsBytes",
      "type": "event"
    },
    {
      "anonymous": false,
      "inputs": [
        {
          "indexed": false,
          "name": "__string",
          "type": "string"
        }
      ],
      "name": "IntEventReturnsString",
      "type": "event"
    },
    {
      "anonymous": false,
      "inputs": [
        {
          "indexed": false,
          "name": "__bool",
          "type": "bool"
        }
      ],
      "name": "Int8EventReturnsBool",
      "type": "event"
    },
    {
      "anonymous": false,
      "inputs": [
        {
          "indexed": false,
          "name": "__int",
          "type": "int256"
        }
      ],
      "name": "Int8EventReturnsInt",
      "type": "event"
    },
    {
      "anonymous": false,
      "inputs": [
        {
          "indexed": false,
          "name": "__int8",
          "type": "int8"
        }
      ],
      "name": "Int8EventReturnsInt8",
      "type": "event"
    },
    {
      "anonymous": false,
      "inputs": [
        {
          "indexed": false,
          "name": "__int256",
          "type": "int256"
        }
      ],
      "name": "Int8EventReturnsInt256",
      "type": "event"
    },
    {
      "anonymous": false,
      "inputs": [
        {
          "indexed": false,
          "name": "__uint",
          "type": "uint256"
        }
      ],
      "name": "Int8EventReturnsUint",
      "type": "event"
    },
    {
      "anonymous": false,
      "inputs": [
        {
          "indexed": false,
          "name": "__uint8",
          "type": "uint8"
        }
      ],
      "name": "Int8EventReturnsUint8",
      "type": "event"
    },
    {
      "anonymous": false,
      "inputs": [
        {
          "indexed": false,
          "name": "__uint256",
          "type": "uint256"
        }
      ],
      "name": "Int8EventReturnsUint256",
      "type": "event"
    },
    {
      "anonymous": false,
      "inputs": [
        {
          "indexed": false,
          "name": "__address",
          "type": "address"
        }
      ],
      "name": "Int8EventReturnsAddress",
      "type": "event"
    },
    {
      "anonymous": false,
      "inputs": [
        {
          "indexed": false,
          "name": "__byte",
          "type": "bytes1"
        }
      ],
      "name": "Int8EventReturnsByte",
      "type": "event"
    },
    {
      "anonymous": false,
      "inputs": [
        {
          "indexed": false,
          "name": "__bytes1",
          "type": "bytes1"
        }
      ],
      "name": "Int8EventReturnsBytes1",
      "type": "event"
    },
    {
      "anonymous": false,
      "inputs": [
        {
          "indexed": false,
          "name": "__bytes32",
          "type": "bytes32"
        }
      ],
      "name": "Int8EventReturnsBytes32",
      "type": "event"
    },
    {
      "anonymous": false,
      "inputs": [
        {
          "indexed": false,
          "name": "__bytes",
          "type": "bytes"
        }
      ],
      "name": "Int8EventReturnsBytes",
      "type": "event"
    },
    {
      "anonymous": false,
      "inputs": [
        {
          "indexed": false,
          "name": "__string",
          "type": "string"
        }
      ],
      "name": "Int8EventReturnsString",
      "type": "event"
    },
    {
      "anonymous": false,
      "inputs": [
        {
          "indexed": false,
          "name": "__bool",
          "type": "bool"
        }
      ],
      "name": "Int256EventReturnsBool",
      "type": "event"
    },
    {
      "anonymous": false,
      "inputs": [
        {
          "indexed": false,
          "name": "__int",
          "type": "int256"
        }
      ],
      "name": "Int256EventReturnsInt",
      "type": "event"
    },
    {
      "anonymous": false,
      "inputs": [
        {
          "indexed": false,
          "name": "__int8",
          "type": "int8"
        }
      ],
      "name": "Int256EventReturnsInt8",
      "type": "event"
    },
    {
      "anonymous": false,
      "inputs": [
        {
          "indexed": false,
          "name": "__int256",
          "type": "int256"
        }
      ],
      "name": "Int256EventReturnsInt256",
      "type": "event"
    },
    {
      "anonymous": false,
      "inputs": [
        {
          "indexed": false,
          "name": "__uint",
          "type": "uint256"
        }
      ],
      "name": "Int256EventReturnsUint",
      "type": "event"
    },
    {
      "anonymous": false,
      "inputs": [
        {
          "indexed": false,
          "name": "__uint8",
          "type": "uint8"
        }
      ],
      "name": "Int256EventReturnsUint8",
      "type": "event"
    },
    {
      "anonymous": false,
      "inputs": [
        {
          "indexed": false,
          "name": "__uint256",
          "type": "uint256"
        }
      ],
      "name": "Int256EventReturnsUint256",
      "type": "event"
    },
    {
      "anonymous": false,
      "inputs": [
        {
          "indexed": false,
          "name": "__address",
          "type": "address"
        }
      ],
      "name": "Int256EventReturnsAddress",
      "type": "event"
    },
    {
      "anonymous": false,
      "inputs": [
        {
          "indexed": false,
          "name": "__byte",
          "type": "bytes1"
        }
      ],
      "name": "Int256EventReturnsByte",
      "type": "event"
    },
    {
      "anonymous": false,
      "inputs": [
        {
          "indexed": false,
          "name": "__bytes1",
          "type": "bytes1"
        }
      ],
      "name": "Int256EventReturnsBytes1",
      "type": "event"
    },
    {
      "anonymous": false,
      "inputs": [
        {
          "indexed": false,
          "name": "__bytes32",
          "type": "bytes32"
        }
      ],
      "name": "Int256EventReturnsBytes32",
      "type": "event"
    },
    {
      "anonymous": false,
      "inputs": [
        {
          "indexed": false,
          "name": "__bytes",
          "type": "bytes"
        }
      ],
      "name": "Int256EventReturnsBytes",
      "type": "event"
    },
    {
      "anonymous": false,
      "inputs": [
        {
          "indexed": false,
          "name": "__string",
          "type": "string"
        }
      ],
      "name": "Int256EventReturnsString",
      "type": "event"
    },
    {
      "anonymous": false,
      "inputs": [
        {
          "indexed": false,
          "name": "__bool",
          "type": "bool"
        }
      ],
      "name": "UintEventReturnsBool",
      "type": "event"
    },
    {
      "anonymous": false,
      "inputs": [
        {
          "indexed": false,
          "name": "__int",
          "type": "int256"
        }
      ],
      "name": "UintEventReturnsInt",
      "type": "event"
    },
    {
      "anonymous": false,
      "inputs": [
        {
          "indexed": false,
          "name": "__int8",
          "type": "int8"
        }
      ],
      "name": "UintEventReturnsInt8",
      "type": "event"
    },
    {
      "anonymous": false,
      "inputs": [
        {
          "indexed": false,
          "name": "__int256",
          "type": "int256"
        }
      ],
      "name": "UintEventReturnsInt256",
      "type": "event"
    },
    {
      "anonymous": false,
      "inputs": [
        {
          "indexed": false,
          "name": "__uint",
          "type": "uint256"
        }
      ],
      "name": "UintEventReturnsUint",
      "type": "event"
    },
    {
      "anonymous": false,
      "inputs": [
        {
          "indexed": false,
          "name": "__uint8",
          "type": "uint8"
        }
      ],
      "name": "UintEventReturnsUint8",
      "type": "event"
    },
    {
      "anonymous": false,
      "inputs": [
        {
          "indexed": false,
          "name": "__uint256",
          "type": "uint256"
        }
      ],
      "name": "UintEventReturnsUint256",
      "type": "event"
    },
    {
      "anonymous": false,
      "inputs": [
        {
          "indexed": false,
          "name": "__address",
          "type": "address"
        }
      ],
      "name": "UintEventReturnsAddress",
      "type": "event"
    },
    {
      "anonymous": false,
      "inputs": [
        {
          "indexed": false,
          "name": "__byte",
          "type": "bytes1"
        }
      ],
      "name": "UintEventReturnsByte",
      "type": "event"
    },
    {
      "anonymous": false,
      "inputs": [
        {
          "indexed": false,
          "name": "__bytes1",
          "type": "bytes1"
        }
      ],
      "name": "UintEventReturnsBytes1",
      "type": "event"
    },
    {
      "anonymous": false,
      "inputs": [
        {
          "indexed": false,
          "name": "__bytes32",
          "type": "bytes32"
        }
      ],
      "name": "UintEventReturnsBytes32",
      "type": "event"
    },
    {
      "anonymous": false,
      "inputs": [
        {
          "indexed": false,
          "name": "__bytes",
          "type": "bytes"
        }
      ],
      "name": "UintEventReturnsBytes",
      "type": "event"
    },
    {
      "anonymous": false,
      "inputs": [
        {
          "indexed": false,
          "name": "__string",
          "type": "string"
        }
      ],
      "name": "UintEventReturnsString",
      "type": "event"
    },
    {
      "anonymous": false,
      "inputs": [
        {
          "indexed": false,
          "name": "__bool",
          "type": "bool"
        }
      ],
      "name": "Uint8EventReturnsBool",
      "type": "event"
    },
    {
      "anonymous": false,
      "inputs": [
        {
          "indexed": false,
          "name": "__int",
          "type": "int256"
        }
      ],
      "name": "Uint8EventReturnsInt",
      "type": "event"
    },
    {
      "anonymous": false,
      "inputs": [
        {
          "indexed": false,
          "name": "__int8",
          "type": "int8"
        }
      ],
      "name": "Uint8EventReturnsInt8",
      "type": "event"
    },
    {
      "anonymous": false,
      "inputs": [
        {
          "indexed": false,
          "name": "__int256",
          "type": "int256"
        }
      ],
      "name": "Uint8EventReturnsInt256",
      "type": "event"
    },
    {
      "anonymous": false,
      "inputs": [
        {
          "indexed": false,
          "name": "__uint",
          "type": "uint256"
        }
      ],
      "name": "Uint8EventReturnsUint",
      "type": "event"
    },
    {
      "anonymous": false,
      "inputs": [
        {
          "indexed": false,
          "name": "__uint8",
          "type": "uint8"
        }
      ],
      "name": "Uint8EventReturnsUint8",
      "type": "event"
    },
    {
      "anonymous": false,
      "inputs": [
        {
          "indexed": false,
          "name": "__uint256",
          "type": "uint256"
        }
      ],
      "name": "Uint8EventReturnsUint256",
      "type": "event"
    },
    {
      "anonymous": false,
      "inputs": [
        {
          "indexed": false,
          "name": "__address",
          "type": "address"
        }
      ],
      "name": "Uint8EventReturnsAddress",
      "type": "event"
    },
    {
      "anonymous": false,
      "inputs": [
        {
          "indexed": false,
          "name": "__byte",
          "type": "bytes1"
        }
      ],
      "name": "Uint8EventReturnsByte",
      "type": "event"
    },
    {
      "anonymous": false,
      "inputs": [
        {
          "indexed": false,
          "name": "__bytes1",
          "type": "bytes1"
        }
      ],
      "name": "Uint8EventReturnsBytes1",
      "type": "event"
    },
    {
      "anonymous": false,
      "inputs": [
        {
          "indexed": false,
          "name": "__bytes32",
          "type": "bytes32"
        }
      ],
      "name": "Uint8EventReturnsBytes32",
      "type": "event"
    },
    {
      "anonymous": false,
      "inputs": [
        {
          "indexed": false,
          "name": "__bytes",
          "type": "bytes"
        }
      ],
      "name": "Uint8EventReturnsBytes",
      "type": "event"
    },
    {
      "anonymous": false,
      "inputs": [
        {
          "indexed": false,
          "name": "__string",
          "type": "string"
        }
      ],
      "name": "Uint8EventReturnsString",
      "type": "event"
    },
    {
      "anonymous": false,
      "inputs": [
        {
          "indexed": false,
          "name": "__bool",
          "type": "bool"
        }
      ],
      "name": "Uint256EventReturnsBool",
      "type": "event"
    },
    {
      "anonymous": false,
      "inputs": [
        {
          "indexed": false,
          "name": "__int",
          "type": "int256"
        }
      ],
      "name": "Uint256EventReturnsInt",
      "type": "event"
    },
    {
      "anonymous": false,
      "inputs": [
        {
          "indexed": false,
          "name": "__int8",
          "type": "int8"
        }
      ],
      "name": "Uint256EventReturnsInt8",
      "type": "event"
    },
    {
      "anonymous": false,
      "inputs": [
        {
          "indexed": false,
          "name": "__int256",
          "type": "int256"
        }
      ],
      "name": "Uint256EventReturnsInt256",
      "type": "event"
    },
    {
      "anonymous": false,
      "inputs": [
        {
          "indexed": false,
          "name": "__uint",
          "type": "uint256"
        }
      ],
      "name": "Uint256EventReturnsUint",
      "type": "event"
    },
    {
      "anonymous": false,
      "inputs": [
        {
          "indexed": false,
          "name": "__uint8",
          "type": "uint8"
        }
      ],
      "name": "Uint256EventReturnsUint8",
      "type": "event"
    },
    {
      "anonymous": false,
      "inputs": [
        {
          "indexed": false,
          "name": "__uint256",
          "type": "uint256"
        }
      ],
      "name": "Uint256EventReturnsUint256",
      "type": "event"
    },
    {
      "anonymous": false,
      "inputs": [
        {
          "indexed": false,
          "name": "__address",
          "type": "address"
        }
      ],
      "name": "Uint256EventReturnsAddress",
      "type": "event"
    },
    {
      "anonymous": false,
      "inputs": [
        {
          "indexed": false,
          "name": "__byte",
          "type": "bytes1"
        }
      ],
      "name": "Uint256EventReturnsByte",
      "type": "event"
    },
    {
      "anonymous": false,
      "inputs": [
        {
          "indexed": false,
          "name": "__bytes1",
          "type": "bytes1"
        }
      ],
      "name": "Uint256EventReturnsBytes1",
      "type": "event"
    },
    {
      "anonymous": false,
      "inputs": [
        {
          "indexed": false,
          "name": "__bytes32",
          "type": "bytes32"
        }
      ],
      "name": "Uint256EventReturnsBytes32",
      "type": "event"
    },
    {
      "anonymous": false,
      "inputs": [
        {
          "indexed": false,
          "name": "__bytes",
          "type": "bytes"
        }
      ],
      "name": "Uint256EventReturnsBytes",
      "type": "event"
    },
    {
      "anonymous": false,
      "inputs": [
        {
          "indexed": false,
          "name": "__string",
          "type": "string"
        }
      ],
      "name": "Uint256EventReturnsString",
      "type": "event"
    },
    {
      "anonymous": false,
      "inputs": [
        {
          "indexed": false,
          "name": "__bool",
          "type": "bool"
        }
      ],
      "name": "AddressEventReturnsBool",
      "type": "event"
    },
    {
      "anonymous": false,
      "inputs": [
        {
          "indexed": false,
          "name": "__int",
          "type": "int256"
        }
      ],
      "name": "AddressEventReturnsInt",
      "type": "event"
    },
    {
      "anonymous": false,
      "inputs": [
        {
          "indexed": false,
          "name": "__int8",
          "type": "int8"
        }
      ],
      "name": "AddressEventReturnsInt8",
      "type": "event"
    },
    {
      "anonymous": false,
      "inputs": [
        {
          "indexed": false,
          "name": "__int256",
          "type": "int256"
        }
      ],
      "name": "AddressEventReturnsInt256",
      "type": "event"
    },
    {
      "anonymous": false,
      "inputs": [
        {
          "indexed": false,
          "name": "__uint",
          "type": "uint256"
        }
      ],
      "name": "AddressEventReturnsUint",
      "type": "event"
    },
    {
      "anonymous": false,
      "inputs": [
        {
          "indexed": false,
          "name": "__uint8",
          "type": "uint8"
        }
      ],
      "name": "AddressEventReturnsUint8",
      "type": "event"
    },
    {
      "anonymous": false,
      "inputs": [
        {
          "indexed": false,
          "name": "__uint256",
          "type": "uint256"
        }
      ],
      "name": "AddressEventReturnsUint256",
      "type": "event"
    },
    {
      "anonymous": false,
      "inputs": [
        {
          "indexed": false,
          "name": "__address",
          "type": "address"
        }
      ],
      "name": "AddressEventReturnsAddress",
      "type": "event"
    },
    {
      "anonymous": false,
      "inputs": [
        {
          "indexed": false,
          "name": "__byte",
          "type": "bytes1"
        }
      ],
      "name": "AddressEventReturnsByte",
      "type": "event"
    },
    {
      "anonymous": false,
      "inputs": [
        {
          "indexed": false,
          "name": "__bytes1",
          "type": "bytes1"
        }
      ],
      "name": "AddressEventReturnsBytes1",
      "type": "event"
    },
    {
      "anonymous": false,
      "inputs": [
        {
          "indexed": false,
          "name": "__bytes32",
          "type": "bytes32"
        }
      ],
      "name": "AddressEventReturnsBytes32",
      "type": "event"
    },
    {
      "anonymous": false,
      "inputs": [
        {
          "indexed": false,
          "name": "__bytes",
          "type": "bytes"
        }
      ],
      "name": "AddressEventReturnsBytes",
      "type": "event"
    },
    {
      "anonymous": false,
      "inputs": [
        {
          "indexed": false,
          "name": "__string",
          "type": "string"
        }
      ],
      "name": "AddressEventReturnsString",
      "type": "event"
    },
    {
      "anonymous": false,
      "inputs": [
        {
          "indexed": false,
          "name": "__bool",
          "type": "bool"
        }
      ],
      "name": "ByteEventReturnsBool",
      "type": "event"
    },
    {
      "anonymous": false,
      "inputs": [
        {
          "indexed": false,
          "name": "__int",
          "type": "int256"
        }
      ],
      "name": "ByteEventReturnsInt",
      "type": "event"
    },
    {
      "anonymous": false,
      "inputs": [
        {
          "indexed": false,
          "name": "__int8",
          "type": "int8"
        }
      ],
      "name": "ByteEventReturnsInt8",
      "type": "event"
    },
    {
      "anonymous": false,
      "inputs": [
        {
          "indexed": false,
          "name": "__int256",
          "type": "int256"
        }
      ],
      "name": "ByteEventReturnsInt256",
      "type": "event"
    },
    {
      "anonymous": false,
      "inputs": [
        {
          "indexed": false,
          "name": "__uint",
          "type": "uint256"
        }
      ],
      "name": "ByteEventReturnsUint",
      "type": "event"
    },
    {
      "anonymous": false,
      "inputs": [
        {
          "indexed": false,
          "name": "__uint8",
          "type": "uint8"
        }
      ],
      "name": "ByteEventReturnsUint8",
      "type": "event"
    },
    {
      "anonymous": false,
      "inputs": [
        {
          "indexed": false,
          "name": "__uint256",
          "type": "uint256"
        }
      ],
      "name": "ByteEventReturnsUint256",
      "type": "event"
    },
    {
      "anonymous": false,
      "inputs": [
        {
          "indexed": false,
          "name": "__address",
          "type": "address"
        }
      ],
      "name": "ByteEventReturnsAddress",
      "type": "event"
    },
    {
      "anonymous": false,
      "inputs": [
        {
          "indexed": false,
          "name": "__byte",
          "type": "bytes1"
        }
      ],
      "name": "ByteEventReturnsByte",
      "type": "event"
    },
    {
      "anonymous": false,
      "inputs": [
        {
          "indexed": false,
          "name": "__bytes1",
          "type": "bytes1"
        }
      ],
      "name": "ByteEventReturnsBytes1",
      "type": "event"
    },
    {
      "anonymous": false,
      "inputs": [
        {
          "indexed": false,
          "name": "__bytes32",
          "type": "bytes32"
        }
      ],
      "name": "ByteEventReturnsBytes32",
      "type": "event"
    },
    {
      "anonymous": false,
      "inputs": [
        {
          "indexed": false,
          "name": "__bytes",
          "type": "bytes"
        }
      ],
      "name": "ByteEventReturnsBytes",
      "type": "event"
    },
    {
      "anonymous": false,
      "inputs": [
        {
          "indexed": false,
          "name": "__string",
          "type": "string"
        }
      ],
      "name": "ByteEventReturnsString",
      "type": "event"
    },
    {
      "anonymous": false,
      "inputs": [
        {
          "indexed": false,
          "name": "__bool",
          "type": "bool"
        }
      ],
      "name": "Bytes1EventReturnsBool",
      "type": "event"
    },
    {
      "anonymous": false,
      "inputs": [
        {
          "indexed": false,
          "name": "__int",
          "type": "int256"
        }
      ],
      "name": "Bytes1EventReturnsInt",
      "type": "event"
    },
    {
      "anonymous": false,
      "inputs": [
        {
          "indexed": false,
          "name": "__int8",
          "type": "int8"
        }
      ],
      "name": "Bytes1EventReturnsInt8",
      "type": "event"
    },
    {
      "anonymous": false,
      "inputs": [
        {
          "indexed": false,
          "name": "__int256",
          "type": "int256"
        }
      ],
      "name": "Bytes1EventReturnsInt256",
      "type": "event"
    },
    {
      "anonymous": false,
      "inputs": [
        {
          "indexed": false,
          "name": "__uint",
          "type": "uint256"
        }
      ],
      "name": "Bytes1EventReturnsUint",
      "type": "event"
    },
    {
      "anonymous": false,
      "inputs": [
        {
          "indexed": false,
          "name": "__uint8",
          "type": "uint8"
        }
      ],
      "name": "Bytes1EventReturnsUint8",
      "type": "event"
    },
    {
      "anonymous": false,
      "inputs": [
        {
          "indexed": false,
          "name": "__uint256",
          "type": "uint256"
        }
      ],
      "name": "Bytes1EventReturnsUint256",
      "type": "event"
    },
    {
      "anonymous": false,
      "inputs": [
        {
          "indexed": false,
          "name": "__address",
          "type": "address"
        }
      ],
      "name": "Bytes1EventReturnsAddress",
      "type": "event"
    },
    {
      "anonymous": false,
      "inputs": [
        {
          "indexed": false,
          "name": "__byte",
          "type": "bytes1"
        }
      ],
      "name": "Bytes1EventReturnsByte",
      "type": "event"
    },
    {
      "anonymous": false,
      "inputs": [
        {
          "indexed": false,
          "name": "__bytes1",
          "type": "bytes1"
        }
      ],
      "name": "Bytes1EventReturnsBytes1",
      "type": "event"
    },
    {
      "anonymous": false,
      "inputs": [
        {
          "indexed": false,
          "name": "__bytes32",
          "type": "bytes32"
        }
      ],
      "name": "Bytes1EventReturnsBytes32",
      "type": "event"
    },
    {
      "anonymous": false,
      "inputs": [
        {
          "indexed": false,
          "name": "__bytes",
          "type": "bytes"
        }
      ],
      "name": "Bytes1EventReturnsBytes",
      "type": "event"
    },
    {
      "anonymous": false,
      "inputs": [
        {
          "indexed": false,
          "name": "__string",
          "type": "string"
        }
      ],
      "name": "Bytes1EventReturnsString",
      "type": "event"
    },
    {
      "anonymous": false,
      "inputs": [
        {
          "indexed": false,
          "name": "__bool",
          "type": "bool"
        }
      ],
      "name": "Bytes32EventReturnsBool",
      "type": "event"
    },
    {
      "anonymous": false,
      "inputs": [
        {
          "indexed": false,
          "name": "__int",
          "type": "int256"
        }
      ],
      "name": "Bytes32EventReturnsInt",
      "type": "event"
    },
    {
      "anonymous": false,
      "inputs": [
        {
          "indexed": false,
          "name": "__int8",
          "type": "int8"
        }
      ],
      "name": "Bytes32EventReturnsInt8",
      "type": "event"
    },
    {
      "anonymous": false,
      "inputs": [
        {
          "indexed": false,
          "name": "__int256",
          "type": "int256"
        }
      ],
      "name": "Bytes32EventReturnsInt256",
      "type": "event"
    },
    {
      "anonymous": false,
      "inputs": [
        {
          "indexed": false,
          "name": "__uint",
          "type": "uint256"
        }
      ],
      "name": "Bytes32EventReturnsUint",
      "type": "event"
    },
    {
      "anonymous": false,
      "inputs": [
        {
          "indexed": false,
          "name": "__uint8",
          "type": "uint8"
        }
      ],
      "name": "Bytes32EventReturnsUint8",
      "type": "event"
    },
    {
      "anonymous": false,
      "inputs": [
        {
          "indexed": false,
          "name": "__uint256",
          "type": "uint256"
        }
      ],
      "name": "Bytes32EventReturnsUint256",
      "type": "event"
    },
    {
      "anonymous": false,
      "inputs": [
        {
          "indexed": false,
          "name": "__address",
          "type": "address"
        }
      ],
      "name": "Bytes32EventReturnsAddress",
      "type": "event"
    },
    {
      "anonymous": false,
      "inputs": [
        {
          "indexed": false,
          "name": "__byte",
          "type": "bytes1"
        }
      ],
      "name": "Bytes32EventReturnsByte",
      "type": "event"
    },
    {
      "anonymous": false,
      "inputs": [
        {
          "indexed": false,
          "name": "__bytes1",
          "type": "bytes1"
        }
      ],
      "name": "Bytes32EventReturnsBytes1",
      "type": "event"
    },
    {
      "anonymous": false,
      "inputs": [
        {
          "indexed": false,
          "name": "__bytes32",
          "type": "bytes32"
        }
      ],
      "name": "Bytes32EventReturnsBytes32",
      "type": "event"
    },
    {
      "anonymous": false,
      "inputs": [
        {
          "indexed": false,
          "name": "__bytes",
          "type": "bytes"
        }
      ],
      "name": "Bytes32EventReturnsBytes",
      "type": "event"
    },
    {
      "anonymous": false,
      "inputs": [
        {
          "indexed": false,
          "name": "__string",
          "type": "string"
        }
      ],
      "name": "Bytes32EventReturnsString",
      "type": "event"
    },
    {
      "anonymous": false,
      "inputs": [
        {
          "indexed": false,
          "name": "__bool",
          "type": "bool"
        }
      ],
      "name": "BytesEventReturnsBool",
      "type": "event"
    },
    {
      "anonymous": false,
      "inputs": [
        {
          "indexed": false,
          "name": "__int",
          "type": "int256"
        }
      ],
      "name": "BytesEventReturnsInt",
      "type": "event"
    },
    {
      "anonymous": false,
      "inputs": [
        {
          "indexed": false,
          "name": "__int8",
          "type": "int8"
        }
      ],
      "name": "BytesEventReturnsInt8",
      "type": "event"
    },
    {
      "anonymous": false,
      "inputs": [
        {
          "indexed": false,
          "name": "__int256",
          "type": "int256"
        }
      ],
      "name": "BytesEventReturnsInt256",
      "type": "event"
    },
    {
      "anonymous": false,
      "inputs": [
        {
          "indexed": false,
          "name": "__uint",
          "type": "uint256"
        }
      ],
      "name": "BytesEventReturnsUint",
      "type": "event"
    },
    {
      "anonymous": false,
      "inputs": [
        {
          "indexed": false,
          "name": "__uint8",
          "type": "uint8"
        }
      ],
      "name": "BytesEventReturnsUint8",
      "type": "event"
    },
    {
      "anonymous": false,
      "inputs": [
        {
          "indexed": false,
          "name": "__uint256",
          "type": "uint256"
        }
      ],
      "name": "BytesEventReturnsUint256",
      "type": "event"
    },
    {
      "anonymous": false,
      "inputs": [
        {
          "indexed": false,
          "name": "__address",
          "type": "address"
        }
      ],
      "name": "BytesEventReturnsAddress",
      "type": "event"
    },
    {
      "anonymous": false,
      "inputs": [
        {
          "indexed": false,
          "name": "__byte",
          "type": "bytes1"
        }
      ],
      "name": "BytesEventReturnsByte",
      "type": "event"
    },
    {
      "anonymous": false,
      "inputs": [
        {
          "indexed": false,
          "name": "__bytes1",
          "type": "bytes1"
        }
      ],
      "name": "BytesEventReturnsBytes1",
      "type": "event"
    },
    {
      "anonymous": false,
      "inputs": [
        {
          "indexed": false,
          "name": "__bytes32",
          "type": "bytes32"
        }
      ],
      "name": "BytesEventReturnsBytes32",
      "type": "event"
    },
    {
      "anonymous": false,
      "inputs": [
        {
          "indexed": false,
          "name": "__bytes",
          "type": "bytes"
        }
      ],
      "name": "BytesEventReturnsBytes",
      "type": "event"
    },
    {
      "anonymous": false,
      "inputs": [
        {
          "indexed": false,
          "name": "__string",
          "type": "string"
        }
      ],
      "name": "BytesEventReturnsString",
      "type": "event"
    },
    {
      "anonymous": false,
      "inputs": [
        {
          "indexed": false,
          "name": "__bool",
          "type": "bool"
        }
      ],
      "name": "StringEventReturnsBool",
      "type": "event"
    },
    {
      "anonymous": false,
      "inputs": [
        {
          "indexed": false,
          "name": "__int",
          "type": "int256"
        }
      ],
      "name": "StringEventReturnsInt",
      "type": "event"
    },
    {
      "anonymous": false,
      "inputs": [
        {
          "indexed": false,
          "name": "__int8",
          "type": "int8"
        }
      ],
      "name": "StringEventReturnsInt8",
      "type": "event"
    },
    {
      "anonymous": false,
      "inputs": [
        {
          "indexed": false,
          "name": "__int256",
          "type": "int256"
        }
      ],
      "name": "StringEventReturnsInt256",
      "type": "event"
    },
    {
      "anonymous": false,
      "inputs": [
        {
          "indexed": false,
          "name": "__uint",
          "type": "uint256"
        }
      ],
      "name": "StringEventReturnsUint",
      "type": "event"
    },
    {
      "anonymous": false,
      "inputs": [
        {
          "indexed": false,
          "name": "__uint8",
          "type": "uint8"
        }
      ],
      "name": "StringEventReturnsUint8",
      "type": "event"
    },
    {
      "anonymous": false,
      "inputs": [
        {
          "indexed": false,
          "name": "__uint256",
          "type": "uint256"
        }
      ],
      "name": "StringEventReturnsUint256",
      "type": "event"
    },
    {
      "anonymous": false,
      "inputs": [
        {
          "indexed": false,
          "name": "__address",
          "type": "address"
        }
      ],
      "name": "StringEventReturnsAddress",
      "type": "event"
    },
    {
      "anonymous": false,
      "inputs": [
        {
          "indexed": false,
          "name": "__byte",
          "type": "bytes1"
        }
      ],
      "name": "StringEventReturnsByte",
      "type": "event"
    },
    {
      "anonymous": false,
      "inputs": [
        {
          "indexed": false,
          "name": "__bytes1",
          "type": "bytes1"
        }
      ],
      "name": "StringEventReturnsBytes1",
      "type": "event"
    },
    {
      "anonymous": false,
      "inputs": [
        {
          "indexed": false,
          "name": "__bytes32",
          "type": "bytes32"
        }
      ],
      "name": "StringEventReturnsBytes32",
      "type": "event"
    },
    {
      "anonymous": false,
      "inputs": [
        {
          "indexed": false,
          "name": "__bytes",
          "type": "bytes"
        }
      ],
      "name": "StringEventReturnsBytes",
      "type": "event"
    },
    {
      "anonymous": false,
      "inputs": [
        {
          "indexed": false,
          "name": "__string",
          "type": "string"
        }
      ],
      "name": "StringEventReturnsString",
      "type": "event"
    }
  ],
  "bytecode": "0x6060604052341561000f57600080fd5b61663b806200001f6000396000f300606060405260043610610894576000357c0100000000000000000000000000000000000000000000000000000000900463ffffffff1680626fb20614610899578062e985a314610957578062f81aed14610991578063012b39df14610a16578063027e3e2214610af95780630380892d14610bb757806304858d0814610c1057806305251f9c14610c76578063067f9e9a14610cb057806308771eb714610ce7578063096bfe7914610dbd5780630a1ceeed14610dfc5780630b4d699c14610e395780630e38a12d14610e985780630fe6e1c614610f35578063112aa9a714610f6c578063123216e614610fea57806312733fc5146110255780631305471f146110655780631360e779146110a057806315affe8e146110db5780631727467f14611115578063185944cf146111b45780631a5cf37f146112505780631c9fe4d1146112a95780631cd1725b1461136757806320d6b34e146113a457806327bdc845146113e957806327cb78421461145a57806328b5605b146114d557806329fdf7aa146115465780632aafb2cc146115b75780632b5f9835146116355780632e9c5ac51461166c5780632f23c3411461170c5780633122b1d11461175f57806332e329ef1461179e57806332fb2125146117dd57806334a54d791461181a578063358fecab146118b6578063368526de14611956578063372517cd146119bb5780633a5ebbd214611a085780633a647b5614611aac5780633ac387d214611b4b5780633ad2129514611b725780633bbc28b714611c0f5780633c1a2ae614611c755780633c7d54f914611cec5780633d7852a514611d235780633e0b4a7c14611d625780633efc5dca14611da15780633ff60bd614611e4057806340a2ce2f14611e7e57806340bb621c14611fc05780634216d2751461203f5780634237fb341461207957806343b815e4146120ff57806344c8e22b1461219c57806349f2de5e146121d95780634c87b1691461223c5780634fb720a51461227b578063526b8a6014612319578063528cb9751461238a5780635359ece9146123cb578063556dcea51461243e57806355dc5cfa1461249f5780635671e1b8146124c55780635b2d81c7146124fc5780635bf092ef1461253c5780635d091268146125af5780635d55f7fc1461262d5780635dd8e1c9146126e25780635eca7b781461273f57806360a7557c1461277c57806361052a011461281857806365131d37146128b757806368ec4b481461291a57806369ad91cc1461296a5780636cfe539a14612a065780636d68977914612aa35780636dad305614612ac85780636e26076d14612b215780636e5be6b114612b7a5780636e97e81c14612bf5578063723124ec14612c32578063728f162414612c6d57806373f065c114612d09578063744e63f314612d8e578063754098ae14612e075780637663f6ed14612e3e57806379180f8814612eb9578063797c89ac14612f065780637c59972e14612fb85780637def09911461302d57806380b450f71461306d578063813f53221461310a578063835331201461314f578063860e3442146131c057806387dc77ed14613213578063896b390d1461324a5780638a73068d146133205780638c6c829b146133665780638e45769d146134045780638e8a1e79146134da5780638edaafeb146135145780638f4edf2d1461354b578063909c5bb8146135bc57806391cc836e146135f5578063939bdd661461366c5780639498f85c146136a6578063953e6ff6146136e757806395ad8e561461370a57806396891a191461378357806396ac78cb146137ba57806399aa03fc146138565780639a10b1a4146138af5780639e06b25a146138e65780639f7ca27a146139825780639f896579146139b95780639fedb61514613a2a578063a0e29df614613a67578063a0f4d07014613a8a578063a143e4ba14613b26578063a22bc30614613b5f578063a256cb9e14613b98578063a257b72114613bf1578063a2b3153714613c33578063a85acf2714613c56578063a8d5c2b214613d0b578063a951dee714613d4c578063ac1ae6b114613d8e578063ad26245814613dd1578063b54f3db414613e1e578063b763e0c914613e59578063b9d3f15f14613ed2578063bb81b31814613f4f578063bc3c124e14613fca578063bdaee96614614005578063be0b31fd14614076578063be585a93146140f5578063c047314914614135578063c052eb8f146141b0578063c1a76b5f14614265578063c55ea0aa1461433b578063c745ef7d14614375578063c85bb063146143ae578063ca43ba231461442b578063cdfcfd7014614469578063ce99927e146144a0578063cfbe6c04146144f5578063d06ed3311461452c578063d28ff59c14614585578063d353dd1b146145e4578063d4297286146146ed578063d470bbe514614724578063d49271fc1461474a578063d6153143146147c1578063d975f7691461480e578063da7c19b3146148b1578063dbb74270146148ee578063dbe3bccc1461494d578063dd5ba4da146149b0578063dd65d825146149e7578063ddd938e914614a38578063de6061d514614ac9578063df4004ca14614b44578063e13dc5db14614b88578063e16f09ec14614bfd578063e278ea8c14614c9a578063e2b1995414614d2b578063e30f57ee14614da6578063e58ee8c114614e07578063e5fcfab114614e60578063e607698b14614f15578063e6c05cf414614f4f578063ea2851be14614f8c578063ead90f111461500a578063ecc1d69714615048578063ed12e01e146150bf578063edcc8e4614615126578063effef2c51461516a578063f061606b146151e5578063f0f4909014615244578063f103f290146152a7578063f1676e0514615304578063f26480aa14615327578063f75d780314615362578063f78d5a6b14615420578063f80569111461545b578063f9632ae71461550d578063fa4c38571461556a578063fb203748146155a1578063fbfe5c20146155e0578063fe64d6ff1461563d575b600080fd5b34156108a457600080fd5b6108dc60048080357effffffffffffffffffffffffffffffffffffffffffffffffffffffffffffff1916906020019091905050615676565b6040518080602001828103825283818151815260200191508051906020019080838360005b8381101561091c578082015181840152602081019050610901565b50505050905090810190601f1680156109495780820380516001836020036101000a031916815260200191505b509250505060405180910390f35b341561096257600080fd5b61097b600480803560000b906020019091905050615689565b6040518082815260200191505060405180910390f35b341561099c57600080fd5b6109d460048080357effffffffffffffffffffffffffffffffffffffffffffffffffffffffffffff1916906020019091905050615695565b604051808273ffffffffffffffffffffffffffffffffffffffff1673ffffffffffffffffffffffffffffffffffffffff16815260200191505060405180910390f35b3415610a2157600080fd5b610a71600480803590602001908201803590602001908080601f016020809104026020016040519081016040528093929190818152602001838380828437820191505050505050919050506156a1565b60405180806020018360ff1660ff168152602001828103825284818151815260200191508051906020019080838360005b83811015610abd578082015181840152602081019050610aa2565b50505050905090810190601f168015610aea5780820380516001836020036101000a031916815260200191505b50935050505060405180910390f35b3415610b0457600080fd5b610b3c60048080357effffffffffffffffffffffffffffffffffffffffffffffffffffffffffffff1916906020019091905050615757565b6040518080602001828103825283818151815260200191508051906020019080838360005b83811015610b7c578082015181840152602081019050610b61565b50505050905090810190601f168015610ba95780820380516001836020036101000a031916815260200191505b509250505060405180910390f35b3415610bc257600080fd5b610bfa60048080357effffffffffffffffffffffffffffffffffffffffffffffffffffffffffffff191690602001909190505061576a565b6040518082815260200191505060405180910390f35b3415610c1b57600080fd5b610c34600480803560000b906020019091905050615776565b604051808273ffffffffffffffffffffffffffffffffffffffff1673ffffffffffffffffffffffffffffffffffffffff16815260200191505060405180910390f35b3415610c8157600080fd5b610c9a600480803560ff16906020019091905050615782565b6040518082815260200191505060405180910390f35b3415610cbb57600080fd5b610cd1600480803590602001909190505061578e565b6040518082815260200191505060405180910390f35b3415610cf257600080fd5b610d42600480803590602001908201803590602001908080601f0160208091040260200160405190810160405280939291908181526020018383808284378201915050505050509190505061579a565b6040518080602001828103825283818151815260200191508051906020019080838360005b83811015610d82578082015181840152602081019050610d67565b50505050905090810190601f168015610daf5780820380516001836020036101000a031916815260200191505b509250505060405180910390f35b3415610dc857600080fd5b610dde60048080359060200190919050506157ad565b60405180826000191660001916815260200191505060405180910390f35b3415610e0757600080fd5b610e1d60048080359060200190919050506157b9565b604051808260ff1660ff16815260200191505060405180910390f35b3415610e4457600080fd5b610e7c60048080357effffffffffffffffffffffffffffffffffffffffffffffffffffffffffffff19169060200190919050506157c5565b604051808260000b60000b815260200191505060405180910390f35b3415610ea357600080fd5b610edb60048080357effffffffffffffffffffffffffffffffffffffffffffffffffffffffffffff19169060200190919050506157d1565b60405180827effffffffffffffffffffffffffffffffffffffffffffffffffffffffffffff19167effffffffffffffffffffffffffffffffffffffffffffffffffffffffffffff1916815260200191505060405180910390f35b3415610f4057600080fd5b610f5660048080359060200190919050506157dd565b6040518082815260200191505060405180910390f35b3415610f7757600080fd5b610f90600480803560000b9060200190919050506157e9565b60405180827effffffffffffffffffffffffffffffffffffffffffffffffffffffffffffff19167effffffffffffffffffffffffffffffffffffffffffffffffffffffffffffff1916815260200191505060405180910390f35b3415610ff557600080fd5b61100b60048080359060200190919050506157f5565b604051808215151515815260200191505060405180910390f35b341561103057600080fd5b611049600480803560000b906020019091905050615801565b604051808260000b60000b815260200191505060405180910390f35b341561107057600080fd5b611086600480803590602001909190505061580d565b604051808215151515815260200191505060405180910390f35b34156110ab57600080fd5b6110c5600480803560001916906020019091905050615819565b6040518082815260200191505060405180910390f35b34156110e657600080fd5b6110ff600480803560ff16906020019091905050615825565b6040518082815260200191505060405180910390f35b341561112057600080fd5b611139600480803560ff16906020019091905050615831565b6040518080602001828103825283818151815260200191508051906020019080838360005b8381101561117957808201518184015260208101905061115e565b50505050905090810190601f1680156111a65780820380516001836020036101000a031916815260200191505b509250505060405180910390f35b34156111bf57600080fd5b6111d56004808035906020019091905050615844565b6040518080602001828103825283818151815260200191508051906020019080838360005b838110156112155780820151818401526020810190506111fa565b50505050905090810190601f1680156112425780820380516001836020036101000a031916815260200191505b509250505060405180910390f35b341561125b57600080fd5b61129360048080357effffffffffffffffffffffffffffffffffffffffffffffffffffffffffffff1916906020019091905050615857565b6040518082815260200191505060405180910390f35b34156112b457600080fd5b6112ec60048080357effffffffffffffffffffffffffffffffffffffffffffffffffffffffffffff1916906020019091905050615863565b6040518080602001828103825283818151815260200191508051906020019080838360005b8381101561132c578082015181840152602081019050611311565b50505050905090810190601f1680156113595780820380516001836020036101000a031916815260200191505b509250505060405180910390f35b341561137257600080fd5b6113886004808035906020019091905050615876565b604051808260000b60000b815260200191505060405180910390f35b34156113af57600080fd5b6113e760048080357effffffffffffffffffffffffffffffffffffffffffffffffffffffffffffff1916906020019091905050615882565b005b34156113f457600080fd5b611444600480803590602001908201803590602001908080601f016020809104026020016040519081016040528093929190818152602001838380828437820191505050505050919050506158c0565b6040518082815260200191505060405180910390f35b341561146557600080fd5b61147b60048080359060200190919050506158cc565b60405180827effffffffffffffffffffffffffffffffffffffffffffffffffffffffffffff19167effffffffffffffffffffffffffffffffffffffffffffffffffffffffffffff1916815260200191505060405180910390f35b34156114e057600080fd5b611530600480803590602001908201803590602001908080601f016020809104026020016040519081016040528093929190818152602001838380828437820191505050505050919050506158d8565b6040518082815260200191505060405180910390f35b341561155157600080fd5b6115a1600480803590602001908201803590602001908080601f016020809104026020016040519081016040528093929190818152602001838380828437820191505050505050919050506158e4565b6040518082815260200191505060405180910390f35b34156115c257600080fd5b6115db600480803560ff169060200190919050506158f0565b60405180827effffffffffffffffffffffffffffffffffffffffffffffffffffffffffffff19167effffffffffffffffffffffffffffffffffffffffffffffffffffffffffffff1916815260200191505060405180910390f35b341561164057600080fd5b61165660048080359060200190919050506158fc565b6040518082815260200191505060405180910390f35b341561167757600080fd5b611691600480803560001916906020019091905050615908565b6040518080602001828103825283818151815260200191508051906020019080838360005b838110156116d15780820151818401526020810190506116b6565b50505050905090810190601f1680156116fe5780820380516001836020036101000a031916815260200191505b509250505060405180910390f35b341561171757600080fd5b611743600480803573ffffffffffffffffffffffffffffffffffffffff1690602001909190505061591b565b604051808260ff1660ff16815260200191505060405180910390f35b341561176a57600080fd5b61178260048080351515906020019091905050615927565b604051808260ff1660ff16815260200191505060405180910390f35b34156117a957600080fd5b6117bf6004808035906020019091905050615933565b60405180826000191660001916815260200191505060405180910390f35b34156117e857600080fd5b6117fe600480803590602001909190505061593f565b604051808260000b60000b815260200191505060405180910390f35b341561182557600080fd5b61183b600480803590602001909190505061594b565b6040518080602001828103825283818151815260200191508051906020019080838360005b8381101561187b578082015181840152602081019050611860565b50505050905090810190601f1680156118a85780820380516001836020036101000a031916815260200191505b509250505060405180910390f35b34156118c157600080fd5b6118db60048080356000191690602001909190505061595e565b6040518080602001828103825283818151815260200191508051906020019080838360005b8381101561191b578082015181840152602081019050611900565b50505050905090810190601f1680156119485780820380516001836020036101000a031916815260200191505b509250505060405180910390f35b341561196157600080fd5b61197960048080351515906020019091905050615971565b604051808273ffffffffffffffffffffffffffffffffffffffff1673ffffffffffffffffffffffffffffffffffffffff16815260200191505060405180910390f35b34156119c657600080fd5b6119f2600480803573ffffffffffffffffffffffffffffffffffffffff1690602001909190505061597d565b6040518082815260200191505060405180910390f35b3415611a1357600080fd5b611a4b60048080357effffffffffffffffffffffffffffffffffffffffffffffffffffffffffffff1916906020019091905050615989565b60405180837effffffffffffffffffffffffffffffffffffffffffffffffffffffffffffff19167effffffffffffffffffffffffffffffffffffffffffffffffffffffffffffff191681526020018281526020019250505060405180910390f35b3415611ab757600080fd5b611ad0600480803560000b90602001909190505061599c565b6040518080602001828103825283818151815260200191508051906020019080838360005b83811015611b10578082015181840152602081019050611af5565b50505050905090810190601f168015611b3d5780820380516001836020036101000a031916815260200191505b509250505060405180910390f35b3415611b5657600080fd5b611b706004808035600019169060200190919050506159af565b005b3415611b7d57600080fd5b611bb560048080357effffffffffffffffffffffffffffffffffffffffffffffffffffffffffffff19169060200190919050506159bd565b60405180827effffffffffffffffffffffffffffffffffffffffffffffffffffffffffffff19167effffffffffffffffffffffffffffffffffffffffffffffffffffffffffffff1916815260200191505060405180910390f35b3415611c1a57600080fd5b611c33600480803560ff169060200190919050506159c9565b604051808273ffffffffffffffffffffffffffffffffffffffff1673ffffffffffffffffffffffffffffffffffffffff16815260200191505060405180910390f35b3415611c8057600080fd5b611cd0600480803590602001908201803590602001908080601f016020809104026020016040519081016040528093929190818152602001838380828437820191505050505050919050506159d5565b604051808260000b60000b815260200191505060405180910390f35b3415611cf757600080fd5b611d0d60048080359060200190919050506159e1565b6040518082815260200191505060405180910390f35b3415611d2e57600080fd5b611d486004808035600019169060200190919050506159ed565b604051808215151515815260200191505060405180910390f35b3415611d6d57600080fd5b611d8360048080359060200190919050506159f9565b60405180826000191660001916815260200191505060405180910390f35b3415611dac57600080fd5b611dc5600480803560ff16906020019091905050615a05565b6040518080602001828103825283818151815260200191508051906020019080838360005b83811015611e05578082015181840152602081019050611dea565b50505050905090810190601f168015611e325780820380516001836020036101000a031916815260200191505b509250505060405180910390f35b3415611e4b57600080fd5b611e616004808035906020019091905050615a18565b604051808381526020018281526020019250505060405180910390f35b3415611e8957600080fd5b611ed9600480803590602001908201803590602001908080601f01602080910402602001604051908101604052809392919081815260200183838082843782019150505050505091905050615a2b565b604051808060200180602001838103835285818151815260200191508051906020019080838360005b83811015611f1d578082015181840152602081019050611f02565b50505050905090810190601f168015611f4a5780820380516001836020036101000a031916815260200191505b50838103825284818151815260200191508051906020019080838360005b83811015611f83578082015181840152602081019050611f68565b50505050905090810190601f168015611fb05780820380516001836020036101000a031916815260200191505b5094505050505060405180910390f35b3415611fcb57600080fd5b611fe5600480803560001916906020019091905050615b83565b60405180827effffffffffffffffffffffffffffffffffffffffffffffffffffffffffffff19167effffffffffffffffffffffffffffffffffffffffffffffffffffffffffffff1916815260200191505060405180910390f35b341561204a57600080fd5b612063600480803560000b906020019091905050615b8f565b6040518082815260200191505060405180910390f35b341561208457600080fd5b6120b0600480803573ffffffffffffffffffffffffffffffffffffffff16906020019091905050615b9b565b604051808373ffffffffffffffffffffffffffffffffffffffff1673ffffffffffffffffffffffffffffffffffffffff1681526020018260ff1660ff1681526020019250505060405180910390f35b341561210a57600080fd5b61214260048080357effffffffffffffffffffffffffffffffffffffffffffffffffffffffffffff1916906020019091905050615bae565b60405180827effffffffffffffffffffffffffffffffffffffffffffffffffffffffffffff19167effffffffffffffffffffffffffffffffffffffffffffffffffffffffffffff1916815260200191505060405180910390f35b34156121a757600080fd5b6121bd6004808035906020019091905050615bba565b604051808260ff1660ff16815260200191505060405180910390f35b34156121e457600080fd5b6121fa6004808035906020019091905050615bc6565b604051808273ffffffffffffffffffffffffffffffffffffffff1673ffffffffffffffffffffffffffffffffffffffff16815260200191505060405180910390f35b341561224757600080fd5b61225f60048080351515906020019091905050615bd2565b604051808260000b60000b815260200191505060405180910390f35b341561228657600080fd5b61229e60048080351515906020019091905050615bde565b6040518080602001828103825283818151815260200191508051906020019080838360005b838110156122de5780820151818401526020810190506122c3565b50505050905090810190601f16801561230b5780820380516001836020036101000a031916815260200191505b509250505060405180910390f35b341561232457600080fd5b612374600480803590602001908201803590602001908080601f01602080910402602001604051908101604052809392919081815260200183838082843782019150505050505091905050615bf1565b6040518082815260200191505060405180910390f35b341561239557600080fd5b6123ad60048080351515906020019091905050615bfd565b60405180826000191660001916815260200191505060405180910390f35b34156123d657600080fd5b6123ef600480803560000b906020019091905050615c09565b604051808360000b60000b81526020018273ffffffffffffffffffffffffffffffffffffffff1673ffffffffffffffffffffffffffffffffffffffff1681526020019250505060405180910390f35b341561244957600080fd5b61248160048080357effffffffffffffffffffffffffffffffffffffffffffffffffffffffffffff1916906020019091905050615c1c565b60405180826000191660001916815260200191505060405180910390f35b34156124aa57600080fd5b6124c3600480803560000b906020019091905050615c28565b005b34156124d057600080fd5b6124e66004808035906020019091905050615c49565b6040518082815260200191505060405180910390f35b341561250757600080fd5b612520600480803560000b906020019091905050615c55565b604051808260ff1660ff16815260200191505060405180910390f35b341561254757600080fd5b612560600480803560ff16906020019091905050615c61565b604051808360ff1660ff1681526020018273ffffffffffffffffffffffffffffffffffffffff1673ffffffffffffffffffffffffffffffffffffffff1681526020019250505060405180910390f35b34156125ba57600080fd5b6125d3600480803560000b906020019091905050615c74565b60405180827effffffffffffffffffffffffffffffffffffffffffffffffffffffffffffff19167effffffffffffffffffffffffffffffffffffffffffffffffffffffffffffff1916815260200191505060405180910390f35b341561263857600080fd5b612688600480803590602001908201803590602001908080601f01602080910402602001604051908101604052809392919081815260200183838082843782019150505050505091905050615c80565b60405180827effffffffffffffffffffffffffffffffffffffffffffffffffffffffffffff19167effffffffffffffffffffffffffffffffffffffffffffffffffffffffffffff1916815260200191505060405180910390f35b34156126ed57600080fd5b61273d600480803590602001908201803590602001908080601f01602080910402602001604051908101604052809392919081815260200183838082843782019150505050505091905050615c8c565b005b341561274a57600080fd5b61276260048080351515906020019091905050615ca6565b604051808215151515815260200191505060405180910390f35b341561278757600080fd5b61279d6004808035906020019091905050615cb2565b6040518080602001828103825283818151815260200191508051906020019080838360005b838110156127dd5780820151818401526020810190506127c2565b50505050905090810190601f16801561280a5780820380516001836020036101000a031916815260200191505b509250505060405180910390f35b341561282357600080fd5b61283c600480803560000b906020019091905050615cc5565b6040518080602001828103825283818151815260200191508051906020019080838360005b8381101561287c578082015181840152602081019050612861565b50505050905090810190601f1680156128a95780820380516001836020036101000a031916815260200191505b509250505060405180910390f35b34156128c257600080fd5b6128d86004808035906020019091905050615cd8565b604051808273ffffffffffffffffffffffffffffffffffffffff1673ffffffffffffffffffffffffffffffffffffffff16815260200191505060405180910390f35b341561292557600080fd5b61293f600480803560001916906020019091905050615ce4565b6040518083600019166000191681526020018260ff1660ff1681526020019250505060405180910390f35b341561297557600080fd5b61298b6004808035906020019091905050615cf7565b6040518080602001828103825283818151815260200191508051906020019080838360005b838110156129cb5780820151818401526020810190506129b0565b50505050905090810190601f1680156129f85780820380516001836020036101000a031916815260200191505b509250505060405180910390f35b3415612a1157600080fd5b612a61600480803590602001908201803590602001908080601f01602080910402602001604051908101604052809392919081815260200183838082843782019150505050505091905050615d0a565b604051808273ffffffffffffffffffffffffffffffffffffffff1673ffffffffffffffffffffffffffffffffffffffff16815260200191505060405180910390f35b3415612aae57600080fd5b612ac660048080351515906020019091905050615d16565b005b3415612ad357600080fd5b612b0b60048080357effffffffffffffffffffffffffffffffffffffffffffffffffffffffffffff1916906020019091905050615d32565b6040518082815260200191505060405180910390f35b3415612b2c57600080fd5b612b6460048080357effffffffffffffffffffffffffffffffffffffffffffffffffffffffffffff1916906020019091905050615d3e565b6040518082815260200191505060405180910390f35b3415612b8557600080fd5b612b9b6004808035906020019091905050615d4a565b60405180827effffffffffffffffffffffffffffffffffffffffffffffffffffffffffffff19167effffffffffffffffffffffffffffffffffffffffffffffffffffffffffffff1916815260200191505060405180910390f35b3415612c0057600080fd5b612c166004808035906020019091905050615d56565b604051808260ff1660ff16815260200191505060405180910390f35b3415612c3d57600080fd5b612c57600480803560001916906020019091905050615d62565b6040518082815260200191505060405180910390f35b3415612c7857600080fd5b612c8e6004808035906020019091905050615d6e565b6040518080602001828103825283818151815260200191508051906020019080838360005b83811015612cce578082015181840152602081019050612cb3565b50505050905090810190601f168015612cfb5780820380516001836020036101000a031916815260200191505b509250505060405180910390f35b3415612d1457600080fd5b612d4c60048080357effffffffffffffffffffffffffffffffffffffffffffffffffffffffffffff1916906020019091905050615d81565b604051808273ffffffffffffffffffffffffffffffffffffffff1673ffffffffffffffffffffffffffffffffffffffff16815260200191505060405180910390f35b3415612d9957600080fd5b612dc5600480803573ffffffffffffffffffffffffffffffffffffffff16906020019091905050615d8d565b604051808273ffffffffffffffffffffffffffffffffffffffff1673ffffffffffffffffffffffffffffffffffffffff16815260200191505060405180910390f35b3415612e1257600080fd5b612e286004808035906020019091905050615d99565b6040518082815260200191505060405180910390f35b3415612e4957600080fd5b612e5f6004808035906020019091905050615da5565b60405180827effffffffffffffffffffffffffffffffffffffffffffffffffffffffffffff19167effffffffffffffffffffffffffffffffffffffffffffffffffffffffffffff1916815260200191505060405180910390f35b3415612ec457600080fd5b612ef0600480803573ffffffffffffffffffffffffffffffffffffffff16906020019091905050615db1565b6040518082815260200191505060405180910390f35b3415612f1157600080fd5b612f3d600480803573ffffffffffffffffffffffffffffffffffffffff16906020019091905050615dbd565b6040518080602001828103825283818151815260200191508051906020019080838360005b83811015612f7d578082015181840152602081019050612f62565b50505050905090810190601f168015612faa5780820380516001836020036101000a031916815260200191505b509250505060405180910390f35b3415612fc357600080fd5b613013600480803590602001908201803590602001908080601f01602080910402602001604051908101604052809392919081815260200183838082843782019150505050505091905050615dd0565b604051808215151515815260200191505060405180910390f35b341561303857600080fd5b613051600480803560ff16906020019091905050615ddc565b604051808260ff1660ff16815260200191505060405180910390f35b341561307857600080fd5b6130c8600480803590602001908201803590602001908080601f01602080910402602001604051908101604052809392919081815260200183838082843782019150505050505091905050615de8565b604051808273ffffffffffffffffffffffffffffffffffffffff1673ffffffffffffffffffffffffffffffffffffffff16815260200191505060405180910390f35b341561311557600080fd5b61314d60048080357effffffffffffffffffffffffffffffffffffffffffffffffffffffffffffff1916906020019091905050615df4565b005b341561315a57600080fd5b6131aa600480803590602001908201803590602001908080601f01602080910402602001604051908101604052809392919081815260200183838082843782019150505050505091905050615e32565b6040518082815260200191505060405180910390f35b34156131cb57600080fd5b6131f7600480803573ffffffffffffffffffffffffffffffffffffffff16906020019091905050615e3e565b604051808260000b60000b815260200191505060405180910390f35b341561321e57600080fd5b6132346004808035906020019091905050615e4a565b6040518082815260200191505060405180910390f35b341561325557600080fd5b6132a5600480803590602001908201803590602001908080601f01602080910402602001604051908101604052809392919081815260200183838082843782019150505050505091905050615e56565b6040518080602001828103825283818151815260200191508051906020019080838360005b838110156132e55780820151818401526020810190506132ca565b50505050905090810190601f1680156133125780820380516001836020036101000a031916815260200191505b509250505060405180910390f35b341561332b57600080fd5b6133416004808035906020019091905050615e69565b6040518083815260200182600019166000191681526020019250505060405180910390f35b341561337157600080fd5b61338960048080351515906020019091905050615e7c565b6040518080602001828103825283818151815260200191508051906020019080838360005b838110156133c95780820151818401526020810190506133ae565b50505050905090810190601f1680156133f65780820380516001836020036101000a031916815260200191505b509250505060405180910390f35b341561340f57600080fd5b61345f600480803590602001908201803590602001908080601f01602080910402602001604051908101604052809392919081815260200183838082843782019150505050505091905050615e8f565b6040518080602001828103825283818151815260200191508051906020019080838360005b8381101561349f578082015181840152602081019050613484565b50505050905090810190601f1680156134cc5780820380516001836020036101000a031916815260200191505b509250505060405180910390f35b34156134e557600080fd5b6134fe600480803560000b906020019091905050615ea2565b6040518082815260200191505060405180910390f35b341561351f57600080fd5b6135356004808035906020019091905050615eae565b6040518082815260200191505060405180910390f35b341561355657600080fd5b6135a6600480803590602001908201803590602001908080601f01602080910402602001604051908101604052809392919081815260200183838082843782019150505050505091905050615eba565b6040518082815260200191505060405180910390f35b34156135c757600080fd5b6135df60048080351515906020019091905050615ec6565b6040518082815260200191505060405180910390f35b341561360057600080fd5b613650600480803590602001908201803590602001908080601f01602080910402602001604051908101604052809392919081815260200183838082843782019150505050505091905050615ed2565b604051808260ff1660ff16815260200191505060405180910390f35b341561367757600080fd5b613690600480803560ff16906020019091905050615ede565b6040518082815260200191505060405180910390f35b34156136b157600080fd5b6136cb600480803560001916906020019091905050615eea565b604051808260000b60000b815260200191505060405180910390f35b34156136f257600080fd5b6137086004808035906020019091905050615ef6565b005b341561371557600080fd5b613765600480803590602001908201803590602001908080601f01602080910402602001604051908101604052809392919081815260200183838082843782019150505050505091905050615f00565b60405180826000191660001916815260200191505060405180910390f35b341561378e57600080fd5b6137a46004808035906020019091905050615f0c565b6040518082815260200191505060405180910390f35b34156137c557600080fd5b6137db6004808035906020019091905050615f18565b6040518080602001828103825283818151815260200191508051906020019080838360005b8381101561381b578082015181840152602081019050613800565b50505050905090810190601f1680156138485780820380516001836020036101000a031916815260200191505b509250505060405180910390f35b341561386157600080fd5b61389960048080357effffffffffffffffffffffffffffffffffffffffffffffffffffffffffffff1916906020019091905050615f2b565b6040518082815260200191505060405180910390f35b34156138ba57600080fd5b6138d06004808035906020019091905050615f37565b6040518082815260200191505060405180910390f35b34156138f157600080fd5b6139076004808035906020019091905050615f43565b6040518080602001828103825283818151815260200191508051906020019080838360005b8381101561394757808201518184015260208101905061392c565b50505050905090810190601f1680156139745780820380516001836020036101000a031916815260200191505b509250505060405180910390f35b341561398d57600080fd5b6139a36004808035906020019091905050615f56565b6040518082815260200191505060405180910390f35b34156139c457600080fd5b613a14600480803590602001908201803590602001908080601f01602080910402602001604051908101604052809392919081815260200183838082843782019150505050505091905050615f62565b6040518082815260200191505060405180910390f35b3415613a3557600080fd5b613a4b6004808035906020019091905050615f6e565b604051808260ff1660ff16815260200191505060405180910390f35b3415613a7257600080fd5b613a886004808035906020019091905050615f7a565b005b3415613a9557600080fd5b613aab6004808035906020019091905050615f84565b6040518080602001828103825283818151815260200191508051906020019080838360005b83811015613aeb578082015181840152602081019050613ad0565b50505050905090810190601f168015613b185780820380516001836020036101000a031916815260200191505b509250505060405180910390f35b3415613b3157600080fd5b613b4960048080351515906020019091905050615f97565b6040518082815260200191505060405180910390f35b3415613b6a57600080fd5b613b8260048080351515906020019091905050615fa3565b6040518082815260200191505060405180910390f35b3415613ba357600080fd5b613bdb60048080357effffffffffffffffffffffffffffffffffffffffffffffffffffffffffffff1916906020019091905050615faf565b6040518082815260200191505060405180910390f35b3415613bfc57600080fd5b613c15600480803560ff16906020019091905050615fbb565b60405180826000191660001916815260200191505060405180910390f35b3415613c3e57600080fd5b613c546004808035906020019091905050615fc7565b005b3415613c6157600080fd5b613cb1600480803590602001908201803590602001908080601f01602080910402602001604051908101604052809392919081815260200183838082843782019150505050505091905050615fd1565b60405180827effffffffffffffffffffffffffffffffffffffffffffffffffffffffffffff19167effffffffffffffffffffffffffffffffffffffffffffffffffffffffffffff1916815260200191505060405180910390f35b3415613d1657600080fd5b613d30600480803560001916906020019091905050615fdd565b604051808260ff1660ff16815260200191505060405180910390f35b3415613d5757600080fd5b613d70600480803560000b906020019091905050615fe9565b60405180826000191660001916815260200191505060405180910390f35b3415613d9957600080fd5b613db3600480803560001916906020019091905050615ff5565b60405180826000191660001916815260200191505060405180910390f35b3415613ddc57600080fd5b613e08600480803573ffffffffffffffffffffffffffffffffffffffff16906020019091905050616001565b6040518082815260200191505060405180910390f35b3415613e2957600080fd5b613e4360048080356000191690602001909190505061600d565b6040518082815260200191505060405180910390f35b3415613e6457600080fd5b613eb4600480803590602001908201803590602001908080601f01602080910402602001604051908101604052809392919081815260200183838082843782019150505050505091905050616019565b60405180826000191660001916815260200191505060405180910390f35b3415613edd57600080fd5b613ef560048080351515906020019091905050616025565b60405180827effffffffffffffffffffffffffffffffffffffffffffffffffffffffffffff19167effffffffffffffffffffffffffffffffffffffffffffffffffffffffffffff1916815260200191505060405180910390f35b3415613f5a57600080fd5b613f706004808035906020019091905050616031565b60405180827effffffffffffffffffffffffffffffffffffffffffffffffffffffffffffff19167effffffffffffffffffffffffffffffffffffffffffffffffffffffffffffff1916815260200191505060405180910390f35b3415613fd557600080fd5b613feb600480803590602001909190505061603d565b604051808215151515815260200191505060405180910390f35b341561401057600080fd5b614060600480803590602001908201803590602001908080601f01602080910402602001604051908101604052809392919081815260200183838082843782019150505050505091905050616049565b6040518082815260200191505060405180910390f35b341561408157600080fd5b61409b600480803560001916906020019091905050616055565b60405180827effffffffffffffffffffffffffffffffffffffffffffffffffffffffffffff19167effffffffffffffffffffffffffffffffffffffffffffffffffffffffffffff1916815260200191505060405180910390f35b341561410057600080fd5b614119600480803560ff16906020019091905050616061565b604051808260000b60000b815260200191505060405180910390f35b341561414057600080fd5b614156600480803590602001909190505061606d565b60405180827effffffffffffffffffffffffffffffffffffffffffffffffffffffffffffff19167effffffffffffffffffffffffffffffffffffffffffffffffffffffffffffff1916815260200191505060405180910390f35b34156141bb57600080fd5b61420b600480803590602001908201803590602001908080601f01602080910402602001604051908101604052809392919081815260200183838082843782019150505050505091905050616079565b60405180827effffffffffffffffffffffffffffffffffffffffffffffffffffffffffffff19167effffffffffffffffffffffffffffffffffffffffffffffffffffffffffffff1916815260200191505060405180910390f35b341561427057600080fd5b6142c0600480803590602001908201803590602001908080601f01602080910402602001604051908101604052809392919081815260200183838082843782019150505050505091905050616085565b6040518080602001828103825283818151815260200191508051906020019080838360005b838110156143005780820151818401526020810190506142e5565b50505050905090810190601f16801561432d5780820380516001836020036101000a031916815260200191505b509250505060405180910390f35b341561434657600080fd5b61435f600480803560ff16906020019091905050616098565b6040518082815260200191505060405180910390f35b341561438057600080fd5b614398600480803515159060200190919050506160a4565b6040518082815260200191505060405180910390f35b34156143b957600080fd5b6143d1600480803515159060200190919050506160b0565b60405180827effffffffffffffffffffffffffffffffffffffffffffffffffffffffffffff19167effffffffffffffffffffffffffffffffffffffffffffffffffffffffffffff1916815260200191505060405180910390f35b341561443657600080fd5b61444f600480803560ff169060200190919050506160bc565b604051808215151515815260200191505060405180910390f35b341561447457600080fd5b61448a60048080359060200190919050506160c8565b6040518082815260200191505060405180910390f35b34156144ab57600080fd5b6144d7600480803573ffffffffffffffffffffffffffffffffffffffff169060200190919050506160d4565b60405180826000191660001916815260200191505060405180910390f35b341561450057600080fd5b61451660048080359060200190919050506160e0565b6040518082815260200191505060405180910390f35b341561453757600080fd5b61456f60048080357effffffffffffffffffffffffffffffffffffffffffffffffffffffffffffff19169060200190919050506160ec565b6040518082815260200191505060405180910390f35b341561459057600080fd5b6145c860048080357effffffffffffffffffffffffffffffffffffffffffffffffffffffffffffff19169060200190919050506160f8565b604051808260ff1660ff16815260200191505060405180910390f35b34156145ef57600080fd5b61462760048080357effffffffffffffffffffffffffffffffffffffffffffffffffffffffffffff1916906020019091905050616104565b60405180837effffffffffffffffffffffffffffffffffffffffffffffffffffffffffffff19167effffffffffffffffffffffffffffffffffffffffffffffffffffffffffffff1916815260200180602001828103825283818151815260200191508051906020019080838360005b838110156146b1578082015181840152602081019050614696565b50505050905090810190601f1680156146de5780820380516001836020036101000a031916815260200191505b50935050505060405180910390f35b34156146f857600080fd5b61470e60048080359060200190919050506161ba565b6040518082815260200191505060405180910390f35b341561472f57600080fd5b614748600480803560ff169060200190919050506161c6565b005b341561475557600080fd5b6147a5600480803590602001908201803590602001908080601f016020809104026020016040519081016040528093929190818152602001838380828437820191505050505050919050506161e4565b604051808260ff1660ff16815260200191505060405180910390f35b34156147cc57600080fd5b6147f8600480803573ffffffffffffffffffffffffffffffffffffffff169060200190919050506161f0565b6040518082815260200191505060405180910390f35b341561481957600080fd5b61482f60048080359060200190919050506161fc565b6040518083815260200180602001828103825283818151815260200191508051906020019080838360005b8381101561487557808201518184015260208101905061485a565b50505050905090810190601f1680156148a25780820380516001836020036101000a031916815260200191505b50935050505060405180910390f35b34156148bc57600080fd5b6148d260048080359060200190919050506162b2565b604051808260000b60000b815260200191505060405180910390f35b34156148f957600080fd5b61493160048080357effffffffffffffffffffffffffffffffffffffffffffffffffffffffffffff19169060200190919050506162be565b604051808260000b60000b815260200191505060405180910390f35b341561495857600080fd5b61496e60048080359060200190919050506162ca565b604051808273ffffffffffffffffffffffffffffffffffffffff1673ffffffffffffffffffffffffffffffffffffffff16815260200191505060405180910390f35b34156149bb57600080fd5b6149d160048080359060200190919050506162d6565b6040518082815260200191505060405180910390f35b34156149f257600080fd5b614a1e600480803573ffffffffffffffffffffffffffffffffffffffff169060200190919050506162e2565b604051808215151515815260200191505060405180910390f35b3415614a4357600080fd5b614a6f600480803573ffffffffffffffffffffffffffffffffffffffff169060200190919050506162ee565b60405180827effffffffffffffffffffffffffffffffffffffffffffffffffffffffffffff19167effffffffffffffffffffffffffffffffffffffffffffffffffffffffffffff1916815260200191505060405180910390f35b3415614ad457600080fd5b614aea60048080359060200190919050506162fa565b60405180827effffffffffffffffffffffffffffffffffffffffffffffffffffffffffffff19167effffffffffffffffffffffffffffffffffffffffffffffffffffffffffffff1916815260200191505060405180910390f35b3415614b4f57600080fd5b614b656004808035906020019091905050616306565b604051808381526020018260ff1660ff1681526020019250505060405180910390f35b3415614b9357600080fd5b614be3600480803590602001908201803590602001908080601f01602080910402602001604051908101604052809392919081815260200183838082843782019150505050505091905050616319565b604051808215151515815260200191505060405180910390f35b3415614c0857600080fd5b614c4060048080357effffffffffffffffffffffffffffffffffffffffffffffffffffffffffffff1916906020019091905050616325565b60405180827effffffffffffffffffffffffffffffffffffffffffffffffffffffffffffff19167effffffffffffffffffffffffffffffffffffffffffffffffffffffffffffff1916815260200191505060405180910390f35b3415614ca557600080fd5b614cd1600480803573ffffffffffffffffffffffffffffffffffffffff16906020019091905050616331565b60405180827effffffffffffffffffffffffffffffffffffffffffffffffffffffffffffff19167effffffffffffffffffffffffffffffffffffffffffffffffffffffffffffff1916815260200191505060405180910390f35b3415614d3657600080fd5b614d4c600480803590602001909190505061633d565b60405180827effffffffffffffffffffffffffffffffffffffffffffffffffffffffffffff19167effffffffffffffffffffffffffffffffffffffffffffffffffffffffffffff1916815260200191505060405180910390f35b3415614db157600080fd5b614de960048080357effffffffffffffffffffffffffffffffffffffffffffffffffffffffffffff1916906020019091905050616349565b60405180826000191660001916815260200191505060405180910390f35b3415614e1257600080fd5b614e4a60048080357effffffffffffffffffffffffffffffffffffffffffffffffffffffffffffff1916906020019091905050616355565b6040518082815260200191505060405180910390f35b3415614e6b57600080fd5b614ebb600480803590602001908201803590602001908080601f01602080910402602001604051908101604052809392919081815260200183838082843782019150505050505091905050616361565b60405180827effffffffffffffffffffffffffffffffffffffffffffffffffffffffffffff19167effffffffffffffffffffffffffffffffffffffffffffffffffffffffffffff1916815260200191505060405180910390f35b3415614f2057600080fd5b614f39600480803560000b90602001909190505061636d565b6040518082815260200191505060405180910390f35b3415614f5a57600080fd5b614f706004808035906020019091905050616379565b604051808260000b60000b815260200191505060405180910390f35b3415614f9757600080fd5b614fb0600480803560ff16906020019091905050616385565b60405180827effffffffffffffffffffffffffffffffffffffffffffffffffffffffffffff19167effffffffffffffffffffffffffffffffffffffffffffffffffffffffffffff1916815260200191505060405180910390f35b341561501557600080fd5b61502e600480803560000b906020019091905050616391565b604051808215151515815260200191505060405180910390f35b341561505357600080fd5b6150a3600480803590602001908201803590602001908080601f0160208091040260200160405190810160405280939291908181526020018383808284378201915050505050509190505061639d565b604051808260000b60000b815260200191505060405180910390f35b34156150ca57600080fd5b6150e46004808035600019169060200190919050506163a9565b604051808273ffffffffffffffffffffffffffffffffffffffff1673ffffffffffffffffffffffffffffffffffffffff16815260200191505060405180910390f35b341561513157600080fd5b615149600480803515159060200190919050506163b5565b60405180831515151581526020018281526020019250505060405180910390f35b341561517557600080fd5b61518b60048080359060200190919050506163c8565b60405180827effffffffffffffffffffffffffffffffffffffffffffffffffffffffffffff19167effffffffffffffffffffffffffffffffffffffffffffffffffffffffffffff1916815260200191505060405180910390f35b34156151f057600080fd5b61522860048080357effffffffffffffffffffffffffffffffffffffffffffffffffffffffffffff19169060200190919050506163d4565b604051808260ff1660ff16815260200191505060405180910390f35b341561524f57600080fd5b61526560048080359060200190919050506163e0565b604051808273ffffffffffffffffffffffffffffffffffffffff1673ffffffffffffffffffffffffffffffffffffffff16815260200191505060405180910390f35b34156152b257600080fd5b6152ea60048080357effffffffffffffffffffffffffffffffffffffffffffffffffffffffffffff19169060200190919050506163ec565b604051808215151515815260200191505060405180910390f35b341561530f57600080fd5b61532560048080359060200190919050506163f8565b005b341561533257600080fd5b6153486004808035906020019091905050616402565b604051808215151515815260200191505060405180910390f35b341561536d57600080fd5b6153a560048080357effffffffffffffffffffffffffffffffffffffffffffffffffffffffffffff191690602001909190505061640e565b6040518080602001828103825283818151815260200191508051906020019080838360005b838110156153e55780820151818401526020810190506153ca565b50505050905090810190601f1680156154125780820380516001836020036101000a031916815260200191505b509250505060405180910390f35b341561542b57600080fd5b615445600480803560001916906020019091905050616421565b6040518082815260200191505060405180910390f35b341561546657600080fd5b615492600480803573ffffffffffffffffffffffffffffffffffffffff1690602001909190505061642d565b6040518080602001828103825283818151815260200191508051906020019080838360005b838110156154d25780820151818401526020810190506154b7565b50505050905090810190601f1680156154ff5780820380516001836020036101000a031916815260200191505b509250505060405180910390f35b341561551857600080fd5b615568600480803590602001908201803590602001908080601f01602080910402602001604051908101604052809392919081815260200183838082843782019150505050505091905050616440565b005b341561557557600080fd5b61558b600480803590602001909190505061645a565b6040518082815260200191505060405180910390f35b34156155ac57600080fd5b6155c26004808035906020019091905050616466565b60405180826000191660001916815260200191505060405180910390f35b34156155eb57600080fd5b61562360048080357effffffffffffffffffffffffffffffffffffffffffffffffffffffffffffff1916906020019091905050616472565b604051808215151515815260200191505060405180910390f35b341561564857600080fd5b615674600480803573ffffffffffffffffffffffffffffffffffffffff1690602001909190505061647e565b005b61567e6164c2565b600081915050919050565b60008081915050919050565b60008081915050919050565b6156a96164d6565b60008060008181818054600181600116156101000203166002900480601f0160208091040260200160405190810160405280929190818152602001828054600181600116156101000203166002900480156157455780601f1061571a57610100808354040283529160200191615745565b820191906000526020600020905b81548152906001019060200180831161572857829003601f168201915b50505050509150935093505050915091565b61575f6164c2565b600081915050919050565b60008081915050919050565b60008081915050919050565b60008081915050919050565b60008081915050919050565b6157a26164c2565b600081915050919050565b60008081915050919050565b60008081915050919050565b60008081915050919050565b60008081915050919050565b60008081915050919050565b60008081915050919050565b60008081915050919050565b60008081915050919050565b60008081915050919050565b60008081915050919050565b60008081915050919050565b6158396164d6565b600081915050919050565b61584c6164c2565b600081915050919050565b60008081915050919050565b61586b6164d6565b600081915050919050565b60008081915050919050565b80600760146101000a81548160ff02191690837f01000000000000000000000000000000000000000000000000000000000000009004021790555050565b60008081915050919050565b60008081915050919050565b60008081915050919050565b60008081915050919050565b60008081915050919050565b60008081915050919050565b6159106164c2565b600081915050919050565b60008081915050919050565b60008081915050919050565b60008081915050919050565b60008081915050919050565b6159536164d6565b600081915050919050565b6159666164d6565b600081915050919050565b60008081915050919050565b60008081915050919050565b6000806000808181935093505050915091565b6159a46164c2565b600081915050919050565b806008816000191690555050565b60008081915050919050565b60008081915050919050565b60008081915050919050565b60008081915050919050565b60008081915050919050565b60008081915050919050565b615a0d6164c2565b600081915050919050565b6000806000808181935093505050915091565b615a336164c2565b615a3b6164d6565b6000808181818054600181600116156101000203166002900480601f016020809104026020016040519081016040528092919081815260200182805460018160011615610100020316600290048015615ad55780601f10615aaa57610100808354040283529160200191615ad5565b820191906000526020600020905b815481529060010190602001808311615ab857829003601f168201915b50505050509150808054600181600116156101000203166002900480601f016020809104026020016040519081016040528092919081815260200182805460018160011615610100020316600290048015615b715780601f10615b4657610100808354040283529160200191615b71565b820191906000526020600020905b815481529060010190602001808311615b5457829003601f168201915b50505050509050935093505050915091565b60008081915050919050565b60008081915050919050565b6000806000808181935093505050915091565b60008081915050919050565b60008081915050919050565b60008081915050919050565b60008081915050919050565b615be66164d6565b600081915050919050565b60008081915050919050565b60008081915050919050565b6000806000808181935093505050915091565b60008081915050919050565b80600260006101000a81548160ff021916908360000b60ff16021790555050565b60008081915050919050565b60008081915050919050565b6000806000808181935093505050915091565b60008081915050919050565b60008081915050919050565b80600a9080519060200190615ca29291906164ea565b5050565b60008081915050919050565b615cba6164c2565b600081915050919050565b615ccd6164d6565b600081915050919050565b60008081915050919050565b6000806000808181935093505050915091565b615cff6164d6565b600081915050919050565b60008081915050919050565b806000806101000a81548160ff02191690831515021790555050565b60008081915050919050565b60008081915050919050565b60008081915050919050565b60008081915050919050565b60008081915050919050565b615d766164c2565b600081915050919050565b60008081915050919050565b60008081915050919050565b60008081915050919050565b60008081915050919050565b60008081915050919050565b615dc56164c2565b600081915050919050565b60008081915050919050565b60008081915050919050565b60008081915050919050565b80600760156101000a81548160ff02191690837f01000000000000000000000000000000000000000000000000000000000000009004021790555050565b60008081915050919050565b60008081915050919050565b60008081915050919050565b615e5e6164d6565b600081915050919050565b6000806000808181935093505050915091565b615e846164c2565b600081915050919050565b615e976164d6565b600081915050919050565b60008081915050919050565b60008081915050919050565b60008081915050919050565b60008081915050919050565b60008081915050919050565b60008081915050919050565b60008081915050919050565b8060068190555050565b60008081915050919050565b60008081915050919050565b615f206164c2565b600081915050919050565b60008081915050919050565b60008081915050919050565b615f4b6164d6565b600081915050919050565b60008081915050919050565b60008081915050919050565b60008081915050919050565b8060048190555050565b615f8c6164d6565b600081915050919050565b60008081915050919050565b60008081915050919050565b60008081915050919050565b60008081915050919050565b8060038190555050565b60008081915050919050565b60008081915050919050565b60008081915050919050565b60008081915050919050565b60008081915050919050565b60008081915050919050565b60008081915050919050565b60008081915050919050565b60008081915050919050565b60008081915050919050565b60008081915050919050565b60008081915050919050565b60008081915050919050565b60008081915050919050565b60008081915050919050565b61608d6164c2565b600081915050919050565b60008081915050919050565b60008081915050919050565b60008081915050919050565b60008081915050919050565b60008081915050919050565b60008081915050919050565b60008081915050919050565b60008081915050919050565b60008081915050919050565b600061610e6164c2565b6000808181808054600181600116156101000203166002900480601f0160208091040260200160405190810160405280929190818152602001828054600181600116156101000203166002900480156161a85780601f1061617d576101008083540402835291602001916161a8565b820191906000526020600020905b81548152906001019060200180831161618b57829003601f168201915b50505050509050935093505050915091565b60008081915050919050565b80600560006101000a81548160ff021916908360ff16021790555050565b60008081915050919050565b60008081915050919050565b60006162066164c2565b6000808181808054600181600116156101000203166002900480601f0160208091040260200160405190810160405280929190818152602001828054600181600116156101000203166002900480156162a05780601f10616275576101008083540402835291602001916162a0565b820191906000526020600020905b81548152906001019060200180831161628357829003601f168201915b50505050509050935093505050915091565b60008081915050919050565b60008081915050919050565b60008081915050919050565b60008081915050919050565b60008081915050919050565b60008081915050919050565b60008081915050919050565b6000806000808181935093505050915091565b60008081915050919050565b60008081915050919050565b60008081915050919050565b60008081915050919050565b60008081915050919050565b60008081915050919050565b60008081915050919050565b60008081915050919050565b60008081915050919050565b60008081915050919050565b60008081915050919050565b60008081915050919050565b60008081915050919050565b6000806000808181935093505050915091565b60008081915050919050565b60008081915050919050565b60008081915050919050565b60008081915050919050565b8060018190555050565b60008081915050919050565b6164166164d6565b600081915050919050565b60008081915050919050565b6164356164d6565b600081915050919050565b806009908051906020019061645692919061656a565b5050565b60008081915050919050565b60008081915050919050565b60008081915050919050565b80600760006101000a81548173ffffffffffffffffffffffffffffffffffffffff021916908373ffffffffffffffffffffffffffffffffffffffff16021790555050565b602060405190810160405280600081525090565b602060405190810160405280600081525090565b828054600181600116156101000203166002900490600052602060002090601f016020900481019282601f1061652b57805160ff1916838001178555616559565b82800160010185558215616559579182015b8281111561655857825182559160200191906001019061653d565b5b50905061656691906165ea565b5090565b828054600181600116156101000203166002900490600052602060002090601f016020900481019282601f106165ab57805160ff19168380011785556165d9565b828001600101855582156165d9579182015b828111156165d85782518255916020019190600101906165bd565b5b5090506165e691906165ea565b5090565b61660c91905b808211156166085760008160009055506001016165f0565b5090565b905600a165627a7a72305820601ad8f12498cb10d4696b0fbfb4120616dcdaeddbbbea7936c0892a3fb27a2e0029",
  "source": "pragma solidity ^0.4.17;\ncontract SampleContract {\n  bool _bool;\n  int _int;\n  int8 _int8;\n  int256 _int256;\n  uint _uint;\n  uint8 _uint8;\n  uint256 _uint256;\n  address _address;\n  byte _byte;\n  bytes1 _bytes1;\n  bytes32 _bytes32;\n  bytes _bytes;\n  string _string;\n  function SampleContract() {}\n  function boolFunctionReturnsBool (bool _bool) public constant returns(bool __bool){\n    bool ___bool;\n    return __bool;\n  }\n  event BoolEventReturnsBool(bool __bool);\n  function boolFunctionReturnsInt (bool _bool) public constant returns(int __int){\n    int ___int;\n    return __int;\n  }\n  event BoolEventReturnsInt(int __int);\n  function boolFunctionReturnsInt8 (bool _bool) public constant returns(int8 __int8){\n    int8 ___int8;\n    return __int8;\n  }\n  event BoolEventReturnsInt8(int8 __int8);\n  function boolFunctionReturnsInt256 (bool _bool) public constant returns(int256 __int256){\n    int256 ___int256;\n    return __int256;\n  }\n  event BoolEventReturnsInt256(int256 __int256);\n  function boolFunctionReturnsUint (bool _bool) public constant returns(uint __uint){\n    uint ___uint;\n    return __uint;\n  }\n  event BoolEventReturnsUint(uint __uint);\n  function boolFunctionReturnsUint8 (bool _bool) public constant returns(uint8 __uint8){\n    uint8 ___uint8;\n    return __uint8;\n  }\n  event BoolEventReturnsUint8(uint8 __uint8);\n  function boolFunctionReturnsUint256 (bool _bool) public constant returns(uint256 __uint256){\n    uint256 ___uint256;\n    return __uint256;\n  }\n  event BoolEventReturnsUint256(uint256 __uint256);\n  function boolFunctionReturnsAddress (bool _bool) public constant returns(address __address){\n    address ___address;\n    return __address;\n  }\n  event BoolEventReturnsAddress(address __address);\n  function boolFunctionReturnsByte (bool _bool) public constant returns(byte __byte){\n    byte ___byte;\n    return __byte;\n  }\n  event BoolEventReturnsByte(byte __byte);\n  function boolFunctionReturnsBytes1 (bool _bool) public constant returns(bytes1 __bytes1){\n    bytes1 ___bytes1;\n    return __bytes1;\n  }\n  event BoolEventReturnsBytes1(bytes1 __bytes1);\n  function boolFunctionReturnsBytes32 (bool _bool) public constant returns(bytes32 __bytes32){\n    bytes32 ___bytes32;\n    return __bytes32;\n  }\n  event BoolEventReturnsBytes32(bytes32 __bytes32);\n  function boolFunctionReturnsBytes (bool _bool) public constant returns(bytes __bytes){\n    bytes ___bytes;\n    return __bytes;\n  }\n  event BoolEventReturnsBytes(bytes __bytes);\n  function boolFunctionReturnsString (bool _bool) public constant returns(string __string){\n    string ___string;\n    return __string;\n  }\n  event BoolEventReturnsString(string __string);\n  function boolUint256FunctionReturnsBoolUint256 (bool _bool) public constant returns(bool __bool, uint256 _uint256_){\n    bool ___bool;\n    uint256 ___uint256;\n    return (___bool, ___uint256);\n  }\n  function intFunctionReturnsBool (int _int) public constant returns(bool __bool){\n    bool ___bool;\n    return __bool;\n  }\n  event IntEventReturnsBool(bool __bool);\n  function intFunctionReturnsInt (int _int) public constant returns(int __int){\n    int ___int;\n    return __int;\n  }\n  event IntEventReturnsInt(int __int);\n  function intFunctionReturnsInt8 (int _int) public constant returns(int8 __int8){\n    int8 ___int8;\n    return __int8;\n  }\n  event IntEventReturnsInt8(int8 __int8);\n  function intFunctionReturnsInt256 (int _int) public constant returns(int256 __int256){\n    int256 ___int256;\n    return __int256;\n  }\n  event IntEventReturnsInt256(int256 __int256);\n  function intFunctionReturnsUint (int _int) public constant returns(uint __uint){\n    uint ___uint;\n    return __uint;\n  }\n  event IntEventReturnsUint(uint __uint);\n  function intFunctionReturnsUint8 (int _int) public constant returns(uint8 __uint8){\n    uint8 ___uint8;\n    return __uint8;\n  }\n  event IntEventReturnsUint8(uint8 __uint8);\n  function intFunctionReturnsUint256 (int _int) public constant returns(uint256 __uint256){\n    uint256 ___uint256;\n    return __uint256;\n  }\n  event IntEventReturnsUint256(uint256 __uint256);\n  function intFunctionReturnsAddress (int _int) public constant returns(address __address){\n    address ___address;\n    return __address;\n  }\n  event IntEventReturnsAddress(address __address);\n  function intFunctionReturnsByte (int _int) public constant returns(byte __byte){\n    byte ___byte;\n    return __byte;\n  }\n  event IntEventReturnsByte(byte __byte);\n  function intFunctionReturnsBytes1 (int _int) public constant returns(bytes1 __bytes1){\n    bytes1 ___bytes1;\n    return __bytes1;\n  }\n  event IntEventReturnsBytes1(bytes1 __bytes1);\n  function intFunctionReturnsBytes32 (int _int) public constant returns(bytes32 __bytes32){\n    bytes32 ___bytes32;\n    return __bytes32;\n  }\n  event IntEventReturnsBytes32(bytes32 __bytes32);\n  function intFunctionReturnsBytes (int _int) public constant returns(bytes __bytes){\n    bytes ___bytes;\n    return __bytes;\n  }\n  event IntEventReturnsBytes(bytes __bytes);\n  function intFunctionReturnsString (int _int) public constant returns(string __string){\n    string ___string;\n    return __string;\n  }\n  event IntEventReturnsString(string __string);\n  function intBytes32FunctionReturnsIntBytes32 (int _int) public constant returns(int __int, bytes32 _bytes32_){\n    int ___int;\n    bytes32 ___bytes32;\n    return (___int, ___bytes32);\n  }\n  function int8FunctionReturnsBool (int8 _int8) public constant returns(bool __bool){\n    bool ___bool;\n    return __bool;\n  }\n  event Int8EventReturnsBool(bool __bool);\n  function int8FunctionReturnsInt (int8 _int8) public constant returns(int __int){\n    int ___int;\n    return __int;\n  }\n  event Int8EventReturnsInt(int __int);\n  function int8FunctionReturnsInt8 (int8 _int8) public constant returns(int8 __int8){\n    int8 ___int8;\n    return __int8;\n  }\n  event Int8EventReturnsInt8(int8 __int8);\n  function int8FunctionReturnsInt256 (int8 _int8) public constant returns(int256 __int256){\n    int256 ___int256;\n    return __int256;\n  }\n  event Int8EventReturnsInt256(int256 __int256);\n  function int8FunctionReturnsUint (int8 _int8) public constant returns(uint __uint){\n    uint ___uint;\n    return __uint;\n  }\n  event Int8EventReturnsUint(uint __uint);\n  function int8FunctionReturnsUint8 (int8 _int8) public constant returns(uint8 __uint8){\n    uint8 ___uint8;\n    return __uint8;\n  }\n  event Int8EventReturnsUint8(uint8 __uint8);\n  function int8FunctionReturnsUint256 (int8 _int8) public constant returns(uint256 __uint256){\n    uint256 ___uint256;\n    return __uint256;\n  }\n  event Int8EventReturnsUint256(uint256 __uint256);\n  function int8FunctionReturnsAddress (int8 _int8) public constant returns(address __address){\n    address ___address;\n    return __address;\n  }\n  event Int8EventReturnsAddress(address __address);\n  function int8FunctionReturnsByte (int8 _int8) public constant returns(byte __byte){\n    byte ___byte;\n    return __byte;\n  }\n  event Int8EventReturnsByte(byte __byte);\n  function int8FunctionReturnsBytes1 (int8 _int8) public constant returns(bytes1 __bytes1){\n    bytes1 ___bytes1;\n    return __bytes1;\n  }\n  event Int8EventReturnsBytes1(bytes1 __bytes1);\n  function int8FunctionReturnsBytes32 (int8 _int8) public constant returns(bytes32 __bytes32){\n    bytes32 ___bytes32;\n    return __bytes32;\n  }\n  event Int8EventReturnsBytes32(bytes32 __bytes32);\n  function int8FunctionReturnsBytes (int8 _int8) public constant returns(bytes __bytes){\n    bytes ___bytes;\n    return __bytes;\n  }\n  event Int8EventReturnsBytes(bytes __bytes);\n  function int8FunctionReturnsString (int8 _int8) public constant returns(string __string){\n    string ___string;\n    return __string;\n  }\n  event Int8EventReturnsString(string __string);\n  function int8AddressFunctionReturnsInt8Address (int8 _int8) public constant returns(int8 __int8, address _address_){\n    int8 ___int8;\n    address ___address;\n    return (___int8, ___address);\n  }\n  function int256FunctionReturnsBool (int256 _int256) public constant returns(bool __bool){\n    bool ___bool;\n    return __bool;\n  }\n  event Int256EventReturnsBool(bool __bool);\n  function int256FunctionReturnsInt (int256 _int256) public constant returns(int __int){\n    int ___int;\n    return __int;\n  }\n  event Int256EventReturnsInt(int __int);\n  function int256FunctionReturnsInt8 (int256 _int256) public constant returns(int8 __int8){\n    int8 ___int8;\n    return __int8;\n  }\n  event Int256EventReturnsInt8(int8 __int8);\n  function int256FunctionReturnsInt256 (int256 _int256) public constant returns(int256 __int256){\n    int256 ___int256;\n    return __int256;\n  }\n  event Int256EventReturnsInt256(int256 __int256);\n  function int256FunctionReturnsUint (int256 _int256) public constant returns(uint __uint){\n    uint ___uint;\n    return __uint;\n  }\n  event Int256EventReturnsUint(uint __uint);\n  function int256FunctionReturnsUint8 (int256 _int256) public constant returns(uint8 __uint8){\n    uint8 ___uint8;\n    return __uint8;\n  }\n  event Int256EventReturnsUint8(uint8 __uint8);\n  function int256FunctionReturnsUint256 (int256 _int256) public constant returns(uint256 __uint256){\n    uint256 ___uint256;\n    return __uint256;\n  }\n  event Int256EventReturnsUint256(uint256 __uint256);\n  function int256FunctionReturnsAddress (int256 _int256) public constant returns(address __address){\n    address ___address;\n    return __address;\n  }\n  event Int256EventReturnsAddress(address __address);\n  function int256FunctionReturnsByte (int256 _int256) public constant returns(byte __byte){\n    byte ___byte;\n    return __byte;\n  }\n  event Int256EventReturnsByte(byte __byte);\n  function int256FunctionReturnsBytes1 (int256 _int256) public constant returns(bytes1 __bytes1){\n    bytes1 ___bytes1;\n    return __bytes1;\n  }\n  event Int256EventReturnsBytes1(bytes1 __bytes1);\n  function int256FunctionReturnsBytes32 (int256 _int256) public constant returns(bytes32 __bytes32){\n    bytes32 ___bytes32;\n    return __bytes32;\n  }\n  event Int256EventReturnsBytes32(bytes32 __bytes32);\n  function int256FunctionReturnsBytes (int256 _int256) public constant returns(bytes __bytes){\n    bytes ___bytes;\n    return __bytes;\n  }\n  event Int256EventReturnsBytes(bytes __bytes);\n  function int256FunctionReturnsString (int256 _int256) public constant returns(string __string){\n    string ___string;\n    return __string;\n  }\n  event Int256EventReturnsString(string __string);\n  function int256BytesFunctionReturnsInt256Bytes (int256 _int256) public constant returns(int256 __int256, bytes _bytes_){\n    int256 ___int256;\n    bytes ___bytes;\n    return (___int256, ___bytes);\n  }\n  function uintFunctionReturnsBool (uint _uint) public constant returns(bool __bool){\n    bool ___bool;\n    return __bool;\n  }\n  event UintEventReturnsBool(bool __bool);\n  function uintFunctionReturnsInt (uint _uint) public constant returns(int __int){\n    int ___int;\n    return __int;\n  }\n  event UintEventReturnsInt(int __int);\n  function uintFunctionReturnsInt8 (uint _uint) public constant returns(int8 __int8){\n    int8 ___int8;\n    return __int8;\n  }\n  event UintEventReturnsInt8(int8 __int8);\n  function uintFunctionReturnsInt256 (uint _uint) public constant returns(int256 __int256){\n    int256 ___int256;\n    return __int256;\n  }\n  event UintEventReturnsInt256(int256 __int256);\n  function uintFunctionReturnsUint (uint _uint) public constant returns(uint __uint){\n    uint ___uint;\n    return __uint;\n  }\n  event UintEventReturnsUint(uint __uint);\n  function uintFunctionReturnsUint8 (uint _uint) public constant returns(uint8 __uint8){\n    uint8 ___uint8;\n    return __uint8;\n  }\n  event UintEventReturnsUint8(uint8 __uint8);\n  function uintFunctionReturnsUint256 (uint _uint) public constant returns(uint256 __uint256){\n    uint256 ___uint256;\n    return __uint256;\n  }\n  event UintEventReturnsUint256(uint256 __uint256);\n  function uintFunctionReturnsAddress (uint _uint) public constant returns(address __address){\n    address ___address;\n    return __address;\n  }\n  event UintEventReturnsAddress(address __address);\n  function uintFunctionReturnsByte (uint _uint) public constant returns(byte __byte){\n    byte ___byte;\n    return __byte;\n  }\n  event UintEventReturnsByte(byte __byte);\n  function uintFunctionReturnsBytes1 (uint _uint) public constant returns(bytes1 __bytes1){\n    bytes1 ___bytes1;\n    return __bytes1;\n  }\n  event UintEventReturnsBytes1(bytes1 __bytes1);\n  function uintFunctionReturnsBytes32 (uint _uint) public constant returns(bytes32 __bytes32){\n    bytes32 ___bytes32;\n    return __bytes32;\n  }\n  event UintEventReturnsBytes32(bytes32 __bytes32);\n  function uintFunctionReturnsBytes (uint _uint) public constant returns(bytes __bytes){\n    bytes ___bytes;\n    return __bytes;\n  }\n  event UintEventReturnsBytes(bytes __bytes);\n  function uintFunctionReturnsString (uint _uint) public constant returns(string __string){\n    string ___string;\n    return __string;\n  }\n  event UintEventReturnsString(string __string);\n  function uintUint8FunctionReturnsUintUint8 (uint _uint) public constant returns(uint __uint, uint8 _uint8_){\n    uint ___uint;\n    uint8 ___uint8;\n    return (___uint, ___uint8);\n  }\n  function uint8FunctionReturnsBool (uint8 _uint8) public constant returns(bool __bool){\n    bool ___bool;\n    return __bool;\n  }\n  event Uint8EventReturnsBool(bool __bool);\n  function uint8FunctionReturnsInt (uint8 _uint8) public constant returns(int __int){\n    int ___int;\n    return __int;\n  }\n  event Uint8EventReturnsInt(int __int);\n  function uint8FunctionReturnsInt8 (uint8 _uint8) public constant returns(int8 __int8){\n    int8 ___int8;\n    return __int8;\n  }\n  event Uint8EventReturnsInt8(int8 __int8);\n  function uint8FunctionReturnsInt256 (uint8 _uint8) public constant returns(int256 __int256){\n    int256 ___int256;\n    return __int256;\n  }\n  event Uint8EventReturnsInt256(int256 __int256);\n  function uint8FunctionReturnsUint (uint8 _uint8) public constant returns(uint __uint){\n    uint ___uint;\n    return __uint;\n  }\n  event Uint8EventReturnsUint(uint __uint);\n  function uint8FunctionReturnsUint8 (uint8 _uint8) public constant returns(uint8 __uint8){\n    uint8 ___uint8;\n    return __uint8;\n  }\n  event Uint8EventReturnsUint8(uint8 __uint8);\n  function uint8FunctionReturnsUint256 (uint8 _uint8) public constant returns(uint256 __uint256){\n    uint256 ___uint256;\n    return __uint256;\n  }\n  event Uint8EventReturnsUint256(uint256 __uint256);\n  function uint8FunctionReturnsAddress (uint8 _uint8) public constant returns(address __address){\n    address ___address;\n    return __address;\n  }\n  event Uint8EventReturnsAddress(address __address);\n  function uint8FunctionReturnsByte (uint8 _uint8) public constant returns(byte __byte){\n    byte ___byte;\n    return __byte;\n  }\n  event Uint8EventReturnsByte(byte __byte);\n  function uint8FunctionReturnsBytes1 (uint8 _uint8) public constant returns(bytes1 __bytes1){\n    bytes1 ___bytes1;\n    return __bytes1;\n  }\n  event Uint8EventReturnsBytes1(bytes1 __bytes1);\n  function uint8FunctionReturnsBytes32 (uint8 _uint8) public constant returns(bytes32 __bytes32){\n    bytes32 ___bytes32;\n    return __bytes32;\n  }\n  event Uint8EventReturnsBytes32(bytes32 __bytes32);\n  function uint8FunctionReturnsBytes (uint8 _uint8) public constant returns(bytes __bytes){\n    bytes ___bytes;\n    return __bytes;\n  }\n  event Uint8EventReturnsBytes(bytes __bytes);\n  function uint8FunctionReturnsString (uint8 _uint8) public constant returns(string __string){\n    string ___string;\n    return __string;\n  }\n  event Uint8EventReturnsString(string __string);\n  function uint8AddressFunctionReturnsUint8Address (uint8 _uint8) public constant returns(uint8 __uint8, address _address_){\n    uint8 ___uint8;\n    address ___address;\n    return (___uint8, ___address);\n  }\n  function uint256FunctionReturnsBool (uint256 _uint256) public constant returns(bool __bool){\n    bool ___bool;\n    return __bool;\n  }\n  event Uint256EventReturnsBool(bool __bool);\n  function uint256FunctionReturnsInt (uint256 _uint256) public constant returns(int __int){\n    int ___int;\n    return __int;\n  }\n  event Uint256EventReturnsInt(int __int);\n  function uint256FunctionReturnsInt8 (uint256 _uint256) public constant returns(int8 __int8){\n    int8 ___int8;\n    return __int8;\n  }\n  event Uint256EventReturnsInt8(int8 __int8);\n  function uint256FunctionReturnsInt256 (uint256 _uint256) public constant returns(int256 __int256){\n    int256 ___int256;\n    return __int256;\n  }\n  event Uint256EventReturnsInt256(int256 __int256);\n  function uint256FunctionReturnsUint (uint256 _uint256) public constant returns(uint __uint){\n    uint ___uint;\n    return __uint;\n  }\n  event Uint256EventReturnsUint(uint __uint);\n  function uint256FunctionReturnsUint8 (uint256 _uint256) public constant returns(uint8 __uint8){\n    uint8 ___uint8;\n    return __uint8;\n  }\n  event Uint256EventReturnsUint8(uint8 __uint8);\n  function uint256FunctionReturnsUint256 (uint256 _uint256) public constant returns(uint256 __uint256){\n    uint256 ___uint256;\n    return __uint256;\n  }\n  event Uint256EventReturnsUint256(uint256 __uint256);\n  function uint256FunctionReturnsAddress (uint256 _uint256) public constant returns(address __address){\n    address ___address;\n    return __address;\n  }\n  event Uint256EventReturnsAddress(address __address);\n  function uint256FunctionReturnsByte (uint256 _uint256) public constant returns(byte __byte){\n    byte ___byte;\n    return __byte;\n  }\n  event Uint256EventReturnsByte(byte __byte);\n  function uint256FunctionReturnsBytes1 (uint256 _uint256) public constant returns(bytes1 __bytes1){\n    bytes1 ___bytes1;\n    return __bytes1;\n  }\n  event Uint256EventReturnsBytes1(bytes1 __bytes1);\n  function uint256FunctionReturnsBytes32 (uint256 _uint256) public constant returns(bytes32 __bytes32){\n    bytes32 ___bytes32;\n    return __bytes32;\n  }\n  event Uint256EventReturnsBytes32(bytes32 __bytes32);\n  function uint256FunctionReturnsBytes (uint256 _uint256) public constant returns(bytes __bytes){\n    bytes ___bytes;\n    return __bytes;\n  }\n  event Uint256EventReturnsBytes(bytes __bytes);\n  function uint256FunctionReturnsString (uint256 _uint256) public constant returns(string __string){\n    string ___string;\n    return __string;\n  }\n  event Uint256EventReturnsString(string __string);\n  function uint256Int256FunctionReturnsUint256Int256 (uint256 _uint256) public constant returns(uint256 __uint256, int256 _int256_){\n    uint256 ___uint256;\n    int256 ___int256;\n    return (___uint256, ___int256);\n  }\n  function addressFunctionReturnsBool (address _address) public constant returns(bool __bool){\n    bool ___bool;\n    return __bool;\n  }\n  event AddressEventReturnsBool(bool __bool);\n  function addressFunctionReturnsInt (address _address) public constant returns(int __int){\n    int ___int;\n    return __int;\n  }\n  event AddressEventReturnsInt(int __int);\n  function addressFunctionReturnsInt8 (address _address) public constant returns(int8 __int8){\n    int8 ___int8;\n    return __int8;\n  }\n  event AddressEventReturnsInt8(int8 __int8);\n  function addressFunctionReturnsInt256 (address _address) public constant returns(int256 __int256){\n    int256 ___int256;\n    return __int256;\n  }\n  event AddressEventReturnsInt256(int256 __int256);\n  function addressFunctionReturnsUint (address _address) public constant returns(uint __uint){\n    uint ___uint;\n    return __uint;\n  }\n  event AddressEventReturnsUint(uint __uint);\n  function addressFunctionReturnsUint8 (address _address) public constant returns(uint8 __uint8){\n    uint8 ___uint8;\n    return __uint8;\n  }\n  event AddressEventReturnsUint8(uint8 __uint8);\n  function addressFunctionReturnsUint256 (address _address) public constant returns(uint256 __uint256){\n    uint256 ___uint256;\n    return __uint256;\n  }\n  event AddressEventReturnsUint256(uint256 __uint256);\n  function addressFunctionReturnsAddress (address _address) public constant returns(address __address){\n    address ___address;\n    return __address;\n  }\n  event AddressEventReturnsAddress(address __address);\n  function addressFunctionReturnsByte (address _address) public constant returns(byte __byte){\n    byte ___byte;\n    return __byte;\n  }\n  event AddressEventReturnsByte(byte __byte);\n  function addressFunctionReturnsBytes1 (address _address) public constant returns(bytes1 __bytes1){\n    bytes1 ___bytes1;\n    return __bytes1;\n  }\n  event AddressEventReturnsBytes1(bytes1 __bytes1);\n  function addressFunctionReturnsBytes32 (address _address) public constant returns(bytes32 __bytes32){\n    bytes32 ___bytes32;\n    return __bytes32;\n  }\n  event AddressEventReturnsBytes32(bytes32 __bytes32);\n  function addressFunctionReturnsBytes (address _address) public constant returns(bytes __bytes){\n    bytes ___bytes;\n    return __bytes;\n  }\n  event AddressEventReturnsBytes(bytes __bytes);\n  function addressFunctionReturnsString (address _address) public constant returns(string __string){\n    string ___string;\n    return __string;\n  }\n  event AddressEventReturnsString(string __string);\n  function addressUint8FunctionReturnsAddressUint8 (address _address) public constant returns(address __address, uint8 _uint8_){\n    address ___address;\n    uint8 ___uint8;\n    return (___address, ___uint8);\n  }\n  function byteFunctionReturnsBool (byte _byte) public constant returns(bool __bool){\n    bool ___bool;\n    return __bool;\n  }\n  event ByteEventReturnsBool(bool __bool);\n  function byteFunctionReturnsInt (byte _byte) public constant returns(int __int){\n    int ___int;\n    return __int;\n  }\n  event ByteEventReturnsInt(int __int);\n  function byteFunctionReturnsInt8 (byte _byte) public constant returns(int8 __int8){\n    int8 ___int8;\n    return __int8;\n  }\n  event ByteEventReturnsInt8(int8 __int8);\n  function byteFunctionReturnsInt256 (byte _byte) public constant returns(int256 __int256){\n    int256 ___int256;\n    return __int256;\n  }\n  event ByteEventReturnsInt256(int256 __int256);\n  function byteFunctionReturnsUint (byte _byte) public constant returns(uint __uint){\n    uint ___uint;\n    return __uint;\n  }\n  event ByteEventReturnsUint(uint __uint);\n  function byteFunctionReturnsUint8 (byte _byte) public constant returns(uint8 __uint8){\n    uint8 ___uint8;\n    return __uint8;\n  }\n  event ByteEventReturnsUint8(uint8 __uint8);\n  function byteFunctionReturnsUint256 (byte _byte) public constant returns(uint256 __uint256){\n    uint256 ___uint256;\n    return __uint256;\n  }\n  event ByteEventReturnsUint256(uint256 __uint256);\n  function byteFunctionReturnsAddress (byte _byte) public constant returns(address __address){\n    address ___address;\n    return __address;\n  }\n  event ByteEventReturnsAddress(address __address);\n  function byteFunctionReturnsByte (byte _byte) public constant returns(byte __byte){\n    byte ___byte;\n    return __byte;\n  }\n  event ByteEventReturnsByte(byte __byte);\n  function byteFunctionReturnsBytes1 (byte _byte) public constant returns(bytes1 __bytes1){\n    bytes1 ___bytes1;\n    return __bytes1;\n  }\n  event ByteEventReturnsBytes1(bytes1 __bytes1);\n  function byteFunctionReturnsBytes32 (byte _byte) public constant returns(bytes32 __bytes32){\n    bytes32 ___bytes32;\n    return __bytes32;\n  }\n  event ByteEventReturnsBytes32(bytes32 __bytes32);\n  function byteFunctionReturnsBytes (byte _byte) public constant returns(bytes __bytes){\n    bytes ___bytes;\n    return __bytes;\n  }\n  event ByteEventReturnsBytes(bytes __bytes);\n  function byteFunctionReturnsString (byte _byte) public constant returns(string __string){\n    string ___string;\n    return __string;\n  }\n  event ByteEventReturnsString(string __string);\n  function byteBytesFunctionReturnsByteBytes (byte _byte) public constant returns(byte __byte, bytes _bytes_){\n    byte ___byte;\n    bytes ___bytes;\n    return (___byte, ___bytes);\n  }\n  function bytes1FunctionReturnsBool (bytes1 _bytes1) public constant returns(bool __bool){\n    bool ___bool;\n    return __bool;\n  }\n  event Bytes1EventReturnsBool(bool __bool);\n  function bytes1FunctionReturnsInt (bytes1 _bytes1) public constant returns(int __int){\n    int ___int;\n    return __int;\n  }\n  event Bytes1EventReturnsInt(int __int);\n  function bytes1FunctionReturnsInt8 (bytes1 _bytes1) public constant returns(int8 __int8){\n    int8 ___int8;\n    return __int8;\n  }\n  event Bytes1EventReturnsInt8(int8 __int8);\n  function bytes1FunctionReturnsInt256 (bytes1 _bytes1) public constant returns(int256 __int256){\n    int256 ___int256;\n    return __int256;\n  }\n  event Bytes1EventReturnsInt256(int256 __int256);\n  function bytes1FunctionReturnsUint (bytes1 _bytes1) public constant returns(uint __uint){\n    uint ___uint;\n    return __uint;\n  }\n  event Bytes1EventReturnsUint(uint __uint);\n  function bytes1FunctionReturnsUint8 (bytes1 _bytes1) public constant returns(uint8 __uint8){\n    uint8 ___uint8;\n    return __uint8;\n  }\n  event Bytes1EventReturnsUint8(uint8 __uint8);\n  function bytes1FunctionReturnsUint256 (bytes1 _bytes1) public constant returns(uint256 __uint256){\n    uint256 ___uint256;\n    return __uint256;\n  }\n  event Bytes1EventReturnsUint256(uint256 __uint256);\n  function bytes1FunctionReturnsAddress (bytes1 _bytes1) public constant returns(address __address){\n    address ___address;\n    return __address;\n  }\n  event Bytes1EventReturnsAddress(address __address);\n  function bytes1FunctionReturnsByte (bytes1 _bytes1) public constant returns(byte __byte){\n    byte ___byte;\n    return __byte;\n  }\n  event Bytes1EventReturnsByte(byte __byte);\n  function bytes1FunctionReturnsBytes1 (bytes1 _bytes1) public constant returns(bytes1 __bytes1){\n    bytes1 ___bytes1;\n    return __bytes1;\n  }\n  event Bytes1EventReturnsBytes1(bytes1 __bytes1);\n  function bytes1FunctionReturnsBytes32 (bytes1 _bytes1) public constant returns(bytes32 __bytes32){\n    bytes32 ___bytes32;\n    return __bytes32;\n  }\n  event Bytes1EventReturnsBytes32(bytes32 __bytes32);\n  function bytes1FunctionReturnsBytes (bytes1 _bytes1) public constant returns(bytes __bytes){\n    bytes ___bytes;\n    return __bytes;\n  }\n  event Bytes1EventReturnsBytes(bytes __bytes);\n  function bytes1FunctionReturnsString (bytes1 _bytes1) public constant returns(string __string){\n    string ___string;\n    return __string;\n  }\n  event Bytes1EventReturnsString(string __string);\n  function bytes1Int256FunctionReturnsBytes1Int256 (bytes1 _bytes1) public constant returns(bytes1 __bytes1, int256 _int256_){\n    bytes1 ___bytes1;\n    int256 ___int256;\n    return (___bytes1, ___int256);\n  }\n  function bytes32FunctionReturnsBool (bytes32 _bytes32) public constant returns(bool __bool){\n    bool ___bool;\n    return __bool;\n  }\n  event Bytes32EventReturnsBool(bool __bool);\n  function bytes32FunctionReturnsInt (bytes32 _bytes32) public constant returns(int __int){\n    int ___int;\n    return __int;\n  }\n  event Bytes32EventReturnsInt(int __int);\n  function bytes32FunctionReturnsInt8 (bytes32 _bytes32) public constant returns(int8 __int8){\n    int8 ___int8;\n    return __int8;\n  }\n  event Bytes32EventReturnsInt8(int8 __int8);\n  function bytes32FunctionReturnsInt256 (bytes32 _bytes32) public constant returns(int256 __int256){\n    int256 ___int256;\n    return __int256;\n  }\n  event Bytes32EventReturnsInt256(int256 __int256);\n  function bytes32FunctionReturnsUint (bytes32 _bytes32) public constant returns(uint __uint){\n    uint ___uint;\n    return __uint;\n  }\n  event Bytes32EventReturnsUint(uint __uint);\n  function bytes32FunctionReturnsUint8 (bytes32 _bytes32) public constant returns(uint8 __uint8){\n    uint8 ___uint8;\n    return __uint8;\n  }\n  event Bytes32EventReturnsUint8(uint8 __uint8);\n  function bytes32FunctionReturnsUint256 (bytes32 _bytes32) public constant returns(uint256 __uint256){\n    uint256 ___uint256;\n    return __uint256;\n  }\n  event Bytes32EventReturnsUint256(uint256 __uint256);\n  function bytes32FunctionReturnsAddress (bytes32 _bytes32) public constant returns(address __address){\n    address ___address;\n    return __address;\n  }\n  event Bytes32EventReturnsAddress(address __address);\n  function bytes32FunctionReturnsByte (bytes32 _bytes32) public constant returns(byte __byte){\n    byte ___byte;\n    return __byte;\n  }\n  event Bytes32EventReturnsByte(byte __byte);\n  function bytes32FunctionReturnsBytes1 (bytes32 _bytes32) public constant returns(bytes1 __bytes1){\n    bytes1 ___bytes1;\n    return __bytes1;\n  }\n  event Bytes32EventReturnsBytes1(bytes1 __bytes1);\n  function bytes32FunctionReturnsBytes32 (bytes32 _bytes32) public constant returns(bytes32 __bytes32){\n    bytes32 ___bytes32;\n    return __bytes32;\n  }\n  event Bytes32EventReturnsBytes32(bytes32 __bytes32);\n  function bytes32FunctionReturnsBytes (bytes32 _bytes32) public constant returns(bytes __bytes){\n    bytes ___bytes;\n    return __bytes;\n  }\n  event Bytes32EventReturnsBytes(bytes __bytes);\n  function bytes32FunctionReturnsString (bytes32 _bytes32) public constant returns(string __string){\n    string ___string;\n    return __string;\n  }\n  event Bytes32EventReturnsString(string __string);\n  function bytes32Uint8FunctionReturnsBytes32Uint8 (bytes32 _bytes32) public constant returns(bytes32 __bytes32, uint8 _uint8_){\n    bytes32 ___bytes32;\n    uint8 ___uint8;\n    return (___bytes32, ___uint8);\n  }\n  function bytesFunctionReturnsBool (bytes _bytes) public constant returns(bool __bool){\n    bool ___bool;\n    return __bool;\n  }\n  event BytesEventReturnsBool(bool __bool);\n  function bytesFunctionReturnsInt (bytes _bytes) public constant returns(int __int){\n    int ___int;\n    return __int;\n  }\n  event BytesEventReturnsInt(int __int);\n  function bytesFunctionReturnsInt8 (bytes _bytes) public constant returns(int8 __int8){\n    int8 ___int8;\n    return __int8;\n  }\n  event BytesEventReturnsInt8(int8 __int8);\n  function bytesFunctionReturnsInt256 (bytes _bytes) public constant returns(int256 __int256){\n    int256 ___int256;\n    return __int256;\n  }\n  event BytesEventReturnsInt256(int256 __int256);\n  function bytesFunctionReturnsUint (bytes _bytes) public constant returns(uint __uint){\n    uint ___uint;\n    return __uint;\n  }\n  event BytesEventReturnsUint(uint __uint);\n  function bytesFunctionReturnsUint8 (bytes _bytes) public constant returns(uint8 __uint8){\n    uint8 ___uint8;\n    return __uint8;\n  }\n  event BytesEventReturnsUint8(uint8 __uint8);\n  function bytesFunctionReturnsUint256 (bytes _bytes) public constant returns(uint256 __uint256){\n    uint256 ___uint256;\n    return __uint256;\n  }\n  event BytesEventReturnsUint256(uint256 __uint256);\n  function bytesFunctionReturnsAddress (bytes _bytes) public constant returns(address __address){\n    address ___address;\n    return __address;\n  }\n  event BytesEventReturnsAddress(address __address);\n  function bytesFunctionReturnsByte (bytes _bytes) public constant returns(byte __byte){\n    byte ___byte;\n    return __byte;\n  }\n  event BytesEventReturnsByte(byte __byte);\n  function bytesFunctionReturnsBytes1 (bytes _bytes) public constant returns(bytes1 __bytes1){\n    bytes1 ___bytes1;\n    return __bytes1;\n  }\n  event BytesEventReturnsBytes1(bytes1 __bytes1);\n  function bytesFunctionReturnsBytes32 (bytes _bytes) public constant returns(bytes32 __bytes32){\n    bytes32 ___bytes32;\n    return __bytes32;\n  }\n  event BytesEventReturnsBytes32(bytes32 __bytes32);\n  function bytesFunctionReturnsBytes (bytes _bytes) public constant returns(bytes __bytes){\n    bytes ___bytes;\n    return __bytes;\n  }\n  event BytesEventReturnsBytes(bytes __bytes);\n  function bytesFunctionReturnsString (bytes _bytes) public constant returns(string __string){\n    string ___string;\n    return __string;\n  }\n  event BytesEventReturnsString(string __string);\n  function bytesStringFunctionReturnsBytesString (bytes _bytes) public constant returns(bytes __bytes, string _string_){\n    bytes ___bytes;\n    string ___string;\n    return (___bytes, ___string);\n  }\n  function stringFunctionReturnsBool (string _string) public constant returns(bool __bool){\n    bool ___bool;\n    return __bool;\n  }\n  event StringEventReturnsBool(bool __bool);\n  function stringFunctionReturnsInt (string _string) public constant returns(int __int){\n    int ___int;\n    return __int;\n  }\n  event StringEventReturnsInt(int __int);\n  function stringFunctionReturnsInt8 (string _string) public constant returns(int8 __int8){\n    int8 ___int8;\n    return __int8;\n  }\n  event StringEventReturnsInt8(int8 __int8);\n  function stringFunctionReturnsInt256 (string _string) public constant returns(int256 __int256){\n    int256 ___int256;\n    return __int256;\n  }\n  event StringEventReturnsInt256(int256 __int256);\n  function stringFunctionReturnsUint (string _string) public constant returns(uint __uint){\n    uint ___uint;\n    return __uint;\n  }\n  event StringEventReturnsUint(uint __uint);\n  function stringFunctionReturnsUint8 (string _string) public constant returns(uint8 __uint8){\n    uint8 ___uint8;\n    return __uint8;\n  }\n  event StringEventReturnsUint8(uint8 __uint8);\n  function stringFunctionReturnsUint256 (string _string) public constant returns(uint256 __uint256){\n    uint256 ___uint256;\n    return __uint256;\n  }\n  event StringEventReturnsUint256(uint256 __uint256);\n  function stringFunctionReturnsAddress (string _string) public constant returns(address __address){\n    address ___address;\n    return __address;\n  }\n  event StringEventReturnsAddress(address __address);\n  function stringFunctionReturnsByte (string _string) public constant returns(byte __byte){\n    byte ___byte;\n    return __byte;\n  }\n  event StringEventReturnsByte(byte __byte);\n  function stringFunctionReturnsBytes1 (string _string) public constant returns(bytes1 __bytes1){\n    bytes1 ___bytes1;\n    return __bytes1;\n  }\n  event StringEventReturnsBytes1(bytes1 __bytes1);\n  function stringFunctionReturnsBytes32 (string _string) public constant returns(bytes32 __bytes32){\n    bytes32 ___bytes32;\n    return __bytes32;\n  }\n  event StringEventReturnsBytes32(bytes32 __bytes32);\n  function stringFunctionReturnsBytes (string _string) public constant returns(bytes __bytes){\n    bytes ___bytes;\n    return __bytes;\n  }\n  event StringEventReturnsBytes(bytes __bytes);\n  function stringFunctionReturnsString (string _string) public constant returns(string __string){\n    string ___string;\n    return __string;\n  }\n  event StringEventReturnsString(string __string);\n  function stringUint8FunctionReturnsStringUint8 (string _string) public constant returns(string __string, uint8 _uint8_){\n    string ___string;\n    uint8 ___uint8;\n    return (___string, ___uint8);\n  }\n  function changeBool(bool __bool) public {\n    _bool = __bool;\n  }\n  function changeInt(int __int) public {\n    _int = __int;\n  }\n  function changeInt8(int8 __int8) public {\n    _int8 = __int8;\n  }\n  function changeInt256(int256 __int256) public {\n    _int256 = __int256;\n  }\n  function changeUint(uint __uint) public {\n    _uint = __uint;\n  }\n  function changeUint8(uint8 __uint8) public {\n    _uint8 = __uint8;\n  }\n  function changeUint256(uint256 __uint256) public {\n    _uint256 = __uint256;\n  }\n  function changeAddress(address __address) public {\n    _address = __address;\n  }\n  function changeByte(byte __byte) public {\n    _byte = __byte;\n  }\n  function changeBytes1(bytes1 __bytes1) public {\n    _bytes1 = __bytes1;\n  }\n  function changeBytes32(bytes32 __bytes32) public {\n    _bytes32 = __bytes32;\n  }\n  function changeBytes(bytes __bytes) public {\n    _bytes = __bytes;\n  }\n  function changeString(string __string) public {\n    _string = __string;\n  }\n\n}",
  "sourcePath": "/Users/billy/Documents/htdocs/dapp-scratch/contracts/SampleContract.sol",
  "compiler": {
    "name": "solc",
    "version": "0.4.18+commit.9cf6e910.Emscripten.clang"
  },
  "schemaVersion": "1.0.1",
  "updatedAt": "2017-11-15T15:36:38.617Z"
}