{
  "contractName": "SampleContract",
  "abi": [
    {
      "inputs": [],
      "payable": false,
      "stateMutability": "nonpayable",
      "type": "constructor"
    },
    {
      "anonymous": false,
      "inputs": [
        {
          "indexed": false,
          "name": "__bool",
          "type": "bool"
        }
      ],
      "name": "BoolEventReturnsBool",
      "type": "event"
    },
    {
      "anonymous": false,
      "inputs": [
        {
          "indexed": false,
          "name": "__int",
          "type": "int256"
        }
      ],
      "name": "BoolEventReturnsInt",
      "type": "event"
    },
    {
      "anonymous": false,
      "inputs": [
        {
          "indexed": false,
          "name": "__int8",
          "type": "int8"
        }
      ],
      "name": "BoolEventReturnsInt8",
      "type": "event"
    },
    {
      "anonymous": false,
      "inputs": [
        {
          "indexed": false,
          "name": "__int256",
          "type": "int256"
        }
      ],
      "name": "BoolEventReturnsInt256",
      "type": "event"
    },
    {
      "anonymous": false,
      "inputs": [
        {
          "indexed": false,
          "name": "__uint",
          "type": "uint256"
        }
      ],
      "name": "BoolEventReturnsUint",
      "type": "event"
    },
    {
      "anonymous": false,
      "inputs": [
        {
          "indexed": false,
          "name": "__uint8",
          "type": "uint8"
        }
      ],
      "name": "BoolEventReturnsUint8",
      "type": "event"
    },
    {
      "anonymous": false,
      "inputs": [
        {
          "indexed": false,
          "name": "__uint256",
          "type": "uint256"
        }
      ],
      "name": "BoolEventReturnsUint256",
      "type": "event"
    },
    {
      "anonymous": false,
      "inputs": [
        {
          "indexed": false,
          "name": "__address",
          "type": "address"
        }
      ],
      "name": "BoolEventReturnsAddress",
      "type": "event"
    },
    {
      "anonymous": false,
      "inputs": [
        {
          "indexed": false,
          "name": "__byte",
          "type": "bytes1"
        }
      ],
      "name": "BoolEventReturnsByte",
      "type": "event"
    },
    {
      "anonymous": false,
      "inputs": [
        {
          "indexed": false,
          "name": "__bytes1",
          "type": "bytes1"
        }
      ],
      "name": "BoolEventReturnsBytes1",
      "type": "event"
    },
    {
      "anonymous": false,
      "inputs": [
        {
          "indexed": false,
          "name": "__bytes32",
          "type": "bytes32"
        }
      ],
      "name": "BoolEventReturnsBytes32",
      "type": "event"
    },
    {
      "anonymous": false,
      "inputs": [
        {
          "indexed": false,
          "name": "__bytes",
          "type": "bytes"
        }
      ],
      "name": "BoolEventReturnsBytes",
      "type": "event"
    },
    {
      "anonymous": false,
      "inputs": [
        {
          "indexed": false,
          "name": "__string",
          "type": "string"
        }
      ],
      "name": "BoolEventReturnsString",
      "type": "event"
    },
    {
      "anonymous": false,
      "inputs": [
        {
          "indexed": false,
          "name": "__bool",
          "type": "bool"
        }
      ],
      "name": "IntEventReturnsBool",
      "type": "event"
    },
    {
      "anonymous": false,
      "inputs": [
        {
          "indexed": false,
          "name": "__int",
          "type": "int256"
        }
      ],
      "name": "IntEventReturnsInt",
      "type": "event"
    },
    {
      "anonymous": false,
      "inputs": [
        {
          "indexed": false,
          "name": "__int8",
          "type": "int8"
        }
      ],
      "name": "IntEventReturnsInt8",
      "type": "event"
    },
    {
      "anonymous": false,
      "inputs": [
        {
          "indexed": false,
          "name": "__int256",
          "type": "int256"
        }
      ],
      "name": "IntEventReturnsInt256",
      "type": "event"
    },
    {
      "anonymous": false,
      "inputs": [
        {
          "indexed": false,
          "name": "__uint",
          "type": "uint256"
        }
      ],
      "name": "IntEventReturnsUint",
      "type": "event"
    },
    {
      "anonymous": false,
      "inputs": [
        {
          "indexed": false,
          "name": "__uint8",
          "type": "uint8"
        }
      ],
      "name": "IntEventReturnsUint8",
      "type": "event"
    },
    {
      "anonymous": false,
      "inputs": [
        {
          "indexed": false,
          "name": "__uint256",
          "type": "uint256"
        }
      ],
      "name": "IntEventReturnsUint256",
      "type": "event"
    },
    {
      "anonymous": false,
      "inputs": [
        {
          "indexed": false,
          "name": "__address",
          "type": "address"
        }
      ],
      "name": "IntEventReturnsAddress",
      "type": "event"
    },
    {
      "anonymous": false,
      "inputs": [
        {
          "indexed": false,
          "name": "__byte",
          "type": "bytes1"
        }
      ],
      "name": "IntEventReturnsByte",
      "type": "event"
    },
    {
      "anonymous": false,
      "inputs": [
        {
          "indexed": false,
          "name": "__bytes1",
          "type": "bytes1"
        }
      ],
      "name": "IntEventReturnsBytes1",
      "type": "event"
    },
    {
      "anonymous": false,
      "inputs": [
        {
          "indexed": false,
          "name": "__bytes32",
          "type": "bytes32"
        }
      ],
      "name": "IntEventReturnsBytes32",
      "type": "event"
    },
    {
      "anonymous": false,
      "inputs": [
        {
          "indexed": false,
          "name": "__bytes",
          "type": "bytes"
        }
      ],
      "name": "IntEventReturnsBytes",
      "type": "event"
    },
    {
      "anonymous": false,
      "inputs": [
        {
          "indexed": false,
          "name": "__string",
          "type": "string"
        }
      ],
      "name": "IntEventReturnsString",
      "type": "event"
    },
    {
      "anonymous": false,
      "inputs": [
        {
          "indexed": false,
          "name": "__bool",
          "type": "bool"
        }
      ],
      "name": "Int8EventReturnsBool",
      "type": "event"
    },
    {
      "anonymous": false,
      "inputs": [
        {
          "indexed": false,
          "name": "__int",
          "type": "int256"
        }
      ],
      "name": "Int8EventReturnsInt",
      "type": "event"
    },
    {
      "anonymous": false,
      "inputs": [
        {
          "indexed": false,
          "name": "__int8",
          "type": "int8"
        }
      ],
      "name": "Int8EventReturnsInt8",
      "type": "event"
    },
    {
      "anonymous": false,
      "inputs": [
        {
          "indexed": false,
          "name": "__int256",
          "type": "int256"
        }
      ],
      "name": "Int8EventReturnsInt256",
      "type": "event"
    },
    {
      "anonymous": false,
      "inputs": [
        {
          "indexed": false,
          "name": "__uint",
          "type": "uint256"
        }
      ],
      "name": "Int8EventReturnsUint",
      "type": "event"
    },
    {
      "anonymous": false,
      "inputs": [
        {
          "indexed": false,
          "name": "__uint8",
          "type": "uint8"
        }
      ],
      "name": "Int8EventReturnsUint8",
      "type": "event"
    },
    {
      "anonymous": false,
      "inputs": [
        {
          "indexed": false,
          "name": "__uint256",
          "type": "uint256"
        }
      ],
      "name": "Int8EventReturnsUint256",
      "type": "event"
    },
    {
      "anonymous": false,
      "inputs": [
        {
          "indexed": false,
          "name": "__address",
          "type": "address"
        }
      ],
      "name": "Int8EventReturnsAddress",
      "type": "event"
    },
    {
      "anonymous": false,
      "inputs": [
        {
          "indexed": false,
          "name": "__byte",
          "type": "bytes1"
        }
      ],
      "name": "Int8EventReturnsByte",
      "type": "event"
    },
    {
      "anonymous": false,
      "inputs": [
        {
          "indexed": false,
          "name": "__bytes1",
          "type": "bytes1"
        }
      ],
      "name": "Int8EventReturnsBytes1",
      "type": "event"
    },
    {
      "anonymous": false,
      "inputs": [
        {
          "indexed": false,
          "name": "__bytes32",
          "type": "bytes32"
        }
      ],
      "name": "Int8EventReturnsBytes32",
      "type": "event"
    },
    {
      "anonymous": false,
      "inputs": [
        {
          "indexed": false,
          "name": "__bytes",
          "type": "bytes"
        }
      ],
      "name": "Int8EventReturnsBytes",
      "type": "event"
    },
    {
      "anonymous": false,
      "inputs": [
        {
          "indexed": false,
          "name": "__string",
          "type": "string"
        }
      ],
      "name": "Int8EventReturnsString",
      "type": "event"
    },
    {
      "anonymous": false,
      "inputs": [
        {
          "indexed": false,
          "name": "__bool",
          "type": "bool"
        }
      ],
      "name": "Int256EventReturnsBool",
      "type": "event"
    },
    {
      "anonymous": false,
      "inputs": [
        {
          "indexed": false,
          "name": "__int",
          "type": "int256"
        }
      ],
      "name": "Int256EventReturnsInt",
      "type": "event"
    },
    {
      "anonymous": false,
      "inputs": [
        {
          "indexed": false,
          "name": "__int8",
          "type": "int8"
        }
      ],
      "name": "Int256EventReturnsInt8",
      "type": "event"
    },
    {
      "anonymous": false,
      "inputs": [
        {
          "indexed": false,
          "name": "__int256",
          "type": "int256"
        }
      ],
      "name": "Int256EventReturnsInt256",
      "type": "event"
    },
    {
      "anonymous": false,
      "inputs": [
        {
          "indexed": false,
          "name": "__uint",
          "type": "uint256"
        }
      ],
      "name": "Int256EventReturnsUint",
      "type": "event"
    },
    {
      "anonymous": false,
      "inputs": [
        {
          "indexed": false,
          "name": "__uint8",
          "type": "uint8"
        }
      ],
      "name": "Int256EventReturnsUint8",
      "type": "event"
    },
    {
      "anonymous": false,
      "inputs": [
        {
          "indexed": false,
          "name": "__uint256",
          "type": "uint256"
        }
      ],
      "name": "Int256EventReturnsUint256",
      "type": "event"
    },
    {
      "anonymous": false,
      "inputs": [
        {
          "indexed": false,
          "name": "__address",
          "type": "address"
        }
      ],
      "name": "Int256EventReturnsAddress",
      "type": "event"
    },
    {
      "anonymous": false,
      "inputs": [
        {
          "indexed": false,
          "name": "__byte",
          "type": "bytes1"
        }
      ],
      "name": "Int256EventReturnsByte",
      "type": "event"
    },
    {
      "anonymous": false,
      "inputs": [
        {
          "indexed": false,
          "name": "__bytes1",
          "type": "bytes1"
        }
      ],
      "name": "Int256EventReturnsBytes1",
      "type": "event"
    },
    {
      "anonymous": false,
      "inputs": [
        {
          "indexed": false,
          "name": "__bytes32",
          "type": "bytes32"
        }
      ],
      "name": "Int256EventReturnsBytes32",
      "type": "event"
    },
    {
      "anonymous": false,
      "inputs": [
        {
          "indexed": false,
          "name": "__bytes",
          "type": "bytes"
        }
      ],
      "name": "Int256EventReturnsBytes",
      "type": "event"
    },
    {
      "anonymous": false,
      "inputs": [
        {
          "indexed": false,
          "name": "__string",
          "type": "string"
        }
      ],
      "name": "Int256EventReturnsString",
      "type": "event"
    },
    {
      "anonymous": false,
      "inputs": [
        {
          "indexed": false,
          "name": "__bool",
          "type": "bool"
        }
      ],
      "name": "UintEventReturnsBool",
      "type": "event"
    },
    {
      "anonymous": false,
      "inputs": [
        {
          "indexed": false,
          "name": "__int",
          "type": "int256"
        }
      ],
      "name": "UintEventReturnsInt",
      "type": "event"
    },
    {
      "anonymous": false,
      "inputs": [
        {
          "indexed": false,
          "name": "__int8",
          "type": "int8"
        }
      ],
      "name": "UintEventReturnsInt8",
      "type": "event"
    },
    {
      "anonymous": false,
      "inputs": [
        {
          "indexed": false,
          "name": "__int256",
          "type": "int256"
        }
      ],
      "name": "UintEventReturnsInt256",
      "type": "event"
    },
    {
      "anonymous": false,
      "inputs": [
        {
          "indexed": false,
          "name": "__uint",
          "type": "uint256"
        }
      ],
      "name": "UintEventReturnsUint",
      "type": "event"
    },
    {
      "anonymous": false,
      "inputs": [
        {
          "indexed": false,
          "name": "__uint8",
          "type": "uint8"
        }
      ],
      "name": "UintEventReturnsUint8",
      "type": "event"
    },
    {
      "anonymous": false,
      "inputs": [
        {
          "indexed": false,
          "name": "__uint256",
          "type": "uint256"
        }
      ],
      "name": "UintEventReturnsUint256",
      "type": "event"
    },
    {
      "anonymous": false,
      "inputs": [
        {
          "indexed": false,
          "name": "__address",
          "type": "address"
        }
      ],
      "name": "UintEventReturnsAddress",
      "type": "event"
    },
    {
      "anonymous": false,
      "inputs": [
        {
          "indexed": false,
          "name": "__byte",
          "type": "bytes1"
        }
      ],
      "name": "UintEventReturnsByte",
      "type": "event"
    },
    {
      "anonymous": false,
      "inputs": [
        {
          "indexed": false,
          "name": "__bytes1",
          "type": "bytes1"
        }
      ],
      "name": "UintEventReturnsBytes1",
      "type": "event"
    },
    {
      "anonymous": false,
      "inputs": [
        {
          "indexed": false,
          "name": "__bytes32",
          "type": "bytes32"
        }
      ],
      "name": "UintEventReturnsBytes32",
      "type": "event"
    },
    {
      "anonymous": false,
      "inputs": [
        {
          "indexed": false,
          "name": "__bytes",
          "type": "bytes"
        }
      ],
      "name": "UintEventReturnsBytes",
      "type": "event"
    },
    {
      "anonymous": false,
      "inputs": [
        {
          "indexed": false,
          "name": "__string",
          "type": "string"
        }
      ],
      "name": "UintEventReturnsString",
      "type": "event"
    },
    {
      "anonymous": false,
      "inputs": [
        {
          "indexed": false,
          "name": "__bool",
          "type": "bool"
        }
      ],
      "name": "Uint8EventReturnsBool",
      "type": "event"
    },
    {
      "anonymous": false,
      "inputs": [
        {
          "indexed": false,
          "name": "__int",
          "type": "int256"
        }
      ],
      "name": "Uint8EventReturnsInt",
      "type": "event"
    },
    {
      "anonymous": false,
      "inputs": [
        {
          "indexed": false,
          "name": "__int8",
          "type": "int8"
        }
      ],
      "name": "Uint8EventReturnsInt8",
      "type": "event"
    },
    {
      "anonymous": false,
      "inputs": [
        {
          "indexed": false,
          "name": "__int256",
          "type": "int256"
        }
      ],
      "name": "Uint8EventReturnsInt256",
      "type": "event"
    },
    {
      "anonymous": false,
      "inputs": [
        {
          "indexed": false,
          "name": "__uint",
          "type": "uint256"
        }
      ],
      "name": "Uint8EventReturnsUint",
      "type": "event"
    },
    {
      "anonymous": false,
      "inputs": [
        {
          "indexed": false,
          "name": "__uint8",
          "type": "uint8"
        }
      ],
      "name": "Uint8EventReturnsUint8",
      "type": "event"
    },
    {
      "anonymous": false,
      "inputs": [
        {
          "indexed": false,
          "name": "__uint256",
          "type": "uint256"
        }
      ],
      "name": "Uint8EventReturnsUint256",
      "type": "event"
    },
    {
      "anonymous": false,
      "inputs": [
        {
          "indexed": false,
          "name": "__address",
          "type": "address"
        }
      ],
      "name": "Uint8EventReturnsAddress",
      "type": "event"
    },
    {
      "anonymous": false,
      "inputs": [
        {
          "indexed": false,
          "name": "__byte",
          "type": "bytes1"
        }
      ],
      "name": "Uint8EventReturnsByte",
      "type": "event"
    },
    {
      "anonymous": false,
      "inputs": [
        {
          "indexed": false,
          "name": "__bytes1",
          "type": "bytes1"
        }
      ],
      "name": "Uint8EventReturnsBytes1",
      "type": "event"
    },
    {
      "anonymous": false,
      "inputs": [
        {
          "indexed": false,
          "name": "__bytes32",
          "type": "bytes32"
        }
      ],
      "name": "Uint8EventReturnsBytes32",
      "type": "event"
    },
    {
      "anonymous": false,
      "inputs": [
        {
          "indexed": false,
          "name": "__bytes",
          "type": "bytes"
        }
      ],
      "name": "Uint8EventReturnsBytes",
      "type": "event"
    },
    {
      "anonymous": false,
      "inputs": [
        {
          "indexed": false,
          "name": "__string",
          "type": "string"
        }
      ],
      "name": "Uint8EventReturnsString",
      "type": "event"
    },
    {
      "anonymous": false,
      "inputs": [
        {
          "indexed": false,
          "name": "__bool",
          "type": "bool"
        }
      ],
      "name": "Uint256EventReturnsBool",
      "type": "event"
    },
    {
      "anonymous": false,
      "inputs": [
        {
          "indexed": false,
          "name": "__int",
          "type": "int256"
        }
      ],
      "name": "Uint256EventReturnsInt",
      "type": "event"
    },
    {
      "anonymous": false,
      "inputs": [
        {
          "indexed": false,
          "name": "__int8",
          "type": "int8"
        }
      ],
      "name": "Uint256EventReturnsInt8",
      "type": "event"
    },
    {
      "anonymous": false,
      "inputs": [
        {
          "indexed": false,
          "name": "__int256",
          "type": "int256"
        }
      ],
      "name": "Uint256EventReturnsInt256",
      "type": "event"
    },
    {
      "anonymous": false,
      "inputs": [
        {
          "indexed": false,
          "name": "__uint",
          "type": "uint256"
        }
      ],
      "name": "Uint256EventReturnsUint",
      "type": "event"
    },
    {
      "anonymous": false,
      "inputs": [
        {
          "indexed": false,
          "name": "__uint8",
          "type": "uint8"
        }
      ],
      "name": "Uint256EventReturnsUint8",
      "type": "event"
    },
    {
      "anonymous": false,
      "inputs": [
        {
          "indexed": false,
          "name": "__uint256",
          "type": "uint256"
        }
      ],
      "name": "Uint256EventReturnsUint256",
      "type": "event"
    },
    {
      "anonymous": false,
      "inputs": [
        {
          "indexed": false,
          "name": "__address",
          "type": "address"
        }
      ],
      "name": "Uint256EventReturnsAddress",
      "type": "event"
    },
    {
      "anonymous": false,
      "inputs": [
        {
          "indexed": false,
          "name": "__byte",
          "type": "bytes1"
        }
      ],
      "name": "Uint256EventReturnsByte",
      "type": "event"
    },
    {
      "anonymous": false,
      "inputs": [
        {
          "indexed": false,
          "name": "__bytes1",
          "type": "bytes1"
        }
      ],
      "name": "Uint256EventReturnsBytes1",
      "type": "event"
    },
    {
      "anonymous": false,
      "inputs": [
        {
          "indexed": false,
          "name": "__bytes32",
          "type": "bytes32"
        }
      ],
      "name": "Uint256EventReturnsBytes32",
      "type": "event"
    },
    {
      "anonymous": false,
      "inputs": [
        {
          "indexed": false,
          "name": "__bytes",
          "type": "bytes"
        }
      ],
      "name": "Uint256EventReturnsBytes",
      "type": "event"
    },
    {
      "anonymous": false,
      "inputs": [
        {
          "indexed": false,
          "name": "__string",
          "type": "string"
        }
      ],
      "name": "Uint256EventReturnsString",
      "type": "event"
    },
    {
      "anonymous": false,
      "inputs": [
        {
          "indexed": false,
          "name": "__bool",
          "type": "bool"
        }
      ],
      "name": "AddressEventReturnsBool",
      "type": "event"
    },
    {
      "anonymous": false,
      "inputs": [
        {
          "indexed": false,
          "name": "__int",
          "type": "int256"
        }
      ],
      "name": "AddressEventReturnsInt",
      "type": "event"
    },
    {
      "anonymous": false,
      "inputs": [
        {
          "indexed": false,
          "name": "__int8",
          "type": "int8"
        }
      ],
      "name": "AddressEventReturnsInt8",
      "type": "event"
    },
    {
      "anonymous": false,
      "inputs": [
        {
          "indexed": false,
          "name": "__int256",
          "type": "int256"
        }
      ],
      "name": "AddressEventReturnsInt256",
      "type": "event"
    },
    {
      "anonymous": false,
      "inputs": [
        {
          "indexed": false,
          "name": "__uint",
          "type": "uint256"
        }
      ],
      "name": "AddressEventReturnsUint",
      "type": "event"
    },
    {
      "anonymous": false,
      "inputs": [
        {
          "indexed": false,
          "name": "__uint8",
          "type": "uint8"
        }
      ],
      "name": "AddressEventReturnsUint8",
      "type": "event"
    },
    {
      "anonymous": false,
      "inputs": [
        {
          "indexed": false,
          "name": "__uint256",
          "type": "uint256"
        }
      ],
      "name": "AddressEventReturnsUint256",
      "type": "event"
    },
    {
      "anonymous": false,
      "inputs": [
        {
          "indexed": false,
          "name": "__address",
          "type": "address"
        }
      ],
      "name": "AddressEventReturnsAddress",
      "type": "event"
    },
    {
      "anonymous": false,
      "inputs": [
        {
          "indexed": false,
          "name": "__byte",
          "type": "bytes1"
        }
      ],
      "name": "AddressEventReturnsByte",
      "type": "event"
    },
    {
      "anonymous": false,
      "inputs": [
        {
          "indexed": false,
          "name": "__bytes1",
          "type": "bytes1"
        }
      ],
      "name": "AddressEventReturnsBytes1",
      "type": "event"
    },
    {
      "anonymous": false,
      "inputs": [
        {
          "indexed": false,
          "name": "__bytes32",
          "type": "bytes32"
        }
      ],
      "name": "AddressEventReturnsBytes32",
      "type": "event"
    },
    {
      "anonymous": false,
      "inputs": [
        {
          "indexed": false,
          "name": "__bytes",
          "type": "bytes"
        }
      ],
      "name": "AddressEventReturnsBytes",
      "type": "event"
    },
    {
      "anonymous": false,
      "inputs": [
        {
          "indexed": false,
          "name": "__string",
          "type": "string"
        }
      ],
      "name": "AddressEventReturnsString",
      "type": "event"
    },
    {
      "anonymous": false,
      "inputs": [
        {
          "indexed": false,
          "name": "__bool",
          "type": "bool"
        }
      ],
      "name": "ByteEventReturnsBool",
      "type": "event"
    },
    {
      "anonymous": false,
      "inputs": [
        {
          "indexed": false,
          "name": "__int",
          "type": "int256"
        }
      ],
      "name": "ByteEventReturnsInt",
      "type": "event"
    },
    {
      "anonymous": false,
      "inputs": [
        {
          "indexed": false,
          "name": "__int8",
          "type": "int8"
        }
      ],
      "name": "ByteEventReturnsInt8",
      "type": "event"
    },
    {
      "anonymous": false,
      "inputs": [
        {
          "indexed": false,
          "name": "__int256",
          "type": "int256"
        }
      ],
      "name": "ByteEventReturnsInt256",
      "type": "event"
    },
    {
      "anonymous": false,
      "inputs": [
        {
          "indexed": false,
          "name": "__uint",
          "type": "uint256"
        }
      ],
      "name": "ByteEventReturnsUint",
      "type": "event"
    },
    {
      "anonymous": false,
      "inputs": [
        {
          "indexed": false,
          "name": "__uint8",
          "type": "uint8"
        }
      ],
      "name": "ByteEventReturnsUint8",
      "type": "event"
    },
    {
      "anonymous": false,
      "inputs": [
        {
          "indexed": false,
          "name": "__uint256",
          "type": "uint256"
        }
      ],
      "name": "ByteEventReturnsUint256",
      "type": "event"
    },
    {
      "anonymous": false,
      "inputs": [
        {
          "indexed": false,
          "name": "__address",
          "type": "address"
        }
      ],
      "name": "ByteEventReturnsAddress",
      "type": "event"
    },
    {
      "anonymous": false,
      "inputs": [
        {
          "indexed": false,
          "name": "__byte",
          "type": "bytes1"
        }
      ],
      "name": "ByteEventReturnsByte",
      "type": "event"
    },
    {
      "anonymous": false,
      "inputs": [
        {
          "indexed": false,
          "name": "__bytes1",
          "type": "bytes1"
        }
      ],
      "name": "ByteEventReturnsBytes1",
      "type": "event"
    },
    {
      "anonymous": false,
      "inputs": [
        {
          "indexed": false,
          "name": "__bytes32",
          "type": "bytes32"
        }
      ],
      "name": "ByteEventReturnsBytes32",
      "type": "event"
    },
    {
      "anonymous": false,
      "inputs": [
        {
          "indexed": false,
          "name": "__bytes",
          "type": "bytes"
        }
      ],
      "name": "ByteEventReturnsBytes",
      "type": "event"
    },
    {
      "anonymous": false,
      "inputs": [
        {
          "indexed": false,
          "name": "__string",
          "type": "string"
        }
      ],
      "name": "ByteEventReturnsString",
      "type": "event"
    },
    {
      "anonymous": false,
      "inputs": [
        {
          "indexed": false,
          "name": "__bool",
          "type": "bool"
        }
      ],
      "name": "Bytes1EventReturnsBool",
      "type": "event"
    },
    {
      "anonymous": false,
      "inputs": [
        {
          "indexed": false,
          "name": "__int",
          "type": "int256"
        }
      ],
      "name": "Bytes1EventReturnsInt",
      "type": "event"
    },
    {
      "anonymous": false,
      "inputs": [
        {
          "indexed": false,
          "name": "__int8",
          "type": "int8"
        }
      ],
      "name": "Bytes1EventReturnsInt8",
      "type": "event"
    },
    {
      "anonymous": false,
      "inputs": [
        {
          "indexed": false,
          "name": "__int256",
          "type": "int256"
        }
      ],
      "name": "Bytes1EventReturnsInt256",
      "type": "event"
    },
    {
      "anonymous": false,
      "inputs": [
        {
          "indexed": false,
          "name": "__uint",
          "type": "uint256"
        }
      ],
      "name": "Bytes1EventReturnsUint",
      "type": "event"
    },
    {
      "anonymous": false,
      "inputs": [
        {
          "indexed": false,
          "name": "__uint8",
          "type": "uint8"
        }
      ],
      "name": "Bytes1EventReturnsUint8",
      "type": "event"
    },
    {
      "anonymous": false,
      "inputs": [
        {
          "indexed": false,
          "name": "__uint256",
          "type": "uint256"
        }
      ],
      "name": "Bytes1EventReturnsUint256",
      "type": "event"
    },
    {
      "anonymous": false,
      "inputs": [
        {
          "indexed": false,
          "name": "__address",
          "type": "address"
        }
      ],
      "name": "Bytes1EventReturnsAddress",
      "type": "event"
    },
    {
      "anonymous": false,
      "inputs": [
        {
          "indexed": false,
          "name": "__byte",
          "type": "bytes1"
        }
      ],
      "name": "Bytes1EventReturnsByte",
      "type": "event"
    },
    {
      "anonymous": false,
      "inputs": [
        {
          "indexed": false,
          "name": "__bytes1",
          "type": "bytes1"
        }
      ],
      "name": "Bytes1EventReturnsBytes1",
      "type": "event"
    },
    {
      "anonymous": false,
      "inputs": [
        {
          "indexed": false,
          "name": "__bytes32",
          "type": "bytes32"
        }
      ],
      "name": "Bytes1EventReturnsBytes32",
      "type": "event"
    },
    {
      "anonymous": false,
      "inputs": [
        {
          "indexed": false,
          "name": "__bytes",
          "type": "bytes"
        }
      ],
      "name": "Bytes1EventReturnsBytes",
      "type": "event"
    },
    {
      "anonymous": false,
      "inputs": [
        {
          "indexed": false,
          "name": "__string",
          "type": "string"
        }
      ],
      "name": "Bytes1EventReturnsString",
      "type": "event"
    },
    {
      "anonymous": false,
      "inputs": [
        {
          "indexed": false,
          "name": "__bool",
          "type": "bool"
        }
      ],
      "name": "Bytes32EventReturnsBool",
      "type": "event"
    },
    {
      "anonymous": false,
      "inputs": [
        {
          "indexed": false,
          "name": "__int",
          "type": "int256"
        }
      ],
      "name": "Bytes32EventReturnsInt",
      "type": "event"
    },
    {
      "anonymous": false,
      "inputs": [
        {
          "indexed": false,
          "name": "__int8",
          "type": "int8"
        }
      ],
      "name": "Bytes32EventReturnsInt8",
      "type": "event"
    },
    {
      "anonymous": false,
      "inputs": [
        {
          "indexed": false,
          "name": "__int256",
          "type": "int256"
        }
      ],
      "name": "Bytes32EventReturnsInt256",
      "type": "event"
    },
    {
      "anonymous": false,
      "inputs": [
        {
          "indexed": false,
          "name": "__uint",
          "type": "uint256"
        }
      ],
      "name": "Bytes32EventReturnsUint",
      "type": "event"
    },
    {
      "anonymous": false,
      "inputs": [
        {
          "indexed": false,
          "name": "__uint8",
          "type": "uint8"
        }
      ],
      "name": "Bytes32EventReturnsUint8",
      "type": "event"
    },
    {
      "anonymous": false,
      "inputs": [
        {
          "indexed": false,
          "name": "__uint256",
          "type": "uint256"
        }
      ],
      "name": "Bytes32EventReturnsUint256",
      "type": "event"
    },
    {
      "anonymous": false,
      "inputs": [
        {
          "indexed": false,
          "name": "__address",
          "type": "address"
        }
      ],
      "name": "Bytes32EventReturnsAddress",
      "type": "event"
    },
    {
      "anonymous": false,
      "inputs": [
        {
          "indexed": false,
          "name": "__byte",
          "type": "bytes1"
        }
      ],
      "name": "Bytes32EventReturnsByte",
      "type": "event"
    },
    {
      "anonymous": false,
      "inputs": [
        {
          "indexed": false,
          "name": "__bytes1",
          "type": "bytes1"
        }
      ],
      "name": "Bytes32EventReturnsBytes1",
      "type": "event"
    },
    {
      "anonymous": false,
      "inputs": [
        {
          "indexed": false,
          "name": "__bytes32",
          "type": "bytes32"
        }
      ],
      "name": "Bytes32EventReturnsBytes32",
      "type": "event"
    },
    {
      "anonymous": false,
      "inputs": [
        {
          "indexed": false,
          "name": "__bytes",
          "type": "bytes"
        }
      ],
      "name": "Bytes32EventReturnsBytes",
      "type": "event"
    },
    {
      "anonymous": false,
      "inputs": [
        {
          "indexed": false,
          "name": "__string",
          "type": "string"
        }
      ],
      "name": "Bytes32EventReturnsString",
      "type": "event"
    },
    {
      "anonymous": false,
      "inputs": [
        {
          "indexed": false,
          "name": "__bool",
          "type": "bool"
        }
      ],
      "name": "BytesEventReturnsBool",
      "type": "event"
    },
    {
      "anonymous": false,
      "inputs": [
        {
          "indexed": false,
          "name": "__int",
          "type": "int256"
        }
      ],
      "name": "BytesEventReturnsInt",
      "type": "event"
    },
    {
      "anonymous": false,
      "inputs": [
        {
          "indexed": false,
          "name": "__int8",
          "type": "int8"
        }
      ],
      "name": "BytesEventReturnsInt8",
      "type": "event"
    },
    {
      "anonymous": false,
      "inputs": [
        {
          "indexed": false,
          "name": "__int256",
          "type": "int256"
        }
      ],
      "name": "BytesEventReturnsInt256",
      "type": "event"
    },
    {
      "anonymous": false,
      "inputs": [
        {
          "indexed": false,
          "name": "__uint",
          "type": "uint256"
        }
      ],
      "name": "BytesEventReturnsUint",
      "type": "event"
    },
    {
      "anonymous": false,
      "inputs": [
        {
          "indexed": false,
          "name": "__uint8",
          "type": "uint8"
        }
      ],
      "name": "BytesEventReturnsUint8",
      "type": "event"
    },
    {
      "anonymous": false,
      "inputs": [
        {
          "indexed": false,
          "name": "__uint256",
          "type": "uint256"
        }
      ],
      "name": "BytesEventReturnsUint256",
      "type": "event"
    },
    {
      "anonymous": false,
      "inputs": [
        {
          "indexed": false,
          "name": "__address",
          "type": "address"
        }
      ],
      "name": "BytesEventReturnsAddress",
      "type": "event"
    },
    {
      "anonymous": false,
      "inputs": [
        {
          "indexed": false,
          "name": "__byte",
          "type": "bytes1"
        }
      ],
      "name": "BytesEventReturnsByte",
      "type": "event"
    },
    {
      "anonymous": false,
      "inputs": [
        {
          "indexed": false,
          "name": "__bytes1",
          "type": "bytes1"
        }
      ],
      "name": "BytesEventReturnsBytes1",
      "type": "event"
    },
    {
      "anonymous": false,
      "inputs": [
        {
          "indexed": false,
          "name": "__bytes32",
          "type": "bytes32"
        }
      ],
      "name": "BytesEventReturnsBytes32",
      "type": "event"
    },
    {
      "anonymous": false,
      "inputs": [
        {
          "indexed": false,
          "name": "__bytes",
          "type": "bytes"
        }
      ],
      "name": "BytesEventReturnsBytes",
      "type": "event"
    },
    {
      "anonymous": false,
      "inputs": [
        {
          "indexed": false,
          "name": "__string",
          "type": "string"
        }
      ],
      "name": "BytesEventReturnsString",
      "type": "event"
    },
    {
      "anonymous": false,
      "inputs": [
        {
          "indexed": false,
          "name": "__bool",
          "type": "bool"
        }
      ],
      "name": "StringEventReturnsBool",
      "type": "event"
    },
    {
      "anonymous": false,
      "inputs": [
        {
          "indexed": false,
          "name": "__int",
          "type": "int256"
        }
      ],
      "name": "StringEventReturnsInt",
      "type": "event"
    },
    {
      "anonymous": false,
      "inputs": [
        {
          "indexed": false,
          "name": "__int8",
          "type": "int8"
        }
      ],
      "name": "StringEventReturnsInt8",
      "type": "event"
    },
    {
      "anonymous": false,
      "inputs": [
        {
          "indexed": false,
          "name": "__int256",
          "type": "int256"
        }
      ],
      "name": "StringEventReturnsInt256",
      "type": "event"
    },
    {
      "anonymous": false,
      "inputs": [
        {
          "indexed": false,
          "name": "__uint",
          "type": "uint256"
        }
      ],
      "name": "StringEventReturnsUint",
      "type": "event"
    },
    {
      "anonymous": false,
      "inputs": [
        {
          "indexed": false,
          "name": "__uint8",
          "type": "uint8"
        }
      ],
      "name": "StringEventReturnsUint8",
      "type": "event"
    },
    {
      "anonymous": false,
      "inputs": [
        {
          "indexed": false,
          "name": "__uint256",
          "type": "uint256"
        }
      ],
      "name": "StringEventReturnsUint256",
      "type": "event"
    },
    {
      "anonymous": false,
      "inputs": [
        {
          "indexed": false,
          "name": "__address",
          "type": "address"
        }
      ],
      "name": "StringEventReturnsAddress",
      "type": "event"
    },
    {
      "anonymous": false,
      "inputs": [
        {
          "indexed": false,
          "name": "__byte",
          "type": "bytes1"
        }
      ],
      "name": "StringEventReturnsByte",
      "type": "event"
    },
    {
      "anonymous": false,
      "inputs": [
        {
          "indexed": false,
          "name": "__bytes1",
          "type": "bytes1"
        }
      ],
      "name": "StringEventReturnsBytes1",
      "type": "event"
    },
    {
      "anonymous": false,
      "inputs": [
        {
          "indexed": false,
          "name": "__bytes32",
          "type": "bytes32"
        }
      ],
      "name": "StringEventReturnsBytes32",
      "type": "event"
    },
    {
      "anonymous": false,
      "inputs": [
        {
          "indexed": false,
          "name": "__bytes",
          "type": "bytes"
        }
      ],
      "name": "StringEventReturnsBytes",
      "type": "event"
    },
    {
      "anonymous": false,
      "inputs": [
        {
          "indexed": false,
          "name": "__string",
          "type": "string"
        }
      ],
      "name": "StringEventReturnsString",
      "type": "event"
    },
    {
      "constant": true,
      "inputs": [
        {
          "name": "_bool",
          "type": "bool"
        }
      ],
      "name": "boolFunctionReturnsBool",
      "outputs": [
        {
          "name": "__bool",
          "type": "bool"
        }
      ],
      "payable": false,
      "stateMutability": "view",
      "type": "function"
    },
    {
      "constant": true,
      "inputs": [
        {
          "name": "_bool",
          "type": "bool"
        }
      ],
      "name": "boolFunctionReturnsInt",
      "outputs": [
        {
          "name": "__int",
          "type": "int256"
        }
      ],
      "payable": false,
      "stateMutability": "view",
      "type": "function"
    },
    {
      "constant": true,
      "inputs": [
        {
          "name": "_bool",
          "type": "bool"
        }
      ],
      "name": "boolFunctionReturnsInt8",
      "outputs": [
        {
          "name": "__int8",
          "type": "int8"
        }
      ],
      "payable": false,
      "stateMutability": "view",
      "type": "function"
    },
    {
      "constant": true,
      "inputs": [
        {
          "name": "_bool",
          "type": "bool"
        }
      ],
      "name": "boolFunctionReturnsInt256",
      "outputs": [
        {
          "name": "__int256",
          "type": "int256"
        }
      ],
      "payable": false,
      "stateMutability": "view",
      "type": "function"
    },
    {
      "constant": true,
      "inputs": [
        {
          "name": "_bool",
          "type": "bool"
        }
      ],
      "name": "boolFunctionReturnsUint",
      "outputs": [
        {
          "name": "__uint",
          "type": "uint256"
        }
      ],
      "payable": false,
      "stateMutability": "view",
      "type": "function"
    },
    {
      "constant": true,
      "inputs": [
        {
          "name": "_bool",
          "type": "bool"
        }
      ],
      "name": "boolFunctionReturnsUint8",
      "outputs": [
        {
          "name": "__uint8",
          "type": "uint8"
        }
      ],
      "payable": false,
      "stateMutability": "view",
      "type": "function"
    },
    {
      "constant": true,
      "inputs": [
        {
          "name": "_bool",
          "type": "bool"
        }
      ],
      "name": "boolFunctionReturnsUint256",
      "outputs": [
        {
          "name": "__uint256",
          "type": "uint256"
        }
      ],
      "payable": false,
      "stateMutability": "view",
      "type": "function"
    },
    {
      "constant": true,
      "inputs": [
        {
          "name": "_bool",
          "type": "bool"
        }
      ],
      "name": "boolFunctionReturnsAddress",
      "outputs": [
        {
          "name": "__address",
          "type": "address"
        }
      ],
      "payable": false,
      "stateMutability": "view",
      "type": "function"
    },
    {
      "constant": true,
      "inputs": [
        {
          "name": "_bool",
          "type": "bool"
        }
      ],
      "name": "boolFunctionReturnsByte",
      "outputs": [
        {
          "name": "__byte",
          "type": "bytes1"
        }
      ],
      "payable": false,
      "stateMutability": "view",
      "type": "function"
    },
    {
      "constant": true,
      "inputs": [
        {
          "name": "_bool",
          "type": "bool"
        }
      ],
      "name": "boolFunctionReturnsBytes1",
      "outputs": [
        {
          "name": "__bytes1",
          "type": "bytes1"
        }
      ],
      "payable": false,
      "stateMutability": "view",
      "type": "function"
    },
    {
      "constant": true,
      "inputs": [
        {
          "name": "_bool",
          "type": "bool"
        }
      ],
      "name": "boolFunctionReturnsBytes32",
      "outputs": [
        {
          "name": "__bytes32",
          "type": "bytes32"
        }
      ],
      "payable": false,
      "stateMutability": "view",
      "type": "function"
    },
    {
      "constant": true,
      "inputs": [
        {
          "name": "_bool",
          "type": "bool"
        }
      ],
      "name": "boolFunctionReturnsBytes",
      "outputs": [
        {
          "name": "__bytes",
          "type": "bytes"
        }
      ],
      "payable": false,
      "stateMutability": "view",
      "type": "function"
    },
    {
      "constant": true,
      "inputs": [
        {
          "name": "_bool",
          "type": "bool"
        }
      ],
      "name": "boolFunctionReturnsString",
      "outputs": [
        {
          "name": "__string",
          "type": "string"
        }
      ],
      "payable": false,
      "stateMutability": "view",
      "type": "function"
    },
    {
      "constant": true,
      "inputs": [
        {
          "name": "_bool",
          "type": "bool"
        },
        {
          "name": "__uint256",
          "type": "uint256"
        }
      ],
      "name": "boolUint256FunctionReturnsBoolUint256",
      "outputs": [
        {
          "name": "__bool",
          "type": "bool"
        },
        {
          "name": "_uint256_",
          "type": "uint256"
        }
      ],
      "payable": false,
      "stateMutability": "view",
      "type": "function"
    },
    {
      "constant": true,
      "inputs": [
        {
          "name": "_int",
          "type": "int256"
        }
      ],
      "name": "intFunctionReturnsBool",
      "outputs": [
        {
          "name": "__bool",
          "type": "bool"
        }
      ],
      "payable": false,
      "stateMutability": "view",
      "type": "function"
    },
    {
      "constant": true,
      "inputs": [
        {
          "name": "_int",
          "type": "int256"
        }
      ],
      "name": "intFunctionReturnsInt",
      "outputs": [
        {
          "name": "__int",
          "type": "int256"
        }
      ],
      "payable": false,
      "stateMutability": "view",
      "type": "function"
    },
    {
      "constant": true,
      "inputs": [
        {
          "name": "_int",
          "type": "int256"
        }
      ],
      "name": "intFunctionReturnsInt8",
      "outputs": [
        {
          "name": "__int8",
          "type": "int8"
        }
      ],
      "payable": false,
      "stateMutability": "view",
      "type": "function"
    },
    {
      "constant": true,
      "inputs": [
        {
          "name": "_int",
          "type": "int256"
        }
      ],
      "name": "intFunctionReturnsInt256",
      "outputs": [
        {
          "name": "__int256",
          "type": "int256"
        }
      ],
      "payable": false,
      "stateMutability": "view",
      "type": "function"
    },
    {
      "constant": true,
      "inputs": [
        {
          "name": "_int",
          "type": "int256"
        }
      ],
      "name": "intFunctionReturnsUint",
      "outputs": [
        {
          "name": "__uint",
          "type": "uint256"
        }
      ],
      "payable": false,
      "stateMutability": "view",
      "type": "function"
    },
    {
      "constant": true,
      "inputs": [
        {
          "name": "_int",
          "type": "int256"
        }
      ],
      "name": "intFunctionReturnsUint8",
      "outputs": [
        {
          "name": "__uint8",
          "type": "uint8"
        }
      ],
      "payable": false,
      "stateMutability": "view",
      "type": "function"
    },
    {
      "constant": true,
      "inputs": [
        {
          "name": "_int",
          "type": "int256"
        }
      ],
      "name": "intFunctionReturnsUint256",
      "outputs": [
        {
          "name": "__uint256",
          "type": "uint256"
        }
      ],
      "payable": false,
      "stateMutability": "view",
      "type": "function"
    },
    {
      "constant": true,
      "inputs": [
        {
          "name": "_int",
          "type": "int256"
        }
      ],
      "name": "intFunctionReturnsAddress",
      "outputs": [
        {
          "name": "__address",
          "type": "address"
        }
      ],
      "payable": false,
      "stateMutability": "view",
      "type": "function"
    },
    {
      "constant": true,
      "inputs": [
        {
          "name": "_int",
          "type": "int256"
        }
      ],
      "name": "intFunctionReturnsByte",
      "outputs": [
        {
          "name": "__byte",
          "type": "bytes1"
        }
      ],
      "payable": false,
      "stateMutability": "view",
      "type": "function"
    },
    {
      "constant": true,
      "inputs": [
        {
          "name": "_int",
          "type": "int256"
        }
      ],
      "name": "intFunctionReturnsBytes1",
      "outputs": [
        {
          "name": "__bytes1",
          "type": "bytes1"
        }
      ],
      "payable": false,
      "stateMutability": "view",
      "type": "function"
    },
    {
      "constant": true,
      "inputs": [
        {
          "name": "_int",
          "type": "int256"
        }
      ],
      "name": "intFunctionReturnsBytes32",
      "outputs": [
        {
          "name": "__bytes32",
          "type": "bytes32"
        }
      ],
      "payable": false,
      "stateMutability": "view",
      "type": "function"
    },
    {
      "constant": true,
      "inputs": [
        {
          "name": "_int",
          "type": "int256"
        }
      ],
      "name": "intFunctionReturnsBytes",
      "outputs": [
        {
          "name": "__bytes",
          "type": "bytes"
        }
      ],
      "payable": false,
      "stateMutability": "view",
      "type": "function"
    },
    {
      "constant": true,
      "inputs": [
        {
          "name": "_int",
          "type": "int256"
        }
      ],
      "name": "intFunctionReturnsString",
      "outputs": [
        {
          "name": "__string",
          "type": "string"
        }
      ],
      "payable": false,
      "stateMutability": "view",
      "type": "function"
    },
    {
      "constant": true,
      "inputs": [
        {
          "name": "_int",
          "type": "int256"
        },
        {
          "name": "__bytes32",
          "type": "bytes32"
        }
      ],
      "name": "intBytes32FunctionReturnsIntBytes32",
      "outputs": [
        {
          "name": "__int",
          "type": "int256"
        },
        {
          "name": "_bytes32_",
          "type": "bytes32"
        }
      ],
      "payable": false,
      "stateMutability": "view",
      "type": "function"
    },
    {
      "constant": true,
      "inputs": [
        {
          "name": "_int8",
          "type": "int8"
        }
      ],
      "name": "int8FunctionReturnsBool",
      "outputs": [
        {
          "name": "__bool",
          "type": "bool"
        }
      ],
      "payable": false,
      "stateMutability": "view",
      "type": "function"
    },
    {
      "constant": true,
      "inputs": [
        {
          "name": "_int8",
          "type": "int8"
        }
      ],
      "name": "int8FunctionReturnsInt",
      "outputs": [
        {
          "name": "__int",
          "type": "int256"
        }
      ],
      "payable": false,
      "stateMutability": "view",
      "type": "function"
    },
    {
      "constant": true,
      "inputs": [
        {
          "name": "_int8",
          "type": "int8"
        }
      ],
      "name": "int8FunctionReturnsInt8",
      "outputs": [
        {
          "name": "__int8",
          "type": "int8"
        }
      ],
      "payable": false,
      "stateMutability": "view",
      "type": "function"
    },
    {
      "constant": true,
      "inputs": [
        {
          "name": "_int8",
          "type": "int8"
        }
      ],
      "name": "int8FunctionReturnsInt256",
      "outputs": [
        {
          "name": "__int256",
          "type": "int256"
        }
      ],
      "payable": false,
      "stateMutability": "view",
      "type": "function"
    },
    {
      "constant": true,
      "inputs": [
        {
          "name": "_int8",
          "type": "int8"
        }
      ],
      "name": "int8FunctionReturnsUint",
      "outputs": [
        {
          "name": "__uint",
          "type": "uint256"
        }
      ],
      "payable": false,
      "stateMutability": "view",
      "type": "function"
    },
    {
      "constant": true,
      "inputs": [
        {
          "name": "_int8",
          "type": "int8"
        }
      ],
      "name": "int8FunctionReturnsUint8",
      "outputs": [
        {
          "name": "__uint8",
          "type": "uint8"
        }
      ],
      "payable": false,
      "stateMutability": "view",
      "type": "function"
    },
    {
      "constant": true,
      "inputs": [
        {
          "name": "_int8",
          "type": "int8"
        }
      ],
      "name": "int8FunctionReturnsUint256",
      "outputs": [
        {
          "name": "__uint256",
          "type": "uint256"
        }
      ],
      "payable": false,
      "stateMutability": "view",
      "type": "function"
    },
    {
      "constant": true,
      "inputs": [
        {
          "name": "_int8",
          "type": "int8"
        }
      ],
      "name": "int8FunctionReturnsAddress",
      "outputs": [
        {
          "name": "__address",
          "type": "address"
        }
      ],
      "payable": false,
      "stateMutability": "view",
      "type": "function"
    },
    {
      "constant": true,
      "inputs": [
        {
          "name": "_int8",
          "type": "int8"
        }
      ],
      "name": "int8FunctionReturnsByte",
      "outputs": [
        {
          "name": "__byte",
          "type": "bytes1"
        }
      ],
      "payable": false,
      "stateMutability": "view",
      "type": "function"
    },
    {
      "constant": true,
      "inputs": [
        {
          "name": "_int8",
          "type": "int8"
        }
      ],
      "name": "int8FunctionReturnsBytes1",
      "outputs": [
        {
          "name": "__bytes1",
          "type": "bytes1"
        }
      ],
      "payable": false,
      "stateMutability": "view",
      "type": "function"
    },
    {
      "constant": true,
      "inputs": [
        {
          "name": "_int8",
          "type": "int8"
        }
      ],
      "name": "int8FunctionReturnsBytes32",
      "outputs": [
        {
          "name": "__bytes32",
          "type": "bytes32"
        }
      ],
      "payable": false,
      "stateMutability": "view",
      "type": "function"
    },
    {
      "constant": true,
      "inputs": [
        {
          "name": "_int8",
          "type": "int8"
        }
      ],
      "name": "int8FunctionReturnsBytes",
      "outputs": [
        {
          "name": "__bytes",
          "type": "bytes"
        }
      ],
      "payable": false,
      "stateMutability": "view",
      "type": "function"
    },
    {
      "constant": true,
      "inputs": [
        {
          "name": "_int8",
          "type": "int8"
        }
      ],
      "name": "int8FunctionReturnsString",
      "outputs": [
        {
          "name": "__string",
          "type": "string"
        }
      ],
      "payable": false,
      "stateMutability": "view",
      "type": "function"
    },
    {
      "constant": true,
      "inputs": [
        {
          "name": "_int8",
          "type": "int8"
        },
        {
          "name": "__bytes32",
          "type": "bytes32"
        }
      ],
      "name": "int8Bytes32FunctionReturnsInt8Bytes32",
      "outputs": [
        {
          "name": "__int8",
          "type": "int8"
        },
        {
          "name": "_bytes32_",
          "type": "bytes32"
        }
      ],
      "payable": false,
      "stateMutability": "view",
      "type": "function"
    },
    {
      "constant": true,
      "inputs": [
        {
          "name": "_int256",
          "type": "int256"
        }
      ],
      "name": "int256FunctionReturnsBool",
      "outputs": [
        {
          "name": "__bool",
          "type": "bool"
        }
      ],
      "payable": false,
      "stateMutability": "view",
      "type": "function"
    },
    {
      "constant": true,
      "inputs": [
        {
          "name": "_int256",
          "type": "int256"
        }
      ],
      "name": "int256FunctionReturnsInt",
      "outputs": [
        {
          "name": "__int",
          "type": "int256"
        }
      ],
      "payable": false,
      "stateMutability": "view",
      "type": "function"
    },
    {
      "constant": true,
      "inputs": [
        {
          "name": "_int256",
          "type": "int256"
        }
      ],
      "name": "int256FunctionReturnsInt8",
      "outputs": [
        {
          "name": "__int8",
          "type": "int8"
        }
      ],
      "payable": false,
      "stateMutability": "view",
      "type": "function"
    },
    {
      "constant": true,
      "inputs": [
        {
          "name": "_int256",
          "type": "int256"
        }
      ],
      "name": "int256FunctionReturnsInt256",
      "outputs": [
        {
          "name": "__int256",
          "type": "int256"
        }
      ],
      "payable": false,
      "stateMutability": "view",
      "type": "function"
    },
    {
      "constant": true,
      "inputs": [
        {
          "name": "_int256",
          "type": "int256"
        }
      ],
      "name": "int256FunctionReturnsUint",
      "outputs": [
        {
          "name": "__uint",
          "type": "uint256"
        }
      ],
      "payable": false,
      "stateMutability": "view",
      "type": "function"
    },
    {
      "constant": true,
      "inputs": [
        {
          "name": "_int256",
          "type": "int256"
        }
      ],
      "name": "int256FunctionReturnsUint8",
      "outputs": [
        {
          "name": "__uint8",
          "type": "uint8"
        }
      ],
      "payable": false,
      "stateMutability": "view",
      "type": "function"
    },
    {
      "constant": true,
      "inputs": [
        {
          "name": "_int256",
          "type": "int256"
        }
      ],
      "name": "int256FunctionReturnsUint256",
      "outputs": [
        {
          "name": "__uint256",
          "type": "uint256"
        }
      ],
      "payable": false,
      "stateMutability": "view",
      "type": "function"
    },
    {
      "constant": true,
      "inputs": [
        {
          "name": "_int256",
          "type": "int256"
        }
      ],
      "name": "int256FunctionReturnsAddress",
      "outputs": [
        {
          "name": "__address",
          "type": "address"
        }
      ],
      "payable": false,
      "stateMutability": "view",
      "type": "function"
    },
    {
      "constant": true,
      "inputs": [
        {
          "name": "_int256",
          "type": "int256"
        }
      ],
      "name": "int256FunctionReturnsByte",
      "outputs": [
        {
          "name": "__byte",
          "type": "bytes1"
        }
      ],
      "payable": false,
      "stateMutability": "view",
      "type": "function"
    },
    {
      "constant": true,
      "inputs": [
        {
          "name": "_int256",
          "type": "int256"
        }
      ],
      "name": "int256FunctionReturnsBytes1",
      "outputs": [
        {
          "name": "__bytes1",
          "type": "bytes1"
        }
      ],
      "payable": false,
      "stateMutability": "view",
      "type": "function"
    },
    {
      "constant": true,
      "inputs": [
        {
          "name": "_int256",
          "type": "int256"
        }
      ],
      "name": "int256FunctionReturnsBytes32",
      "outputs": [
        {
          "name": "__bytes32",
          "type": "bytes32"
        }
      ],
      "payable": false,
      "stateMutability": "view",
      "type": "function"
    },
    {
      "constant": true,
      "inputs": [
        {
          "name": "_int256",
          "type": "int256"
        }
      ],
      "name": "int256FunctionReturnsBytes",
      "outputs": [
        {
          "name": "__bytes",
          "type": "bytes"
        }
      ],
      "payable": false,
      "stateMutability": "view",
      "type": "function"
    },
    {
      "constant": true,
      "inputs": [
        {
          "name": "_int256",
          "type": "int256"
        }
      ],
      "name": "int256FunctionReturnsString",
      "outputs": [
        {
          "name": "__string",
          "type": "string"
        }
      ],
      "payable": false,
      "stateMutability": "view",
      "type": "function"
    },
    {
      "constant": true,
      "inputs": [
        {
          "name": "_int256",
          "type": "int256"
        },
        {
          "name": "__uint8",
          "type": "uint8"
        }
      ],
      "name": "int256Uint8FunctionReturnsInt256Uint8",
      "outputs": [
        {
          "name": "__int256",
          "type": "int256"
        },
        {
          "name": "_uint8_",
          "type": "uint8"
        }
      ],
      "payable": false,
      "stateMutability": "view",
      "type": "function"
    },
    {
      "constant": true,
      "inputs": [
        {
          "name": "_uint",
          "type": "uint256"
        }
      ],
      "name": "uintFunctionReturnsBool",
      "outputs": [
        {
          "name": "__bool",
          "type": "bool"
        }
      ],
      "payable": false,
      "stateMutability": "view",
      "type": "function"
    },
    {
      "constant": true,
      "inputs": [
        {
          "name": "_uint",
          "type": "uint256"
        }
      ],
      "name": "uintFunctionReturnsInt",
      "outputs": [
        {
          "name": "__int",
          "type": "int256"
        }
      ],
      "payable": false,
      "stateMutability": "view",
      "type": "function"
    },
    {
      "constant": true,
      "inputs": [
        {
          "name": "_uint",
          "type": "uint256"
        }
      ],
      "name": "uintFunctionReturnsInt8",
      "outputs": [
        {
          "name": "__int8",
          "type": "int8"
        }
      ],
      "payable": false,
      "stateMutability": "view",
      "type": "function"
    },
    {
      "constant": true,
      "inputs": [
        {
          "name": "_uint",
          "type": "uint256"
        }
      ],
      "name": "uintFunctionReturnsInt256",
      "outputs": [
        {
          "name": "__int256",
          "type": "int256"
        }
      ],
      "payable": false,
      "stateMutability": "view",
      "type": "function"
    },
    {
      "constant": true,
      "inputs": [
        {
          "name": "_uint",
          "type": "uint256"
        }
      ],
      "name": "uintFunctionReturnsUint",
      "outputs": [
        {
          "name": "__uint",
          "type": "uint256"
        }
      ],
      "payable": false,
      "stateMutability": "view",
      "type": "function"
    },
    {
      "constant": true,
      "inputs": [
        {
          "name": "_uint",
          "type": "uint256"
        }
      ],
      "name": "uintFunctionReturnsUint8",
      "outputs": [
        {
          "name": "__uint8",
          "type": "uint8"
        }
      ],
      "payable": false,
      "stateMutability": "view",
      "type": "function"
    },
    {
      "constant": true,
      "inputs": [
        {
          "name": "_uint",
          "type": "uint256"
        }
      ],
      "name": "uintFunctionReturnsUint256",
      "outputs": [
        {
          "name": "__uint256",
          "type": "uint256"
        }
      ],
      "payable": false,
      "stateMutability": "view",
      "type": "function"
    },
    {
      "constant": true,
      "inputs": [
        {
          "name": "_uint",
          "type": "uint256"
        }
      ],
      "name": "uintFunctionReturnsAddress",
      "outputs": [
        {
          "name": "__address",
          "type": "address"
        }
      ],
      "payable": false,
      "stateMutability": "view",
      "type": "function"
    },
    {
      "constant": true,
      "inputs": [
        {
          "name": "_uint",
          "type": "uint256"
        }
      ],
      "name": "uintFunctionReturnsByte",
      "outputs": [
        {
          "name": "__byte",
          "type": "bytes1"
        }
      ],
      "payable": false,
      "stateMutability": "view",
      "type": "function"
    },
    {
      "constant": true,
      "inputs": [
        {
          "name": "_uint",
          "type": "uint256"
        }
      ],
      "name": "uintFunctionReturnsBytes1",
      "outputs": [
        {
          "name": "__bytes1",
          "type": "bytes1"
        }
      ],
      "payable": false,
      "stateMutability": "view",
      "type": "function"
    },
    {
      "constant": true,
      "inputs": [
        {
          "name": "_uint",
          "type": "uint256"
        }
      ],
      "name": "uintFunctionReturnsBytes32",
      "outputs": [
        {
          "name": "__bytes32",
          "type": "bytes32"
        }
      ],
      "payable": false,
      "stateMutability": "view",
      "type": "function"
    },
    {
      "constant": true,
      "inputs": [
        {
          "name": "_uint",
          "type": "uint256"
        }
      ],
      "name": "uintFunctionReturnsBytes",
      "outputs": [
        {
          "name": "__bytes",
          "type": "bytes"
        }
      ],
      "payable": false,
      "stateMutability": "view",
      "type": "function"
    },
    {
      "constant": true,
      "inputs": [
        {
          "name": "_uint",
          "type": "uint256"
        }
      ],
      "name": "uintFunctionReturnsString",
      "outputs": [
        {
          "name": "__string",
          "type": "string"
        }
      ],
      "payable": false,
      "stateMutability": "view",
      "type": "function"
    },
    {
      "constant": true,
      "inputs": [
        {
          "name": "_uint",
          "type": "uint256"
        },
        {
          "name": "__bool",
          "type": "bool"
        }
      ],
      "name": "uintBoolFunctionReturnsUintBool",
      "outputs": [
        {
          "name": "__uint",
          "type": "uint256"
        },
        {
          "name": "_bool_",
          "type": "bool"
        }
      ],
      "payable": false,
      "stateMutability": "view",
      "type": "function"
    },
    {
      "constant": true,
      "inputs": [
        {
          "name": "_uint8",
          "type": "uint8"
        }
      ],
      "name": "uint8FunctionReturnsBool",
      "outputs": [
        {
          "name": "__bool",
          "type": "bool"
        }
      ],
      "payable": false,
      "stateMutability": "view",
      "type": "function"
    },
    {
      "constant": true,
      "inputs": [
        {
          "name": "_uint8",
          "type": "uint8"
        }
      ],
      "name": "uint8FunctionReturnsInt",
      "outputs": [
        {
          "name": "__int",
          "type": "int256"
        }
      ],
      "payable": false,
      "stateMutability": "view",
      "type": "function"
    },
    {
      "constant": true,
      "inputs": [
        {
          "name": "_uint8",
          "type": "uint8"
        }
      ],
      "name": "uint8FunctionReturnsInt8",
      "outputs": [
        {
          "name": "__int8",
          "type": "int8"
        }
      ],
      "payable": false,
      "stateMutability": "view",
      "type": "function"
    },
    {
      "constant": true,
      "inputs": [
        {
          "name": "_uint8",
          "type": "uint8"
        }
      ],
      "name": "uint8FunctionReturnsInt256",
      "outputs": [
        {
          "name": "__int256",
          "type": "int256"
        }
      ],
      "payable": false,
      "stateMutability": "view",
      "type": "function"
    },
    {
      "constant": true,
      "inputs": [
        {
          "name": "_uint8",
          "type": "uint8"
        }
      ],
      "name": "uint8FunctionReturnsUint",
      "outputs": [
        {
          "name": "__uint",
          "type": "uint256"
        }
      ],
      "payable": false,
      "stateMutability": "view",
      "type": "function"
    },
    {
      "constant": true,
      "inputs": [
        {
          "name": "_uint8",
          "type": "uint8"
        }
      ],
      "name": "uint8FunctionReturnsUint8",
      "outputs": [
        {
          "name": "__uint8",
          "type": "uint8"
        }
      ],
      "payable": false,
      "stateMutability": "view",
      "type": "function"
    },
    {
      "constant": true,
      "inputs": [
        {
          "name": "_uint8",
          "type": "uint8"
        }
      ],
      "name": "uint8FunctionReturnsUint256",
      "outputs": [
        {
          "name": "__uint256",
          "type": "uint256"
        }
      ],
      "payable": false,
      "stateMutability": "view",
      "type": "function"
    },
    {
      "constant": true,
      "inputs": [
        {
          "name": "_uint8",
          "type": "uint8"
        }
      ],
      "name": "uint8FunctionReturnsAddress",
      "outputs": [
        {
          "name": "__address",
          "type": "address"
        }
      ],
      "payable": false,
      "stateMutability": "view",
      "type": "function"
    },
    {
      "constant": true,
      "inputs": [
        {
          "name": "_uint8",
          "type": "uint8"
        }
      ],
      "name": "uint8FunctionReturnsByte",
      "outputs": [
        {
          "name": "__byte",
          "type": "bytes1"
        }
      ],
      "payable": false,
      "stateMutability": "view",
      "type": "function"
    },
    {
      "constant": true,
      "inputs": [
        {
          "name": "_uint8",
          "type": "uint8"
        }
      ],
      "name": "uint8FunctionReturnsBytes1",
      "outputs": [
        {
          "name": "__bytes1",
          "type": "bytes1"
        }
      ],
      "payable": false,
      "stateMutability": "view",
      "type": "function"
    },
    {
      "constant": true,
      "inputs": [
        {
          "name": "_uint8",
          "type": "uint8"
        }
      ],
      "name": "uint8FunctionReturnsBytes32",
      "outputs": [
        {
          "name": "__bytes32",
          "type": "bytes32"
        }
      ],
      "payable": false,
      "stateMutability": "view",
      "type": "function"
    },
    {
      "constant": true,
      "inputs": [
        {
          "name": "_uint8",
          "type": "uint8"
        }
      ],
      "name": "uint8FunctionReturnsBytes",
      "outputs": [
        {
          "name": "__bytes",
          "type": "bytes"
        }
      ],
      "payable": false,
      "stateMutability": "view",
      "type": "function"
    },
    {
      "constant": true,
      "inputs": [
        {
          "name": "_uint8",
          "type": "uint8"
        }
      ],
      "name": "uint8FunctionReturnsString",
      "outputs": [
        {
          "name": "__string",
          "type": "string"
        }
      ],
      "payable": false,
      "stateMutability": "view",
      "type": "function"
    },
    {
      "constant": true,
      "inputs": [
        {
          "name": "_uint8",
          "type": "uint8"
        },
        {
          "name": "__string",
          "type": "string"
        }
      ],
      "name": "uint8StringFunctionReturnsUint8String",
      "outputs": [
        {
          "name": "__uint8",
          "type": "uint8"
        },
        {
          "name": "_string_",
          "type": "string"
        }
      ],
      "payable": false,
      "stateMutability": "view",
      "type": "function"
    },
    {
      "constant": true,
      "inputs": [
        {
          "name": "_uint256",
          "type": "uint256"
        }
      ],
      "name": "uint256FunctionReturnsBool",
      "outputs": [
        {
          "name": "__bool",
          "type": "bool"
        }
      ],
      "payable": false,
      "stateMutability": "view",
      "type": "function"
    },
    {
      "constant": true,
      "inputs": [
        {
          "name": "_uint256",
          "type": "uint256"
        }
      ],
      "name": "uint256FunctionReturnsInt",
      "outputs": [
        {
          "name": "__int",
          "type": "int256"
        }
      ],
      "payable": false,
      "stateMutability": "view",
      "type": "function"
    },
    {
      "constant": true,
      "inputs": [
        {
          "name": "_uint256",
          "type": "uint256"
        }
      ],
      "name": "uint256FunctionReturnsInt8",
      "outputs": [
        {
          "name": "__int8",
          "type": "int8"
        }
      ],
      "payable": false,
      "stateMutability": "view",
      "type": "function"
    },
    {
      "constant": true,
      "inputs": [
        {
          "name": "_uint256",
          "type": "uint256"
        }
      ],
      "name": "uint256FunctionReturnsInt256",
      "outputs": [
        {
          "name": "__int256",
          "type": "int256"
        }
      ],
      "payable": false,
      "stateMutability": "view",
      "type": "function"
    },
    {
      "constant": true,
      "inputs": [
        {
          "name": "_uint256",
          "type": "uint256"
        }
      ],
      "name": "uint256FunctionReturnsUint",
      "outputs": [
        {
          "name": "__uint",
          "type": "uint256"
        }
      ],
      "payable": false,
      "stateMutability": "view",
      "type": "function"
    },
    {
      "constant": true,
      "inputs": [
        {
          "name": "_uint256",
          "type": "uint256"
        }
      ],
      "name": "uint256FunctionReturnsUint8",
      "outputs": [
        {
          "name": "__uint8",
          "type": "uint8"
        }
      ],
      "payable": false,
      "stateMutability": "view",
      "type": "function"
    },
    {
      "constant": true,
      "inputs": [
        {
          "name": "_uint256",
          "type": "uint256"
        }
      ],
      "name": "uint256FunctionReturnsUint256",
      "outputs": [
        {
          "name": "__uint256",
          "type": "uint256"
        }
      ],
      "payable": false,
      "stateMutability": "view",
      "type": "function"
    },
    {
      "constant": true,
      "inputs": [
        {
          "name": "_uint256",
          "type": "uint256"
        }
      ],
      "name": "uint256FunctionReturnsAddress",
      "outputs": [
        {
          "name": "__address",
          "type": "address"
        }
      ],
      "payable": false,
      "stateMutability": "view",
      "type": "function"
    },
    {
      "constant": true,
      "inputs": [
        {
          "name": "_uint256",
          "type": "uint256"
        }
      ],
      "name": "uint256FunctionReturnsByte",
      "outputs": [
        {
          "name": "__byte",
          "type": "bytes1"
        }
      ],
      "payable": false,
      "stateMutability": "view",
      "type": "function"
    },
    {
      "constant": true,
      "inputs": [
        {
          "name": "_uint256",
          "type": "uint256"
        }
      ],
      "name": "uint256FunctionReturnsBytes1",
      "outputs": [
        {
          "name": "__bytes1",
          "type": "bytes1"
        }
      ],
      "payable": false,
      "stateMutability": "view",
      "type": "function"
    },
    {
      "constant": true,
      "inputs": [
        {
          "name": "_uint256",
          "type": "uint256"
        }
      ],
      "name": "uint256FunctionReturnsBytes32",
      "outputs": [
        {
          "name": "__bytes32",
          "type": "bytes32"
        }
      ],
      "payable": false,
      "stateMutability": "view",
      "type": "function"
    },
    {
      "constant": true,
      "inputs": [
        {
          "name": "_uint256",
          "type": "uint256"
        }
      ],
      "name": "uint256FunctionReturnsBytes",
      "outputs": [
        {
          "name": "__bytes",
          "type": "bytes"
        }
      ],
      "payable": false,
      "stateMutability": "view",
      "type": "function"
    },
    {
      "constant": true,
      "inputs": [
        {
          "name": "_uint256",
          "type": "uint256"
        }
      ],
      "name": "uint256FunctionReturnsString",
      "outputs": [
        {
          "name": "__string",
          "type": "string"
        }
      ],
      "payable": false,
      "stateMutability": "view",
      "type": "function"
    },
    {
      "constant": true,
      "inputs": [
        {
          "name": "_uint256",
          "type": "uint256"
        },
        {
          "name": "__string",
          "type": "string"
        }
      ],
      "name": "uint256StringFunctionReturnsUint256String",
      "outputs": [
        {
          "name": "__uint256",
          "type": "uint256"
        },
        {
          "name": "_string_",
          "type": "string"
        }
      ],
      "payable": false,
      "stateMutability": "view",
      "type": "function"
    },
    {
      "constant": true,
      "inputs": [
        {
          "name": "_address",
          "type": "address"
        }
      ],
      "name": "addressFunctionReturnsBool",
      "outputs": [
        {
          "name": "__bool",
          "type": "bool"
        }
      ],
      "payable": false,
      "stateMutability": "view",
      "type": "function"
    },
    {
      "constant": true,
      "inputs": [
        {
          "name": "_address",
          "type": "address"
        }
      ],
      "name": "addressFunctionReturnsInt",
      "outputs": [
        {
          "name": "__int",
          "type": "int256"
        }
      ],
      "payable": false,
      "stateMutability": "view",
      "type": "function"
    },
    {
      "constant": true,
      "inputs": [
        {
          "name": "_address",
          "type": "address"
        }
      ],
      "name": "addressFunctionReturnsInt8",
      "outputs": [
        {
          "name": "__int8",
          "type": "int8"
        }
      ],
      "payable": false,
      "stateMutability": "view",
      "type": "function"
    },
    {
      "constant": true,
      "inputs": [
        {
          "name": "_address",
          "type": "address"
        }
      ],
      "name": "addressFunctionReturnsInt256",
      "outputs": [
        {
          "name": "__int256",
          "type": "int256"
        }
      ],
      "payable": false,
      "stateMutability": "view",
      "type": "function"
    },
    {
      "constant": true,
      "inputs": [
        {
          "name": "_address",
          "type": "address"
        }
      ],
      "name": "addressFunctionReturnsUint",
      "outputs": [
        {
          "name": "__uint",
          "type": "uint256"
        }
      ],
      "payable": false,
      "stateMutability": "view",
      "type": "function"
    },
    {
      "constant": true,
      "inputs": [
        {
          "name": "_address",
          "type": "address"
        }
      ],
      "name": "addressFunctionReturnsUint8",
      "outputs": [
        {
          "name": "__uint8",
          "type": "uint8"
        }
      ],
      "payable": false,
      "stateMutability": "view",
      "type": "function"
    },
    {
      "constant": true,
      "inputs": [
        {
          "name": "_address",
          "type": "address"
        }
      ],
      "name": "addressFunctionReturnsUint256",
      "outputs": [
        {
          "name": "__uint256",
          "type": "uint256"
        }
      ],
      "payable": false,
      "stateMutability": "view",
      "type": "function"
    },
    {
      "constant": true,
      "inputs": [
        {
          "name": "_address",
          "type": "address"
        }
      ],
      "name": "addressFunctionReturnsAddress",
      "outputs": [
        {
          "name": "__address",
          "type": "address"
        }
      ],
      "payable": false,
      "stateMutability": "view",
      "type": "function"
    },
    {
      "constant": true,
      "inputs": [
        {
          "name": "_address",
          "type": "address"
        }
      ],
      "name": "addressFunctionReturnsByte",
      "outputs": [
        {
          "name": "__byte",
          "type": "bytes1"
        }
      ],
      "payable": false,
      "stateMutability": "view",
      "type": "function"
    },
    {
      "constant": true,
      "inputs": [
        {
          "name": "_address",
          "type": "address"
        }
      ],
      "name": "addressFunctionReturnsBytes1",
      "outputs": [
        {
          "name": "__bytes1",
          "type": "bytes1"
        }
      ],
      "payable": false,
      "stateMutability": "view",
      "type": "function"
    },
    {
      "constant": true,
      "inputs": [
        {
          "name": "_address",
          "type": "address"
        }
      ],
      "name": "addressFunctionReturnsBytes32",
      "outputs": [
        {
          "name": "__bytes32",
          "type": "bytes32"
        }
      ],
      "payable": false,
      "stateMutability": "view",
      "type": "function"
    },
    {
      "constant": true,
      "inputs": [
        {
          "name": "_address",
          "type": "address"
        }
      ],
      "name": "addressFunctionReturnsBytes",
      "outputs": [
        {
          "name": "__bytes",
          "type": "bytes"
        }
      ],
      "payable": false,
      "stateMutability": "view",
      "type": "function"
    },
    {
      "constant": true,
      "inputs": [
        {
          "name": "_address",
          "type": "address"
        }
      ],
      "name": "addressFunctionReturnsString",
      "outputs": [
        {
          "name": "__string",
          "type": "string"
        }
      ],
      "payable": false,
      "stateMutability": "view",
      "type": "function"
    },
    {
      "constant": true,
      "inputs": [
        {
          "name": "_address",
          "type": "address"
        },
        {
          "name": "__int",
          "type": "int256"
        }
      ],
      "name": "addressIntFunctionReturnsAddressInt",
      "outputs": [
        {
          "name": "__address",
          "type": "address"
        },
        {
          "name": "_int_",
          "type": "int256"
        }
      ],
      "payable": false,
      "stateMutability": "view",
      "type": "function"
    },
    {
      "constant": true,
      "inputs": [
        {
          "name": "_byte",
          "type": "bytes1"
        }
      ],
      "name": "byteFunctionReturnsBool",
      "outputs": [
        {
          "name": "__bool",
          "type": "bool"
        }
      ],
      "payable": false,
      "stateMutability": "view",
      "type": "function"
    },
    {
      "constant": true,
      "inputs": [
        {
          "name": "_byte",
          "type": "bytes1"
        }
      ],
      "name": "byteFunctionReturnsInt",
      "outputs": [
        {
          "name": "__int",
          "type": "int256"
        }
      ],
      "payable": false,
      "stateMutability": "view",
      "type": "function"
    },
    {
      "constant": true,
      "inputs": [
        {
          "name": "_byte",
          "type": "bytes1"
        }
      ],
      "name": "byteFunctionReturnsInt8",
      "outputs": [
        {
          "name": "__int8",
          "type": "int8"
        }
      ],
      "payable": false,
      "stateMutability": "view",
      "type": "function"
    },
    {
      "constant": true,
      "inputs": [
        {
          "name": "_byte",
          "type": "bytes1"
        }
      ],
      "name": "byteFunctionReturnsInt256",
      "outputs": [
        {
          "name": "__int256",
          "type": "int256"
        }
      ],
      "payable": false,
      "stateMutability": "view",
      "type": "function"
    },
    {
      "constant": true,
      "inputs": [
        {
          "name": "_byte",
          "type": "bytes1"
        }
      ],
      "name": "byteFunctionReturnsUint",
      "outputs": [
        {
          "name": "__uint",
          "type": "uint256"
        }
      ],
      "payable": false,
      "stateMutability": "view",
      "type": "function"
    },
    {
      "constant": true,
      "inputs": [
        {
          "name": "_byte",
          "type": "bytes1"
        }
      ],
      "name": "byteFunctionReturnsUint8",
      "outputs": [
        {
          "name": "__uint8",
          "type": "uint8"
        }
      ],
      "payable": false,
      "stateMutability": "view",
      "type": "function"
    },
    {
      "constant": true,
      "inputs": [
        {
          "name": "_byte",
          "type": "bytes1"
        }
      ],
      "name": "byteFunctionReturnsUint256",
      "outputs": [
        {
          "name": "__uint256",
          "type": "uint256"
        }
      ],
      "payable": false,
      "stateMutability": "view",
      "type": "function"
    },
    {
      "constant": true,
      "inputs": [
        {
          "name": "_byte",
          "type": "bytes1"
        }
      ],
      "name": "byteFunctionReturnsAddress",
      "outputs": [
        {
          "name": "__address",
          "type": "address"
        }
      ],
      "payable": false,
      "stateMutability": "view",
      "type": "function"
    },
    {
      "constant": true,
      "inputs": [
        {
          "name": "_byte",
          "type": "bytes1"
        }
      ],
      "name": "byteFunctionReturnsByte",
      "outputs": [
        {
          "name": "__byte",
          "type": "bytes1"
        }
      ],
      "payable": false,
      "stateMutability": "view",
      "type": "function"
    },
    {
      "constant": true,
      "inputs": [
        {
          "name": "_byte",
          "type": "bytes1"
        }
      ],
      "name": "byteFunctionReturnsBytes1",
      "outputs": [
        {
          "name": "__bytes1",
          "type": "bytes1"
        }
      ],
      "payable": false,
      "stateMutability": "view",
      "type": "function"
    },
    {
      "constant": true,
      "inputs": [
        {
          "name": "_byte",
          "type": "bytes1"
        }
      ],
      "name": "byteFunctionReturnsBytes32",
      "outputs": [
        {
          "name": "__bytes32",
          "type": "bytes32"
        }
      ],
      "payable": false,
      "stateMutability": "view",
      "type": "function"
    },
    {
      "constant": true,
      "inputs": [
        {
          "name": "_byte",
          "type": "bytes1"
        }
      ],
      "name": "byteFunctionReturnsBytes",
      "outputs": [
        {
          "name": "__bytes",
          "type": "bytes"
        }
      ],
      "payable": false,
      "stateMutability": "view",
      "type": "function"
    },
    {
      "constant": true,
      "inputs": [
        {
          "name": "_byte",
          "type": "bytes1"
        }
      ],
      "name": "byteFunctionReturnsString",
      "outputs": [
        {
          "name": "__string",
          "type": "string"
        }
      ],
      "payable": false,
      "stateMutability": "view",
      "type": "function"
    },
    {
      "constant": true,
      "inputs": [
        {
          "name": "_byte",
          "type": "bytes1"
        },
        {
          "name": "__bool",
          "type": "bool"
        }
      ],
      "name": "byteBoolFunctionReturnsByteBool",
      "outputs": [
        {
          "name": "__byte",
          "type": "bytes1"
        },
        {
          "name": "_bool_",
          "type": "bool"
        }
      ],
      "payable": false,
      "stateMutability": "view",
      "type": "function"
    },
    {
      "constant": true,
      "inputs": [
        {
          "name": "_bytes1",
          "type": "bytes1"
        }
      ],
      "name": "bytes1FunctionReturnsBool",
      "outputs": [
        {
          "name": "__bool",
          "type": "bool"
        }
      ],
      "payable": false,
      "stateMutability": "view",
      "type": "function"
    },
    {
      "constant": true,
      "inputs": [
        {
          "name": "_bytes1",
          "type": "bytes1"
        }
      ],
      "name": "bytes1FunctionReturnsInt",
      "outputs": [
        {
          "name": "__int",
          "type": "int256"
        }
      ],
      "payable": false,
      "stateMutability": "view",
      "type": "function"
    },
    {
      "constant": true,
      "inputs": [
        {
          "name": "_bytes1",
          "type": "bytes1"
        }
      ],
      "name": "bytes1FunctionReturnsInt8",
      "outputs": [
        {
          "name": "__int8",
          "type": "int8"
        }
      ],
      "payable": false,
      "stateMutability": "view",
      "type": "function"
    },
    {
      "constant": true,
      "inputs": [
        {
          "name": "_bytes1",
          "type": "bytes1"
        }
      ],
      "name": "bytes1FunctionReturnsInt256",
      "outputs": [
        {
          "name": "__int256",
          "type": "int256"
        }
      ],
      "payable": false,
      "stateMutability": "view",
      "type": "function"
    },
    {
      "constant": true,
      "inputs": [
        {
          "name": "_bytes1",
          "type": "bytes1"
        }
      ],
      "name": "bytes1FunctionReturnsUint",
      "outputs": [
        {
          "name": "__uint",
          "type": "uint256"
        }
      ],
      "payable": false,
      "stateMutability": "view",
      "type": "function"
    },
    {
      "constant": true,
      "inputs": [
        {
          "name": "_bytes1",
          "type": "bytes1"
        }
      ],
      "name": "bytes1FunctionReturnsUint8",
      "outputs": [
        {
          "name": "__uint8",
          "type": "uint8"
        }
      ],
      "payable": false,
      "stateMutability": "view",
      "type": "function"
    },
    {
      "constant": true,
      "inputs": [
        {
          "name": "_bytes1",
          "type": "bytes1"
        }
      ],
      "name": "bytes1FunctionReturnsUint256",
      "outputs": [
        {
          "name": "__uint256",
          "type": "uint256"
        }
      ],
      "payable": false,
      "stateMutability": "view",
      "type": "function"
    },
    {
      "constant": true,
      "inputs": [
        {
          "name": "_bytes1",
          "type": "bytes1"
        }
      ],
      "name": "bytes1FunctionReturnsAddress",
      "outputs": [
        {
          "name": "__address",
          "type": "address"
        }
      ],
      "payable": false,
      "stateMutability": "view",
      "type": "function"
    },
    {
      "constant": true,
      "inputs": [
        {
          "name": "_bytes1",
          "type": "bytes1"
        }
      ],
      "name": "bytes1FunctionReturnsByte",
      "outputs": [
        {
          "name": "__byte",
          "type": "bytes1"
        }
      ],
      "payable": false,
      "stateMutability": "view",
      "type": "function"
    },
    {
      "constant": true,
      "inputs": [
        {
          "name": "_bytes1",
          "type": "bytes1"
        }
      ],
      "name": "bytes1FunctionReturnsBytes1",
      "outputs": [
        {
          "name": "__bytes1",
          "type": "bytes1"
        }
      ],
      "payable": false,
      "stateMutability": "view",
      "type": "function"
    },
    {
      "constant": true,
      "inputs": [
        {
          "name": "_bytes1",
          "type": "bytes1"
        }
      ],
      "name": "bytes1FunctionReturnsBytes32",
      "outputs": [
        {
          "name": "__bytes32",
          "type": "bytes32"
        }
      ],
      "payable": false,
      "stateMutability": "view",
      "type": "function"
    },
    {
      "constant": true,
      "inputs": [
        {
          "name": "_bytes1",
          "type": "bytes1"
        }
      ],
      "name": "bytes1FunctionReturnsBytes",
      "outputs": [
        {
          "name": "__bytes",
          "type": "bytes"
        }
      ],
      "payable": false,
      "stateMutability": "view",
      "type": "function"
    },
    {
      "constant": true,
      "inputs": [
        {
          "name": "_bytes1",
          "type": "bytes1"
        }
      ],
      "name": "bytes1FunctionReturnsString",
      "outputs": [
        {
          "name": "__string",
          "type": "string"
        }
      ],
      "payable": false,
      "stateMutability": "view",
      "type": "function"
    },
    {
      "constant": true,
      "inputs": [
        {
          "name": "_bytes1",
          "type": "bytes1"
        },
        {
          "name": "__bytes",
          "type": "bytes"
        }
      ],
      "name": "bytes1BytesFunctionReturnsBytes1Bytes",
      "outputs": [
        {
          "name": "__bytes1",
          "type": "bytes1"
        },
        {
          "name": "_bytes_",
          "type": "bytes"
        }
      ],
      "payable": false,
      "stateMutability": "view",
      "type": "function"
    },
    {
      "constant": true,
      "inputs": [
        {
          "name": "_bytes32",
          "type": "bytes32"
        }
      ],
      "name": "bytes32FunctionReturnsBool",
      "outputs": [
        {
          "name": "__bool",
          "type": "bool"
        }
      ],
      "payable": false,
      "stateMutability": "view",
      "type": "function"
    },
    {
      "constant": true,
      "inputs": [
        {
          "name": "_bytes32",
          "type": "bytes32"
        }
      ],
      "name": "bytes32FunctionReturnsInt",
      "outputs": [
        {
          "name": "__int",
          "type": "int256"
        }
      ],
      "payable": false,
      "stateMutability": "view",
      "type": "function"
    },
    {
      "constant": true,
      "inputs": [
        {
          "name": "_bytes32",
          "type": "bytes32"
        }
      ],
      "name": "bytes32FunctionReturnsInt8",
      "outputs": [
        {
          "name": "__int8",
          "type": "int8"
        }
      ],
      "payable": false,
      "stateMutability": "view",
      "type": "function"
    },
    {
      "constant": true,
      "inputs": [
        {
          "name": "_bytes32",
          "type": "bytes32"
        }
      ],
      "name": "bytes32FunctionReturnsInt256",
      "outputs": [
        {
          "name": "__int256",
          "type": "int256"
        }
      ],
      "payable": false,
      "stateMutability": "view",
      "type": "function"
    },
    {
      "constant": true,
      "inputs": [
        {
          "name": "_bytes32",
          "type": "bytes32"
        }
      ],
      "name": "bytes32FunctionReturnsUint",
      "outputs": [
        {
          "name": "__uint",
          "type": "uint256"
        }
      ],
      "payable": false,
      "stateMutability": "view",
      "type": "function"
    },
    {
      "constant": true,
      "inputs": [
        {
          "name": "_bytes32",
          "type": "bytes32"
        }
      ],
      "name": "bytes32FunctionReturnsUint8",
      "outputs": [
        {
          "name": "__uint8",
          "type": "uint8"
        }
      ],
      "payable": false,
      "stateMutability": "view",
      "type": "function"
    },
    {
      "constant": true,
      "inputs": [
        {
          "name": "_bytes32",
          "type": "bytes32"
        }
      ],
      "name": "bytes32FunctionReturnsUint256",
      "outputs": [
        {
          "name": "__uint256",
          "type": "uint256"
        }
      ],
      "payable": false,
      "stateMutability": "view",
      "type": "function"
    },
    {
      "constant": true,
      "inputs": [
        {
          "name": "_bytes32",
          "type": "bytes32"
        }
      ],
      "name": "bytes32FunctionReturnsAddress",
      "outputs": [
        {
          "name": "__address",
          "type": "address"
        }
      ],
      "payable": false,
      "stateMutability": "view",
      "type": "function"
    },
    {
      "constant": true,
      "inputs": [
        {
          "name": "_bytes32",
          "type": "bytes32"
        }
      ],
      "name": "bytes32FunctionReturnsByte",
      "outputs": [
        {
          "name": "__byte",
          "type": "bytes1"
        }
      ],
      "payable": false,
      "stateMutability": "view",
      "type": "function"
    },
    {
      "constant": true,
      "inputs": [
        {
          "name": "_bytes32",
          "type": "bytes32"
        }
      ],
      "name": "bytes32FunctionReturnsBytes1",
      "outputs": [
        {
          "name": "__bytes1",
          "type": "bytes1"
        }
      ],
      "payable": false,
      "stateMutability": "view",
      "type": "function"
    },
    {
      "constant": true,
      "inputs": [
        {
          "name": "_bytes32",
          "type": "bytes32"
        }
      ],
      "name": "bytes32FunctionReturnsBytes32",
      "outputs": [
        {
          "name": "__bytes32",
          "type": "bytes32"
        }
      ],
      "payable": false,
      "stateMutability": "view",
      "type": "function"
    },
    {
      "constant": true,
      "inputs": [
        {
          "name": "_bytes32",
          "type": "bytes32"
        }
      ],
      "name": "bytes32FunctionReturnsBytes",
      "outputs": [
        {
          "name": "__bytes",
          "type": "bytes"
        }
      ],
      "payable": false,
      "stateMutability": "view",
      "type": "function"
    },
    {
      "constant": true,
      "inputs": [
        {
          "name": "_bytes32",
          "type": "bytes32"
        }
      ],
      "name": "bytes32FunctionReturnsString",
      "outputs": [
        {
          "name": "__string",
          "type": "string"
        }
      ],
      "payable": false,
      "stateMutability": "view",
      "type": "function"
    },
    {
      "constant": true,
      "inputs": [
        {
          "name": "_bytes32",
          "type": "bytes32"
        },
        {
          "name": "__address",
          "type": "address"
        }
      ],
      "name": "bytes32AddressFunctionReturnsBytes32Address",
      "outputs": [
        {
          "name": "__bytes32",
          "type": "bytes32"
        },
        {
          "name": "_address_",
          "type": "address"
        }
      ],
      "payable": false,
      "stateMutability": "view",
      "type": "function"
    },
    {
      "constant": true,
      "inputs": [
        {
          "name": "_bytes",
          "type": "bytes"
        }
      ],
      "name": "bytesFunctionReturnsBool",
      "outputs": [
        {
          "name": "__bool",
          "type": "bool"
        }
      ],
      "payable": false,
      "stateMutability": "view",
      "type": "function"
    },
    {
      "constant": true,
      "inputs": [
        {
          "name": "_bytes",
          "type": "bytes"
        }
      ],
      "name": "bytesFunctionReturnsInt",
      "outputs": [
        {
          "name": "__int",
          "type": "int256"
        }
      ],
      "payable": false,
      "stateMutability": "view",
      "type": "function"
    },
    {
      "constant": true,
      "inputs": [
        {
          "name": "_bytes",
          "type": "bytes"
        }
      ],
      "name": "bytesFunctionReturnsInt8",
      "outputs": [
        {
          "name": "__int8",
          "type": "int8"
        }
      ],
      "payable": false,
      "stateMutability": "view",
      "type": "function"
    },
    {
      "constant": true,
      "inputs": [
        {
          "name": "_bytes",
          "type": "bytes"
        }
      ],
      "name": "bytesFunctionReturnsInt256",
      "outputs": [
        {
          "name": "__int256",
          "type": "int256"
        }
      ],
      "payable": false,
      "stateMutability": "view",
      "type": "function"
    },
    {
      "constant": true,
      "inputs": [
        {
          "name": "_bytes",
          "type": "bytes"
        }
      ],
      "name": "bytesFunctionReturnsUint",
      "outputs": [
        {
          "name": "__uint",
          "type": "uint256"
        }
      ],
      "payable": false,
      "stateMutability": "view",
      "type": "function"
    },
    {
      "constant": true,
      "inputs": [
        {
          "name": "_bytes",
          "type": "bytes"
        }
      ],
      "name": "bytesFunctionReturnsUint8",
      "outputs": [
        {
          "name": "__uint8",
          "type": "uint8"
        }
      ],
      "payable": false,
      "stateMutability": "view",
      "type": "function"
    },
    {
      "constant": true,
      "inputs": [
        {
          "name": "_bytes",
          "type": "bytes"
        }
      ],
      "name": "bytesFunctionReturnsUint256",
      "outputs": [
        {
          "name": "__uint256",
          "type": "uint256"
        }
      ],
      "payable": false,
      "stateMutability": "view",
      "type": "function"
    },
    {
      "constant": true,
      "inputs": [
        {
          "name": "_bytes",
          "type": "bytes"
        }
      ],
      "name": "bytesFunctionReturnsAddress",
      "outputs": [
        {
          "name": "__address",
          "type": "address"
        }
      ],
      "payable": false,
      "stateMutability": "view",
      "type": "function"
    },
    {
      "constant": true,
      "inputs": [
        {
          "name": "_bytes",
          "type": "bytes"
        }
      ],
      "name": "bytesFunctionReturnsByte",
      "outputs": [
        {
          "name": "__byte",
          "type": "bytes1"
        }
      ],
      "payable": false,
      "stateMutability": "view",
      "type": "function"
    },
    {
      "constant": true,
      "inputs": [
        {
          "name": "_bytes",
          "type": "bytes"
        }
      ],
      "name": "bytesFunctionReturnsBytes1",
      "outputs": [
        {
          "name": "__bytes1",
          "type": "bytes1"
        }
      ],
      "payable": false,
      "stateMutability": "view",
      "type": "function"
    },
    {
      "constant": true,
      "inputs": [
        {
          "name": "_bytes",
          "type": "bytes"
        }
      ],
      "name": "bytesFunctionReturnsBytes32",
      "outputs": [
        {
          "name": "__bytes32",
          "type": "bytes32"
        }
      ],
      "payable": false,
      "stateMutability": "view",
      "type": "function"
    },
    {
      "constant": true,
      "inputs": [
        {
          "name": "_bytes",
          "type": "bytes"
        }
      ],
      "name": "bytesFunctionReturnsBytes",
      "outputs": [
        {
          "name": "__bytes",
          "type": "bytes"
        }
      ],
      "payable": false,
      "stateMutability": "view",
      "type": "function"
    },
    {
      "constant": true,
      "inputs": [
        {
          "name": "_bytes",
          "type": "bytes"
        }
      ],
      "name": "bytesFunctionReturnsString",
      "outputs": [
        {
          "name": "__string",
          "type": "string"
        }
      ],
      "payable": false,
      "stateMutability": "view",
      "type": "function"
    },
    {
      "constant": true,
      "inputs": [
        {
          "name": "_bytes",
          "type": "bytes"
        },
        {
          "name": "__uint",
          "type": "uint256"
        }
      ],
      "name": "bytesUintFunctionReturnsBytesUint",
      "outputs": [
        {
          "name": "__bytes",
          "type": "bytes"
        },
        {
          "name": "_uint_",
          "type": "uint256"
        }
      ],
      "payable": false,
      "stateMutability": "view",
      "type": "function"
    },
    {
      "constant": true,
      "inputs": [
        {
          "name": "_string",
          "type": "string"
        }
      ],
      "name": "stringFunctionReturnsBool",
      "outputs": [
        {
          "name": "__bool",
          "type": "bool"
        }
      ],
      "payable": false,
      "stateMutability": "view",
      "type": "function"
    },
    {
      "constant": true,
      "inputs": [
        {
          "name": "_string",
          "type": "string"
        }
      ],
      "name": "stringFunctionReturnsInt",
      "outputs": [
        {
          "name": "__int",
          "type": "int256"
        }
      ],
      "payable": false,
      "stateMutability": "view",
      "type": "function"
    },
    {
      "constant": true,
      "inputs": [
        {
          "name": "_string",
          "type": "string"
        }
      ],
      "name": "stringFunctionReturnsInt8",
      "outputs": [
        {
          "name": "__int8",
          "type": "int8"
        }
      ],
      "payable": false,
      "stateMutability": "view",
      "type": "function"
    },
    {
      "constant": true,
      "inputs": [
        {
          "name": "_string",
          "type": "string"
        }
      ],
      "name": "stringFunctionReturnsInt256",
      "outputs": [
        {
          "name": "__int256",
          "type": "int256"
        }
      ],
      "payable": false,
      "stateMutability": "view",
      "type": "function"
    },
    {
      "constant": true,
      "inputs": [
        {
          "name": "_string",
          "type": "string"
        }
      ],
      "name": "stringFunctionReturnsUint",
      "outputs": [
        {
          "name": "__uint",
          "type": "uint256"
        }
      ],
      "payable": false,
      "stateMutability": "view",
      "type": "function"
    },
    {
      "constant": true,
      "inputs": [
        {
          "name": "_string",
          "type": "string"
        }
      ],
      "name": "stringFunctionReturnsUint8",
      "outputs": [
        {
          "name": "__uint8",
          "type": "uint8"
        }
      ],
      "payable": false,
      "stateMutability": "view",
      "type": "function"
    },
    {
      "constant": true,
      "inputs": [
        {
          "name": "_string",
          "type": "string"
        }
      ],
      "name": "stringFunctionReturnsUint256",
      "outputs": [
        {
          "name": "__uint256",
          "type": "uint256"
        }
      ],
      "payable": false,
      "stateMutability": "view",
      "type": "function"
    },
    {
      "constant": true,
      "inputs": [
        {
          "name": "_string",
          "type": "string"
        }
      ],
      "name": "stringFunctionReturnsAddress",
      "outputs": [
        {
          "name": "__address",
          "type": "address"
        }
      ],
      "payable": false,
      "stateMutability": "view",
      "type": "function"
    },
    {
      "constant": true,
      "inputs": [
        {
          "name": "_string",
          "type": "string"
        }
      ],
      "name": "stringFunctionReturnsByte",
      "outputs": [
        {
          "name": "__byte",
          "type": "bytes1"
        }
      ],
      "payable": false,
      "stateMutability": "view",
      "type": "function"
    },
    {
      "constant": true,
      "inputs": [
        {
          "name": "_string",
          "type": "string"
        }
      ],
      "name": "stringFunctionReturnsBytes1",
      "outputs": [
        {
          "name": "__bytes1",
          "type": "bytes1"
        }
      ],
      "payable": false,
      "stateMutability": "view",
      "type": "function"
    },
    {
      "constant": true,
      "inputs": [
        {
          "name": "_string",
          "type": "string"
        }
      ],
      "name": "stringFunctionReturnsBytes32",
      "outputs": [
        {
          "name": "__bytes32",
          "type": "bytes32"
        }
      ],
      "payable": false,
      "stateMutability": "view",
      "type": "function"
    },
    {
      "constant": true,
      "inputs": [
        {
          "name": "_string",
          "type": "string"
        }
      ],
      "name": "stringFunctionReturnsBytes",
      "outputs": [
        {
          "name": "__bytes",
          "type": "bytes"
        }
      ],
      "payable": false,
      "stateMutability": "view",
      "type": "function"
    },
    {
      "constant": true,
      "inputs": [
        {
          "name": "_string",
          "type": "string"
        }
      ],
      "name": "stringFunctionReturnsString",
      "outputs": [
        {
          "name": "__string",
          "type": "string"
        }
      ],
      "payable": false,
      "stateMutability": "view",
      "type": "function"
    },
    {
      "constant": true,
      "inputs": [
        {
          "name": "_string",
          "type": "string"
        },
        {
          "name": "__int8",
          "type": "int8"
        }
      ],
      "name": "stringInt8FunctionReturnsStringInt8",
      "outputs": [
        {
          "name": "__string",
          "type": "string"
        },
        {
          "name": "_int8_",
          "type": "int8"
        }
      ],
      "payable": false,
      "stateMutability": "view",
      "type": "function"
    },
    {
      "constant": false,
      "inputs": [
        {
          "name": "__bool",
          "type": "bool"
        }
      ],
      "name": "changeBool",
      "outputs": [],
      "payable": false,
      "stateMutability": "nonpayable",
      "type": "function"
    },
    {
      "constant": false,
      "inputs": [
        {
          "name": "__int",
          "type": "int256"
        }
      ],
      "name": "changeInt",
      "outputs": [],
      "payable": false,
      "stateMutability": "nonpayable",
      "type": "function"
    },
    {
      "constant": false,
      "inputs": [
        {
          "name": "__int8",
          "type": "int8"
        }
      ],
      "name": "changeInt8",
      "outputs": [],
      "payable": false,
      "stateMutability": "nonpayable",
      "type": "function"
    },
    {
      "constant": false,
      "inputs": [
        {
          "name": "__int256",
          "type": "int256"
        }
      ],
      "name": "changeInt256",
      "outputs": [],
      "payable": false,
      "stateMutability": "nonpayable",
      "type": "function"
    },
    {
      "constant": false,
      "inputs": [
        {
          "name": "__uint",
          "type": "uint256"
        }
      ],
      "name": "changeUint",
      "outputs": [],
      "payable": false,
      "stateMutability": "nonpayable",
      "type": "function"
    },
    {
      "constant": false,
      "inputs": [
        {
          "name": "__uint8",
          "type": "uint8"
        }
      ],
      "name": "changeUint8",
      "outputs": [],
      "payable": false,
      "stateMutability": "nonpayable",
      "type": "function"
    },
    {
      "constant": false,
      "inputs": [
        {
          "name": "__uint256",
          "type": "uint256"
        }
      ],
      "name": "changeUint256",
      "outputs": [],
      "payable": false,
      "stateMutability": "nonpayable",
      "type": "function"
    },
    {
      "constant": false,
      "inputs": [
        {
          "name": "__address",
          "type": "address"
        }
      ],
      "name": "changeAddress",
      "outputs": [],
      "payable": false,
      "stateMutability": "nonpayable",
      "type": "function"
    },
    {
      "constant": false,
      "inputs": [
        {
          "name": "__byte",
          "type": "bytes1"
        }
      ],
      "name": "changeByte",
      "outputs": [],
      "payable": false,
      "stateMutability": "nonpayable",
      "type": "function"
    },
    {
      "constant": false,
      "inputs": [
        {
          "name": "__bytes1",
          "type": "bytes1"
        }
      ],
      "name": "changeBytes1",
      "outputs": [],
      "payable": false,
      "stateMutability": "nonpayable",
      "type": "function"
    },
    {
      "constant": false,
      "inputs": [
        {
          "name": "__bytes32",
          "type": "bytes32"
        }
      ],
      "name": "changeBytes32",
      "outputs": [],
      "payable": false,
      "stateMutability": "nonpayable",
      "type": "function"
    },
    {
      "constant": false,
      "inputs": [
        {
          "name": "__bytes",
          "type": "bytes"
        }
      ],
      "name": "changeBytes",
      "outputs": [],
      "payable": false,
      "stateMutability": "nonpayable",
      "type": "function"
    },
    {
      "constant": false,
      "inputs": [
        {
          "name": "__string",
          "type": "string"
        }
      ],
      "name": "changeString",
      "outputs": [],
      "payable": false,
      "stateMutability": "nonpayable",
      "type": "function"
    }
  ],
  "bytecode": "0x6060604052341561000f57600080fd5b616779806200001f6000396000f300606060405260043610610894576000357c0100000000000000000000000000000000000000000000000000000000900463ffffffff1680626fb20614610899578062e985a314610957578062f81aed14610991578063027e3e2214610a165780630380892d14610ad457806304858d0814610b2d57806305251f9c14610b93578063067f9e9a14610bcd578063077bd74e14610c0457806308771eb714610c60578063096bfe7914610d365780630a1ceeed14610d755780630b4d699c14610db25780630e38a12d14610e115780630fe6e1c614610eae578063112aa9a714610ee5578063123216e614610f6357806312733fc514610f9e5780631305471f14610fde5780631360e7791461101957806315affe8e146110545780631727467f1461108e578063185944cf1461112d5780631a5cf37f146111c95780631c9fe4d1146112225780631cd1725b146112e057806320d6b34e1461131d57806327bdc8451461136257806327cb7842146113d357806328b5605b1461144e57806329fdf7aa146114bf5780632aafb2cc146115305780632af3f33c146115ae5780632b5f9835146115fb5780632e9c5ac5146116325780632f23c341146116d25780633122b1d11461172557806332e329ef1461176457806332fb2125146117a357806334a54d79146117e0578063358fecab1461187c578063368526de1461191c578063372517cd146119815780633a647b56146119ce5780633ac387d214611a6d5780633ad2129514611a945780633bbc28b714611b315780633c1a2ae614611b975780633c7d54f914611c0e5780633d7852a514611c455780633e0b4a7c14611c845780633efc5dca14611cc357806340bb621c14611d625780634216d27514611de157806343b815e414611e1b57806344c8e22b14611eb85780634641f57514611ef557806349f2de5e14611fe45780634c87b169146120475780634fb720a514612086578063526b8a6014612124578063528cb97514612195578063556dcea5146121d657806355dc5cfa146122375780635671e1b81461225d5780635b2d81c7146122945780635d091268146122d45780635d55f7fc146123525780635dd8e1c9146124075780635eca7b781461246457806360a7557c146124a157806361052a011461253d57806365131d37146125dc5780636740ea9f1461263f57806369ad91cc146126925780636cfe539a1461272e5780636d689779146127cb5780636dad3056146127f05780636e26076d146128495780636e5be6b1146128a25780636e97e81c1461291d578063723124ec1461295a578063728f16241461299557806373f065c114612a31578063744e63f314612ab6578063754098ae14612b2f5780637663f6ed14612b6657806379180f8814612be1578063797c89ac14612c2e5780637c59972e14612ce05780637def099114612d555780637e698fb014612d9557806380b450f714612de5578063813f532214612e825780638353312014612ec7578063860e344214612f3857806387dc77ed14612f8b578063896b390d14612fc25780638a2ab924146130985780638c6c829b146130e55780638c8638b9146131835780638e45769d146132725780638e8a1e79146133485780638edaafeb146133825780638f4edf2d146133b9578063909c5bb81461342a57806391cc836e14613463578063939bdd66146134da5780639498f85c14613514578063953e6ff61461355557806395ad8e561461357857806396891a19146135f157806396ac78cb1461362857806399aa03fc146136c45780639a10b1a41461371d5780639e06b25a146137545780639f7ca27a146137f05780639f896579146138275780639fedb61514613898578063a0e29df6146138d5578063a0f4d070146138f8578063a143e4ba14613994578063a22bc306146139cd578063a256cb9e14613a06578063a257b72114613a5f578063a2b3153714613aa1578063a85acf2714613ac4578063a8d5c2b214613b79578063a951dee714613bba578063aba1bb2314613bfc578063ac1ae6b114613c85578063ad26245814613cc8578063b54f3db414613d15578063b763e0c914613d50578063b9d3f15f14613dc9578063bb81b31814613e46578063bc3c124e14613ec1578063bdaee96614613efc578063be0b31fd14613f6d578063be585a9314613fec578063c04731491461402c578063c052eb8f146140a7578063c0ab8e9f1461415c578063c1a76b5f14614242578063c55ea0aa14614318578063c745ef7d14614352578063c85bb0631461438b578063ca1a5b9714614408578063ca43ba23146144ee578063cde48ad21461452c578063cdfcfd70146145c1578063ce99927e146145f8578063cfbe6c041461464d578063d06ed33114614684578063d28ff59c146146dd578063d42972861461473c578063d470bbe514614773578063d49271fc14614799578063d615314314614810578063da7c19b31461485d578063dbb742701461489a578063dbe3bccc146148f9578063dd5ba4da1461495c578063dd65d82514614993578063ddd938e9146149e4578063de6061d514614a75578063e1131d3614614af0578063e13dc5db14614ba3578063e16f09ec14614c18578063e1bee47214614cb5578063e278ea8c14614e01578063e2b1995414614e92578063e30f57ee14614f0d578063e58ee8c114614f6e578063e5fcfab114614fc7578063e607698b1461507c578063e6c05cf4146150b6578063ea2851be146150f3578063ead90f1114615171578063ecc1d697146151af578063ed12e01e14615226578063effef2c51461528d578063f061606b14615308578063f0f4909014615367578063f103f290146153ca578063f1676e0514615427578063f26480aa1461544a578063f75d780314615485578063f78d5a6b14615543578063f80569111461557e578063f9632ae714615630578063fa4c38571461568d578063fb203748146156c4578063fbfe5c2014615703578063fe64d6ff14615760575b600080fd5b34156108a457600080fd5b6108dc60048080357effffffffffffffffffffffffffffffffffffffffffffffffffffffffffffff1916906020019091905050615799565b6040518080602001828103825283818151815260200191508051906020019080838360005b8381101561091c578082015181840152602081019050610901565b50505050905090810190601f1680156109495780820380516001836020036101000a031916815260200191505b509250505060405180910390f35b341561096257600080fd5b61097b600480803560000b9060200190919050506157ac565b6040518082815260200191505060405180910390f35b341561099c57600080fd5b6109d460048080357effffffffffffffffffffffffffffffffffffffffffffffffffffffffffffff19169060200190919050506157b8565b604051808273ffffffffffffffffffffffffffffffffffffffff1673ffffffffffffffffffffffffffffffffffffffff16815260200191505060405180910390f35b3415610a2157600080fd5b610a5960048080357effffffffffffffffffffffffffffffffffffffffffffffffffffffffffffff19169060200190919050506157c4565b6040518080602001828103825283818151815260200191508051906020019080838360005b83811015610a99578082015181840152602081019050610a7e565b50505050905090810190601f168015610ac65780820380516001836020036101000a031916815260200191505b509250505060405180910390f35b3415610adf57600080fd5b610b1760048080357effffffffffffffffffffffffffffffffffffffffffffffffffffffffffffff19169060200190919050506157d7565b6040518082815260200191505060405180910390f35b3415610b3857600080fd5b610b51600480803560000b9060200190919050506157e3565b604051808273ffffffffffffffffffffffffffffffffffffffff1673ffffffffffffffffffffffffffffffffffffffff16815260200191505060405180910390f35b3415610b9e57600080fd5b610bb7600480803560ff169060200190919050506157ef565b6040518082815260200191505060405180910390f35b3415610bd857600080fd5b610bee60048080359060200190919050506157fb565b6040518082815260200191505060405180910390f35b3415610c0f57600080fd5b610c35600480803560000b90602001909190803560001916906020019091905050615807565b604051808360000b60000b815260200182600019166000191681526020019250505060405180910390f35b3415610c6b57600080fd5b610cbb600480803590602001908201803590602001908080601f0160208091040260200160405190810160405280939291908181526020018383808284378201915050505050509190505061581c565b6040518080602001828103825283818151815260200191508051906020019080838360005b83811015610cfb578082015181840152602081019050610ce0565b50505050905090810190601f168015610d285780820380516001836020036101000a031916815260200191505b509250505060405180910390f35b3415610d4157600080fd5b610d57600480803590602001909190505061582f565b60405180826000191660001916815260200191505060405180910390f35b3415610d8057600080fd5b610d96600480803590602001909190505061583b565b604051808260ff1660ff16815260200191505060405180910390f35b3415610dbd57600080fd5b610df560048080357effffffffffffffffffffffffffffffffffffffffffffffffffffffffffffff1916906020019091905050615847565b604051808260000b60000b815260200191505060405180910390f35b3415610e1c57600080fd5b610e5460048080357effffffffffffffffffffffffffffffffffffffffffffffffffffffffffffff1916906020019091905050615853565b60405180827effffffffffffffffffffffffffffffffffffffffffffffffffffffffffffff19167effffffffffffffffffffffffffffffffffffffffffffffffffffffffffffff1916815260200191505060405180910390f35b3415610eb957600080fd5b610ecf600480803590602001909190505061585f565b6040518082815260200191505060405180910390f35b3415610ef057600080fd5b610f09600480803560000b90602001909190505061586b565b60405180827effffffffffffffffffffffffffffffffffffffffffffffffffffffffffffff19167effffffffffffffffffffffffffffffffffffffffffffffffffffffffffffff1916815260200191505060405180910390f35b3415610f6e57600080fd5b610f846004808035906020019091905050615877565b604051808215151515815260200191505060405180910390f35b3415610fa957600080fd5b610fc2600480803560000b906020019091905050615883565b604051808260000b60000b815260200191505060405180910390f35b3415610fe957600080fd5b610fff600480803590602001909190505061588f565b604051808215151515815260200191505060405180910390f35b341561102457600080fd5b61103e60048080356000191690602001909190505061589b565b6040518082815260200191505060405180910390f35b341561105f57600080fd5b611078600480803560ff169060200190919050506158a7565b6040518082815260200191505060405180910390f35b341561109957600080fd5b6110b2600480803560ff169060200190919050506158b3565b6040518080602001828103825283818151815260200191508051906020019080838360005b838110156110f25780820151818401526020810190506110d7565b50505050905090810190601f16801561111f5780820380516001836020036101000a031916815260200191505b509250505060405180910390f35b341561113857600080fd5b61114e60048080359060200190919050506158c6565b6040518080602001828103825283818151815260200191508051906020019080838360005b8381101561118e578082015181840152602081019050611173565b50505050905090810190601f1680156111bb5780820380516001836020036101000a031916815260200191505b509250505060405180910390f35b34156111d457600080fd5b61120c60048080357effffffffffffffffffffffffffffffffffffffffffffffffffffffffffffff19169060200190919050506158d9565b6040518082815260200191505060405180910390f35b341561122d57600080fd5b61126560048080357effffffffffffffffffffffffffffffffffffffffffffffffffffffffffffff19169060200190919050506158e5565b6040518080602001828103825283818151815260200191508051906020019080838360005b838110156112a557808201518184015260208101905061128a565b50505050905090810190601f1680156112d25780820380516001836020036101000a031916815260200191505b509250505060405180910390f35b34156112eb57600080fd5b61130160048080359060200190919050506158f8565b604051808260000b60000b815260200191505060405180910390f35b341561132857600080fd5b61136060048080357effffffffffffffffffffffffffffffffffffffffffffffffffffffffffffff1916906020019091905050615904565b005b341561136d57600080fd5b6113bd600480803590602001908201803590602001908080601f01602080910402602001604051908101604052809392919081815260200183838082843782019150505050505091905050615942565b6040518082815260200191505060405180910390f35b34156113de57600080fd5b6113f4600480803590602001909190505061594e565b60405180827effffffffffffffffffffffffffffffffffffffffffffffffffffffffffffff19167effffffffffffffffffffffffffffffffffffffffffffffffffffffffffffff1916815260200191505060405180910390f35b341561145957600080fd5b6114a9600480803590602001908201803590602001908080601f0160208091040260200160405190810160405280939291908181526020018383808284378201915050505050509190505061595a565b6040518082815260200191505060405180910390f35b34156114ca57600080fd5b61151a600480803590602001908201803590602001908080601f01602080910402602001604051908101604052809392919081815260200183838082843782019150505050505091905050615966565b6040518082815260200191505060405180910390f35b341561153b57600080fd5b611554600480803560ff16906020019091905050615972565b60405180827effffffffffffffffffffffffffffffffffffffffffffffffffffffffffffff19167effffffffffffffffffffffffffffffffffffffffffffffffffffffffffffff1916815260200191505060405180910390f35b34156115b957600080fd5b6115da6004808035151590602001909190803590602001909190505061597e565b60405180831515151581526020018281526020019250505060405180910390f35b341561160657600080fd5b61161c6004808035906020019091905050615993565b6040518082815260200191505060405180910390f35b341561163d57600080fd5b61165760048080356000191690602001909190505061599f565b6040518080602001828103825283818151815260200191508051906020019080838360005b8381101561169757808201518184015260208101905061167c565b50505050905090810190601f1680156116c45780820380516001836020036101000a031916815260200191505b509250505060405180910390f35b34156116dd57600080fd5b611709600480803573ffffffffffffffffffffffffffffffffffffffff169060200190919050506159b2565b604051808260ff1660ff16815260200191505060405180910390f35b341561173057600080fd5b611748600480803515159060200190919050506159be565b604051808260ff1660ff16815260200191505060405180910390f35b341561176f57600080fd5b61178560048080359060200190919050506159ca565b60405180826000191660001916815260200191505060405180910390f35b34156117ae57600080fd5b6117c460048080359060200190919050506159d6565b604051808260000b60000b815260200191505060405180910390f35b34156117eb57600080fd5b61180160048080359060200190919050506159e2565b6040518080602001828103825283818151815260200191508051906020019080838360005b83811015611841578082015181840152602081019050611826565b50505050905090810190601f16801561186e5780820380516001836020036101000a031916815260200191505b509250505060405180910390f35b341561188757600080fd5b6118a16004808035600019169060200190919050506159f5565b6040518080602001828103825283818151815260200191508051906020019080838360005b838110156118e15780820151818401526020810190506118c6565b50505050905090810190601f16801561190e5780820380516001836020036101000a031916815260200191505b509250505060405180910390f35b341561192757600080fd5b61193f60048080351515906020019091905050615a08565b604051808273ffffffffffffffffffffffffffffffffffffffff1673ffffffffffffffffffffffffffffffffffffffff16815260200191505060405180910390f35b341561198c57600080fd5b6119b8600480803573ffffffffffffffffffffffffffffffffffffffff16906020019091905050615a14565b6040518082815260200191505060405180910390f35b34156119d957600080fd5b6119f2600480803560000b906020019091905050615a20565b6040518080602001828103825283818151815260200191508051906020019080838360005b83811015611a32578082015181840152602081019050611a17565b50505050905090810190601f168015611a5f5780820380516001836020036101000a031916815260200191505b509250505060405180910390f35b3415611a7857600080fd5b611a92600480803560001916906020019091905050615a33565b005b3415611a9f57600080fd5b611ad760048080357effffffffffffffffffffffffffffffffffffffffffffffffffffffffffffff1916906020019091905050615a41565b60405180827effffffffffffffffffffffffffffffffffffffffffffffffffffffffffffff19167effffffffffffffffffffffffffffffffffffffffffffffffffffffffffffff1916815260200191505060405180910390f35b3415611b3c57600080fd5b611b55600480803560ff16906020019091905050615a4d565b604051808273ffffffffffffffffffffffffffffffffffffffff1673ffffffffffffffffffffffffffffffffffffffff16815260200191505060405180910390f35b3415611ba257600080fd5b611bf2600480803590602001908201803590602001908080601f01602080910402602001604051908101604052809392919081815260200183838082843782019150505050505091905050615a59565b604051808260000b60000b815260200191505060405180910390f35b3415611c1957600080fd5b611c2f6004808035906020019091905050615a65565b6040518082815260200191505060405180910390f35b3415611c5057600080fd5b611c6a600480803560001916906020019091905050615a71565b604051808215151515815260200191505060405180910390f35b3415611c8f57600080fd5b611ca56004808035906020019091905050615a7d565b60405180826000191660001916815260200191505060405180910390f35b3415611cce57600080fd5b611ce7600480803560ff16906020019091905050615a89565b6040518080602001828103825283818151815260200191508051906020019080838360005b83811015611d27578082015181840152602081019050611d0c565b50505050905090810190601f168015611d545780820380516001836020036101000a031916815260200191505b509250505060405180910390f35b3415611d6d57600080fd5b611d87600480803560001916906020019091905050615a9c565b60405180827effffffffffffffffffffffffffffffffffffffffffffffffffffffffffffff19167effffffffffffffffffffffffffffffffffffffffffffffffffffffffffffff1916815260200191505060405180910390f35b3415611dec57600080fd5b611e05600480803560000b906020019091905050615aa8565b6040518082815260200191505060405180910390f35b3415611e2657600080fd5b611e5e60048080357effffffffffffffffffffffffffffffffffffffffffffffffffffffffffffff1916906020019091905050615ab4565b60405180827effffffffffffffffffffffffffffffffffffffffffffffffffffffffffffff19167effffffffffffffffffffffffffffffffffffffffffffffffffffffffffffff1916815260200191505060405180910390f35b3415611ec357600080fd5b611ed96004808035906020019091905050615ac0565b604051808260ff1660ff16815260200191505060405180910390f35b3415611f0057600080fd5b611f5c600480803590602001908201803590602001908080601f0160208091040260200160405190810160405280939291908181526020018383808284378201915050505050509190803560000b906020019091905050615acc565b60405180806020018360000b60000b8152602001828103825284818151815260200191508051906020019080838360005b83811015611fa8578082015181840152602081019050611f8d565b50505050905090810190601f168015611fd55780820380516001836020036101000a031916815260200191505b50935050505060405180910390f35b3415611fef57600080fd5b6120056004808035906020019091905050615b84565b604051808273ffffffffffffffffffffffffffffffffffffffff1673ffffffffffffffffffffffffffffffffffffffff16815260200191505060405180910390f35b341561205257600080fd5b61206a60048080351515906020019091905050615b90565b604051808260000b60000b815260200191505060405180910390f35b341561209157600080fd5b6120a960048080351515906020019091905050615b9c565b6040518080602001828103825283818151815260200191508051906020019080838360005b838110156120e95780820151818401526020810190506120ce565b50505050905090810190601f1680156121165780820380516001836020036101000a031916815260200191505b509250505060405180910390f35b341561212f57600080fd5b61217f600480803590602001908201803590602001908080601f01602080910402602001604051908101604052809392919081815260200183838082843782019150505050505091905050615baf565b6040518082815260200191505060405180910390f35b34156121a057600080fd5b6121b860048080351515906020019091905050615bbb565b60405180826000191660001916815260200191505060405180910390f35b34156121e157600080fd5b61221960048080357effffffffffffffffffffffffffffffffffffffffffffffffffffffffffffff1916906020019091905050615bc7565b60405180826000191660001916815260200191505060405180910390f35b341561224257600080fd5b61225b600480803560000b906020019091905050615bd3565b005b341561226857600080fd5b61227e6004808035906020019091905050615bf4565b6040518082815260200191505060405180910390f35b341561229f57600080fd5b6122b8600480803560000b906020019091905050615c00565b604051808260ff1660ff16815260200191505060405180910390f35b34156122df57600080fd5b6122f8600480803560000b906020019091905050615c0c565b60405180827effffffffffffffffffffffffffffffffffffffffffffffffffffffffffffff19167effffffffffffffffffffffffffffffffffffffffffffffffffffffffffffff1916815260200191505060405180910390f35b341561235d57600080fd5b6123ad600480803590602001908201803590602001908080601f01602080910402602001604051908101604052809392919081815260200183838082843782019150505050505091905050615c18565b60405180827effffffffffffffffffffffffffffffffffffffffffffffffffffffffffffff19167effffffffffffffffffffffffffffffffffffffffffffffffffffffffffffff1916815260200191505060405180910390f35b341561241257600080fd5b612462600480803590602001908201803590602001908080601f01602080910402602001604051908101604052809392919081815260200183838082843782019150505050505091905050615c24565b005b341561246f57600080fd5b61248760048080351515906020019091905050615c3e565b604051808215151515815260200191505060405180910390f35b34156124ac57600080fd5b6124c26004808035906020019091905050615c4a565b6040518080602001828103825283818151815260200191508051906020019080838360005b838110156125025780820151818401526020810190506124e7565b50505050905090810190601f16801561252f5780820380516001836020036101000a031916815260200191505b509250505060405180910390f35b341561254857600080fd5b612561600480803560000b906020019091905050615c5d565b6040518080602001828103825283818151815260200191508051906020019080838360005b838110156125a1578082015181840152602081019050612586565b50505050905090810190601f1680156125ce5780820380516001836020036101000a031916815260200191505b509250505060405180910390f35b34156125e757600080fd5b6125fd6004808035906020019091905050615c70565b604051808273ffffffffffffffffffffffffffffffffffffffff1673ffffffffffffffffffffffffffffffffffffffff16815260200191505060405180910390f35b341561264a57600080fd5b61266d600480803590602001909190803560001916906020019091905050615c7c565b6040518083815260200182600019166000191681526020019250505060405180910390f35b341561269d57600080fd5b6126b36004808035906020019091905050615c91565b6040518080602001828103825283818151815260200191508051906020019080838360005b838110156126f35780820151818401526020810190506126d8565b50505050905090810190601f1680156127205780820380516001836020036101000a031916815260200191505b509250505060405180910390f35b341561273957600080fd5b612789600480803590602001908201803590602001908080601f01602080910402602001604051908101604052809392919081815260200183838082843782019150505050505091905050615ca4565b604051808273ffffffffffffffffffffffffffffffffffffffff1673ffffffffffffffffffffffffffffffffffffffff16815260200191505060405180910390f35b34156127d657600080fd5b6127ee60048080351515906020019091905050615cb0565b005b34156127fb57600080fd5b61283360048080357effffffffffffffffffffffffffffffffffffffffffffffffffffffffffffff1916906020019091905050615ccc565b6040518082815260200191505060405180910390f35b341561285457600080fd5b61288c60048080357effffffffffffffffffffffffffffffffffffffffffffffffffffffffffffff1916906020019091905050615cd8565b6040518082815260200191505060405180910390f35b34156128ad57600080fd5b6128c36004808035906020019091905050615ce4565b60405180827effffffffffffffffffffffffffffffffffffffffffffffffffffffffffffff19167effffffffffffffffffffffffffffffffffffffffffffffffffffffffffffff1916815260200191505060405180910390f35b341561292857600080fd5b61293e6004808035906020019091905050615cf0565b604051808260ff1660ff16815260200191505060405180910390f35b341561296557600080fd5b61297f600480803560001916906020019091905050615cfc565b6040518082815260200191505060405180910390f35b34156129a057600080fd5b6129b66004808035906020019091905050615d08565b6040518080602001828103825283818151815260200191508051906020019080838360005b838110156129f65780820151818401526020810190506129db565b50505050905090810190601f168015612a235780820380516001836020036101000a031916815260200191505b509250505060405180910390f35b3415612a3c57600080fd5b612a7460048080357effffffffffffffffffffffffffffffffffffffffffffffffffffffffffffff1916906020019091905050615d1b565b604051808273ffffffffffffffffffffffffffffffffffffffff1673ffffffffffffffffffffffffffffffffffffffff16815260200191505060405180910390f35b3415612ac157600080fd5b612aed600480803573ffffffffffffffffffffffffffffffffffffffff16906020019091905050615d27565b604051808273ffffffffffffffffffffffffffffffffffffffff1673ffffffffffffffffffffffffffffffffffffffff16815260200191505060405180910390f35b3415612b3a57600080fd5b612b506004808035906020019091905050615d33565b6040518082815260200191505060405180910390f35b3415612b7157600080fd5b612b876004808035906020019091905050615d3f565b60405180827effffffffffffffffffffffffffffffffffffffffffffffffffffffffffffff19167effffffffffffffffffffffffffffffffffffffffffffffffffffffffffffff1916815260200191505060405180910390f35b3415612bec57600080fd5b612c18600480803573ffffffffffffffffffffffffffffffffffffffff16906020019091905050615d4b565b6040518082815260200191505060405180910390f35b3415612c3957600080fd5b612c65600480803573ffffffffffffffffffffffffffffffffffffffff16906020019091905050615d57565b6040518080602001828103825283818151815260200191508051906020019080838360005b83811015612ca5578082015181840152602081019050612c8a565b50505050905090810190601f168015612cd25780820380516001836020036101000a031916815260200191505b509250505060405180910390f35b3415612ceb57600080fd5b612d3b600480803590602001908201803590602001908080601f01602080910402602001604051908101604052809392919081815260200183838082843782019150505050505091905050615d6a565b604051808215151515815260200191505060405180910390f35b3415612d6057600080fd5b612d79600480803560ff16906020019091905050615d76565b604051808260ff1660ff16815260200191505060405180910390f35b3415612da057600080fd5b612dc2600480803590602001909190803560ff16906020019091905050615d82565b604051808381526020018260ff1660ff1681526020019250505060405180910390f35b3415612df057600080fd5b612e40600480803590602001908201803590602001908080601f01602080910402602001604051908101604052809392919081815260200183838082843782019150505050505091905050615d97565b604051808273ffffffffffffffffffffffffffffffffffffffff1673ffffffffffffffffffffffffffffffffffffffff16815260200191505060405180910390f35b3415612e8d57600080fd5b612ec560048080357effffffffffffffffffffffffffffffffffffffffffffffffffffffffffffff1916906020019091905050615da3565b005b3415612ed257600080fd5b612f22600480803590602001908201803590602001908080601f01602080910402602001604051908101604052809392919081815260200183838082843782019150505050505091905050615de1565b6040518082815260200191505060405180910390f35b3415612f4357600080fd5b612f6f600480803573ffffffffffffffffffffffffffffffffffffffff16906020019091905050615ded565b604051808260000b60000b815260200191505060405180910390f35b3415612f9657600080fd5b612fac6004808035906020019091905050615df9565b6040518082815260200191505060405180910390f35b3415612fcd57600080fd5b61301d600480803590602001908201803590602001908080601f01602080910402602001604051908101604052809392919081815260200183838082843782019150505050505091905050615e05565b6040518080602001828103825283818151815260200191508051906020019080838360005b8381101561305d578082015181840152602081019050613042565b50505050905090810190601f16801561308a5780820380516001836020036101000a031916815260200191505b509250505060405180910390f35b34156130a357600080fd5b6130c460048080359060200190919080351515906020019091905050615e18565b60405180838152602001821515151581526020019250505060405180910390f35b34156130f057600080fd5b61310860048080351515906020019091905050615e2d565b6040518080602001828103825283818151815260200191508051906020019080838360005b8381101561314857808201518184015260208101905061312d565b50505050905090810190601f1680156131755780820380516001836020036101000a031916815260200191505b509250505060405180910390f35b341561318e57600080fd5b6131ea600480803560ff1690602001909190803590602001908201803590602001908080601f01602080910402602001604051908101604052809392919081815260200183838082843782019150505050505091905050615e40565b604051808360ff1660ff16815260200180602001828103825283818151815260200191508051906020019080838360005b8381101561323657808201518184015260208101905061321b565b50505050905090810190601f1680156132635780820380516001836020036101000a031916815260200191505b50935050505060405180910390f35b341561327d57600080fd5b6132cd600480803590602001908201803590602001908080601f01602080910402602001604051908101604052809392919081815260200183838082843782019150505050505091905050615ef8565b6040518080602001828103825283818151815260200191508051906020019080838360005b8381101561330d5780820151818401526020810190506132f2565b50505050905090810190601f16801561333a5780820380516001836020036101000a031916815260200191505b509250505060405180910390f35b341561335357600080fd5b61336c600480803560000b906020019091905050615f0b565b6040518082815260200191505060405180910390f35b341561338d57600080fd5b6133a36004808035906020019091905050615f17565b6040518082815260200191505060405180910390f35b34156133c457600080fd5b613414600480803590602001908201803590602001908080601f01602080910402602001604051908101604052809392919081815260200183838082843782019150505050505091905050615f23565b6040518082815260200191505060405180910390f35b341561343557600080fd5b61344d60048080351515906020019091905050615f2f565b6040518082815260200191505060405180910390f35b341561346e57600080fd5b6134be600480803590602001908201803590602001908080601f01602080910402602001604051908101604052809392919081815260200183838082843782019150505050505091905050615f3b565b604051808260ff1660ff16815260200191505060405180910390f35b34156134e557600080fd5b6134fe600480803560ff16906020019091905050615f47565b6040518082815260200191505060405180910390f35b341561351f57600080fd5b613539600480803560001916906020019091905050615f53565b604051808260000b60000b815260200191505060405180910390f35b341561356057600080fd5b6135766004808035906020019091905050615f5f565b005b341561358357600080fd5b6135d3600480803590602001908201803590602001908080601f01602080910402602001604051908101604052809392919081815260200183838082843782019150505050505091905050615f69565b60405180826000191660001916815260200191505060405180910390f35b34156135fc57600080fd5b6136126004808035906020019091905050615f75565b6040518082815260200191505060405180910390f35b341561363357600080fd5b6136496004808035906020019091905050615f81565b6040518080602001828103825283818151815260200191508051906020019080838360005b8381101561368957808201518184015260208101905061366e565b50505050905090810190601f1680156136b65780820380516001836020036101000a031916815260200191505b509250505060405180910390f35b34156136cf57600080fd5b61370760048080357effffffffffffffffffffffffffffffffffffffffffffffffffffffffffffff1916906020019091905050615f94565b6040518082815260200191505060405180910390f35b341561372857600080fd5b61373e6004808035906020019091905050615fa0565b6040518082815260200191505060405180910390f35b341561375f57600080fd5b6137756004808035906020019091905050615fac565b6040518080602001828103825283818151815260200191508051906020019080838360005b838110156137b557808201518184015260208101905061379a565b50505050905090810190601f1680156137e25780820380516001836020036101000a031916815260200191505b509250505060405180910390f35b34156137fb57600080fd5b6138116004808035906020019091905050615fbf565b6040518082815260200191505060405180910390f35b341561383257600080fd5b613882600480803590602001908201803590602001908080601f01602080910402602001604051908101604052809392919081815260200183838082843782019150505050505091905050615fcb565b6040518082815260200191505060405180910390f35b34156138a357600080fd5b6138b96004808035906020019091905050615fd7565b604051808260ff1660ff16815260200191505060405180910390f35b34156138e057600080fd5b6138f66004808035906020019091905050615fe3565b005b341561390357600080fd5b6139196004808035906020019091905050615fed565b6040518080602001828103825283818151815260200191508051906020019080838360005b8381101561395957808201518184015260208101905061393e565b50505050905090810190601f1680156139865780820380516001836020036101000a031916815260200191505b509250505060405180910390f35b341561399f57600080fd5b6139b760048080351515906020019091905050616000565b6040518082815260200191505060405180910390f35b34156139d857600080fd5b6139f06004808035151590602001909190505061600c565b6040518082815260200191505060405180910390f35b3415613a1157600080fd5b613a4960048080357effffffffffffffffffffffffffffffffffffffffffffffffffffffffffffff1916906020019091905050616018565b6040518082815260200191505060405180910390f35b3415613a6a57600080fd5b613a83600480803560ff16906020019091905050616024565b60405180826000191660001916815260200191505060405180910390f35b3415613aac57600080fd5b613ac26004808035906020019091905050616030565b005b3415613acf57600080fd5b613b1f600480803590602001908201803590602001908080601f0160208091040260200160405190810160405280939291908181526020018383808284378201915050505050509190505061603a565b60405180827effffffffffffffffffffffffffffffffffffffffffffffffffffffffffffff19167effffffffffffffffffffffffffffffffffffffffffffffffffffffffffffff1916815260200191505060405180910390f35b3415613b8457600080fd5b613b9e600480803560001916906020019091905050616046565b604051808260ff1660ff16815260200191505060405180910390f35b3415613bc557600080fd5b613bde600480803560000b906020019091905050616052565b60405180826000191660001916815260200191505060405180910390f35b3415613c0757600080fd5b613c3c600480803573ffffffffffffffffffffffffffffffffffffffff1690602001909190803590602001909190505061605e565b604051808373ffffffffffffffffffffffffffffffffffffffff1673ffffffffffffffffffffffffffffffffffffffff1681526020018281526020019250505060405180910390f35b3415613c9057600080fd5b613caa600480803560001916906020019091905050616073565b60405180826000191660001916815260200191505060405180910390f35b3415613cd357600080fd5b613cff600480803573ffffffffffffffffffffffffffffffffffffffff1690602001909190505061607f565b6040518082815260200191505060405180910390f35b3415613d2057600080fd5b613d3a60048080356000191690602001909190505061608b565b6040518082815260200191505060405180910390f35b3415613d5b57600080fd5b613dab600480803590602001908201803590602001908080601f01602080910402602001604051908101604052809392919081815260200183838082843782019150505050505091905050616097565b60405180826000191660001916815260200191505060405180910390f35b3415613dd457600080fd5b613dec600480803515159060200190919050506160a3565b60405180827effffffffffffffffffffffffffffffffffffffffffffffffffffffffffffff19167effffffffffffffffffffffffffffffffffffffffffffffffffffffffffffff1916815260200191505060405180910390f35b3415613e5157600080fd5b613e6760048080359060200190919050506160af565b60405180827effffffffffffffffffffffffffffffffffffffffffffffffffffffffffffff19167effffffffffffffffffffffffffffffffffffffffffffffffffffffffffffff1916815260200191505060405180910390f35b3415613ecc57600080fd5b613ee260048080359060200190919050506160bb565b604051808215151515815260200191505060405180910390f35b3415613f0757600080fd5b613f57600480803590602001908201803590602001908080601f016020809104026020016040519081016040528093929190818152602001838380828437820191505050505050919050506160c7565b6040518082815260200191505060405180910390f35b3415613f7857600080fd5b613f926004808035600019169060200190919050506160d3565b60405180827effffffffffffffffffffffffffffffffffffffffffffffffffffffffffffff19167effffffffffffffffffffffffffffffffffffffffffffffffffffffffffffff1916815260200191505060405180910390f35b3415613ff757600080fd5b614010600480803560ff169060200190919050506160df565b604051808260000b60000b815260200191505060405180910390f35b341561403757600080fd5b61404d60048080359060200190919050506160eb565b60405180827effffffffffffffffffffffffffffffffffffffffffffffffffffffffffffff19167effffffffffffffffffffffffffffffffffffffffffffffffffffffffffffff1916815260200191505060405180910390f35b34156140b257600080fd5b614102600480803590602001908201803590602001908080601f016020809104026020016040519081016040528093929190818152602001838380828437820191505050505050919050506160f7565b60405180827effffffffffffffffffffffffffffffffffffffffffffffffffffffffffffff19167effffffffffffffffffffffffffffffffffffffffffffffffffffffffffffff1916815260200191505060405180910390f35b341561416757600080fd5b6141c0600480803590602001908201803590602001908080601f01602080910402602001604051908101604052809392919081815260200183838082843782019150505050505091908035906020019091905050616103565b6040518080602001838152602001828103825284818151815260200191508051906020019080838360005b838110156142065780820151818401526020810190506141eb565b50505050905090810190601f1680156142335780820380516001836020036101000a031916815260200191505b50935050505060405180910390f35b341561424d57600080fd5b61429d600480803590602001908201803590602001908080601f016020809104026020016040519081016040528093929190818152602001838380828437820191505050505050919050506161bb565b6040518080602001828103825283818151815260200191508051906020019080838360005b838110156142dd5780820151818401526020810190506142c2565b50505050905090810190601f16801561430a5780820380516001836020036101000a031916815260200191505b509250505060405180910390f35b341561432357600080fd5b61433c600480803560ff169060200190919050506161ce565b6040518082815260200191505060405180910390f35b341561435d57600080fd5b614375600480803515159060200190919050506161da565b6040518082815260200191505060405180910390f35b341561439657600080fd5b6143ae600480803515159060200190919050506161e6565b60405180827effffffffffffffffffffffffffffffffffffffffffffffffffffffffffffff19167effffffffffffffffffffffffffffffffffffffffffffffffffffffffffffff1916815260200191505060405180910390f35b341561441357600080fd5b61446c600480803590602001909190803590602001908201803590602001908080601f016020809104026020016040519081016040528093929190818152602001838380828437820191505050505050919050506161f2565b6040518083815260200180602001828103825283818151815260200191508051906020019080838360005b838110156144b2578082015181840152602081019050614497565b50505050905090810190601f1680156144df5780820380516001836020036101000a031916815260200191505b50935050505060405180910390f35b34156144f957600080fd5b614512600480803560ff169060200190919050506162aa565b604051808215151515815260200191505060405180910390f35b341561453757600080fd5b61457060048080356000191690602001909190803573ffffffffffffffffffffffffffffffffffffffff169060200190919050506162b6565b6040518083600019166000191681526020018273ffffffffffffffffffffffffffffffffffffffff1673ffffffffffffffffffffffffffffffffffffffff1681526020019250505060405180910390f35b34156145cc57600080fd5b6145e260048080359060200190919050506162cb565b6040518082815260200191505060405180910390f35b341561460357600080fd5b61462f600480803573ffffffffffffffffffffffffffffffffffffffff169060200190919050506162d7565b60405180826000191660001916815260200191505060405180910390f35b341561465857600080fd5b61466e60048080359060200190919050506162e3565b6040518082815260200191505060405180910390f35b341561468f57600080fd5b6146c760048080357effffffffffffffffffffffffffffffffffffffffffffffffffffffffffffff19169060200190919050506162ef565b6040518082815260200191505060405180910390f35b34156146e857600080fd5b61472060048080357effffffffffffffffffffffffffffffffffffffffffffffffffffffffffffff19169060200190919050506162fb565b604051808260ff1660ff16815260200191505060405180910390f35b341561474757600080fd5b61475d6004808035906020019091905050616307565b6040518082815260200191505060405180910390f35b341561477e57600080fd5b614797600480803560ff16906020019091905050616313565b005b34156147a457600080fd5b6147f4600480803590602001908201803590602001908080601f01602080910402602001604051908101604052809392919081815260200183838082843782019150505050505091905050616331565b604051808260ff1660ff16815260200191505060405180910390f35b341561481b57600080fd5b614847600480803573ffffffffffffffffffffffffffffffffffffffff1690602001909190505061633d565b6040518082815260200191505060405180910390f35b341561486857600080fd5b61487e6004808035906020019091905050616349565b604051808260000b60000b815260200191505060405180910390f35b34156148a557600080fd5b6148dd60048080357effffffffffffffffffffffffffffffffffffffffffffffffffffffffffffff1916906020019091905050616355565b604051808260000b60000b815260200191505060405180910390f35b341561490457600080fd5b61491a6004808035906020019091905050616361565b604051808273ffffffffffffffffffffffffffffffffffffffff1673ffffffffffffffffffffffffffffffffffffffff16815260200191505060405180910390f35b341561496757600080fd5b61497d600480803590602001909190505061636d565b6040518082815260200191505060405180910390f35b341561499e57600080fd5b6149ca600480803573ffffffffffffffffffffffffffffffffffffffff16906020019091905050616379565b604051808215151515815260200191505060405180910390f35b34156149ef57600080fd5b614a1b600480803573ffffffffffffffffffffffffffffffffffffffff16906020019091905050616385565b60405180827effffffffffffffffffffffffffffffffffffffffffffffffffffffffffffff19167effffffffffffffffffffffffffffffffffffffffffffffffffffffffffffff1916815260200191505060405180910390f35b3415614a8057600080fd5b614a966004808035906020019091905050616391565b60405180827effffffffffffffffffffffffffffffffffffffffffffffffffffffffffffff19167effffffffffffffffffffffffffffffffffffffffffffffffffffffffffffff1916815260200191505060405180910390f35b3415614afb57600080fd5b614b3e60048080357effffffffffffffffffffffffffffffffffffffffffffffffffffffffffffff1916906020019091908035151590602001909190505061639d565b60405180837effffffffffffffffffffffffffffffffffffffffffffffffffffffffffffff19167effffffffffffffffffffffffffffffffffffffffffffffffffffffffffffff19168152602001821515151581526020019250505060405180910390f35b3415614bae57600080fd5b614bfe600480803590602001908201803590602001908080601f016020809104026020016040519081016040528093929190818152602001838380828437820191505050505050919050506163b2565b604051808215151515815260200191505060405180910390f35b3415614c2357600080fd5b614c5b60048080357effffffffffffffffffffffffffffffffffffffffffffffffffffffffffffff19169060200190919050506163be565b60405180827effffffffffffffffffffffffffffffffffffffffffffffffffffffffffffff19167effffffffffffffffffffffffffffffffffffffffffffffffffffffffffffff1916815260200191505060405180910390f35b3415614cc057600080fd5b614d3b60048080357effffffffffffffffffffffffffffffffffffffffffffffffffffffffffffff191690602001909190803590602001908201803590602001908080601f016020809104026020016040519081016040528093929190818152602001838380828437820191505050505050919050506163ca565b60405180837effffffffffffffffffffffffffffffffffffffffffffffffffffffffffffff19167effffffffffffffffffffffffffffffffffffffffffffffffffffffffffffff1916815260200180602001828103825283818151815260200191508051906020019080838360005b83811015614dc5578082015181840152602081019050614daa565b50505050905090810190601f168015614df25780820380516001836020036101000a031916815260200191505b50935050505060405180910390f35b3415614e0c57600080fd5b614e38600480803573ffffffffffffffffffffffffffffffffffffffff16906020019091905050616482565b60405180827effffffffffffffffffffffffffffffffffffffffffffffffffffffffffffff19167effffffffffffffffffffffffffffffffffffffffffffffffffffffffffffff1916815260200191505060405180910390f35b3415614e9d57600080fd5b614eb3600480803590602001909190505061648e565b60405180827effffffffffffffffffffffffffffffffffffffffffffffffffffffffffffff19167effffffffffffffffffffffffffffffffffffffffffffffffffffffffffffff1916815260200191505060405180910390f35b3415614f1857600080fd5b614f5060048080357effffffffffffffffffffffffffffffffffffffffffffffffffffffffffffff191690602001909190505061649a565b60405180826000191660001916815260200191505060405180910390f35b3415614f7957600080fd5b614fb160048080357effffffffffffffffffffffffffffffffffffffffffffffffffffffffffffff19169060200190919050506164a6565b6040518082815260200191505060405180910390f35b3415614fd257600080fd5b615022600480803590602001908201803590602001908080601f016020809104026020016040519081016040528093929190818152602001838380828437820191505050505050919050506164b2565b60405180827effffffffffffffffffffffffffffffffffffffffffffffffffffffffffffff19167effffffffffffffffffffffffffffffffffffffffffffffffffffffffffffff1916815260200191505060405180910390f35b341561508757600080fd5b6150a0600480803560000b9060200190919050506164be565b6040518082815260200191505060405180910390f35b34156150c157600080fd5b6150d760048080359060200190919050506164ca565b604051808260000b60000b815260200191505060405180910390f35b34156150fe57600080fd5b615117600480803560ff169060200190919050506164d6565b60405180827effffffffffffffffffffffffffffffffffffffffffffffffffffffffffffff19167effffffffffffffffffffffffffffffffffffffffffffffffffffffffffffff1916815260200191505060405180910390f35b341561517c57600080fd5b615195600480803560000b9060200190919050506164e2565b604051808215151515815260200191505060405180910390f35b34156151ba57600080fd5b61520a600480803590602001908201803590602001908080601f016020809104026020016040519081016040528093929190818152602001838380828437820191505050505050919050506164ee565b604051808260000b60000b815260200191505060405180910390f35b341561523157600080fd5b61524b6004808035600019169060200190919050506164fa565b604051808273ffffffffffffffffffffffffffffffffffffffff1673ffffffffffffffffffffffffffffffffffffffff16815260200191505060405180910390f35b341561529857600080fd5b6152ae6004808035906020019091905050616506565b60405180827effffffffffffffffffffffffffffffffffffffffffffffffffffffffffffff19167effffffffffffffffffffffffffffffffffffffffffffffffffffffffffffff1916815260200191505060405180910390f35b341561531357600080fd5b61534b60048080357effffffffffffffffffffffffffffffffffffffffffffffffffffffffffffff1916906020019091905050616512565b604051808260ff1660ff16815260200191505060405180910390f35b341561537257600080fd5b615388600480803590602001909190505061651e565b604051808273ffffffffffffffffffffffffffffffffffffffff1673ffffffffffffffffffffffffffffffffffffffff16815260200191505060405180910390f35b34156153d557600080fd5b61540d60048080357effffffffffffffffffffffffffffffffffffffffffffffffffffffffffffff191690602001909190505061652a565b604051808215151515815260200191505060405180910390f35b341561543257600080fd5b6154486004808035906020019091905050616536565b005b341561545557600080fd5b61546b6004808035906020019091905050616540565b604051808215151515815260200191505060405180910390f35b341561549057600080fd5b6154c860048080357effffffffffffffffffffffffffffffffffffffffffffffffffffffffffffff191690602001909190505061654c565b6040518080602001828103825283818151815260200191508051906020019080838360005b838110156155085780820151818401526020810190506154ed565b50505050905090810190601f1680156155355780820380516001836020036101000a031916815260200191505b509250505060405180910390f35b341561554e57600080fd5b61556860048080356000191690602001909190505061655f565b6040518082815260200191505060405180910390f35b341561558957600080fd5b6155b5600480803573ffffffffffffffffffffffffffffffffffffffff1690602001909190505061656b565b6040518080602001828103825283818151815260200191508051906020019080838360005b838110156155f55780820151818401526020810190506155da565b50505050905090810190601f1680156156225780820380516001836020036101000a031916815260200191505b509250505060405180910390f35b341561563b57600080fd5b61568b600480803590602001908201803590602001908080601f0160208091040260200160405190810160405280939291908181526020018383808284378201915050505050509190505061657e565b005b341561569857600080fd5b6156ae6004808035906020019091905050616598565b6040518082815260200191505060405180910390f35b34156156cf57600080fd5b6156e560048080359060200190919050506165a4565b60405180826000191660001916815260200191505060405180910390f35b341561570e57600080fd5b61574660048080357effffffffffffffffffffffffffffffffffffffffffffffffffffffffffffff19169060200190919050506165b0565b604051808215151515815260200191505060405180910390f35b341561576b57600080fd5b615797600480803573ffffffffffffffffffffffffffffffffffffffff169060200190919050506165bc565b005b6157a1616600565b600081915050919050565b60008081915050919050565b60008081915050919050565b6157cc616600565b600081915050919050565b60008081915050919050565b60008081915050919050565b60008081915050919050565b60008081915050919050565b60008060008081819350935050509250929050565b615824616600565b600081915050919050565b60008081915050919050565b60008081915050919050565b60008081915050919050565b60008081915050919050565b60008081915050919050565b60008081915050919050565b60008081915050919050565b60008081915050919050565b60008081915050919050565b60008081915050919050565b60008081915050919050565b6158bb616614565b600081915050919050565b6158ce616600565b600081915050919050565b60008081915050919050565b6158ed616614565b600081915050919050565b60008081915050919050565b80600760146101000a81548160ff02191690837f01000000000000000000000000000000000000000000000000000000000000009004021790555050565b60008081915050919050565b60008081915050919050565b60008081915050919050565b60008081915050919050565b60008081915050919050565b60008060008081819350935050509250929050565b60008081915050919050565b6159a7616600565b600081915050919050565b60008081915050919050565b60008081915050919050565b60008081915050919050565b60008081915050919050565b6159ea616614565b600081915050919050565b6159fd616614565b600081915050919050565b60008081915050919050565b60008081915050919050565b615a28616600565b600081915050919050565b806008816000191690555050565b60008081915050919050565b60008081915050919050565b60008081915050919050565b60008081915050919050565b60008081915050919050565b60008081915050919050565b615a91616600565b600081915050919050565b60008081915050919050565b60008081915050919050565b60008081915050919050565b60008081915050919050565b615ad4616614565b60008060008181818054600181600116156101000203166002900480601f016020809104026020016040519081016040528092919081815260200182805460018160011615610100020316600290048015615b705780601f10615b4557610100808354040283529160200191615b70565b820191906000526020600020905b815481529060010190602001808311615b5357829003601f168201915b505050505091509350935050509250929050565b60008081915050919050565b60008081915050919050565b615ba4616614565b600081915050919050565b60008081915050919050565b60008081915050919050565b60008081915050919050565b80600260006101000a81548160ff021916908360000b60ff16021790555050565b60008081915050919050565b60008081915050919050565b60008081915050919050565b60008081915050919050565b80600a9080519060200190615c3a929190616628565b5050565b60008081915050919050565b615c52616600565b600081915050919050565b615c65616614565b600081915050919050565b60008081915050919050565b60008060008081819350935050509250929050565b615c99616614565b600081915050919050565b60008081915050919050565b806000806101000a81548160ff02191690831515021790555050565b60008081915050919050565b60008081915050919050565b60008081915050919050565b60008081915050919050565b60008081915050919050565b615d10616600565b600081915050919050565b60008081915050919050565b60008081915050919050565b60008081915050919050565b60008081915050919050565b60008081915050919050565b615d5f616600565b600081915050919050565b60008081915050919050565b60008081915050919050565b60008060008081819350935050509250929050565b60008081915050919050565b80600760156101000a81548160ff02191690837f01000000000000000000000000000000000000000000000000000000000000009004021790555050565b60008081915050919050565b60008081915050919050565b60008081915050919050565b615e0d616614565b600081915050919050565b60008060008081819350935050509250929050565b615e35616600565b600081915050919050565b6000615e4a616614565b6000808181808054600181600116156101000203166002900480601f016020809104026020016040519081016040528092919081815260200182805460018160011615610100020316600290048015615ee45780601f10615eb957610100808354040283529160200191615ee4565b820191906000526020600020905b815481529060010190602001808311615ec757829003601f168201915b505050505090509350935050509250929050565b615f00616614565b600081915050919050565b60008081915050919050565b60008081915050919050565b60008081915050919050565b60008081915050919050565b60008081915050919050565b60008081915050919050565b60008081915050919050565b8060068190555050565b60008081915050919050565b60008081915050919050565b615f89616600565b600081915050919050565b60008081915050919050565b60008081915050919050565b615fb4616614565b600081915050919050565b60008081915050919050565b60008081915050919050565b60008081915050919050565b8060048190555050565b615ff5616614565b600081915050919050565b60008081915050919050565b60008081915050919050565b60008081915050919050565b60008081915050919050565b8060038190555050565b60008081915050919050565b60008081915050919050565b60008081915050919050565b60008060008081819350935050509250929050565b60008081915050919050565b60008081915050919050565b60008081915050919050565b60008081915050919050565b60008081915050919050565b60008081915050919050565b60008081915050919050565b60008081915050919050565b60008081915050919050565b60008081915050919050565b60008081915050919050565b60008081915050919050565b61610b616600565b60008060008181818054600181600116156101000203166002900480601f0160208091040260200160405190810160405280929190818152602001828054600181600116156101000203166002900480156161a75780601f1061617c576101008083540402835291602001916161a7565b820191906000526020600020905b81548152906001019060200180831161618a57829003601f168201915b505050505091509350935050509250929050565b6161c3616600565b600081915050919050565b60008081915050919050565b60008081915050919050565b60008081915050919050565b60006161fc616614565b6000808181808054600181600116156101000203166002900480601f0160208091040260200160405190810160405280929190818152602001828054600181600116156101000203166002900480156162965780601f1061626b57610100808354040283529160200191616296565b820191906000526020600020905b81548152906001019060200180831161627957829003601f168201915b505050505090509350935050509250929050565b60008081915050919050565b60008060008081819350935050509250929050565b60008081915050919050565b60008081915050919050565b60008081915050919050565b60008081915050919050565b60008081915050919050565b60008081915050919050565b80600560006101000a81548160ff021916908360ff16021790555050565b60008081915050919050565b60008081915050919050565b60008081915050919050565b60008081915050919050565b60008081915050919050565b60008081915050919050565b60008081915050919050565b60008081915050919050565b60008081915050919050565b60008060008081819350935050509250929050565b60008081915050919050565b60008081915050919050565b60006163d4616600565b6000808181808054600181600116156101000203166002900480601f01602080910402602001604051908101604052809291908181526020018280546001816001161561010002031660029004801561646e5780601f106164435761010080835404028352916020019161646e565b820191906000526020600020905b81548152906001019060200180831161645157829003601f168201915b505050505090509350935050509250929050565b60008081915050919050565b60008081915050919050565b60008081915050919050565b60008081915050919050565b60008081915050919050565b60008081915050919050565b60008081915050919050565b60008081915050919050565b60008081915050919050565b60008081915050919050565b60008081915050919050565b60008081915050919050565b60008081915050919050565b60008081915050919050565b60008081915050919050565b8060018190555050565b60008081915050919050565b616554616614565b600081915050919050565b60008081915050919050565b616573616614565b600081915050919050565b80600990805190602001906165949291906166a8565b5050565b60008081915050919050565b60008081915050919050565b60008081915050919050565b80600760006101000a81548173ffffffffffffffffffffffffffffffffffffffff021916908373ffffffffffffffffffffffffffffffffffffffff16021790555050565b602060405190810160405280600081525090565b602060405190810160405280600081525090565b828054600181600116156101000203166002900490600052602060002090601f016020900481019282601f1061666957805160ff1916838001178555616697565b82800160010185558215616697579182015b8281111561669657825182559160200191906001019061667b565b5b5090506166a49190616728565b5090565b828054600181600116156101000203166002900490600052602060002090601f016020900481019282601f106166e957805160ff1916838001178555616717565b82800160010185558215616717579182015b828111156167165782518255916020019190600101906166fb565b5b5090506167249190616728565b5090565b61674a91905b8082111561674657600081600090555060010161672e565b5090565b905600a165627a7a7230582001be2a9ace1373b1d6790d9e872dc23f747cc11bd9e5fe5a9c37e7230b369a790029",
  "source": "pragma solidity ^0.4.17;\ncontract SampleContract {\n  bool _bool;\n  int _int;\n  int8 _int8;\n  int256 _int256;\n  uint _uint;\n  uint8 _uint8;\n  uint256 _uint256;\n  address _address;\n  byte _byte;\n  bytes1 _bytes1;\n  bytes32 _bytes32;\n  bytes _bytes;\n  string _string;\n  function SampleContract() {}\n  function boolFunctionReturnsBool (bool _bool) public constant returns(bool __bool){\n    bool ___bool;\n    return __bool;\n  }\n  event BoolEventReturnsBool(bool __bool);\n  function boolFunctionReturnsInt (bool _bool) public constant returns(int __int){\n    int ___int;\n    return __int;\n  }\n  event BoolEventReturnsInt(int __int);\n  function boolFunctionReturnsInt8 (bool _bool) public constant returns(int8 __int8){\n    int8 ___int8;\n    return __int8;\n  }\n  event BoolEventReturnsInt8(int8 __int8);\n  function boolFunctionReturnsInt256 (bool _bool) public constant returns(int256 __int256){\n    int256 ___int256;\n    return __int256;\n  }\n  event BoolEventReturnsInt256(int256 __int256);\n  function boolFunctionReturnsUint (bool _bool) public constant returns(uint __uint){\n    uint ___uint;\n    return __uint;\n  }\n  event BoolEventReturnsUint(uint __uint);\n  function boolFunctionReturnsUint8 (bool _bool) public constant returns(uint8 __uint8){\n    uint8 ___uint8;\n    return __uint8;\n  }\n  event BoolEventReturnsUint8(uint8 __uint8);\n  function boolFunctionReturnsUint256 (bool _bool) public constant returns(uint256 __uint256){\n    uint256 ___uint256;\n    return __uint256;\n  }\n  event BoolEventReturnsUint256(uint256 __uint256);\n  function boolFunctionReturnsAddress (bool _bool) public constant returns(address __address){\n    address ___address;\n    return __address;\n  }\n  event BoolEventReturnsAddress(address __address);\n  function boolFunctionReturnsByte (bool _bool) public constant returns(byte __byte){\n    byte ___byte;\n    return __byte;\n  }\n  event BoolEventReturnsByte(byte __byte);\n  function boolFunctionReturnsBytes1 (bool _bool) public constant returns(bytes1 __bytes1){\n    bytes1 ___bytes1;\n    return __bytes1;\n  }\n  event BoolEventReturnsBytes1(bytes1 __bytes1);\n  function boolFunctionReturnsBytes32 (bool _bool) public constant returns(bytes32 __bytes32){\n    bytes32 ___bytes32;\n    return __bytes32;\n  }\n  event BoolEventReturnsBytes32(bytes32 __bytes32);\n  function boolFunctionReturnsBytes (bool _bool) public constant returns(bytes __bytes){\n    bytes ___bytes;\n    return __bytes;\n  }\n  event BoolEventReturnsBytes(bytes __bytes);\n  function boolFunctionReturnsString (bool _bool) public constant returns(string __string){\n    string ___string;\n    return __string;\n  }\n  event BoolEventReturnsString(string __string);\n  function boolUint256FunctionReturnsBoolUint256 (bool _bool, uint256 __uint256) public constant returns(bool __bool, uint256 _uint256_){\n    bool ___bool;\n    uint256 ___uint256;\n    return (___bool, ___uint256);\n  }\n  function intFunctionReturnsBool (int _int) public constant returns(bool __bool){\n    bool ___bool;\n    return __bool;\n  }\n  event IntEventReturnsBool(bool __bool);\n  function intFunctionReturnsInt (int _int) public constant returns(int __int){\n    int ___int;\n    return __int;\n  }\n  event IntEventReturnsInt(int __int);\n  function intFunctionReturnsInt8 (int _int) public constant returns(int8 __int8){\n    int8 ___int8;\n    return __int8;\n  }\n  event IntEventReturnsInt8(int8 __int8);\n  function intFunctionReturnsInt256 (int _int) public constant returns(int256 __int256){\n    int256 ___int256;\n    return __int256;\n  }\n  event IntEventReturnsInt256(int256 __int256);\n  function intFunctionReturnsUint (int _int) public constant returns(uint __uint){\n    uint ___uint;\n    return __uint;\n  }\n  event IntEventReturnsUint(uint __uint);\n  function intFunctionReturnsUint8 (int _int) public constant returns(uint8 __uint8){\n    uint8 ___uint8;\n    return __uint8;\n  }\n  event IntEventReturnsUint8(uint8 __uint8);\n  function intFunctionReturnsUint256 (int _int) public constant returns(uint256 __uint256){\n    uint256 ___uint256;\n    return __uint256;\n  }\n  event IntEventReturnsUint256(uint256 __uint256);\n  function intFunctionReturnsAddress (int _int) public constant returns(address __address){\n    address ___address;\n    return __address;\n  }\n  event IntEventReturnsAddress(address __address);\n  function intFunctionReturnsByte (int _int) public constant returns(byte __byte){\n    byte ___byte;\n    return __byte;\n  }\n  event IntEventReturnsByte(byte __byte);\n  function intFunctionReturnsBytes1 (int _int) public constant returns(bytes1 __bytes1){\n    bytes1 ___bytes1;\n    return __bytes1;\n  }\n  event IntEventReturnsBytes1(bytes1 __bytes1);\n  function intFunctionReturnsBytes32 (int _int) public constant returns(bytes32 __bytes32){\n    bytes32 ___bytes32;\n    return __bytes32;\n  }\n  event IntEventReturnsBytes32(bytes32 __bytes32);\n  function intFunctionReturnsBytes (int _int) public constant returns(bytes __bytes){\n    bytes ___bytes;\n    return __bytes;\n  }\n  event IntEventReturnsBytes(bytes __bytes);\n  function intFunctionReturnsString (int _int) public constant returns(string __string){\n    string ___string;\n    return __string;\n  }\n  event IntEventReturnsString(string __string);\n  function intBytes32FunctionReturnsIntBytes32 (int _int, bytes32 __bytes32) public constant returns(int __int, bytes32 _bytes32_){\n    int ___int;\n    bytes32 ___bytes32;\n    return (___int, ___bytes32);\n  }\n  function int8FunctionReturnsBool (int8 _int8) public constant returns(bool __bool){\n    bool ___bool;\n    return __bool;\n  }\n  event Int8EventReturnsBool(bool __bool);\n  function int8FunctionReturnsInt (int8 _int8) public constant returns(int __int){\n    int ___int;\n    return __int;\n  }\n  event Int8EventReturnsInt(int __int);\n  function int8FunctionReturnsInt8 (int8 _int8) public constant returns(int8 __int8){\n    int8 ___int8;\n    return __int8;\n  }\n  event Int8EventReturnsInt8(int8 __int8);\n  function int8FunctionReturnsInt256 (int8 _int8) public constant returns(int256 __int256){\n    int256 ___int256;\n    return __int256;\n  }\n  event Int8EventReturnsInt256(int256 __int256);\n  function int8FunctionReturnsUint (int8 _int8) public constant returns(uint __uint){\n    uint ___uint;\n    return __uint;\n  }\n  event Int8EventReturnsUint(uint __uint);\n  function int8FunctionReturnsUint8 (int8 _int8) public constant returns(uint8 __uint8){\n    uint8 ___uint8;\n    return __uint8;\n  }\n  event Int8EventReturnsUint8(uint8 __uint8);\n  function int8FunctionReturnsUint256 (int8 _int8) public constant returns(uint256 __uint256){\n    uint256 ___uint256;\n    return __uint256;\n  }\n  event Int8EventReturnsUint256(uint256 __uint256);\n  function int8FunctionReturnsAddress (int8 _int8) public constant returns(address __address){\n    address ___address;\n    return __address;\n  }\n  event Int8EventReturnsAddress(address __address);\n  function int8FunctionReturnsByte (int8 _int8) public constant returns(byte __byte){\n    byte ___byte;\n    return __byte;\n  }\n  event Int8EventReturnsByte(byte __byte);\n  function int8FunctionReturnsBytes1 (int8 _int8) public constant returns(bytes1 __bytes1){\n    bytes1 ___bytes1;\n    return __bytes1;\n  }\n  event Int8EventReturnsBytes1(bytes1 __bytes1);\n  function int8FunctionReturnsBytes32 (int8 _int8) public constant returns(bytes32 __bytes32){\n    bytes32 ___bytes32;\n    return __bytes32;\n  }\n  event Int8EventReturnsBytes32(bytes32 __bytes32);\n  function int8FunctionReturnsBytes (int8 _int8) public constant returns(bytes __bytes){\n    bytes ___bytes;\n    return __bytes;\n  }\n  event Int8EventReturnsBytes(bytes __bytes);\n  function int8FunctionReturnsString (int8 _int8) public constant returns(string __string){\n    string ___string;\n    return __string;\n  }\n  event Int8EventReturnsString(string __string);\n  function int8Bytes32FunctionReturnsInt8Bytes32 (int8 _int8, bytes32 __bytes32) public constant returns(int8 __int8, bytes32 _bytes32_){\n    int8 ___int8;\n    bytes32 ___bytes32;\n    return (___int8, ___bytes32);\n  }\n  function int256FunctionReturnsBool (int256 _int256) public constant returns(bool __bool){\n    bool ___bool;\n    return __bool;\n  }\n  event Int256EventReturnsBool(bool __bool);\n  function int256FunctionReturnsInt (int256 _int256) public constant returns(int __int){\n    int ___int;\n    return __int;\n  }\n  event Int256EventReturnsInt(int __int);\n  function int256FunctionReturnsInt8 (int256 _int256) public constant returns(int8 __int8){\n    int8 ___int8;\n    return __int8;\n  }\n  event Int256EventReturnsInt8(int8 __int8);\n  function int256FunctionReturnsInt256 (int256 _int256) public constant returns(int256 __int256){\n    int256 ___int256;\n    return __int256;\n  }\n  event Int256EventReturnsInt256(int256 __int256);\n  function int256FunctionReturnsUint (int256 _int256) public constant returns(uint __uint){\n    uint ___uint;\n    return __uint;\n  }\n  event Int256EventReturnsUint(uint __uint);\n  function int256FunctionReturnsUint8 (int256 _int256) public constant returns(uint8 __uint8){\n    uint8 ___uint8;\n    return __uint8;\n  }\n  event Int256EventReturnsUint8(uint8 __uint8);\n  function int256FunctionReturnsUint256 (int256 _int256) public constant returns(uint256 __uint256){\n    uint256 ___uint256;\n    return __uint256;\n  }\n  event Int256EventReturnsUint256(uint256 __uint256);\n  function int256FunctionReturnsAddress (int256 _int256) public constant returns(address __address){\n    address ___address;\n    return __address;\n  }\n  event Int256EventReturnsAddress(address __address);\n  function int256FunctionReturnsByte (int256 _int256) public constant returns(byte __byte){\n    byte ___byte;\n    return __byte;\n  }\n  event Int256EventReturnsByte(byte __byte);\n  function int256FunctionReturnsBytes1 (int256 _int256) public constant returns(bytes1 __bytes1){\n    bytes1 ___bytes1;\n    return __bytes1;\n  }\n  event Int256EventReturnsBytes1(bytes1 __bytes1);\n  function int256FunctionReturnsBytes32 (int256 _int256) public constant returns(bytes32 __bytes32){\n    bytes32 ___bytes32;\n    return __bytes32;\n  }\n  event Int256EventReturnsBytes32(bytes32 __bytes32);\n  function int256FunctionReturnsBytes (int256 _int256) public constant returns(bytes __bytes){\n    bytes ___bytes;\n    return __bytes;\n  }\n  event Int256EventReturnsBytes(bytes __bytes);\n  function int256FunctionReturnsString (int256 _int256) public constant returns(string __string){\n    string ___string;\n    return __string;\n  }\n  event Int256EventReturnsString(string __string);\n  function int256Uint8FunctionReturnsInt256Uint8 (int256 _int256, uint8 __uint8) public constant returns(int256 __int256, uint8 _uint8_){\n    int256 ___int256;\n    uint8 ___uint8;\n    return (___int256, ___uint8);\n  }\n  function uintFunctionReturnsBool (uint _uint) public constant returns(bool __bool){\n    bool ___bool;\n    return __bool;\n  }\n  event UintEventReturnsBool(bool __bool);\n  function uintFunctionReturnsInt (uint _uint) public constant returns(int __int){\n    int ___int;\n    return __int;\n  }\n  event UintEventReturnsInt(int __int);\n  function uintFunctionReturnsInt8 (uint _uint) public constant returns(int8 __int8){\n    int8 ___int8;\n    return __int8;\n  }\n  event UintEventReturnsInt8(int8 __int8);\n  function uintFunctionReturnsInt256 (uint _uint) public constant returns(int256 __int256){\n    int256 ___int256;\n    return __int256;\n  }\n  event UintEventReturnsInt256(int256 __int256);\n  function uintFunctionReturnsUint (uint _uint) public constant returns(uint __uint){\n    uint ___uint;\n    return __uint;\n  }\n  event UintEventReturnsUint(uint __uint);\n  function uintFunctionReturnsUint8 (uint _uint) public constant returns(uint8 __uint8){\n    uint8 ___uint8;\n    return __uint8;\n  }\n  event UintEventReturnsUint8(uint8 __uint8);\n  function uintFunctionReturnsUint256 (uint _uint) public constant returns(uint256 __uint256){\n    uint256 ___uint256;\n    return __uint256;\n  }\n  event UintEventReturnsUint256(uint256 __uint256);\n  function uintFunctionReturnsAddress (uint _uint) public constant returns(address __address){\n    address ___address;\n    return __address;\n  }\n  event UintEventReturnsAddress(address __address);\n  function uintFunctionReturnsByte (uint _uint) public constant returns(byte __byte){\n    byte ___byte;\n    return __byte;\n  }\n  event UintEventReturnsByte(byte __byte);\n  function uintFunctionReturnsBytes1 (uint _uint) public constant returns(bytes1 __bytes1){\n    bytes1 ___bytes1;\n    return __bytes1;\n  }\n  event UintEventReturnsBytes1(bytes1 __bytes1);\n  function uintFunctionReturnsBytes32 (uint _uint) public constant returns(bytes32 __bytes32){\n    bytes32 ___bytes32;\n    return __bytes32;\n  }\n  event UintEventReturnsBytes32(bytes32 __bytes32);\n  function uintFunctionReturnsBytes (uint _uint) public constant returns(bytes __bytes){\n    bytes ___bytes;\n    return __bytes;\n  }\n  event UintEventReturnsBytes(bytes __bytes);\n  function uintFunctionReturnsString (uint _uint) public constant returns(string __string){\n    string ___string;\n    return __string;\n  }\n  event UintEventReturnsString(string __string);\n  function uintBoolFunctionReturnsUintBool (uint _uint, bool __bool) public constant returns(uint __uint, bool _bool_){\n    uint ___uint;\n    bool ___bool;\n    return (___uint, ___bool);\n  }\n  function uint8FunctionReturnsBool (uint8 _uint8) public constant returns(bool __bool){\n    bool ___bool;\n    return __bool;\n  }\n  event Uint8EventReturnsBool(bool __bool);\n  function uint8FunctionReturnsInt (uint8 _uint8) public constant returns(int __int){\n    int ___int;\n    return __int;\n  }\n  event Uint8EventReturnsInt(int __int);\n  function uint8FunctionReturnsInt8 (uint8 _uint8) public constant returns(int8 __int8){\n    int8 ___int8;\n    return __int8;\n  }\n  event Uint8EventReturnsInt8(int8 __int8);\n  function uint8FunctionReturnsInt256 (uint8 _uint8) public constant returns(int256 __int256){\n    int256 ___int256;\n    return __int256;\n  }\n  event Uint8EventReturnsInt256(int256 __int256);\n  function uint8FunctionReturnsUint (uint8 _uint8) public constant returns(uint __uint){\n    uint ___uint;\n    return __uint;\n  }\n  event Uint8EventReturnsUint(uint __uint);\n  function uint8FunctionReturnsUint8 (uint8 _uint8) public constant returns(uint8 __uint8){\n    uint8 ___uint8;\n    return __uint8;\n  }\n  event Uint8EventReturnsUint8(uint8 __uint8);\n  function uint8FunctionReturnsUint256 (uint8 _uint8) public constant returns(uint256 __uint256){\n    uint256 ___uint256;\n    return __uint256;\n  }\n  event Uint8EventReturnsUint256(uint256 __uint256);\n  function uint8FunctionReturnsAddress (uint8 _uint8) public constant returns(address __address){\n    address ___address;\n    return __address;\n  }\n  event Uint8EventReturnsAddress(address __address);\n  function uint8FunctionReturnsByte (uint8 _uint8) public constant returns(byte __byte){\n    byte ___byte;\n    return __byte;\n  }\n  event Uint8EventReturnsByte(byte __byte);\n  function uint8FunctionReturnsBytes1 (uint8 _uint8) public constant returns(bytes1 __bytes1){\n    bytes1 ___bytes1;\n    return __bytes1;\n  }\n  event Uint8EventReturnsBytes1(bytes1 __bytes1);\n  function uint8FunctionReturnsBytes32 (uint8 _uint8) public constant returns(bytes32 __bytes32){\n    bytes32 ___bytes32;\n    return __bytes32;\n  }\n  event Uint8EventReturnsBytes32(bytes32 __bytes32);\n  function uint8FunctionReturnsBytes (uint8 _uint8) public constant returns(bytes __bytes){\n    bytes ___bytes;\n    return __bytes;\n  }\n  event Uint8EventReturnsBytes(bytes __bytes);\n  function uint8FunctionReturnsString (uint8 _uint8) public constant returns(string __string){\n    string ___string;\n    return __string;\n  }\n  event Uint8EventReturnsString(string __string);\n  function uint8StringFunctionReturnsUint8String (uint8 _uint8, string __string) public constant returns(uint8 __uint8, string _string_){\n    uint8 ___uint8;\n    string ___string;\n    return (___uint8, ___string);\n  }\n  function uint256FunctionReturnsBool (uint256 _uint256) public constant returns(bool __bool){\n    bool ___bool;\n    return __bool;\n  }\n  event Uint256EventReturnsBool(bool __bool);\n  function uint256FunctionReturnsInt (uint256 _uint256) public constant returns(int __int){\n    int ___int;\n    return __int;\n  }\n  event Uint256EventReturnsInt(int __int);\n  function uint256FunctionReturnsInt8 (uint256 _uint256) public constant returns(int8 __int8){\n    int8 ___int8;\n    return __int8;\n  }\n  event Uint256EventReturnsInt8(int8 __int8);\n  function uint256FunctionReturnsInt256 (uint256 _uint256) public constant returns(int256 __int256){\n    int256 ___int256;\n    return __int256;\n  }\n  event Uint256EventReturnsInt256(int256 __int256);\n  function uint256FunctionReturnsUint (uint256 _uint256) public constant returns(uint __uint){\n    uint ___uint;\n    return __uint;\n  }\n  event Uint256EventReturnsUint(uint __uint);\n  function uint256FunctionReturnsUint8 (uint256 _uint256) public constant returns(uint8 __uint8){\n    uint8 ___uint8;\n    return __uint8;\n  }\n  event Uint256EventReturnsUint8(uint8 __uint8);\n  function uint256FunctionReturnsUint256 (uint256 _uint256) public constant returns(uint256 __uint256){\n    uint256 ___uint256;\n    return __uint256;\n  }\n  event Uint256EventReturnsUint256(uint256 __uint256);\n  function uint256FunctionReturnsAddress (uint256 _uint256) public constant returns(address __address){\n    address ___address;\n    return __address;\n  }\n  event Uint256EventReturnsAddress(address __address);\n  function uint256FunctionReturnsByte (uint256 _uint256) public constant returns(byte __byte){\n    byte ___byte;\n    return __byte;\n  }\n  event Uint256EventReturnsByte(byte __byte);\n  function uint256FunctionReturnsBytes1 (uint256 _uint256) public constant returns(bytes1 __bytes1){\n    bytes1 ___bytes1;\n    return __bytes1;\n  }\n  event Uint256EventReturnsBytes1(bytes1 __bytes1);\n  function uint256FunctionReturnsBytes32 (uint256 _uint256) public constant returns(bytes32 __bytes32){\n    bytes32 ___bytes32;\n    return __bytes32;\n  }\n  event Uint256EventReturnsBytes32(bytes32 __bytes32);\n  function uint256FunctionReturnsBytes (uint256 _uint256) public constant returns(bytes __bytes){\n    bytes ___bytes;\n    return __bytes;\n  }\n  event Uint256EventReturnsBytes(bytes __bytes);\n  function uint256FunctionReturnsString (uint256 _uint256) public constant returns(string __string){\n    string ___string;\n    return __string;\n  }\n  event Uint256EventReturnsString(string __string);\n  function uint256StringFunctionReturnsUint256String (uint256 _uint256, string __string) public constant returns(uint256 __uint256, string _string_){\n    uint256 ___uint256;\n    string ___string;\n    return (___uint256, ___string);\n  }\n  function addressFunctionReturnsBool (address _address) public constant returns(bool __bool){\n    bool ___bool;\n    return __bool;\n  }\n  event AddressEventReturnsBool(bool __bool);\n  function addressFunctionReturnsInt (address _address) public constant returns(int __int){\n    int ___int;\n    return __int;\n  }\n  event AddressEventReturnsInt(int __int);\n  function addressFunctionReturnsInt8 (address _address) public constant returns(int8 __int8){\n    int8 ___int8;\n    return __int8;\n  }\n  event AddressEventReturnsInt8(int8 __int8);\n  function addressFunctionReturnsInt256 (address _address) public constant returns(int256 __int256){\n    int256 ___int256;\n    return __int256;\n  }\n  event AddressEventReturnsInt256(int256 __int256);\n  function addressFunctionReturnsUint (address _address) public constant returns(uint __uint){\n    uint ___uint;\n    return __uint;\n  }\n  event AddressEventReturnsUint(uint __uint);\n  function addressFunctionReturnsUint8 (address _address) public constant returns(uint8 __uint8){\n    uint8 ___uint8;\n    return __uint8;\n  }\n  event AddressEventReturnsUint8(uint8 __uint8);\n  function addressFunctionReturnsUint256 (address _address) public constant returns(uint256 __uint256){\n    uint256 ___uint256;\n    return __uint256;\n  }\n  event AddressEventReturnsUint256(uint256 __uint256);\n  function addressFunctionReturnsAddress (address _address) public constant returns(address __address){\n    address ___address;\n    return __address;\n  }\n  event AddressEventReturnsAddress(address __address);\n  function addressFunctionReturnsByte (address _address) public constant returns(byte __byte){\n    byte ___byte;\n    return __byte;\n  }\n  event AddressEventReturnsByte(byte __byte);\n  function addressFunctionReturnsBytes1 (address _address) public constant returns(bytes1 __bytes1){\n    bytes1 ___bytes1;\n    return __bytes1;\n  }\n  event AddressEventReturnsBytes1(bytes1 __bytes1);\n  function addressFunctionReturnsBytes32 (address _address) public constant returns(bytes32 __bytes32){\n    bytes32 ___bytes32;\n    return __bytes32;\n  }\n  event AddressEventReturnsBytes32(bytes32 __bytes32);\n  function addressFunctionReturnsBytes (address _address) public constant returns(bytes __bytes){\n    bytes ___bytes;\n    return __bytes;\n  }\n  event AddressEventReturnsBytes(bytes __bytes);\n  function addressFunctionReturnsString (address _address) public constant returns(string __string){\n    string ___string;\n    return __string;\n  }\n  event AddressEventReturnsString(string __string);\n  function addressIntFunctionReturnsAddressInt (address _address, int __int) public constant returns(address __address, int _int_){\n    address ___address;\n    int ___int;\n    return (___address, ___int);\n  }\n  function byteFunctionReturnsBool (byte _byte) public constant returns(bool __bool){\n    bool ___bool;\n    return __bool;\n  }\n  event ByteEventReturnsBool(bool __bool);\n  function byteFunctionReturnsInt (byte _byte) public constant returns(int __int){\n    int ___int;\n    return __int;\n  }\n  event ByteEventReturnsInt(int __int);\n  function byteFunctionReturnsInt8 (byte _byte) public constant returns(int8 __int8){\n    int8 ___int8;\n    return __int8;\n  }\n  event ByteEventReturnsInt8(int8 __int8);\n  function byteFunctionReturnsInt256 (byte _byte) public constant returns(int256 __int256){\n    int256 ___int256;\n    return __int256;\n  }\n  event ByteEventReturnsInt256(int256 __int256);\n  function byteFunctionReturnsUint (byte _byte) public constant returns(uint __uint){\n    uint ___uint;\n    return __uint;\n  }\n  event ByteEventReturnsUint(uint __uint);\n  function byteFunctionReturnsUint8 (byte _byte) public constant returns(uint8 __uint8){\n    uint8 ___uint8;\n    return __uint8;\n  }\n  event ByteEventReturnsUint8(uint8 __uint8);\n  function byteFunctionReturnsUint256 (byte _byte) public constant returns(uint256 __uint256){\n    uint256 ___uint256;\n    return __uint256;\n  }\n  event ByteEventReturnsUint256(uint256 __uint256);\n  function byteFunctionReturnsAddress (byte _byte) public constant returns(address __address){\n    address ___address;\n    return __address;\n  }\n  event ByteEventReturnsAddress(address __address);\n  function byteFunctionReturnsByte (byte _byte) public constant returns(byte __byte){\n    byte ___byte;\n    return __byte;\n  }\n  event ByteEventReturnsByte(byte __byte);\n  function byteFunctionReturnsBytes1 (byte _byte) public constant returns(bytes1 __bytes1){\n    bytes1 ___bytes1;\n    return __bytes1;\n  }\n  event ByteEventReturnsBytes1(bytes1 __bytes1);\n  function byteFunctionReturnsBytes32 (byte _byte) public constant returns(bytes32 __bytes32){\n    bytes32 ___bytes32;\n    return __bytes32;\n  }\n  event ByteEventReturnsBytes32(bytes32 __bytes32);\n  function byteFunctionReturnsBytes (byte _byte) public constant returns(bytes __bytes){\n    bytes ___bytes;\n    return __bytes;\n  }\n  event ByteEventReturnsBytes(bytes __bytes);\n  function byteFunctionReturnsString (byte _byte) public constant returns(string __string){\n    string ___string;\n    return __string;\n  }\n  event ByteEventReturnsString(string __string);\n  function byteBoolFunctionReturnsByteBool (byte _byte, bool __bool) public constant returns(byte __byte, bool _bool_){\n    byte ___byte;\n    bool ___bool;\n    return (___byte, ___bool);\n  }\n  function bytes1FunctionReturnsBool (bytes1 _bytes1) public constant returns(bool __bool){\n    bool ___bool;\n    return __bool;\n  }\n  event Bytes1EventReturnsBool(bool __bool);\n  function bytes1FunctionReturnsInt (bytes1 _bytes1) public constant returns(int __int){\n    int ___int;\n    return __int;\n  }\n  event Bytes1EventReturnsInt(int __int);\n  function bytes1FunctionReturnsInt8 (bytes1 _bytes1) public constant returns(int8 __int8){\n    int8 ___int8;\n    return __int8;\n  }\n  event Bytes1EventReturnsInt8(int8 __int8);\n  function bytes1FunctionReturnsInt256 (bytes1 _bytes1) public constant returns(int256 __int256){\n    int256 ___int256;\n    return __int256;\n  }\n  event Bytes1EventReturnsInt256(int256 __int256);\n  function bytes1FunctionReturnsUint (bytes1 _bytes1) public constant returns(uint __uint){\n    uint ___uint;\n    return __uint;\n  }\n  event Bytes1EventReturnsUint(uint __uint);\n  function bytes1FunctionReturnsUint8 (bytes1 _bytes1) public constant returns(uint8 __uint8){\n    uint8 ___uint8;\n    return __uint8;\n  }\n  event Bytes1EventReturnsUint8(uint8 __uint8);\n  function bytes1FunctionReturnsUint256 (bytes1 _bytes1) public constant returns(uint256 __uint256){\n    uint256 ___uint256;\n    return __uint256;\n  }\n  event Bytes1EventReturnsUint256(uint256 __uint256);\n  function bytes1FunctionReturnsAddress (bytes1 _bytes1) public constant returns(address __address){\n    address ___address;\n    return __address;\n  }\n  event Bytes1EventReturnsAddress(address __address);\n  function bytes1FunctionReturnsByte (bytes1 _bytes1) public constant returns(byte __byte){\n    byte ___byte;\n    return __byte;\n  }\n  event Bytes1EventReturnsByte(byte __byte);\n  function bytes1FunctionReturnsBytes1 (bytes1 _bytes1) public constant returns(bytes1 __bytes1){\n    bytes1 ___bytes1;\n    return __bytes1;\n  }\n  event Bytes1EventReturnsBytes1(bytes1 __bytes1);\n  function bytes1FunctionReturnsBytes32 (bytes1 _bytes1) public constant returns(bytes32 __bytes32){\n    bytes32 ___bytes32;\n    return __bytes32;\n  }\n  event Bytes1EventReturnsBytes32(bytes32 __bytes32);\n  function bytes1FunctionReturnsBytes (bytes1 _bytes1) public constant returns(bytes __bytes){\n    bytes ___bytes;\n    return __bytes;\n  }\n  event Bytes1EventReturnsBytes(bytes __bytes);\n  function bytes1FunctionReturnsString (bytes1 _bytes1) public constant returns(string __string){\n    string ___string;\n    return __string;\n  }\n  event Bytes1EventReturnsString(string __string);\n  function bytes1BytesFunctionReturnsBytes1Bytes (bytes1 _bytes1, bytes __bytes) public constant returns(bytes1 __bytes1, bytes _bytes_){\n    bytes1 ___bytes1;\n    bytes ___bytes;\n    return (___bytes1, ___bytes);\n  }\n  function bytes32FunctionReturnsBool (bytes32 _bytes32) public constant returns(bool __bool){\n    bool ___bool;\n    return __bool;\n  }\n  event Bytes32EventReturnsBool(bool __bool);\n  function bytes32FunctionReturnsInt (bytes32 _bytes32) public constant returns(int __int){\n    int ___int;\n    return __int;\n  }\n  event Bytes32EventReturnsInt(int __int);\n  function bytes32FunctionReturnsInt8 (bytes32 _bytes32) public constant returns(int8 __int8){\n    int8 ___int8;\n    return __int8;\n  }\n  event Bytes32EventReturnsInt8(int8 __int8);\n  function bytes32FunctionReturnsInt256 (bytes32 _bytes32) public constant returns(int256 __int256){\n    int256 ___int256;\n    return __int256;\n  }\n  event Bytes32EventReturnsInt256(int256 __int256);\n  function bytes32FunctionReturnsUint (bytes32 _bytes32) public constant returns(uint __uint){\n    uint ___uint;\n    return __uint;\n  }\n  event Bytes32EventReturnsUint(uint __uint);\n  function bytes32FunctionReturnsUint8 (bytes32 _bytes32) public constant returns(uint8 __uint8){\n    uint8 ___uint8;\n    return __uint8;\n  }\n  event Bytes32EventReturnsUint8(uint8 __uint8);\n  function bytes32FunctionReturnsUint256 (bytes32 _bytes32) public constant returns(uint256 __uint256){\n    uint256 ___uint256;\n    return __uint256;\n  }\n  event Bytes32EventReturnsUint256(uint256 __uint256);\n  function bytes32FunctionReturnsAddress (bytes32 _bytes32) public constant returns(address __address){\n    address ___address;\n    return __address;\n  }\n  event Bytes32EventReturnsAddress(address __address);\n  function bytes32FunctionReturnsByte (bytes32 _bytes32) public constant returns(byte __byte){\n    byte ___byte;\n    return __byte;\n  }\n  event Bytes32EventReturnsByte(byte __byte);\n  function bytes32FunctionReturnsBytes1 (bytes32 _bytes32) public constant returns(bytes1 __bytes1){\n    bytes1 ___bytes1;\n    return __bytes1;\n  }\n  event Bytes32EventReturnsBytes1(bytes1 __bytes1);\n  function bytes32FunctionReturnsBytes32 (bytes32 _bytes32) public constant returns(bytes32 __bytes32){\n    bytes32 ___bytes32;\n    return __bytes32;\n  }\n  event Bytes32EventReturnsBytes32(bytes32 __bytes32);\n  function bytes32FunctionReturnsBytes (bytes32 _bytes32) public constant returns(bytes __bytes){\n    bytes ___bytes;\n    return __bytes;\n  }\n  event Bytes32EventReturnsBytes(bytes __bytes);\n  function bytes32FunctionReturnsString (bytes32 _bytes32) public constant returns(string __string){\n    string ___string;\n    return __string;\n  }\n  event Bytes32EventReturnsString(string __string);\n  function bytes32AddressFunctionReturnsBytes32Address (bytes32 _bytes32, address __address) public constant returns(bytes32 __bytes32, address _address_){\n    bytes32 ___bytes32;\n    address ___address;\n    return (___bytes32, ___address);\n  }\n  function bytesFunctionReturnsBool (bytes _bytes) public constant returns(bool __bool){\n    bool ___bool;\n    return __bool;\n  }\n  event BytesEventReturnsBool(bool __bool);\n  function bytesFunctionReturnsInt (bytes _bytes) public constant returns(int __int){\n    int ___int;\n    return __int;\n  }\n  event BytesEventReturnsInt(int __int);\n  function bytesFunctionReturnsInt8 (bytes _bytes) public constant returns(int8 __int8){\n    int8 ___int8;\n    return __int8;\n  }\n  event BytesEventReturnsInt8(int8 __int8);\n  function bytesFunctionReturnsInt256 (bytes _bytes) public constant returns(int256 __int256){\n    int256 ___int256;\n    return __int256;\n  }\n  event BytesEventReturnsInt256(int256 __int256);\n  function bytesFunctionReturnsUint (bytes _bytes) public constant returns(uint __uint){\n    uint ___uint;\n    return __uint;\n  }\n  event BytesEventReturnsUint(uint __uint);\n  function bytesFunctionReturnsUint8 (bytes _bytes) public constant returns(uint8 __uint8){\n    uint8 ___uint8;\n    return __uint8;\n  }\n  event BytesEventReturnsUint8(uint8 __uint8);\n  function bytesFunctionReturnsUint256 (bytes _bytes) public constant returns(uint256 __uint256){\n    uint256 ___uint256;\n    return __uint256;\n  }\n  event BytesEventReturnsUint256(uint256 __uint256);\n  function bytesFunctionReturnsAddress (bytes _bytes) public constant returns(address __address){\n    address ___address;\n    return __address;\n  }\n  event BytesEventReturnsAddress(address __address);\n  function bytesFunctionReturnsByte (bytes _bytes) public constant returns(byte __byte){\n    byte ___byte;\n    return __byte;\n  }\n  event BytesEventReturnsByte(byte __byte);\n  function bytesFunctionReturnsBytes1 (bytes _bytes) public constant returns(bytes1 __bytes1){\n    bytes1 ___bytes1;\n    return __bytes1;\n  }\n  event BytesEventReturnsBytes1(bytes1 __bytes1);\n  function bytesFunctionReturnsBytes32 (bytes _bytes) public constant returns(bytes32 __bytes32){\n    bytes32 ___bytes32;\n    return __bytes32;\n  }\n  event BytesEventReturnsBytes32(bytes32 __bytes32);\n  function bytesFunctionReturnsBytes (bytes _bytes) public constant returns(bytes __bytes){\n    bytes ___bytes;\n    return __bytes;\n  }\n  event BytesEventReturnsBytes(bytes __bytes);\n  function bytesFunctionReturnsString (bytes _bytes) public constant returns(string __string){\n    string ___string;\n    return __string;\n  }\n  event BytesEventReturnsString(string __string);\n  function bytesUintFunctionReturnsBytesUint (bytes _bytes, uint __uint) public constant returns(bytes __bytes, uint _uint_){\n    bytes ___bytes;\n    uint ___uint;\n    return (___bytes, ___uint);\n  }\n  function stringFunctionReturnsBool (string _string) public constant returns(bool __bool){\n    bool ___bool;\n    return __bool;\n  }\n  event StringEventReturnsBool(bool __bool);\n  function stringFunctionReturnsInt (string _string) public constant returns(int __int){\n    int ___int;\n    return __int;\n  }\n  event StringEventReturnsInt(int __int);\n  function stringFunctionReturnsInt8 (string _string) public constant returns(int8 __int8){\n    int8 ___int8;\n    return __int8;\n  }\n  event StringEventReturnsInt8(int8 __int8);\n  function stringFunctionReturnsInt256 (string _string) public constant returns(int256 __int256){\n    int256 ___int256;\n    return __int256;\n  }\n  event StringEventReturnsInt256(int256 __int256);\n  function stringFunctionReturnsUint (string _string) public constant returns(uint __uint){\n    uint ___uint;\n    return __uint;\n  }\n  event StringEventReturnsUint(uint __uint);\n  function stringFunctionReturnsUint8 (string _string) public constant returns(uint8 __uint8){\n    uint8 ___uint8;\n    return __uint8;\n  }\n  event StringEventReturnsUint8(uint8 __uint8);\n  function stringFunctionReturnsUint256 (string _string) public constant returns(uint256 __uint256){\n    uint256 ___uint256;\n    return __uint256;\n  }\n  event StringEventReturnsUint256(uint256 __uint256);\n  function stringFunctionReturnsAddress (string _string) public constant returns(address __address){\n    address ___address;\n    return __address;\n  }\n  event StringEventReturnsAddress(address __address);\n  function stringFunctionReturnsByte (string _string) public constant returns(byte __byte){\n    byte ___byte;\n    return __byte;\n  }\n  event StringEventReturnsByte(byte __byte);\n  function stringFunctionReturnsBytes1 (string _string) public constant returns(bytes1 __bytes1){\n    bytes1 ___bytes1;\n    return __bytes1;\n  }\n  event StringEventReturnsBytes1(bytes1 __bytes1);\n  function stringFunctionReturnsBytes32 (string _string) public constant returns(bytes32 __bytes32){\n    bytes32 ___bytes32;\n    return __bytes32;\n  }\n  event StringEventReturnsBytes32(bytes32 __bytes32);\n  function stringFunctionReturnsBytes (string _string) public constant returns(bytes __bytes){\n    bytes ___bytes;\n    return __bytes;\n  }\n  event StringEventReturnsBytes(bytes __bytes);\n  function stringFunctionReturnsString (string _string) public constant returns(string __string){\n    string ___string;\n    return __string;\n  }\n  event StringEventReturnsString(string __string);\n  function stringInt8FunctionReturnsStringInt8 (string _string, int8 __int8) public constant returns(string __string, int8 _int8_){\n    string ___string;\n    int8 ___int8;\n    return (___string, ___int8);\n  }\n  function changeBool(bool __bool) public {\n    _bool = __bool;\n  }\n  function changeInt(int __int) public {\n    _int = __int;\n  }\n  function changeInt8(int8 __int8) public {\n    _int8 = __int8;\n  }\n  function changeInt256(int256 __int256) public {\n    _int256 = __int256;\n  }\n  function changeUint(uint __uint) public {\n    _uint = __uint;\n  }\n  function changeUint8(uint8 __uint8) public {\n    _uint8 = __uint8;\n  }\n  function changeUint256(uint256 __uint256) public {\n    _uint256 = __uint256;\n  }\n  function changeAddress(address __address) public {\n    _address = __address;\n  }\n  function changeByte(byte __byte) public {\n    _byte = __byte;\n  }\n  function changeBytes1(bytes1 __bytes1) public {\n    _bytes1 = __bytes1;\n  }\n  function changeBytes32(bytes32 __bytes32) public {\n    _bytes32 = __bytes32;\n  }\n  function changeBytes(bytes __bytes) public {\n    _bytes = __bytes;\n  }\n  function changeString(string __string) public {\n    _string = __string;\n  }\n\n}",
  "sourcePath": "/Users/billy/Documents/htdocs/dapp-scratch/contracts/SampleContract.sol",
  "compiler": {
    "name": "solc",
    "version": "0.4.19+commit.c4cbbb05.Emscripten.clang"
  },
  "schemaVersion": "1.0.1",
  "updatedAt": "2018-02-10T18:57:34.735Z"
}