{
  "contractName": "Sample",
  "abi": [
    {
      "constant": true,
      "inputs": [
        {
          "name": "_bytes1",
          "type": "bytes1"
        }
      ],
      "name": "bytes1FunctionReturnsBytes",
      "outputs": [
        {
          "name": "__bytes",
          "type": "bytes"
        }
      ],
      "payable": false,
      "stateMutability": "pure",
      "type": "function"
    },
    {
      "constant": true,
      "inputs": [
        {
          "name": "_int8",
          "type": "int8"
        }
      ],
      "name": "int8FunctionReturnsUint",
      "outputs": [
        {
          "name": "__uint",
          "type": "uint256"
        }
      ],
      "payable": false,
      "stateMutability": "pure",
      "type": "function"
    },
    {
      "constant": true,
      "inputs": [
        {
          "name": "_bytes1",
          "type": "bytes1"
        }
      ],
      "name": "bytes1FunctionReturnsAddress",
      "outputs": [
        {
          "name": "__address",
          "type": "address"
        }
      ],
      "payable": false,
      "stateMutability": "pure",
      "type": "function"
    },
    {
      "constant": true,
      "inputs": [
        {
          "name": "_byte",
          "type": "bytes1"
        }
      ],
      "name": "byteFunctionReturnsBytes",
      "outputs": [
        {
          "name": "__bytes",
          "type": "bytes"
        }
      ],
      "payable": false,
      "stateMutability": "pure",
      "type": "function"
    },
    {
      "constant": true,
      "inputs": [
        {
          "name": "_bytes1",
          "type": "bytes1"
        }
      ],
      "name": "bytes1FunctionReturnsInt256",
      "outputs": [
        {
          "name": "__int256",
          "type": "int256"
        }
      ],
      "payable": false,
      "stateMutability": "pure",
      "type": "function"
    },
    {
      "constant": true,
      "inputs": [
        {
          "name": "_int8",
          "type": "int8"
        }
      ],
      "name": "int8FunctionReturnsAddress",
      "outputs": [
        {
          "name": "__address",
          "type": "address"
        }
      ],
      "payable": false,
      "stateMutability": "pure",
      "type": "function"
    },
    {
      "constant": true,
      "inputs": [
        {
          "name": "_uint8",
          "type": "uint8"
        }
      ],
      "name": "uint8FunctionReturnsUint256",
      "outputs": [
        {
          "name": "__uint256",
          "type": "uint256"
        }
      ],
      "payable": false,
      "stateMutability": "pure",
      "type": "function"
    },
    {
      "constant": true,
      "inputs": [
        {
          "name": "_uint",
          "type": "uint256"
        }
      ],
      "name": "uintFunctionReturnsInt256",
      "outputs": [
        {
          "name": "__int256",
          "type": "int256"
        }
      ],
      "payable": false,
      "stateMutability": "pure",
      "type": "function"
    },
    {
      "constant": true,
      "inputs": [
        {
          "name": "_string",
          "type": "string"
        }
      ],
      "name": "stringFunctionReturnsBytes",
      "outputs": [
        {
          "name": "__bytes",
          "type": "bytes"
        }
      ],
      "payable": false,
      "stateMutability": "pure",
      "type": "function"
    },
    {
      "constant": true,
      "inputs": [
        {
          "name": "_uint",
          "type": "uint256"
        }
      ],
      "name": "uintFunctionReturnsBytes32",
      "outputs": [
        {
          "name": "__bytes32",
          "type": "bytes32"
        }
      ],
      "payable": false,
      "stateMutability": "pure",
      "type": "function"
    },
    {
      "constant": true,
      "inputs": [
        {
          "name": "_int",
          "type": "int256"
        }
      ],
      "name": "intFunctionReturnsUint8",
      "outputs": [
        {
          "name": "__uint8",
          "type": "uint8"
        }
      ],
      "payable": false,
      "stateMutability": "pure",
      "type": "function"
    },
    {
      "constant": true,
      "inputs": [
        {
          "name": "_byte",
          "type": "bytes1"
        }
      ],
      "name": "byteFunctionReturnsInt8",
      "outputs": [
        {
          "name": "__int8",
          "type": "int8"
        }
      ],
      "payable": false,
      "stateMutability": "pure",
      "type": "function"
    },
    {
      "constant": true,
      "inputs": [
        {
          "name": "_bytes1",
          "type": "bytes1"
        }
      ],
      "name": "bytes1FunctionReturnsBytes1",
      "outputs": [
        {
          "name": "__bytes1",
          "type": "bytes1"
        }
      ],
      "payable": false,
      "stateMutability": "pure",
      "type": "function"
    },
    {
      "constant": true,
      "inputs": [
        {
          "name": "_int256",
          "type": "int256"
        }
      ],
      "name": "int256FunctionReturnsUint",
      "outputs": [
        {
          "name": "__uint",
          "type": "uint256"
        }
      ],
      "payable": false,
      "stateMutability": "pure",
      "type": "function"
    },
    {
      "constant": true,
      "inputs": [
        {
          "name": "_int8",
          "type": "int8"
        }
      ],
      "name": "int8FunctionReturnsByte",
      "outputs": [
        {
          "name": "__byte",
          "type": "bytes1"
        }
      ],
      "payable": false,
      "stateMutability": "pure",
      "type": "function"
    },
    {
      "constant": true,
      "inputs": [
        {
          "name": "_uint",
          "type": "uint256"
        }
      ],
      "name": "uintFunctionReturnsBool",
      "outputs": [
        {
          "name": "__bool",
          "type": "bool"
        }
      ],
      "payable": false,
      "stateMutability": "pure",
      "type": "function"
    },
    {
      "constant": true,
      "inputs": [
        {
          "name": "_int8",
          "type": "int8"
        }
      ],
      "name": "int8FunctionReturnsInt8",
      "outputs": [
        {
          "name": "__int8",
          "type": "int8"
        }
      ],
      "payable": false,
      "stateMutability": "pure",
      "type": "function"
    },
    {
      "constant": true,
      "inputs": [
        {
          "name": "_uint256",
          "type": "uint256"
        }
      ],
      "name": "uint256FunctionReturnsBool",
      "outputs": [
        {
          "name": "__bool",
          "type": "bool"
        }
      ],
      "payable": false,
      "stateMutability": "pure",
      "type": "function"
    },
    {
      "constant": true,
      "inputs": [
        {
          "name": "_bytes32",
          "type": "bytes32"
        }
      ],
      "name": "bytes32FunctionReturnsUint",
      "outputs": [
        {
          "name": "__uint",
          "type": "uint256"
        }
      ],
      "payable": false,
      "stateMutability": "pure",
      "type": "function"
    },
    {
      "constant": true,
      "inputs": [
        {
          "name": "_uint8",
          "type": "uint8"
        }
      ],
      "name": "uint8FunctionReturnsInt256",
      "outputs": [
        {
          "name": "__int256",
          "type": "int256"
        }
      ],
      "payable": false,
      "stateMutability": "pure",
      "type": "function"
    },
    {
      "constant": true,
      "inputs": [
        {
          "name": "_uint8",
          "type": "uint8"
        }
      ],
      "name": "uint8FunctionReturnsString",
      "outputs": [
        {
          "name": "__string",
          "type": "string"
        }
      ],
      "payable": false,
      "stateMutability": "pure",
      "type": "function"
    },
    {
      "constant": true,
      "inputs": [
        {
          "name": "_uint256",
          "type": "uint256"
        }
      ],
      "name": "uint256FunctionReturnsBytes",
      "outputs": [
        {
          "name": "__bytes",
          "type": "bytes"
        }
      ],
      "payable": false,
      "stateMutability": "pure",
      "type": "function"
    },
    {
      "constant": true,
      "inputs": [
        {
          "name": "_bytes1",
          "type": "bytes1"
        }
      ],
      "name": "bytes1FunctionReturnsUint",
      "outputs": [
        {
          "name": "__uint",
          "type": "uint256"
        }
      ],
      "payable": false,
      "stateMutability": "pure",
      "type": "function"
    },
    {
      "constant": true,
      "inputs": [
        {
          "name": "_byte",
          "type": "bytes1"
        }
      ],
      "name": "byteFunctionReturnsString",
      "outputs": [
        {
          "name": "__string",
          "type": "string"
        }
      ],
      "payable": false,
      "stateMutability": "pure",
      "type": "function"
    },
    {
      "constant": true,
      "inputs": [
        {
          "name": "_uint",
          "type": "uint256"
        }
      ],
      "name": "uintFunctionReturnsInt8",
      "outputs": [
        {
          "name": "__int8",
          "type": "int8"
        }
      ],
      "payable": false,
      "stateMutability": "pure",
      "type": "function"
    },
    {
      "constant": true,
      "inputs": [
        {
          "name": "_string",
          "type": "string"
        }
      ],
      "name": "stringUint256FunctionReturnsStringUint256",
      "outputs": [
        {
          "name": "__string",
          "type": "string"
        },
        {
          "name": "_uint256_",
          "type": "uint256"
        }
      ],
      "payable": false,
      "stateMutability": "pure",
      "type": "function"
    },
    {
      "constant": true,
      "inputs": [
        {
          "name": "_bytes",
          "type": "bytes"
        }
      ],
      "name": "bytesFunctionReturnsUint256",
      "outputs": [
        {
          "name": "__uint256",
          "type": "uint256"
        }
      ],
      "payable": false,
      "stateMutability": "pure",
      "type": "function"
    },
    {
      "constant": true,
      "inputs": [
        {
          "name": "_uint",
          "type": "uint256"
        }
      ],
      "name": "uintFunctionReturnsBytes1",
      "outputs": [
        {
          "name": "__bytes1",
          "type": "bytes1"
        }
      ],
      "payable": false,
      "stateMutability": "pure",
      "type": "function"
    },
    {
      "constant": true,
      "inputs": [
        {
          "name": "_bytes",
          "type": "bytes"
        }
      ],
      "name": "bytesFunctionReturnsInt256",
      "outputs": [
        {
          "name": "__int256",
          "type": "int256"
        }
      ],
      "payable": false,
      "stateMutability": "pure",
      "type": "function"
    },
    {
      "constant": true,
      "inputs": [
        {
          "name": "_string",
          "type": "string"
        }
      ],
      "name": "stringFunctionReturnsInt256",
      "outputs": [
        {
          "name": "__int256",
          "type": "int256"
        }
      ],
      "payable": false,
      "stateMutability": "pure",
      "type": "function"
    },
    {
      "constant": true,
      "inputs": [
        {
          "name": "_uint8",
          "type": "uint8"
        }
      ],
      "name": "uint8FunctionReturnsByte",
      "outputs": [
        {
          "name": "__byte",
          "type": "bytes1"
        }
      ],
      "payable": false,
      "stateMutability": "pure",
      "type": "function"
    },
    {
      "constant": true,
      "inputs": [
        {
          "name": "_int",
          "type": "int256"
        }
      ],
      "name": "intFunctionReturnsInt",
      "outputs": [
        {
          "name": "__int",
          "type": "int256"
        }
      ],
      "payable": false,
      "stateMutability": "pure",
      "type": "function"
    },
    {
      "constant": true,
      "inputs": [
        {
          "name": "_bytes32",
          "type": "bytes32"
        }
      ],
      "name": "bytes32FunctionReturnsBytes",
      "outputs": [
        {
          "name": "__bytes",
          "type": "bytes"
        }
      ],
      "payable": false,
      "stateMutability": "pure",
      "type": "function"
    },
    {
      "constant": true,
      "inputs": [
        {
          "name": "_address",
          "type": "address"
        }
      ],
      "name": "addressFunctionReturnsUint8",
      "outputs": [
        {
          "name": "__uint8",
          "type": "uint8"
        }
      ],
      "payable": false,
      "stateMutability": "pure",
      "type": "function"
    },
    {
      "constant": true,
      "inputs": [
        {
          "name": "_bool",
          "type": "bool"
        }
      ],
      "name": "boolFunctionReturnsUint8",
      "outputs": [
        {
          "name": "__uint8",
          "type": "uint8"
        }
      ],
      "payable": false,
      "stateMutability": "pure",
      "type": "function"
    },
    {
      "constant": true,
      "inputs": [
        {
          "name": "_uint256",
          "type": "uint256"
        }
      ],
      "name": "uint256FunctionReturnsBytes32",
      "outputs": [
        {
          "name": "__bytes32",
          "type": "bytes32"
        }
      ],
      "payable": false,
      "stateMutability": "pure",
      "type": "function"
    },
    {
      "constant": true,
      "inputs": [
        {
          "name": "_uint256",
          "type": "uint256"
        }
      ],
      "name": "uint256FunctionReturnsInt8",
      "outputs": [
        {
          "name": "__int8",
          "type": "int8"
        }
      ],
      "payable": false,
      "stateMutability": "pure",
      "type": "function"
    },
    {
      "constant": true,
      "inputs": [
        {
          "name": "_int256",
          "type": "int256"
        }
      ],
      "name": "int256FunctionReturnsString",
      "outputs": [
        {
          "name": "__string",
          "type": "string"
        }
      ],
      "payable": false,
      "stateMutability": "pure",
      "type": "function"
    },
    {
      "constant": true,
      "inputs": [
        {
          "name": "_bytes32",
          "type": "bytes32"
        }
      ],
      "name": "bytes32FunctionReturnsString",
      "outputs": [
        {
          "name": "__string",
          "type": "string"
        }
      ],
      "payable": false,
      "stateMutability": "pure",
      "type": "function"
    },
    {
      "constant": true,
      "inputs": [
        {
          "name": "_bool",
          "type": "bool"
        }
      ],
      "name": "boolFunctionReturnsAddress",
      "outputs": [
        {
          "name": "__address",
          "type": "address"
        }
      ],
      "payable": false,
      "stateMutability": "pure",
      "type": "function"
    },
    {
      "constant": true,
      "inputs": [
        {
          "name": "_address",
          "type": "address"
        }
      ],
      "name": "addressFunctionReturnsInt",
      "outputs": [
        {
          "name": "__int",
          "type": "int256"
        }
      ],
      "payable": false,
      "stateMutability": "pure",
      "type": "function"
    },
    {
      "constant": true,
      "inputs": [
        {
          "name": "_int8",
          "type": "int8"
        }
      ],
      "name": "int8FunctionReturnsBytes",
      "outputs": [
        {
          "name": "__bytes",
          "type": "bytes"
        }
      ],
      "payable": false,
      "stateMutability": "pure",
      "type": "function"
    },
    {
      "constant": true,
      "inputs": [
        {
          "name": "_byte",
          "type": "bytes1"
        }
      ],
      "name": "byteFunctionReturnsBytes1",
      "outputs": [
        {
          "name": "__bytes1",
          "type": "bytes1"
        }
      ],
      "payable": false,
      "stateMutability": "pure",
      "type": "function"
    },
    {
      "constant": true,
      "inputs": [
        {
          "name": "_uint8",
          "type": "uint8"
        }
      ],
      "name": "uint8FunctionReturnsAddress",
      "outputs": [
        {
          "name": "__address",
          "type": "address"
        }
      ],
      "payable": false,
      "stateMutability": "pure",
      "type": "function"
    },
    {
      "constant": true,
      "inputs": [
        {
          "name": "_string",
          "type": "string"
        }
      ],
      "name": "stringFunctionReturnsInt8",
      "outputs": [
        {
          "name": "__int8",
          "type": "int8"
        }
      ],
      "payable": false,
      "stateMutability": "pure",
      "type": "function"
    },
    {
      "constant": true,
      "inputs": [
        {
          "name": "_int256",
          "type": "int256"
        }
      ],
      "name": "int256FunctionReturnsInt",
      "outputs": [
        {
          "name": "__int",
          "type": "int256"
        }
      ],
      "payable": false,
      "stateMutability": "pure",
      "type": "function"
    },
    {
      "constant": true,
      "inputs": [
        {
          "name": "_bytes32",
          "type": "bytes32"
        }
      ],
      "name": "bytes32FunctionReturnsBool",
      "outputs": [
        {
          "name": "__bool",
          "type": "bool"
        }
      ],
      "payable": false,
      "stateMutability": "pure",
      "type": "function"
    },
    {
      "constant": true,
      "inputs": [
        {
          "name": "_int",
          "type": "int256"
        }
      ],
      "name": "intFunctionReturnsBytes32",
      "outputs": [
        {
          "name": "__bytes32",
          "type": "bytes32"
        }
      ],
      "payable": false,
      "stateMutability": "pure",
      "type": "function"
    },
    {
      "constant": true,
      "inputs": [
        {
          "name": "_uint8",
          "type": "uint8"
        }
      ],
      "name": "uint8FunctionReturnsBytes",
      "outputs": [
        {
          "name": "__bytes",
          "type": "bytes"
        }
      ],
      "payable": false,
      "stateMutability": "pure",
      "type": "function"
    },
    {
      "constant": true,
      "inputs": [
        {
          "name": "_bytes32",
          "type": "bytes32"
        }
      ],
      "name": "bytes32FunctionReturnsByte",
      "outputs": [
        {
          "name": "__byte",
          "type": "bytes1"
        }
      ],
      "payable": false,
      "stateMutability": "pure",
      "type": "function"
    },
    {
      "constant": true,
      "inputs": [
        {
          "name": "_int8",
          "type": "int8"
        }
      ],
      "name": "int8FunctionReturnsInt256",
      "outputs": [
        {
          "name": "__int256",
          "type": "int256"
        }
      ],
      "payable": false,
      "stateMutability": "pure",
      "type": "function"
    },
    {
      "constant": true,
      "inputs": [
        {
          "name": "_byte",
          "type": "bytes1"
        }
      ],
      "name": "byteFunctionReturnsByte",
      "outputs": [
        {
          "name": "__byte",
          "type": "bytes1"
        }
      ],
      "payable": false,
      "stateMutability": "pure",
      "type": "function"
    },
    {
      "constant": true,
      "inputs": [
        {
          "name": "_uint256",
          "type": "uint256"
        }
      ],
      "name": "uint256FunctionReturnsUint8",
      "outputs": [
        {
          "name": "__uint8",
          "type": "uint8"
        }
      ],
      "payable": false,
      "stateMutability": "pure",
      "type": "function"
    },
    {
      "constant": true,
      "inputs": [
        {
          "name": "_uint256",
          "type": "uint256"
        }
      ],
      "name": "uint256FunctionReturnsAddress",
      "outputs": [
        {
          "name": "__address",
          "type": "address"
        }
      ],
      "payable": false,
      "stateMutability": "pure",
      "type": "function"
    },
    {
      "constant": true,
      "inputs": [
        {
          "name": "_bool",
          "type": "bool"
        }
      ],
      "name": "boolFunctionReturnsInt8",
      "outputs": [
        {
          "name": "__int8",
          "type": "int8"
        }
      ],
      "payable": false,
      "stateMutability": "pure",
      "type": "function"
    },
    {
      "constant": true,
      "inputs": [
        {
          "name": "_bool",
          "type": "bool"
        }
      ],
      "name": "boolFunctionReturnsString",
      "outputs": [
        {
          "name": "__string",
          "type": "string"
        }
      ],
      "payable": false,
      "stateMutability": "pure",
      "type": "function"
    },
    {
      "constant": true,
      "inputs": [
        {
          "name": "_bytes1",
          "type": "bytes1"
        }
      ],
      "name": "bytes1BoolFunctionReturnsBytes1Bool",
      "outputs": [
        {
          "name": "__bytes1",
          "type": "bytes1"
        },
        {
          "name": "_bool_",
          "type": "bool"
        }
      ],
      "payable": false,
      "stateMutability": "pure",
      "type": "function"
    },
    {
      "constant": true,
      "inputs": [
        {
          "name": "_bytes",
          "type": "bytes"
        }
      ],
      "name": "bytesFunctionReturnsInt",
      "outputs": [
        {
          "name": "__int",
          "type": "int256"
        }
      ],
      "payable": false,
      "stateMutability": "pure",
      "type": "function"
    },
    {
      "constant": true,
      "inputs": [
        {
          "name": "_bool",
          "type": "bool"
        }
      ],
      "name": "boolFunctionReturnsBytes32",
      "outputs": [
        {
          "name": "__bytes32",
          "type": "bytes32"
        }
      ],
      "payable": false,
      "stateMutability": "pure",
      "type": "function"
    },
    {
      "constant": true,
      "inputs": [
        {
          "name": "_bytes1",
          "type": "bytes1"
        }
      ],
      "name": "bytes1FunctionReturnsBytes32",
      "outputs": [
        {
          "name": "__bytes32",
          "type": "bytes32"
        }
      ],
      "payable": false,
      "stateMutability": "pure",
      "type": "function"
    },
    {
      "constant": true,
      "inputs": [
        {
          "name": "_uint256",
          "type": "uint256"
        }
      ],
      "name": "uint256FunctionReturnsUint256",
      "outputs": [
        {
          "name": "__uint256",
          "type": "uint256"
        }
      ],
      "payable": false,
      "stateMutability": "pure",
      "type": "function"
    },
    {
      "constant": true,
      "inputs": [
        {
          "name": "_int8",
          "type": "int8"
        }
      ],
      "name": "int8FunctionReturnsUint8",
      "outputs": [
        {
          "name": "__uint8",
          "type": "uint8"
        }
      ],
      "payable": false,
      "stateMutability": "pure",
      "type": "function"
    },
    {
      "constant": true,
      "inputs": [
        {
          "name": "_int",
          "type": "int256"
        }
      ],
      "name": "intAddressFunctionReturnsIntAddress",
      "outputs": [
        {
          "name": "__int",
          "type": "int256"
        },
        {
          "name": "_address_",
          "type": "address"
        }
      ],
      "payable": false,
      "stateMutability": "pure",
      "type": "function"
    },
    {
      "constant": true,
      "inputs": [
        {
          "name": "_int8",
          "type": "int8"
        }
      ],
      "name": "int8FunctionReturnsBytes1",
      "outputs": [
        {
          "name": "__bytes1",
          "type": "bytes1"
        }
      ],
      "payable": false,
      "stateMutability": "pure",
      "type": "function"
    },
    {
      "constant": true,
      "inputs": [
        {
          "name": "_string",
          "type": "string"
        }
      ],
      "name": "stringFunctionReturnsBytes1",
      "outputs": [
        {
          "name": "__bytes1",
          "type": "bytes1"
        }
      ],
      "payable": false,
      "stateMutability": "pure",
      "type": "function"
    },
    {
      "constant": true,
      "inputs": [
        {
          "name": "_bool",
          "type": "bool"
        }
      ],
      "name": "boolFunctionReturnsBool",
      "outputs": [
        {
          "name": "__bool",
          "type": "bool"
        }
      ],
      "payable": false,
      "stateMutability": "pure",
      "type": "function"
    },
    {
      "constant": true,
      "inputs": [
        {
          "name": "_int",
          "type": "int256"
        }
      ],
      "name": "intFunctionReturnsBytes",
      "outputs": [
        {
          "name": "__bytes",
          "type": "bytes"
        }
      ],
      "payable": false,
      "stateMutability": "pure",
      "type": "function"
    },
    {
      "constant": true,
      "inputs": [
        {
          "name": "_int8",
          "type": "int8"
        }
      ],
      "name": "int8FunctionReturnsString",
      "outputs": [
        {
          "name": "__string",
          "type": "string"
        }
      ],
      "payable": false,
      "stateMutability": "pure",
      "type": "function"
    },
    {
      "constant": true,
      "inputs": [
        {
          "name": "_int256",
          "type": "int256"
        }
      ],
      "name": "int256FunctionReturnsAddress",
      "outputs": [
        {
          "name": "__address",
          "type": "address"
        }
      ],
      "payable": false,
      "stateMutability": "pure",
      "type": "function"
    },
    {
      "constant": true,
      "inputs": [
        {
          "name": "_uint256",
          "type": "uint256"
        }
      ],
      "name": "uint256FunctionReturnsString",
      "outputs": [
        {
          "name": "__string",
          "type": "string"
        }
      ],
      "payable": false,
      "stateMutability": "pure",
      "type": "function"
    },
    {
      "constant": true,
      "inputs": [
        {
          "name": "_address",
          "type": "address"
        }
      ],
      "name": "addressBoolFunctionReturnsAddressBool",
      "outputs": [
        {
          "name": "__address",
          "type": "address"
        },
        {
          "name": "_bool_",
          "type": "bool"
        }
      ],
      "payable": false,
      "stateMutability": "pure",
      "type": "function"
    },
    {
      "constant": true,
      "inputs": [
        {
          "name": "_bytes",
          "type": "bytes"
        }
      ],
      "name": "bytesBytes32FunctionReturnsBytesBytes32",
      "outputs": [
        {
          "name": "__bytes",
          "type": "bytes"
        },
        {
          "name": "_bytes32_",
          "type": "bytes32"
        }
      ],
      "payable": false,
      "stateMutability": "pure",
      "type": "function"
    },
    {
      "constant": true,
      "inputs": [
        {
          "name": "_string",
          "type": "string"
        }
      ],
      "name": "stringFunctionReturnsAddress",
      "outputs": [
        {
          "name": "__address",
          "type": "address"
        }
      ],
      "payable": false,
      "stateMutability": "pure",
      "type": "function"
    },
    {
      "constant": true,
      "inputs": [
        {
          "name": "_byte",
          "type": "bytes1"
        }
      ],
      "name": "byteFunctionReturnsUint",
      "outputs": [
        {
          "name": "__uint",
          "type": "uint256"
        }
      ],
      "payable": false,
      "stateMutability": "pure",
      "type": "function"
    },
    {
      "constant": true,
      "inputs": [
        {
          "name": "_byte",
          "type": "bytes1"
        }
      ],
      "name": "byteFunctionReturnsInt",
      "outputs": [
        {
          "name": "__int",
          "type": "int256"
        }
      ],
      "payable": false,
      "stateMutability": "pure",
      "type": "function"
    },
    {
      "constant": true,
      "inputs": [
        {
          "name": "_int256",
          "type": "int256"
        }
      ],
      "name": "int256FunctionReturnsByte",
      "outputs": [
        {
          "name": "__byte",
          "type": "bytes1"
        }
      ],
      "payable": false,
      "stateMutability": "pure",
      "type": "function"
    },
    {
      "constant": true,
      "inputs": [
        {
          "name": "_int256",
          "type": "int256"
        }
      ],
      "name": "int256FunctionReturnsUint8",
      "outputs": [
        {
          "name": "__uint8",
          "type": "uint8"
        }
      ],
      "payable": false,
      "stateMutability": "pure",
      "type": "function"
    },
    {
      "constant": true,
      "inputs": [
        {
          "name": "_bytes32",
          "type": "bytes32"
        }
      ],
      "name": "bytes32FunctionReturnsInt",
      "outputs": [
        {
          "name": "__int",
          "type": "int256"
        }
      ],
      "payable": false,
      "stateMutability": "pure",
      "type": "function"
    },
    {
      "constant": true,
      "inputs": [
        {
          "name": "_int256",
          "type": "int256"
        }
      ],
      "name": "int256FunctionReturnsBytes",
      "outputs": [
        {
          "name": "__bytes",
          "type": "bytes"
        }
      ],
      "payable": false,
      "stateMutability": "pure",
      "type": "function"
    },
    {
      "constant": true,
      "inputs": [
        {
          "name": "_byte",
          "type": "bytes1"
        }
      ],
      "name": "byteFunctionReturnsAddress",
      "outputs": [
        {
          "name": "__address",
          "type": "address"
        }
      ],
      "payable": false,
      "stateMutability": "pure",
      "type": "function"
    },
    {
      "constant": true,
      "inputs": [
        {
          "name": "_uint256",
          "type": "uint256"
        }
      ],
      "name": "uint256UintFunctionReturnsUint256Uint",
      "outputs": [
        {
          "name": "__uint256",
          "type": "uint256"
        },
        {
          "name": "_uint_",
          "type": "uint256"
        }
      ],
      "payable": false,
      "stateMutability": "pure",
      "type": "function"
    },
    {
      "constant": true,
      "inputs": [
        {
          "name": "_address",
          "type": "address"
        }
      ],
      "name": "addressFunctionReturnsAddress",
      "outputs": [
        {
          "name": "__address",
          "type": "address"
        }
      ],
      "payable": false,
      "stateMutability": "pure",
      "type": "function"
    },
    {
      "constant": true,
      "inputs": [
        {
          "name": "_uint256",
          "type": "uint256"
        }
      ],
      "name": "uint256FunctionReturnsInt",
      "outputs": [
        {
          "name": "__int",
          "type": "int256"
        }
      ],
      "payable": false,
      "stateMutability": "pure",
      "type": "function"
    },
    {
      "constant": true,
      "inputs": [
        {
          "name": "_int256",
          "type": "int256"
        }
      ],
      "name": "int256FunctionReturnsBytes1",
      "outputs": [
        {
          "name": "__bytes1",
          "type": "bytes1"
        }
      ],
      "payable": false,
      "stateMutability": "pure",
      "type": "function"
    },
    {
      "constant": true,
      "inputs": [
        {
          "name": "_address",
          "type": "address"
        }
      ],
      "name": "addressFunctionReturnsInt256",
      "outputs": [
        {
          "name": "__int256",
          "type": "int256"
        }
      ],
      "payable": false,
      "stateMutability": "pure",
      "type": "function"
    },
    {
      "constant": true,
      "inputs": [
        {
          "name": "_address",
          "type": "address"
        }
      ],
      "name": "addressFunctionReturnsBytes",
      "outputs": [
        {
          "name": "__bytes",
          "type": "bytes"
        }
      ],
      "payable": false,
      "stateMutability": "pure",
      "type": "function"
    },
    {
      "constant": true,
      "inputs": [
        {
          "name": "_bytes",
          "type": "bytes"
        }
      ],
      "name": "bytesFunctionReturnsBool",
      "outputs": [
        {
          "name": "__bool",
          "type": "bool"
        }
      ],
      "payable": false,
      "stateMutability": "pure",
      "type": "function"
    },
    {
      "constant": true,
      "inputs": [
        {
          "name": "_uint8",
          "type": "uint8"
        }
      ],
      "name": "uint8FunctionReturnsUint8",
      "outputs": [
        {
          "name": "__uint8",
          "type": "uint8"
        }
      ],
      "payable": false,
      "stateMutability": "pure",
      "type": "function"
    },
    {
      "constant": true,
      "inputs": [
        {
          "name": "_bytes",
          "type": "bytes"
        }
      ],
      "name": "bytesFunctionReturnsAddress",
      "outputs": [
        {
          "name": "__address",
          "type": "address"
        }
      ],
      "payable": false,
      "stateMutability": "pure",
      "type": "function"
    },
    {
      "constant": true,
      "inputs": [
        {
          "name": "_string",
          "type": "string"
        }
      ],
      "name": "stringFunctionReturnsUint256",
      "outputs": [
        {
          "name": "__uint256",
          "type": "uint256"
        }
      ],
      "payable": false,
      "stateMutability": "pure",
      "type": "function"
    },
    {
      "constant": true,
      "inputs": [
        {
          "name": "_address",
          "type": "address"
        }
      ],
      "name": "addressFunctionReturnsInt8",
      "outputs": [
        {
          "name": "__int8",
          "type": "int8"
        }
      ],
      "payable": false,
      "stateMutability": "pure",
      "type": "function"
    },
    {
      "constant": true,
      "inputs": [
        {
          "name": "_uint",
          "type": "uint256"
        }
      ],
      "name": "uintFunctionReturnsUint256",
      "outputs": [
        {
          "name": "__uint256",
          "type": "uint256"
        }
      ],
      "payable": false,
      "stateMutability": "pure",
      "type": "function"
    },
    {
      "constant": true,
      "inputs": [
        {
          "name": "_string",
          "type": "string"
        }
      ],
      "name": "stringFunctionReturnsString",
      "outputs": [
        {
          "name": "__string",
          "type": "string"
        }
      ],
      "payable": false,
      "stateMutability": "pure",
      "type": "function"
    },
    {
      "constant": true,
      "inputs": [
        {
          "name": "_byte",
          "type": "bytes1"
        }
      ],
      "name": "byteBytes1FunctionReturnsByteBytes1",
      "outputs": [
        {
          "name": "__byte",
          "type": "bytes1"
        },
        {
          "name": "_bytes1_",
          "type": "bytes1"
        }
      ],
      "payable": false,
      "stateMutability": "pure",
      "type": "function"
    },
    {
      "constant": true,
      "inputs": [
        {
          "name": "_bool",
          "type": "bool"
        }
      ],
      "name": "boolFunctionReturnsBytes",
      "outputs": [
        {
          "name": "__bytes",
          "type": "bytes"
        }
      ],
      "payable": false,
      "stateMutability": "pure",
      "type": "function"
    },
    {
      "constant": true,
      "inputs": [
        {
          "name": "_bytes",
          "type": "bytes"
        }
      ],
      "name": "bytesFunctionReturnsString",
      "outputs": [
        {
          "name": "__string",
          "type": "string"
        }
      ],
      "payable": false,
      "stateMutability": "pure",
      "type": "function"
    },
    {
      "constant": true,
      "inputs": [
        {
          "name": "_int8",
          "type": "int8"
        }
      ],
      "name": "int8FunctionReturnsInt",
      "outputs": [
        {
          "name": "__int",
          "type": "int256"
        }
      ],
      "payable": false,
      "stateMutability": "pure",
      "type": "function"
    },
    {
      "constant": true,
      "inputs": [
        {
          "name": "_uint",
          "type": "uint256"
        }
      ],
      "name": "uintFunctionReturnsUint",
      "outputs": [
        {
          "name": "__uint",
          "type": "uint256"
        }
      ],
      "payable": false,
      "stateMutability": "pure",
      "type": "function"
    },
    {
      "constant": true,
      "inputs": [
        {
          "name": "_bytes",
          "type": "bytes"
        }
      ],
      "name": "bytesFunctionReturnsUint",
      "outputs": [
        {
          "name": "__uint",
          "type": "uint256"
        }
      ],
      "payable": false,
      "stateMutability": "pure",
      "type": "function"
    },
    {
      "constant": true,
      "inputs": [
        {
          "name": "_bool",
          "type": "bool"
        }
      ],
      "name": "boolFunctionReturnsUint",
      "outputs": [
        {
          "name": "__uint",
          "type": "uint256"
        }
      ],
      "payable": false,
      "stateMutability": "pure",
      "type": "function"
    },
    {
      "constant": true,
      "inputs": [
        {
          "name": "_bytes",
          "type": "bytes"
        }
      ],
      "name": "bytesFunctionReturnsUint8",
      "outputs": [
        {
          "name": "__uint8",
          "type": "uint8"
        }
      ],
      "payable": false,
      "stateMutability": "pure",
      "type": "function"
    },
    {
      "constant": true,
      "inputs": [
        {
          "name": "_uint8",
          "type": "uint8"
        }
      ],
      "name": "uint8FunctionReturnsInt",
      "outputs": [
        {
          "name": "__int",
          "type": "int256"
        }
      ],
      "payable": false,
      "stateMutability": "pure",
      "type": "function"
    },
    {
      "constant": true,
      "inputs": [
        {
          "name": "_bytes32",
          "type": "bytes32"
        }
      ],
      "name": "bytes32FunctionReturnsInt8",
      "outputs": [
        {
          "name": "__int8",
          "type": "int8"
        }
      ],
      "payable": false,
      "stateMutability": "pure",
      "type": "function"
    },
    {
      "constant": true,
      "inputs": [
        {
          "name": "_string",
          "type": "string"
        }
      ],
      "name": "stringFunctionReturnsBytes32",
      "outputs": [
        {
          "name": "__bytes32",
          "type": "bytes32"
        }
      ],
      "payable": false,
      "stateMutability": "pure",
      "type": "function"
    },
    {
      "constant": true,
      "inputs": [
        {
          "name": "_uint256",
          "type": "uint256"
        }
      ],
      "name": "uint256FunctionReturnsInt256",
      "outputs": [
        {
          "name": "__int256",
          "type": "int256"
        }
      ],
      "payable": false,
      "stateMutability": "pure",
      "type": "function"
    },
    {
      "constant": true,
      "inputs": [
        {
          "name": "_uint",
          "type": "uint256"
        }
      ],
      "name": "uintFunctionReturnsBytes",
      "outputs": [
        {
          "name": "__bytes",
          "type": "bytes"
        }
      ],
      "payable": false,
      "stateMutability": "pure",
      "type": "function"
    },
    {
      "constant": true,
      "inputs": [
        {
          "name": "_byte",
          "type": "bytes1"
        }
      ],
      "name": "byteFunctionReturnsInt256",
      "outputs": [
        {
          "name": "__int256",
          "type": "int256"
        }
      ],
      "payable": false,
      "stateMutability": "pure",
      "type": "function"
    },
    {
      "constant": true,
      "inputs": [
        {
          "name": "_int256",
          "type": "int256"
        }
      ],
      "name": "int256FunctionReturnsInt256",
      "outputs": [
        {
          "name": "__int256",
          "type": "int256"
        }
      ],
      "payable": false,
      "stateMutability": "pure",
      "type": "function"
    },
    {
      "constant": true,
      "inputs": [
        {
          "name": "_int",
          "type": "int256"
        }
      ],
      "name": "intFunctionReturnsString",
      "outputs": [
        {
          "name": "__string",
          "type": "string"
        }
      ],
      "payable": false,
      "stateMutability": "pure",
      "type": "function"
    },
    {
      "constant": true,
      "inputs": [
        {
          "name": "_uint",
          "type": "uint256"
        }
      ],
      "name": "uintFunctionReturnsInt",
      "outputs": [
        {
          "name": "__int",
          "type": "int256"
        }
      ],
      "payable": false,
      "stateMutability": "pure",
      "type": "function"
    },
    {
      "constant": true,
      "inputs": [
        {
          "name": "_string",
          "type": "string"
        }
      ],
      "name": "stringFunctionReturnsInt",
      "outputs": [
        {
          "name": "__int",
          "type": "int256"
        }
      ],
      "payable": false,
      "stateMutability": "pure",
      "type": "function"
    },
    {
      "constant": true,
      "inputs": [
        {
          "name": "_uint",
          "type": "uint256"
        }
      ],
      "name": "uintFunctionReturnsUint8",
      "outputs": [
        {
          "name": "__uint8",
          "type": "uint8"
        }
      ],
      "payable": false,
      "stateMutability": "pure",
      "type": "function"
    },
    {
      "constant": true,
      "inputs": [
        {
          "name": "_uint",
          "type": "uint256"
        }
      ],
      "name": "uintFunctionReturnsString",
      "outputs": [
        {
          "name": "__string",
          "type": "string"
        }
      ],
      "payable": false,
      "stateMutability": "pure",
      "type": "function"
    },
    {
      "constant": true,
      "inputs": [
        {
          "name": "_bool",
          "type": "bool"
        }
      ],
      "name": "boolFunctionReturnsUint256",
      "outputs": [
        {
          "name": "__uint256",
          "type": "uint256"
        }
      ],
      "payable": false,
      "stateMutability": "pure",
      "type": "function"
    },
    {
      "constant": true,
      "inputs": [
        {
          "name": "_bool",
          "type": "bool"
        }
      ],
      "name": "boolFunctionReturnsInt256",
      "outputs": [
        {
          "name": "__int256",
          "type": "int256"
        }
      ],
      "payable": false,
      "stateMutability": "pure",
      "type": "function"
    },
    {
      "constant": true,
      "inputs": [
        {
          "name": "_byte",
          "type": "bytes1"
        }
      ],
      "name": "byteFunctionReturnsUint256",
      "outputs": [
        {
          "name": "__uint256",
          "type": "uint256"
        }
      ],
      "payable": false,
      "stateMutability": "pure",
      "type": "function"
    },
    {
      "constant": true,
      "inputs": [
        {
          "name": "_uint8",
          "type": "uint8"
        }
      ],
      "name": "uint8FunctionReturnsBytes32",
      "outputs": [
        {
          "name": "__bytes32",
          "type": "bytes32"
        }
      ],
      "payable": false,
      "stateMutability": "pure",
      "type": "function"
    },
    {
      "constant": true,
      "inputs": [
        {
          "name": "_uint8",
          "type": "uint8"
        }
      ],
      "name": "uint8ByteFunctionReturnsUint8Byte",
      "outputs": [
        {
          "name": "__uint8",
          "type": "uint8"
        },
        {
          "name": "_byte_",
          "type": "bytes1"
        }
      ],
      "payable": false,
      "stateMutability": "pure",
      "type": "function"
    },
    {
      "constant": true,
      "inputs": [
        {
          "name": "_bytes",
          "type": "bytes"
        }
      ],
      "name": "bytesFunctionReturnsBytes1",
      "outputs": [
        {
          "name": "__bytes1",
          "type": "bytes1"
        }
      ],
      "payable": false,
      "stateMutability": "pure",
      "type": "function"
    },
    {
      "constant": true,
      "inputs": [
        {
          "name": "_bytes32",
          "type": "bytes32"
        }
      ],
      "name": "bytes32FunctionReturnsUint8",
      "outputs": [
        {
          "name": "__uint8",
          "type": "uint8"
        }
      ],
      "payable": false,
      "stateMutability": "pure",
      "type": "function"
    },
    {
      "constant": true,
      "inputs": [
        {
          "name": "_int8",
          "type": "int8"
        }
      ],
      "name": "int8FunctionReturnsBytes32",
      "outputs": [
        {
          "name": "__bytes32",
          "type": "bytes32"
        }
      ],
      "payable": false,
      "stateMutability": "pure",
      "type": "function"
    },
    {
      "constant": true,
      "inputs": [
        {
          "name": "_bytes32",
          "type": "bytes32"
        }
      ],
      "name": "bytes32FunctionReturnsBytes32",
      "outputs": [
        {
          "name": "__bytes32",
          "type": "bytes32"
        }
      ],
      "payable": false,
      "stateMutability": "pure",
      "type": "function"
    },
    {
      "constant": true,
      "inputs": [
        {
          "name": "_address",
          "type": "address"
        }
      ],
      "name": "addressFunctionReturnsUint",
      "outputs": [
        {
          "name": "__uint",
          "type": "uint256"
        }
      ],
      "payable": false,
      "stateMutability": "pure",
      "type": "function"
    },
    {
      "constant": true,
      "inputs": [
        {
          "name": "_bytes32",
          "type": "bytes32"
        }
      ],
      "name": "bytes32FunctionReturnsInt256",
      "outputs": [
        {
          "name": "__int256",
          "type": "int256"
        }
      ],
      "payable": false,
      "stateMutability": "pure",
      "type": "function"
    },
    {
      "constant": true,
      "inputs": [
        {
          "name": "_bytes",
          "type": "bytes"
        }
      ],
      "name": "bytesFunctionReturnsBytes32",
      "outputs": [
        {
          "name": "__bytes32",
          "type": "bytes32"
        }
      ],
      "payable": false,
      "stateMutability": "pure",
      "type": "function"
    },
    {
      "constant": true,
      "inputs": [
        {
          "name": "_bool",
          "type": "bool"
        }
      ],
      "name": "boolFunctionReturnsByte",
      "outputs": [
        {
          "name": "__byte",
          "type": "bytes1"
        }
      ],
      "payable": false,
      "stateMutability": "pure",
      "type": "function"
    },
    {
      "constant": true,
      "inputs": [
        {
          "name": "_uint",
          "type": "uint256"
        }
      ],
      "name": "uintFunctionReturnsByte",
      "outputs": [
        {
          "name": "__byte",
          "type": "bytes1"
        }
      ],
      "payable": false,
      "stateMutability": "pure",
      "type": "function"
    },
    {
      "constant": true,
      "inputs": [
        {
          "name": "_int256",
          "type": "int256"
        }
      ],
      "name": "int256FunctionReturnsBool",
      "outputs": [
        {
          "name": "__bool",
          "type": "bool"
        }
      ],
      "payable": false,
      "stateMutability": "pure",
      "type": "function"
    },
    {
      "constant": true,
      "inputs": [
        {
          "name": "_string",
          "type": "string"
        }
      ],
      "name": "stringFunctionReturnsUint",
      "outputs": [
        {
          "name": "__uint",
          "type": "uint256"
        }
      ],
      "payable": false,
      "stateMutability": "pure",
      "type": "function"
    },
    {
      "constant": true,
      "inputs": [
        {
          "name": "_bytes32",
          "type": "bytes32"
        }
      ],
      "name": "bytes32FunctionReturnsBytes1",
      "outputs": [
        {
          "name": "__bytes1",
          "type": "bytes1"
        }
      ],
      "payable": false,
      "stateMutability": "pure",
      "type": "function"
    },
    {
      "constant": true,
      "inputs": [
        {
          "name": "_uint8",
          "type": "uint8"
        }
      ],
      "name": "uint8FunctionReturnsInt8",
      "outputs": [
        {
          "name": "__int8",
          "type": "int8"
        }
      ],
      "payable": false,
      "stateMutability": "pure",
      "type": "function"
    },
    {
      "constant": true,
      "inputs": [
        {
          "name": "_uint256",
          "type": "uint256"
        }
      ],
      "name": "uint256FunctionReturnsBytes1",
      "outputs": [
        {
          "name": "__bytes1",
          "type": "bytes1"
        }
      ],
      "payable": false,
      "stateMutability": "pure",
      "type": "function"
    },
    {
      "constant": true,
      "inputs": [
        {
          "name": "_string",
          "type": "string"
        }
      ],
      "name": "stringFunctionReturnsByte",
      "outputs": [
        {
          "name": "__byte",
          "type": "bytes1"
        }
      ],
      "payable": false,
      "stateMutability": "pure",
      "type": "function"
    },
    {
      "constant": true,
      "inputs": [
        {
          "name": "_bytes",
          "type": "bytes"
        }
      ],
      "name": "bytesFunctionReturnsBytes",
      "outputs": [
        {
          "name": "__bytes",
          "type": "bytes"
        }
      ],
      "payable": false,
      "stateMutability": "pure",
      "type": "function"
    },
    {
      "constant": true,
      "inputs": [
        {
          "name": "_uint8",
          "type": "uint8"
        }
      ],
      "name": "uint8FunctionReturnsUint",
      "outputs": [
        {
          "name": "__uint",
          "type": "uint256"
        }
      ],
      "payable": false,
      "stateMutability": "pure",
      "type": "function"
    },
    {
      "constant": true,
      "inputs": [
        {
          "name": "_bool",
          "type": "bool"
        }
      ],
      "name": "boolFunctionReturnsInt",
      "outputs": [
        {
          "name": "__int",
          "type": "int256"
        }
      ],
      "payable": false,
      "stateMutability": "pure",
      "type": "function"
    },
    {
      "constant": true,
      "inputs": [
        {
          "name": "_bool",
          "type": "bool"
        }
      ],
      "name": "boolFunctionReturnsBytes1",
      "outputs": [
        {
          "name": "__bytes1",
          "type": "bytes1"
        }
      ],
      "payable": false,
      "stateMutability": "pure",
      "type": "function"
    },
    {
      "constant": true,
      "inputs": [
        {
          "name": "_uint8",
          "type": "uint8"
        }
      ],
      "name": "uint8FunctionReturnsBool",
      "outputs": [
        {
          "name": "__bool",
          "type": "bool"
        }
      ],
      "payable": false,
      "stateMutability": "pure",
      "type": "function"
    },
    {
      "constant": true,
      "inputs": [
        {
          "name": "_int256",
          "type": "int256"
        }
      ],
      "name": "int256FunctionReturnsUint256",
      "outputs": [
        {
          "name": "__uint256",
          "type": "uint256"
        }
      ],
      "payable": false,
      "stateMutability": "pure",
      "type": "function"
    },
    {
      "constant": true,
      "inputs": [
        {
          "name": "_address",
          "type": "address"
        }
      ],
      "name": "addressFunctionReturnsBytes32",
      "outputs": [
        {
          "name": "__bytes32",
          "type": "bytes32"
        }
      ],
      "payable": false,
      "stateMutability": "pure",
      "type": "function"
    },
    {
      "constant": true,
      "inputs": [
        {
          "name": "_int",
          "type": "int256"
        }
      ],
      "name": "intFunctionReturnsInt256",
      "outputs": [
        {
          "name": "__int256",
          "type": "int256"
        }
      ],
      "payable": false,
      "stateMutability": "pure",
      "type": "function"
    },
    {
      "constant": true,
      "inputs": [
        {
          "name": "_bytes1",
          "type": "bytes1"
        }
      ],
      "name": "bytes1FunctionReturnsUint256",
      "outputs": [
        {
          "name": "__uint256",
          "type": "uint256"
        }
      ],
      "payable": false,
      "stateMutability": "pure",
      "type": "function"
    },
    {
      "constant": true,
      "inputs": [
        {
          "name": "_byte",
          "type": "bytes1"
        }
      ],
      "name": "byteFunctionReturnsUint8",
      "outputs": [
        {
          "name": "__uint8",
          "type": "uint8"
        }
      ],
      "payable": false,
      "stateMutability": "pure",
      "type": "function"
    },
    {
      "constant": true,
      "inputs": [
        {
          "name": "_int",
          "type": "int256"
        }
      ],
      "name": "intFunctionReturnsUint256",
      "outputs": [
        {
          "name": "__uint256",
          "type": "uint256"
        }
      ],
      "payable": false,
      "stateMutability": "pure",
      "type": "function"
    },
    {
      "constant": true,
      "inputs": [
        {
          "name": "_string",
          "type": "string"
        }
      ],
      "name": "stringFunctionReturnsUint8",
      "outputs": [
        {
          "name": "__uint8",
          "type": "uint8"
        }
      ],
      "payable": false,
      "stateMutability": "pure",
      "type": "function"
    },
    {
      "constant": true,
      "inputs": [
        {
          "name": "_address",
          "type": "address"
        }
      ],
      "name": "addressFunctionReturnsUint256",
      "outputs": [
        {
          "name": "__uint256",
          "type": "uint256"
        }
      ],
      "payable": false,
      "stateMutability": "pure",
      "type": "function"
    },
    {
      "constant": true,
      "inputs": [
        {
          "name": "_int256",
          "type": "int256"
        }
      ],
      "name": "int256BytesFunctionReturnsInt256Bytes",
      "outputs": [
        {
          "name": "__int256",
          "type": "int256"
        },
        {
          "name": "_bytes_",
          "type": "bytes"
        }
      ],
      "payable": false,
      "stateMutability": "pure",
      "type": "function"
    },
    {
      "constant": true,
      "inputs": [
        {
          "name": "_int",
          "type": "int256"
        }
      ],
      "name": "intFunctionReturnsInt8",
      "outputs": [
        {
          "name": "__int8",
          "type": "int8"
        }
      ],
      "payable": false,
      "stateMutability": "pure",
      "type": "function"
    },
    {
      "constant": true,
      "inputs": [
        {
          "name": "_bytes1",
          "type": "bytes1"
        }
      ],
      "name": "bytes1FunctionReturnsInt8",
      "outputs": [
        {
          "name": "__int8",
          "type": "int8"
        }
      ],
      "payable": false,
      "stateMutability": "pure",
      "type": "function"
    },
    {
      "constant": true,
      "inputs": [
        {
          "name": "_int",
          "type": "int256"
        }
      ],
      "name": "intFunctionReturnsAddress",
      "outputs": [
        {
          "name": "__address",
          "type": "address"
        }
      ],
      "payable": false,
      "stateMutability": "pure",
      "type": "function"
    },
    {
      "constant": true,
      "inputs": [
        {
          "name": "_uint256",
          "type": "uint256"
        }
      ],
      "name": "uint256FunctionReturnsUint",
      "outputs": [
        {
          "name": "__uint",
          "type": "uint256"
        }
      ],
      "payable": false,
      "stateMutability": "pure",
      "type": "function"
    },
    {
      "constant": true,
      "inputs": [
        {
          "name": "_address",
          "type": "address"
        }
      ],
      "name": "addressFunctionReturnsBool",
      "outputs": [
        {
          "name": "__bool",
          "type": "bool"
        }
      ],
      "payable": false,
      "stateMutability": "pure",
      "type": "function"
    },
    {
      "constant": true,
      "inputs": [
        {
          "name": "_address",
          "type": "address"
        }
      ],
      "name": "addressFunctionReturnsByte",
      "outputs": [
        {
          "name": "__byte",
          "type": "bytes1"
        }
      ],
      "payable": false,
      "stateMutability": "pure",
      "type": "function"
    },
    {
      "constant": true,
      "inputs": [
        {
          "name": "_int",
          "type": "int256"
        }
      ],
      "name": "intFunctionReturnsBytes1",
      "outputs": [
        {
          "name": "__bytes1",
          "type": "bytes1"
        }
      ],
      "payable": false,
      "stateMutability": "pure",
      "type": "function"
    },
    {
      "constant": true,
      "inputs": [
        {
          "name": "_uint",
          "type": "uint256"
        }
      ],
      "name": "uintUint8FunctionReturnsUintUint8",
      "outputs": [
        {
          "name": "__uint",
          "type": "uint256"
        },
        {
          "name": "_uint8_",
          "type": "uint8"
        }
      ],
      "payable": false,
      "stateMutability": "pure",
      "type": "function"
    },
    {
      "constant": true,
      "inputs": [
        {
          "name": "_bool",
          "type": "bool"
        }
      ],
      "name": "boolByteFunctionReturnsBoolByte",
      "outputs": [
        {
          "name": "__bool",
          "type": "bool"
        },
        {
          "name": "_byte_",
          "type": "bytes1"
        }
      ],
      "payable": false,
      "stateMutability": "pure",
      "type": "function"
    },
    {
      "constant": true,
      "inputs": [
        {
          "name": "_string",
          "type": "string"
        }
      ],
      "name": "stringFunctionReturnsBool",
      "outputs": [
        {
          "name": "__bool",
          "type": "bool"
        }
      ],
      "payable": false,
      "stateMutability": "pure",
      "type": "function"
    },
    {
      "constant": true,
      "inputs": [
        {
          "name": "_bytes1",
          "type": "bytes1"
        }
      ],
      "name": "bytes1FunctionReturnsByte",
      "outputs": [
        {
          "name": "__byte",
          "type": "bytes1"
        }
      ],
      "payable": false,
      "stateMutability": "pure",
      "type": "function"
    },
    {
      "constant": true,
      "inputs": [
        {
          "name": "_address",
          "type": "address"
        }
      ],
      "name": "addressFunctionReturnsBytes1",
      "outputs": [
        {
          "name": "__bytes1",
          "type": "bytes1"
        }
      ],
      "payable": false,
      "stateMutability": "pure",
      "type": "function"
    },
    {
      "constant": true,
      "inputs": [
        {
          "name": "_uint256",
          "type": "uint256"
        }
      ],
      "name": "uint256FunctionReturnsByte",
      "outputs": [
        {
          "name": "__byte",
          "type": "bytes1"
        }
      ],
      "payable": false,
      "stateMutability": "pure",
      "type": "function"
    },
    {
      "constant": true,
      "inputs": [
        {
          "name": "_byte",
          "type": "bytes1"
        }
      ],
      "name": "byteFunctionReturnsBytes32",
      "outputs": [
        {
          "name": "__bytes32",
          "type": "bytes32"
        }
      ],
      "payable": false,
      "stateMutability": "pure",
      "type": "function"
    },
    {
      "constant": true,
      "inputs": [
        {
          "name": "_bytes1",
          "type": "bytes1"
        }
      ],
      "name": "bytes1FunctionReturnsInt",
      "outputs": [
        {
          "name": "__int",
          "type": "int256"
        }
      ],
      "payable": false,
      "stateMutability": "pure",
      "type": "function"
    },
    {
      "constant": true,
      "inputs": [
        {
          "name": "_bytes",
          "type": "bytes"
        }
      ],
      "name": "bytesFunctionReturnsByte",
      "outputs": [
        {
          "name": "__byte",
          "type": "bytes1"
        }
      ],
      "payable": false,
      "stateMutability": "pure",
      "type": "function"
    },
    {
      "constant": true,
      "inputs": [
        {
          "name": "_int8",
          "type": "int8"
        }
      ],
      "name": "int8FunctionReturnsUint256",
      "outputs": [
        {
          "name": "__uint256",
          "type": "uint256"
        }
      ],
      "payable": false,
      "stateMutability": "pure",
      "type": "function"
    },
    {
      "constant": true,
      "inputs": [
        {
          "name": "_int256",
          "type": "int256"
        }
      ],
      "name": "int256FunctionReturnsInt8",
      "outputs": [
        {
          "name": "__int8",
          "type": "int8"
        }
      ],
      "payable": false,
      "stateMutability": "pure",
      "type": "function"
    },
    {
      "constant": true,
      "inputs": [
        {
          "name": "_uint8",
          "type": "uint8"
        }
      ],
      "name": "uint8FunctionReturnsBytes1",
      "outputs": [
        {
          "name": "__bytes1",
          "type": "bytes1"
        }
      ],
      "payable": false,
      "stateMutability": "pure",
      "type": "function"
    },
    {
      "constant": true,
      "inputs": [
        {
          "name": "_int8",
          "type": "int8"
        }
      ],
      "name": "int8FunctionReturnsBool",
      "outputs": [
        {
          "name": "__bool",
          "type": "bool"
        }
      ],
      "payable": false,
      "stateMutability": "pure",
      "type": "function"
    },
    {
      "constant": true,
      "inputs": [
        {
          "name": "_bytes",
          "type": "bytes"
        }
      ],
      "name": "bytesFunctionReturnsInt8",
      "outputs": [
        {
          "name": "__int8",
          "type": "int8"
        }
      ],
      "payable": false,
      "stateMutability": "pure",
      "type": "function"
    },
    {
      "constant": true,
      "inputs": [
        {
          "name": "_bytes32",
          "type": "bytes32"
        }
      ],
      "name": "bytes32FunctionReturnsAddress",
      "outputs": [
        {
          "name": "__address",
          "type": "address"
        }
      ],
      "payable": false,
      "stateMutability": "pure",
      "type": "function"
    },
    {
      "constant": true,
      "inputs": [
        {
          "name": "_int",
          "type": "int256"
        }
      ],
      "name": "intFunctionReturnsByte",
      "outputs": [
        {
          "name": "__byte",
          "type": "bytes1"
        }
      ],
      "payable": false,
      "stateMutability": "pure",
      "type": "function"
    },
    {
      "constant": true,
      "inputs": [
        {
          "name": "_bytes1",
          "type": "bytes1"
        }
      ],
      "name": "bytes1FunctionReturnsUint8",
      "outputs": [
        {
          "name": "__uint8",
          "type": "uint8"
        }
      ],
      "payable": false,
      "stateMutability": "pure",
      "type": "function"
    },
    {
      "constant": true,
      "inputs": [
        {
          "name": "_uint",
          "type": "uint256"
        }
      ],
      "name": "uintFunctionReturnsAddress",
      "outputs": [
        {
          "name": "__address",
          "type": "address"
        }
      ],
      "payable": false,
      "stateMutability": "pure",
      "type": "function"
    },
    {
      "constant": true,
      "inputs": [
        {
          "name": "_byte",
          "type": "bytes1"
        }
      ],
      "name": "byteFunctionReturnsBool",
      "outputs": [
        {
          "name": "__bool",
          "type": "bool"
        }
      ],
      "payable": false,
      "stateMutability": "pure",
      "type": "function"
    },
    {
      "constant": true,
      "inputs": [
        {
          "name": "_int",
          "type": "int256"
        }
      ],
      "name": "intFunctionReturnsBool",
      "outputs": [
        {
          "name": "__bool",
          "type": "bool"
        }
      ],
      "payable": false,
      "stateMutability": "pure",
      "type": "function"
    },
    {
      "constant": true,
      "inputs": [
        {
          "name": "_bytes1",
          "type": "bytes1"
        }
      ],
      "name": "bytes1FunctionReturnsString",
      "outputs": [
        {
          "name": "__string",
          "type": "string"
        }
      ],
      "payable": false,
      "stateMutability": "pure",
      "type": "function"
    },
    {
      "constant": true,
      "inputs": [
        {
          "name": "_bytes32",
          "type": "bytes32"
        }
      ],
      "name": "bytes32FunctionReturnsUint256",
      "outputs": [
        {
          "name": "__uint256",
          "type": "uint256"
        }
      ],
      "payable": false,
      "stateMutability": "pure",
      "type": "function"
    },
    {
      "constant": true,
      "inputs": [
        {
          "name": "_address",
          "type": "address"
        }
      ],
      "name": "addressFunctionReturnsString",
      "outputs": [
        {
          "name": "__string",
          "type": "string"
        }
      ],
      "payable": false,
      "stateMutability": "pure",
      "type": "function"
    },
    {
      "constant": true,
      "inputs": [
        {
          "name": "_int8",
          "type": "int8"
        }
      ],
      "name": "int8StringFunctionReturnsInt8String",
      "outputs": [
        {
          "name": "__int8",
          "type": "int8"
        },
        {
          "name": "_string_",
          "type": "string"
        }
      ],
      "payable": false,
      "stateMutability": "pure",
      "type": "function"
    },
    {
      "constant": true,
      "inputs": [
        {
          "name": "_int",
          "type": "int256"
        }
      ],
      "name": "intFunctionReturnsUint",
      "outputs": [
        {
          "name": "__uint",
          "type": "uint256"
        }
      ],
      "payable": false,
      "stateMutability": "pure",
      "type": "function"
    },
    {
      "constant": true,
      "inputs": [
        {
          "name": "_int256",
          "type": "int256"
        }
      ],
      "name": "int256FunctionReturnsBytes32",
      "outputs": [
        {
          "name": "__bytes32",
          "type": "bytes32"
        }
      ],
      "payable": false,
      "stateMutability": "pure",
      "type": "function"
    },
    {
      "constant": true,
      "inputs": [
        {
          "name": "_bytes1",
          "type": "bytes1"
        }
      ],
      "name": "bytes1FunctionReturnsBool",
      "outputs": [
        {
          "name": "__bool",
          "type": "bool"
        }
      ],
      "payable": false,
      "stateMutability": "pure",
      "type": "function"
    },
    {
      "constant": true,
      "inputs": [
        {
          "name": "_bytes32",
          "type": "bytes32"
        }
      ],
      "name": "bytes32BoolFunctionReturnsBytes32Bool",
      "outputs": [
        {
          "name": "__bytes32",
          "type": "bytes32"
        },
        {
          "name": "_bool_",
          "type": "bool"
        }
      ],
      "payable": false,
      "stateMutability": "pure",
      "type": "function"
    },
    {
      "inputs": [],
      "payable": false,
      "stateMutability": "nonpayable",
      "type": "constructor"
    },
    {
      "anonymous": false,
      "inputs": [
        {
          "indexed": false,
          "name": "__bool",
          "type": "bool"
        }
      ],
      "name": "BoolEventReturnsBool",
      "type": "event"
    },
    {
      "anonymous": false,
      "inputs": [
        {
          "indexed": false,
          "name": "__int",
          "type": "int256"
        }
      ],
      "name": "BoolEventReturnsInt",
      "type": "event"
    },
    {
      "anonymous": false,
      "inputs": [
        {
          "indexed": false,
          "name": "__int8",
          "type": "int8"
        }
      ],
      "name": "BoolEventReturnsInt8",
      "type": "event"
    },
    {
      "anonymous": false,
      "inputs": [
        {
          "indexed": false,
          "name": "__int256",
          "type": "int256"
        }
      ],
      "name": "BoolEventReturnsInt256",
      "type": "event"
    },
    {
      "anonymous": false,
      "inputs": [
        {
          "indexed": false,
          "name": "__uint",
          "type": "uint256"
        }
      ],
      "name": "BoolEventReturnsUint",
      "type": "event"
    },
    {
      "anonymous": false,
      "inputs": [
        {
          "indexed": false,
          "name": "__uint8",
          "type": "uint8"
        }
      ],
      "name": "BoolEventReturnsUint8",
      "type": "event"
    },
    {
      "anonymous": false,
      "inputs": [
        {
          "indexed": false,
          "name": "__uint256",
          "type": "uint256"
        }
      ],
      "name": "BoolEventReturnsUint256",
      "type": "event"
    },
    {
      "anonymous": false,
      "inputs": [
        {
          "indexed": false,
          "name": "__address",
          "type": "address"
        }
      ],
      "name": "BoolEventReturnsAddress",
      "type": "event"
    },
    {
      "anonymous": false,
      "inputs": [
        {
          "indexed": false,
          "name": "__byte",
          "type": "bytes1"
        }
      ],
      "name": "BoolEventReturnsByte",
      "type": "event"
    },
    {
      "anonymous": false,
      "inputs": [
        {
          "indexed": false,
          "name": "__bytes1",
          "type": "bytes1"
        }
      ],
      "name": "BoolEventReturnsBytes1",
      "type": "event"
    },
    {
      "anonymous": false,
      "inputs": [
        {
          "indexed": false,
          "name": "__bytes32",
          "type": "bytes32"
        }
      ],
      "name": "BoolEventReturnsBytes32",
      "type": "event"
    },
    {
      "anonymous": false,
      "inputs": [
        {
          "indexed": false,
          "name": "__bytes",
          "type": "bytes"
        }
      ],
      "name": "BoolEventReturnsBytes",
      "type": "event"
    },
    {
      "anonymous": false,
      "inputs": [
        {
          "indexed": false,
          "name": "__string",
          "type": "string"
        }
      ],
      "name": "BoolEventReturnsString",
      "type": "event"
    },
    {
      "anonymous": false,
      "inputs": [
        {
          "indexed": false,
          "name": "__bool",
          "type": "bool"
        }
      ],
      "name": "IntEventReturnsBool",
      "type": "event"
    },
    {
      "anonymous": false,
      "inputs": [
        {
          "indexed": false,
          "name": "__int",
          "type": "int256"
        }
      ],
      "name": "IntEventReturnsInt",
      "type": "event"
    },
    {
      "anonymous": false,
      "inputs": [
        {
          "indexed": false,
          "name": "__int8",
          "type": "int8"
        }
      ],
      "name": "IntEventReturnsInt8",
      "type": "event"
    },
    {
      "anonymous": false,
      "inputs": [
        {
          "indexed": false,
          "name": "__int256",
          "type": "int256"
        }
      ],
      "name": "IntEventReturnsInt256",
      "type": "event"
    },
    {
      "anonymous": false,
      "inputs": [
        {
          "indexed": false,
          "name": "__uint",
          "type": "uint256"
        }
      ],
      "name": "IntEventReturnsUint",
      "type": "event"
    },
    {
      "anonymous": false,
      "inputs": [
        {
          "indexed": false,
          "name": "__uint8",
          "type": "uint8"
        }
      ],
      "name": "IntEventReturnsUint8",
      "type": "event"
    },
    {
      "anonymous": false,
      "inputs": [
        {
          "indexed": false,
          "name": "__uint256",
          "type": "uint256"
        }
      ],
      "name": "IntEventReturnsUint256",
      "type": "event"
    },
    {
      "anonymous": false,
      "inputs": [
        {
          "indexed": false,
          "name": "__address",
          "type": "address"
        }
      ],
      "name": "IntEventReturnsAddress",
      "type": "event"
    },
    {
      "anonymous": false,
      "inputs": [
        {
          "indexed": false,
          "name": "__byte",
          "type": "bytes1"
        }
      ],
      "name": "IntEventReturnsByte",
      "type": "event"
    },
    {
      "anonymous": false,
      "inputs": [
        {
          "indexed": false,
          "name": "__bytes1",
          "type": "bytes1"
        }
      ],
      "name": "IntEventReturnsBytes1",
      "type": "event"
    },
    {
      "anonymous": false,
      "inputs": [
        {
          "indexed": false,
          "name": "__bytes32",
          "type": "bytes32"
        }
      ],
      "name": "IntEventReturnsBytes32",
      "type": "event"
    },
    {
      "anonymous": false,
      "inputs": [
        {
          "indexed": false,
          "name": "__bytes",
          "type": "bytes"
        }
      ],
      "name": "IntEventReturnsBytes",
      "type": "event"
    },
    {
      "anonymous": false,
      "inputs": [
        {
          "indexed": false,
          "name": "__string",
          "type": "string"
        }
      ],
      "name": "IntEventReturnsString",
      "type": "event"
    },
    {
      "anonymous": false,
      "inputs": [
        {
          "indexed": false,
          "name": "__bool",
          "type": "bool"
        }
      ],
      "name": "Int8EventReturnsBool",
      "type": "event"
    },
    {
      "anonymous": false,
      "inputs": [
        {
          "indexed": false,
          "name": "__int",
          "type": "int256"
        }
      ],
      "name": "Int8EventReturnsInt",
      "type": "event"
    },
    {
      "anonymous": false,
      "inputs": [
        {
          "indexed": false,
          "name": "__int8",
          "type": "int8"
        }
      ],
      "name": "Int8EventReturnsInt8",
      "type": "event"
    },
    {
      "anonymous": false,
      "inputs": [
        {
          "indexed": false,
          "name": "__int256",
          "type": "int256"
        }
      ],
      "name": "Int8EventReturnsInt256",
      "type": "event"
    },
    {
      "anonymous": false,
      "inputs": [
        {
          "indexed": false,
          "name": "__uint",
          "type": "uint256"
        }
      ],
      "name": "Int8EventReturnsUint",
      "type": "event"
    },
    {
      "anonymous": false,
      "inputs": [
        {
          "indexed": false,
          "name": "__uint8",
          "type": "uint8"
        }
      ],
      "name": "Int8EventReturnsUint8",
      "type": "event"
    },
    {
      "anonymous": false,
      "inputs": [
        {
          "indexed": false,
          "name": "__uint256",
          "type": "uint256"
        }
      ],
      "name": "Int8EventReturnsUint256",
      "type": "event"
    },
    {
      "anonymous": false,
      "inputs": [
        {
          "indexed": false,
          "name": "__address",
          "type": "address"
        }
      ],
      "name": "Int8EventReturnsAddress",
      "type": "event"
    },
    {
      "anonymous": false,
      "inputs": [
        {
          "indexed": false,
          "name": "__byte",
          "type": "bytes1"
        }
      ],
      "name": "Int8EventReturnsByte",
      "type": "event"
    },
    {
      "anonymous": false,
      "inputs": [
        {
          "indexed": false,
          "name": "__bytes1",
          "type": "bytes1"
        }
      ],
      "name": "Int8EventReturnsBytes1",
      "type": "event"
    },
    {
      "anonymous": false,
      "inputs": [
        {
          "indexed": false,
          "name": "__bytes32",
          "type": "bytes32"
        }
      ],
      "name": "Int8EventReturnsBytes32",
      "type": "event"
    },
    {
      "anonymous": false,
      "inputs": [
        {
          "indexed": false,
          "name": "__bytes",
          "type": "bytes"
        }
      ],
      "name": "Int8EventReturnsBytes",
      "type": "event"
    },
    {
      "anonymous": false,
      "inputs": [
        {
          "indexed": false,
          "name": "__string",
          "type": "string"
        }
      ],
      "name": "Int8EventReturnsString",
      "type": "event"
    },
    {
      "anonymous": false,
      "inputs": [
        {
          "indexed": false,
          "name": "__bool",
          "type": "bool"
        }
      ],
      "name": "Int256EventReturnsBool",
      "type": "event"
    },
    {
      "anonymous": false,
      "inputs": [
        {
          "indexed": false,
          "name": "__int",
          "type": "int256"
        }
      ],
      "name": "Int256EventReturnsInt",
      "type": "event"
    },
    {
      "anonymous": false,
      "inputs": [
        {
          "indexed": false,
          "name": "__int8",
          "type": "int8"
        }
      ],
      "name": "Int256EventReturnsInt8",
      "type": "event"
    },
    {
      "anonymous": false,
      "inputs": [
        {
          "indexed": false,
          "name": "__int256",
          "type": "int256"
        }
      ],
      "name": "Int256EventReturnsInt256",
      "type": "event"
    },
    {
      "anonymous": false,
      "inputs": [
        {
          "indexed": false,
          "name": "__uint",
          "type": "uint256"
        }
      ],
      "name": "Int256EventReturnsUint",
      "type": "event"
    },
    {
      "anonymous": false,
      "inputs": [
        {
          "indexed": false,
          "name": "__uint8",
          "type": "uint8"
        }
      ],
      "name": "Int256EventReturnsUint8",
      "type": "event"
    },
    {
      "anonymous": false,
      "inputs": [
        {
          "indexed": false,
          "name": "__uint256",
          "type": "uint256"
        }
      ],
      "name": "Int256EventReturnsUint256",
      "type": "event"
    },
    {
      "anonymous": false,
      "inputs": [
        {
          "indexed": false,
          "name": "__address",
          "type": "address"
        }
      ],
      "name": "Int256EventReturnsAddress",
      "type": "event"
    },
    {
      "anonymous": false,
      "inputs": [
        {
          "indexed": false,
          "name": "__byte",
          "type": "bytes1"
        }
      ],
      "name": "Int256EventReturnsByte",
      "type": "event"
    },
    {
      "anonymous": false,
      "inputs": [
        {
          "indexed": false,
          "name": "__bytes1",
          "type": "bytes1"
        }
      ],
      "name": "Int256EventReturnsBytes1",
      "type": "event"
    },
    {
      "anonymous": false,
      "inputs": [
        {
          "indexed": false,
          "name": "__bytes32",
          "type": "bytes32"
        }
      ],
      "name": "Int256EventReturnsBytes32",
      "type": "event"
    },
    {
      "anonymous": false,
      "inputs": [
        {
          "indexed": false,
          "name": "__bytes",
          "type": "bytes"
        }
      ],
      "name": "Int256EventReturnsBytes",
      "type": "event"
    },
    {
      "anonymous": false,
      "inputs": [
        {
          "indexed": false,
          "name": "__string",
          "type": "string"
        }
      ],
      "name": "Int256EventReturnsString",
      "type": "event"
    },
    {
      "anonymous": false,
      "inputs": [
        {
          "indexed": false,
          "name": "__bool",
          "type": "bool"
        }
      ],
      "name": "UintEventReturnsBool",
      "type": "event"
    },
    {
      "anonymous": false,
      "inputs": [
        {
          "indexed": false,
          "name": "__int",
          "type": "int256"
        }
      ],
      "name": "UintEventReturnsInt",
      "type": "event"
    },
    {
      "anonymous": false,
      "inputs": [
        {
          "indexed": false,
          "name": "__int8",
          "type": "int8"
        }
      ],
      "name": "UintEventReturnsInt8",
      "type": "event"
    },
    {
      "anonymous": false,
      "inputs": [
        {
          "indexed": false,
          "name": "__int256",
          "type": "int256"
        }
      ],
      "name": "UintEventReturnsInt256",
      "type": "event"
    },
    {
      "anonymous": false,
      "inputs": [
        {
          "indexed": false,
          "name": "__uint",
          "type": "uint256"
        }
      ],
      "name": "UintEventReturnsUint",
      "type": "event"
    },
    {
      "anonymous": false,
      "inputs": [
        {
          "indexed": false,
          "name": "__uint8",
          "type": "uint8"
        }
      ],
      "name": "UintEventReturnsUint8",
      "type": "event"
    },
    {
      "anonymous": false,
      "inputs": [
        {
          "indexed": false,
          "name": "__uint256",
          "type": "uint256"
        }
      ],
      "name": "UintEventReturnsUint256",
      "type": "event"
    },
    {
      "anonymous": false,
      "inputs": [
        {
          "indexed": false,
          "name": "__address",
          "type": "address"
        }
      ],
      "name": "UintEventReturnsAddress",
      "type": "event"
    },
    {
      "anonymous": false,
      "inputs": [
        {
          "indexed": false,
          "name": "__byte",
          "type": "bytes1"
        }
      ],
      "name": "UintEventReturnsByte",
      "type": "event"
    },
    {
      "anonymous": false,
      "inputs": [
        {
          "indexed": false,
          "name": "__bytes1",
          "type": "bytes1"
        }
      ],
      "name": "UintEventReturnsBytes1",
      "type": "event"
    },
    {
      "anonymous": false,
      "inputs": [
        {
          "indexed": false,
          "name": "__bytes32",
          "type": "bytes32"
        }
      ],
      "name": "UintEventReturnsBytes32",
      "type": "event"
    },
    {
      "anonymous": false,
      "inputs": [
        {
          "indexed": false,
          "name": "__bytes",
          "type": "bytes"
        }
      ],
      "name": "UintEventReturnsBytes",
      "type": "event"
    },
    {
      "anonymous": false,
      "inputs": [
        {
          "indexed": false,
          "name": "__string",
          "type": "string"
        }
      ],
      "name": "UintEventReturnsString",
      "type": "event"
    },
    {
      "anonymous": false,
      "inputs": [
        {
          "indexed": false,
          "name": "__bool",
          "type": "bool"
        }
      ],
      "name": "Uint8EventReturnsBool",
      "type": "event"
    },
    {
      "anonymous": false,
      "inputs": [
        {
          "indexed": false,
          "name": "__int",
          "type": "int256"
        }
      ],
      "name": "Uint8EventReturnsInt",
      "type": "event"
    },
    {
      "anonymous": false,
      "inputs": [
        {
          "indexed": false,
          "name": "__int8",
          "type": "int8"
        }
      ],
      "name": "Uint8EventReturnsInt8",
      "type": "event"
    },
    {
      "anonymous": false,
      "inputs": [
        {
          "indexed": false,
          "name": "__int256",
          "type": "int256"
        }
      ],
      "name": "Uint8EventReturnsInt256",
      "type": "event"
    },
    {
      "anonymous": false,
      "inputs": [
        {
          "indexed": false,
          "name": "__uint",
          "type": "uint256"
        }
      ],
      "name": "Uint8EventReturnsUint",
      "type": "event"
    },
    {
      "anonymous": false,
      "inputs": [
        {
          "indexed": false,
          "name": "__uint8",
          "type": "uint8"
        }
      ],
      "name": "Uint8EventReturnsUint8",
      "type": "event"
    },
    {
      "anonymous": false,
      "inputs": [
        {
          "indexed": false,
          "name": "__uint256",
          "type": "uint256"
        }
      ],
      "name": "Uint8EventReturnsUint256",
      "type": "event"
    },
    {
      "anonymous": false,
      "inputs": [
        {
          "indexed": false,
          "name": "__address",
          "type": "address"
        }
      ],
      "name": "Uint8EventReturnsAddress",
      "type": "event"
    },
    {
      "anonymous": false,
      "inputs": [
        {
          "indexed": false,
          "name": "__byte",
          "type": "bytes1"
        }
      ],
      "name": "Uint8EventReturnsByte",
      "type": "event"
    },
    {
      "anonymous": false,
      "inputs": [
        {
          "indexed": false,
          "name": "__bytes1",
          "type": "bytes1"
        }
      ],
      "name": "Uint8EventReturnsBytes1",
      "type": "event"
    },
    {
      "anonymous": false,
      "inputs": [
        {
          "indexed": false,
          "name": "__bytes32",
          "type": "bytes32"
        }
      ],
      "name": "Uint8EventReturnsBytes32",
      "type": "event"
    },
    {
      "anonymous": false,
      "inputs": [
        {
          "indexed": false,
          "name": "__bytes",
          "type": "bytes"
        }
      ],
      "name": "Uint8EventReturnsBytes",
      "type": "event"
    },
    {
      "anonymous": false,
      "inputs": [
        {
          "indexed": false,
          "name": "__string",
          "type": "string"
        }
      ],
      "name": "Uint8EventReturnsString",
      "type": "event"
    },
    {
      "anonymous": false,
      "inputs": [
        {
          "indexed": false,
          "name": "__bool",
          "type": "bool"
        }
      ],
      "name": "Uint256EventReturnsBool",
      "type": "event"
    },
    {
      "anonymous": false,
      "inputs": [
        {
          "indexed": false,
          "name": "__int",
          "type": "int256"
        }
      ],
      "name": "Uint256EventReturnsInt",
      "type": "event"
    },
    {
      "anonymous": false,
      "inputs": [
        {
          "indexed": false,
          "name": "__int8",
          "type": "int8"
        }
      ],
      "name": "Uint256EventReturnsInt8",
      "type": "event"
    },
    {
      "anonymous": false,
      "inputs": [
        {
          "indexed": false,
          "name": "__int256",
          "type": "int256"
        }
      ],
      "name": "Uint256EventReturnsInt256",
      "type": "event"
    },
    {
      "anonymous": false,
      "inputs": [
        {
          "indexed": false,
          "name": "__uint",
          "type": "uint256"
        }
      ],
      "name": "Uint256EventReturnsUint",
      "type": "event"
    },
    {
      "anonymous": false,
      "inputs": [
        {
          "indexed": false,
          "name": "__uint8",
          "type": "uint8"
        }
      ],
      "name": "Uint256EventReturnsUint8",
      "type": "event"
    },
    {
      "anonymous": false,
      "inputs": [
        {
          "indexed": false,
          "name": "__uint256",
          "type": "uint256"
        }
      ],
      "name": "Uint256EventReturnsUint256",
      "type": "event"
    },
    {
      "anonymous": false,
      "inputs": [
        {
          "indexed": false,
          "name": "__address",
          "type": "address"
        }
      ],
      "name": "Uint256EventReturnsAddress",
      "type": "event"
    },
    {
      "anonymous": false,
      "inputs": [
        {
          "indexed": false,
          "name": "__byte",
          "type": "bytes1"
        }
      ],
      "name": "Uint256EventReturnsByte",
      "type": "event"
    },
    {
      "anonymous": false,
      "inputs": [
        {
          "indexed": false,
          "name": "__bytes1",
          "type": "bytes1"
        }
      ],
      "name": "Uint256EventReturnsBytes1",
      "type": "event"
    },
    {
      "anonymous": false,
      "inputs": [
        {
          "indexed": false,
          "name": "__bytes32",
          "type": "bytes32"
        }
      ],
      "name": "Uint256EventReturnsBytes32",
      "type": "event"
    },
    {
      "anonymous": false,
      "inputs": [
        {
          "indexed": false,
          "name": "__bytes",
          "type": "bytes"
        }
      ],
      "name": "Uint256EventReturnsBytes",
      "type": "event"
    },
    {
      "anonymous": false,
      "inputs": [
        {
          "indexed": false,
          "name": "__string",
          "type": "string"
        }
      ],
      "name": "Uint256EventReturnsString",
      "type": "event"
    },
    {
      "anonymous": false,
      "inputs": [
        {
          "indexed": false,
          "name": "__bool",
          "type": "bool"
        }
      ],
      "name": "AddressEventReturnsBool",
      "type": "event"
    },
    {
      "anonymous": false,
      "inputs": [
        {
          "indexed": false,
          "name": "__int",
          "type": "int256"
        }
      ],
      "name": "AddressEventReturnsInt",
      "type": "event"
    },
    {
      "anonymous": false,
      "inputs": [
        {
          "indexed": false,
          "name": "__int8",
          "type": "int8"
        }
      ],
      "name": "AddressEventReturnsInt8",
      "type": "event"
    },
    {
      "anonymous": false,
      "inputs": [
        {
          "indexed": false,
          "name": "__int256",
          "type": "int256"
        }
      ],
      "name": "AddressEventReturnsInt256",
      "type": "event"
    },
    {
      "anonymous": false,
      "inputs": [
        {
          "indexed": false,
          "name": "__uint",
          "type": "uint256"
        }
      ],
      "name": "AddressEventReturnsUint",
      "type": "event"
    },
    {
      "anonymous": false,
      "inputs": [
        {
          "indexed": false,
          "name": "__uint8",
          "type": "uint8"
        }
      ],
      "name": "AddressEventReturnsUint8",
      "type": "event"
    },
    {
      "anonymous": false,
      "inputs": [
        {
          "indexed": false,
          "name": "__uint256",
          "type": "uint256"
        }
      ],
      "name": "AddressEventReturnsUint256",
      "type": "event"
    },
    {
      "anonymous": false,
      "inputs": [
        {
          "indexed": false,
          "name": "__address",
          "type": "address"
        }
      ],
      "name": "AddressEventReturnsAddress",
      "type": "event"
    },
    {
      "anonymous": false,
      "inputs": [
        {
          "indexed": false,
          "name": "__byte",
          "type": "bytes1"
        }
      ],
      "name": "AddressEventReturnsByte",
      "type": "event"
    },
    {
      "anonymous": false,
      "inputs": [
        {
          "indexed": false,
          "name": "__bytes1",
          "type": "bytes1"
        }
      ],
      "name": "AddressEventReturnsBytes1",
      "type": "event"
    },
    {
      "anonymous": false,
      "inputs": [
        {
          "indexed": false,
          "name": "__bytes32",
          "type": "bytes32"
        }
      ],
      "name": "AddressEventReturnsBytes32",
      "type": "event"
    },
    {
      "anonymous": false,
      "inputs": [
        {
          "indexed": false,
          "name": "__bytes",
          "type": "bytes"
        }
      ],
      "name": "AddressEventReturnsBytes",
      "type": "event"
    },
    {
      "anonymous": false,
      "inputs": [
        {
          "indexed": false,
          "name": "__string",
          "type": "string"
        }
      ],
      "name": "AddressEventReturnsString",
      "type": "event"
    },
    {
      "anonymous": false,
      "inputs": [
        {
          "indexed": false,
          "name": "__bool",
          "type": "bool"
        }
      ],
      "name": "ByteEventReturnsBool",
      "type": "event"
    },
    {
      "anonymous": false,
      "inputs": [
        {
          "indexed": false,
          "name": "__int",
          "type": "int256"
        }
      ],
      "name": "ByteEventReturnsInt",
      "type": "event"
    },
    {
      "anonymous": false,
      "inputs": [
        {
          "indexed": false,
          "name": "__int8",
          "type": "int8"
        }
      ],
      "name": "ByteEventReturnsInt8",
      "type": "event"
    },
    {
      "anonymous": false,
      "inputs": [
        {
          "indexed": false,
          "name": "__int256",
          "type": "int256"
        }
      ],
      "name": "ByteEventReturnsInt256",
      "type": "event"
    },
    {
      "anonymous": false,
      "inputs": [
        {
          "indexed": false,
          "name": "__uint",
          "type": "uint256"
        }
      ],
      "name": "ByteEventReturnsUint",
      "type": "event"
    },
    {
      "anonymous": false,
      "inputs": [
        {
          "indexed": false,
          "name": "__uint8",
          "type": "uint8"
        }
      ],
      "name": "ByteEventReturnsUint8",
      "type": "event"
    },
    {
      "anonymous": false,
      "inputs": [
        {
          "indexed": false,
          "name": "__uint256",
          "type": "uint256"
        }
      ],
      "name": "ByteEventReturnsUint256",
      "type": "event"
    },
    {
      "anonymous": false,
      "inputs": [
        {
          "indexed": false,
          "name": "__address",
          "type": "address"
        }
      ],
      "name": "ByteEventReturnsAddress",
      "type": "event"
    },
    {
      "anonymous": false,
      "inputs": [
        {
          "indexed": false,
          "name": "__byte",
          "type": "bytes1"
        }
      ],
      "name": "ByteEventReturnsByte",
      "type": "event"
    },
    {
      "anonymous": false,
      "inputs": [
        {
          "indexed": false,
          "name": "__bytes1",
          "type": "bytes1"
        }
      ],
      "name": "ByteEventReturnsBytes1",
      "type": "event"
    },
    {
      "anonymous": false,
      "inputs": [
        {
          "indexed": false,
          "name": "__bytes32",
          "type": "bytes32"
        }
      ],
      "name": "ByteEventReturnsBytes32",
      "type": "event"
    },
    {
      "anonymous": false,
      "inputs": [
        {
          "indexed": false,
          "name": "__bytes",
          "type": "bytes"
        }
      ],
      "name": "ByteEventReturnsBytes",
      "type": "event"
    },
    {
      "anonymous": false,
      "inputs": [
        {
          "indexed": false,
          "name": "__string",
          "type": "string"
        }
      ],
      "name": "ByteEventReturnsString",
      "type": "event"
    },
    {
      "anonymous": false,
      "inputs": [
        {
          "indexed": false,
          "name": "__bool",
          "type": "bool"
        }
      ],
      "name": "Bytes1EventReturnsBool",
      "type": "event"
    },
    {
      "anonymous": false,
      "inputs": [
        {
          "indexed": false,
          "name": "__int",
          "type": "int256"
        }
      ],
      "name": "Bytes1EventReturnsInt",
      "type": "event"
    },
    {
      "anonymous": false,
      "inputs": [
        {
          "indexed": false,
          "name": "__int8",
          "type": "int8"
        }
      ],
      "name": "Bytes1EventReturnsInt8",
      "type": "event"
    },
    {
      "anonymous": false,
      "inputs": [
        {
          "indexed": false,
          "name": "__int256",
          "type": "int256"
        }
      ],
      "name": "Bytes1EventReturnsInt256",
      "type": "event"
    },
    {
      "anonymous": false,
      "inputs": [
        {
          "indexed": false,
          "name": "__uint",
          "type": "uint256"
        }
      ],
      "name": "Bytes1EventReturnsUint",
      "type": "event"
    },
    {
      "anonymous": false,
      "inputs": [
        {
          "indexed": false,
          "name": "__uint8",
          "type": "uint8"
        }
      ],
      "name": "Bytes1EventReturnsUint8",
      "type": "event"
    },
    {
      "anonymous": false,
      "inputs": [
        {
          "indexed": false,
          "name": "__uint256",
          "type": "uint256"
        }
      ],
      "name": "Bytes1EventReturnsUint256",
      "type": "event"
    },
    {
      "anonymous": false,
      "inputs": [
        {
          "indexed": false,
          "name": "__address",
          "type": "address"
        }
      ],
      "name": "Bytes1EventReturnsAddress",
      "type": "event"
    },
    {
      "anonymous": false,
      "inputs": [
        {
          "indexed": false,
          "name": "__byte",
          "type": "bytes1"
        }
      ],
      "name": "Bytes1EventReturnsByte",
      "type": "event"
    },
    {
      "anonymous": false,
      "inputs": [
        {
          "indexed": false,
          "name": "__bytes1",
          "type": "bytes1"
        }
      ],
      "name": "Bytes1EventReturnsBytes1",
      "type": "event"
    },
    {
      "anonymous": false,
      "inputs": [
        {
          "indexed": false,
          "name": "__bytes32",
          "type": "bytes32"
        }
      ],
      "name": "Bytes1EventReturnsBytes32",
      "type": "event"
    },
    {
      "anonymous": false,
      "inputs": [
        {
          "indexed": false,
          "name": "__bytes",
          "type": "bytes"
        }
      ],
      "name": "Bytes1EventReturnsBytes",
      "type": "event"
    },
    {
      "anonymous": false,
      "inputs": [
        {
          "indexed": false,
          "name": "__string",
          "type": "string"
        }
      ],
      "name": "Bytes1EventReturnsString",
      "type": "event"
    },
    {
      "anonymous": false,
      "inputs": [
        {
          "indexed": false,
          "name": "__bool",
          "type": "bool"
        }
      ],
      "name": "Bytes32EventReturnsBool",
      "type": "event"
    },
    {
      "anonymous": false,
      "inputs": [
        {
          "indexed": false,
          "name": "__int",
          "type": "int256"
        }
      ],
      "name": "Bytes32EventReturnsInt",
      "type": "event"
    },
    {
      "anonymous": false,
      "inputs": [
        {
          "indexed": false,
          "name": "__int8",
          "type": "int8"
        }
      ],
      "name": "Bytes32EventReturnsInt8",
      "type": "event"
    },
    {
      "anonymous": false,
      "inputs": [
        {
          "indexed": false,
          "name": "__int256",
          "type": "int256"
        }
      ],
      "name": "Bytes32EventReturnsInt256",
      "type": "event"
    },
    {
      "anonymous": false,
      "inputs": [
        {
          "indexed": false,
          "name": "__uint",
          "type": "uint256"
        }
      ],
      "name": "Bytes32EventReturnsUint",
      "type": "event"
    },
    {
      "anonymous": false,
      "inputs": [
        {
          "indexed": false,
          "name": "__uint8",
          "type": "uint8"
        }
      ],
      "name": "Bytes32EventReturnsUint8",
      "type": "event"
    },
    {
      "anonymous": false,
      "inputs": [
        {
          "indexed": false,
          "name": "__uint256",
          "type": "uint256"
        }
      ],
      "name": "Bytes32EventReturnsUint256",
      "type": "event"
    },
    {
      "anonymous": false,
      "inputs": [
        {
          "indexed": false,
          "name": "__address",
          "type": "address"
        }
      ],
      "name": "Bytes32EventReturnsAddress",
      "type": "event"
    },
    {
      "anonymous": false,
      "inputs": [
        {
          "indexed": false,
          "name": "__byte",
          "type": "bytes1"
        }
      ],
      "name": "Bytes32EventReturnsByte",
      "type": "event"
    },
    {
      "anonymous": false,
      "inputs": [
        {
          "indexed": false,
          "name": "__bytes1",
          "type": "bytes1"
        }
      ],
      "name": "Bytes32EventReturnsBytes1",
      "type": "event"
    },
    {
      "anonymous": false,
      "inputs": [
        {
          "indexed": false,
          "name": "__bytes32",
          "type": "bytes32"
        }
      ],
      "name": "Bytes32EventReturnsBytes32",
      "type": "event"
    },
    {
      "anonymous": false,
      "inputs": [
        {
          "indexed": false,
          "name": "__bytes",
          "type": "bytes"
        }
      ],
      "name": "Bytes32EventReturnsBytes",
      "type": "event"
    },
    {
      "anonymous": false,
      "inputs": [
        {
          "indexed": false,
          "name": "__string",
          "type": "string"
        }
      ],
      "name": "Bytes32EventReturnsString",
      "type": "event"
    },
    {
      "anonymous": false,
      "inputs": [
        {
          "indexed": false,
          "name": "__bool",
          "type": "bool"
        }
      ],
      "name": "BytesEventReturnsBool",
      "type": "event"
    },
    {
      "anonymous": false,
      "inputs": [
        {
          "indexed": false,
          "name": "__int",
          "type": "int256"
        }
      ],
      "name": "BytesEventReturnsInt",
      "type": "event"
    },
    {
      "anonymous": false,
      "inputs": [
        {
          "indexed": false,
          "name": "__int8",
          "type": "int8"
        }
      ],
      "name": "BytesEventReturnsInt8",
      "type": "event"
    },
    {
      "anonymous": false,
      "inputs": [
        {
          "indexed": false,
          "name": "__int256",
          "type": "int256"
        }
      ],
      "name": "BytesEventReturnsInt256",
      "type": "event"
    },
    {
      "anonymous": false,
      "inputs": [
        {
          "indexed": false,
          "name": "__uint",
          "type": "uint256"
        }
      ],
      "name": "BytesEventReturnsUint",
      "type": "event"
    },
    {
      "anonymous": false,
      "inputs": [
        {
          "indexed": false,
          "name": "__uint8",
          "type": "uint8"
        }
      ],
      "name": "BytesEventReturnsUint8",
      "type": "event"
    },
    {
      "anonymous": false,
      "inputs": [
        {
          "indexed": false,
          "name": "__uint256",
          "type": "uint256"
        }
      ],
      "name": "BytesEventReturnsUint256",
      "type": "event"
    },
    {
      "anonymous": false,
      "inputs": [
        {
          "indexed": false,
          "name": "__address",
          "type": "address"
        }
      ],
      "name": "BytesEventReturnsAddress",
      "type": "event"
    },
    {
      "anonymous": false,
      "inputs": [
        {
          "indexed": false,
          "name": "__byte",
          "type": "bytes1"
        }
      ],
      "name": "BytesEventReturnsByte",
      "type": "event"
    },
    {
      "anonymous": false,
      "inputs": [
        {
          "indexed": false,
          "name": "__bytes1",
          "type": "bytes1"
        }
      ],
      "name": "BytesEventReturnsBytes1",
      "type": "event"
    },
    {
      "anonymous": false,
      "inputs": [
        {
          "indexed": false,
          "name": "__bytes32",
          "type": "bytes32"
        }
      ],
      "name": "BytesEventReturnsBytes32",
      "type": "event"
    },
    {
      "anonymous": false,
      "inputs": [
        {
          "indexed": false,
          "name": "__bytes",
          "type": "bytes"
        }
      ],
      "name": "BytesEventReturnsBytes",
      "type": "event"
    },
    {
      "anonymous": false,
      "inputs": [
        {
          "indexed": false,
          "name": "__string",
          "type": "string"
        }
      ],
      "name": "BytesEventReturnsString",
      "type": "event"
    },
    {
      "anonymous": false,
      "inputs": [
        {
          "indexed": false,
          "name": "__bool",
          "type": "bool"
        }
      ],
      "name": "StringEventReturnsBool",
      "type": "event"
    },
    {
      "anonymous": false,
      "inputs": [
        {
          "indexed": false,
          "name": "__int",
          "type": "int256"
        }
      ],
      "name": "StringEventReturnsInt",
      "type": "event"
    },
    {
      "anonymous": false,
      "inputs": [
        {
          "indexed": false,
          "name": "__int8",
          "type": "int8"
        }
      ],
      "name": "StringEventReturnsInt8",
      "type": "event"
    },
    {
      "anonymous": false,
      "inputs": [
        {
          "indexed": false,
          "name": "__int256",
          "type": "int256"
        }
      ],
      "name": "StringEventReturnsInt256",
      "type": "event"
    },
    {
      "anonymous": false,
      "inputs": [
        {
          "indexed": false,
          "name": "__uint",
          "type": "uint256"
        }
      ],
      "name": "StringEventReturnsUint",
      "type": "event"
    },
    {
      "anonymous": false,
      "inputs": [
        {
          "indexed": false,
          "name": "__uint8",
          "type": "uint8"
        }
      ],
      "name": "StringEventReturnsUint8",
      "type": "event"
    },
    {
      "anonymous": false,
      "inputs": [
        {
          "indexed": false,
          "name": "__uint256",
          "type": "uint256"
        }
      ],
      "name": "StringEventReturnsUint256",
      "type": "event"
    },
    {
      "anonymous": false,
      "inputs": [
        {
          "indexed": false,
          "name": "__address",
          "type": "address"
        }
      ],
      "name": "StringEventReturnsAddress",
      "type": "event"
    },
    {
      "anonymous": false,
      "inputs": [
        {
          "indexed": false,
          "name": "__byte",
          "type": "bytes1"
        }
      ],
      "name": "StringEventReturnsByte",
      "type": "event"
    },
    {
      "anonymous": false,
      "inputs": [
        {
          "indexed": false,
          "name": "__bytes1",
          "type": "bytes1"
        }
      ],
      "name": "StringEventReturnsBytes1",
      "type": "event"
    },
    {
      "anonymous": false,
      "inputs": [
        {
          "indexed": false,
          "name": "__bytes32",
          "type": "bytes32"
        }
      ],
      "name": "StringEventReturnsBytes32",
      "type": "event"
    },
    {
      "anonymous": false,
      "inputs": [
        {
          "indexed": false,
          "name": "__bytes",
          "type": "bytes"
        }
      ],
      "name": "StringEventReturnsBytes",
      "type": "event"
    },
    {
      "anonymous": false,
      "inputs": [
        {
          "indexed": false,
          "name": "__string",
          "type": "string"
        }
      ],
      "name": "StringEventReturnsString",
      "type": "event"
    }
  ],
  "bytecode": "0x6060604052341561000f57600080fd5b615ff4806200001f6000396000f300606060405260043610610805576000357c0100000000000000000000000000000000000000000000000000000000900463ffffffff1680626fb2061461080a578062e985a3146108c8578062f81aed14610902578063027e3e22146109875780630380892d14610a4557806304858d0814610a9e57806305251f9c14610b04578063067f9e9a14610b3e57806308771eb714610b75578063096bfe7914610c4b5780630a1ceeed14610c8a5780630b4d699c14610cc75780630e38a12d14610d265780630fe6e1c614610dc3578063112aa9a714610dfa578063123216e614610e7857806312733fc514610eb35780631305471f14610ef35780631360e77914610f2e57806315affe8e14610f695780631727467f14610fa3578063185944cf146110425780631a5cf37f146110de5780631c9fe4d1146111375780631cd1725b146111f557806324ec5db81461123257806327bdc8451461130f57806327cb78421461138057806328b5605b146113fb57806329fdf7aa1461146c5780632aafb2cc146114dd5780632b5f98351461155b5780632e9c5ac5146115925780632f23c341146116325780633122b1d11461168557806332e329ef146116c457806332fb21251461170357806334a54d7914611740578063358fecab146117dc578063368526de1461187c578063372517cd146118e15780633a647b561461192e5780633ad21295146119cd5780633bbc28b714611a6a5780633c1a2ae614611ad05780633c7d54f914611b475780633d7852a514611b7e5780633e0b4a7c14611bbd5780633efc5dca14611bfc57806340bb621c14611c9b5780634216d27514611d1a57806343b815e414611d5457806344c8e22b14611df157806349f2de5e14611e2e5780634c87b16914611e915780634fb720a514611ed057806350777db614611f6e578063526b8a6014612016578063528cb97514612087578063556dcea5146120c85780635671e1b8146121295780635b2d81c7146121605780635ca86ef5146121a05780635d0912681461220a5780635d55f7fc146122885780635eca7b781461233d57806360a7557c1461237a57806361052a011461241657806365131d37146124b557806369ad91cc146125185780636a2b2142146125b45780636b317ed4146126385780636cfe539a1461271d5780636dad3056146127ba5780636e26076d146128135780636e5be6b11461286c5780636e97e81c146128e7578063723124ec14612924578063728f16241461295f57806373f065c1146129fb578063741d574914612a80578063744e63f314612abe578063754098ae14612b375780637663f6ed14612b6e57806379180f8814612be9578063797c89ac14612c365780637c59972e14612ce85780637def099114612d5d57806380b450f714612d9d5780638353312014612e3a578063860e344214612eab57806387dc77ed14612efe578063896b390d14612f355780638c1f05071461300b5780638c6c829b146130f35780638e45769d146131915780638e8a1e79146132675780638edaafeb146132a15780638f4edf2d146132d8578063909c5bb81461334957806391cc836e14613382578063939bdd66146133f95780639498f85c1461343357806395ad8e561461347457806396891a19146134ed57806396ac78cb1461352457806399aa03fc146135c05780639a10b1a4146136195780639e06b25a146136505780639f7ca27a146136ec5780639f896579146137235780639fedb61514613794578063a0f4d070146137d1578063a143e4ba1461386d578063a22bc306146138a6578063a256cb9e146138df578063a257b72114613938578063a2aa38241461397a578063a85acf2714613a05578063a8d5c2b214613aba578063a951dee714613afb578063ac1ae6b114613b3d578063ad26245814613b80578063b54f3db414613bcd578063b763e0c914613c08578063b9d3f15f14613c81578063bb81b31814613cfe578063bc3c124e14613d79578063bdaee96614613db4578063be0b31fd14613e25578063be585a9314613ea4578063c047314914613ee4578063c052eb8f14613f5f578063c1a76b5f14614014578063c55ea0aa146140ea578063c745ef7d14614124578063c85bb0631461415d578063ca43ba23146141da578063cdfcfd7014614218578063ce99927e1461424f578063cfbe6c04146142a4578063d06ed331146142db578063d28ff59c14614334578063d429728614614393578063d49271fc146143ca578063d615314314614441578063d975f7691461448e578063da7c19b314614531578063dbb742701461456e578063dbe3bccc146145cd578063dd5ba4da14614630578063dd65d82514614667578063ddd938e9146146b8578063de6061d514614749578063df4004ca146147c4578063dff291ec14614808578063e13dc5db14614890578063e16f09ec14614905578063e278ea8c146149a2578063e2b1995414614a33578063e30f57ee14614aae578063e58ee8c114614b0f578063e5fcfab114614b68578063e607698b14614c1d578063e6c05cf414614c57578063ea2851be14614c94578063ead90f1114614d12578063ecc1d69714614d50578063ed12e01e14614dc7578063effef2c514614e2e578063f061606b14614ea9578063f0f4909014614f08578063f103f29014614f6b578063f26480aa14614fc8578063f75d780314615003578063f78d5a6b146150c1578063f8056911146150fc578063f91c320f146151ae578063fa4c38571461525a578063fb20374814615291578063fbfe5c20146152d0578063ff9e868b1461532d575b600080fd5b341561081557600080fd5b61084d60048080357effffffffffffffffffffffffffffffffffffffffffffffffffffffffffffff191690602001909190505061537b565b6040518080602001828103825283818151815260200191508051906020019080838360005b8381101561088d578082015181840152602081019050610872565b50505050905090810190601f1680156108ba5780820380516001836020036101000a031916815260200191505b509250505060405180910390f35b34156108d357600080fd5b6108ec600480803560000b90602001909190505061538e565b6040518082815260200191505060405180910390f35b341561090d57600080fd5b61094560048080357effffffffffffffffffffffffffffffffffffffffffffffffffffffffffffff191690602001909190505061539a565b604051808273ffffffffffffffffffffffffffffffffffffffff1673ffffffffffffffffffffffffffffffffffffffff16815260200191505060405180910390f35b341561099257600080fd5b6109ca60048080357effffffffffffffffffffffffffffffffffffffffffffffffffffffffffffff19169060200190919050506153a6565b6040518080602001828103825283818151815260200191508051906020019080838360005b83811015610a0a5780820151818401526020810190506109ef565b50505050905090810190601f168015610a375780820380516001836020036101000a031916815260200191505b509250505060405180910390f35b3415610a5057600080fd5b610a8860048080357effffffffffffffffffffffffffffffffffffffffffffffffffffffffffffff19169060200190919050506153b9565b6040518082815260200191505060405180910390f35b3415610aa957600080fd5b610ac2600480803560000b9060200190919050506153c5565b604051808273ffffffffffffffffffffffffffffffffffffffff1673ffffffffffffffffffffffffffffffffffffffff16815260200191505060405180910390f35b3415610b0f57600080fd5b610b28600480803560ff169060200190919050506153d1565b6040518082815260200191505060405180910390f35b3415610b4957600080fd5b610b5f60048080359060200190919050506153dd565b6040518082815260200191505060405180910390f35b3415610b8057600080fd5b610bd0600480803590602001908201803590602001908080601f016020809104026020016040519081016040528093929190818152602001838380828437820191505050505050919050506153e9565b6040518080602001828103825283818151815260200191508051906020019080838360005b83811015610c10578082015181840152602081019050610bf5565b50505050905090810190601f168015610c3d5780820380516001836020036101000a031916815260200191505b509250505060405180910390f35b3415610c5657600080fd5b610c6c60048080359060200190919050506153fc565b60405180826000191660001916815260200191505060405180910390f35b3415610c9557600080fd5b610cab6004808035906020019091905050615408565b604051808260ff1660ff16815260200191505060405180910390f35b3415610cd257600080fd5b610d0a60048080357effffffffffffffffffffffffffffffffffffffffffffffffffffffffffffff1916906020019091905050615414565b604051808260000b60000b815260200191505060405180910390f35b3415610d3157600080fd5b610d6960048080357effffffffffffffffffffffffffffffffffffffffffffffffffffffffffffff1916906020019091905050615420565b60405180827effffffffffffffffffffffffffffffffffffffffffffffffffffffffffffff19167effffffffffffffffffffffffffffffffffffffffffffffffffffffffffffff1916815260200191505060405180910390f35b3415610dce57600080fd5b610de4600480803590602001909190505061542c565b6040518082815260200191505060405180910390f35b3415610e0557600080fd5b610e1e600480803560000b906020019091905050615438565b60405180827effffffffffffffffffffffffffffffffffffffffffffffffffffffffffffff19167effffffffffffffffffffffffffffffffffffffffffffffffffffffffffffff1916815260200191505060405180910390f35b3415610e8357600080fd5b610e996004808035906020019091905050615444565b604051808215151515815260200191505060405180910390f35b3415610ebe57600080fd5b610ed7600480803560000b906020019091905050615450565b604051808260000b60000b815260200191505060405180910390f35b3415610efe57600080fd5b610f14600480803590602001909190505061545c565b604051808215151515815260200191505060405180910390f35b3415610f3957600080fd5b610f53600480803560001916906020019091905050615468565b6040518082815260200191505060405180910390f35b3415610f7457600080fd5b610f8d600480803560ff16906020019091905050615474565b6040518082815260200191505060405180910390f35b3415610fae57600080fd5b610fc7600480803560ff16906020019091905050615480565b6040518080602001828103825283818151815260200191508051906020019080838360005b83811015611007578082015181840152602081019050610fec565b50505050905090810190601f1680156110345780820380516001836020036101000a031916815260200191505b509250505060405180910390f35b341561104d57600080fd5b6110636004808035906020019091905050615493565b6040518080602001828103825283818151815260200191508051906020019080838360005b838110156110a3578082015181840152602081019050611088565b50505050905090810190601f1680156110d05780820380516001836020036101000a031916815260200191505b509250505060405180910390f35b34156110e957600080fd5b61112160048080357effffffffffffffffffffffffffffffffffffffffffffffffffffffffffffff19169060200190919050506154a6565b6040518082815260200191505060405180910390f35b341561114257600080fd5b61117a60048080357effffffffffffffffffffffffffffffffffffffffffffffffffffffffffffff19169060200190919050506154b2565b6040518080602001828103825283818151815260200191508051906020019080838360005b838110156111ba57808201518184015260208101905061119f565b50505050905090810190601f1680156111e75780820380516001836020036101000a031916815260200191505b509250505060405180910390f35b341561120057600080fd5b61121660048080359060200190919050506154c5565b604051808260000b60000b815260200191505060405180910390f35b341561123d57600080fd5b61128d600480803590602001908201803590602001908080601f016020809104026020016040519081016040528093929190818152602001838380828437820191505050505050919050506154d1565b6040518080602001838152602001828103825284818151815260200191508051906020019080838360005b838110156112d35780820151818401526020810190506112b8565b50505050905090810190601f1680156113005780820380516001836020036101000a031916815260200191505b50935050505060405180910390f35b341561131a57600080fd5b61136a600480803590602001908201803590602001908080601f01602080910402602001604051908101604052809392919081815260200183838082843782019150505050505091905050615587565b6040518082815260200191505060405180910390f35b341561138b57600080fd5b6113a16004808035906020019091905050615593565b60405180827effffffffffffffffffffffffffffffffffffffffffffffffffffffffffffff19167effffffffffffffffffffffffffffffffffffffffffffffffffffffffffffff1916815260200191505060405180910390f35b341561140657600080fd5b611456600480803590602001908201803590602001908080601f0160208091040260200160405190810160405280939291908181526020018383808284378201915050505050509190505061559f565b6040518082815260200191505060405180910390f35b341561147757600080fd5b6114c7600480803590602001908201803590602001908080601f016020809104026020016040519081016040528093929190818152602001838380828437820191505050505050919050506155ab565b6040518082815260200191505060405180910390f35b34156114e857600080fd5b611501600480803560ff169060200190919050506155b7565b60405180827effffffffffffffffffffffffffffffffffffffffffffffffffffffffffffff19167effffffffffffffffffffffffffffffffffffffffffffffffffffffffffffff1916815260200191505060405180910390f35b341561156657600080fd5b61157c60048080359060200190919050506155c3565b6040518082815260200191505060405180910390f35b341561159d57600080fd5b6115b76004808035600019169060200190919050506155cf565b6040518080602001828103825283818151815260200191508051906020019080838360005b838110156115f75780820151818401526020810190506115dc565b50505050905090810190601f1680156116245780820380516001836020036101000a031916815260200191505b509250505060405180910390f35b341561163d57600080fd5b611669600480803573ffffffffffffffffffffffffffffffffffffffff169060200190919050506155e2565b604051808260ff1660ff16815260200191505060405180910390f35b341561169057600080fd5b6116a8600480803515159060200190919050506155ee565b604051808260ff1660ff16815260200191505060405180910390f35b34156116cf57600080fd5b6116e560048080359060200190919050506155fa565b60405180826000191660001916815260200191505060405180910390f35b341561170e57600080fd5b6117246004808035906020019091905050615606565b604051808260000b60000b815260200191505060405180910390f35b341561174b57600080fd5b6117616004808035906020019091905050615612565b6040518080602001828103825283818151815260200191508051906020019080838360005b838110156117a1578082015181840152602081019050611786565b50505050905090810190601f1680156117ce5780820380516001836020036101000a031916815260200191505b509250505060405180910390f35b34156117e757600080fd5b611801600480803560001916906020019091905050615625565b6040518080602001828103825283818151815260200191508051906020019080838360005b83811015611841578082015181840152602081019050611826565b50505050905090810190601f16801561186e5780820380516001836020036101000a031916815260200191505b509250505060405180910390f35b341561188757600080fd5b61189f60048080351515906020019091905050615638565b604051808273ffffffffffffffffffffffffffffffffffffffff1673ffffffffffffffffffffffffffffffffffffffff16815260200191505060405180910390f35b34156118ec57600080fd5b611918600480803573ffffffffffffffffffffffffffffffffffffffff16906020019091905050615644565b6040518082815260200191505060405180910390f35b341561193957600080fd5b611952600480803560000b906020019091905050615650565b6040518080602001828103825283818151815260200191508051906020019080838360005b83811015611992578082015181840152602081019050611977565b50505050905090810190601f1680156119bf5780820380516001836020036101000a031916815260200191505b509250505060405180910390f35b34156119d857600080fd5b611a1060048080357effffffffffffffffffffffffffffffffffffffffffffffffffffffffffffff1916906020019091905050615663565b60405180827effffffffffffffffffffffffffffffffffffffffffffffffffffffffffffff19167effffffffffffffffffffffffffffffffffffffffffffffffffffffffffffff1916815260200191505060405180910390f35b3415611a7557600080fd5b611a8e600480803560ff1690602001909190505061566f565b604051808273ffffffffffffffffffffffffffffffffffffffff1673ffffffffffffffffffffffffffffffffffffffff16815260200191505060405180910390f35b3415611adb57600080fd5b611b2b600480803590602001908201803590602001908080601f0160208091040260200160405190810160405280939291908181526020018383808284378201915050505050509190505061567b565b604051808260000b60000b815260200191505060405180910390f35b3415611b5257600080fd5b611b686004808035906020019091905050615687565b6040518082815260200191505060405180910390f35b3415611b8957600080fd5b611ba3600480803560001916906020019091905050615693565b604051808215151515815260200191505060405180910390f35b3415611bc857600080fd5b611bde600480803590602001909190505061569f565b60405180826000191660001916815260200191505060405180910390f35b3415611c0757600080fd5b611c20600480803560ff169060200190919050506156ab565b6040518080602001828103825283818151815260200191508051906020019080838360005b83811015611c60578082015181840152602081019050611c45565b50505050905090810190601f168015611c8d5780820380516001836020036101000a031916815260200191505b509250505060405180910390f35b3415611ca657600080fd5b611cc06004808035600019169060200190919050506156be565b60405180827effffffffffffffffffffffffffffffffffffffffffffffffffffffffffffff19167effffffffffffffffffffffffffffffffffffffffffffffffffffffffffffff1916815260200191505060405180910390f35b3415611d2557600080fd5b611d3e600480803560000b9060200190919050506156ca565b6040518082815260200191505060405180910390f35b3415611d5f57600080fd5b611d9760048080357effffffffffffffffffffffffffffffffffffffffffffffffffffffffffffff19169060200190919050506156d6565b60405180827effffffffffffffffffffffffffffffffffffffffffffffffffffffffffffff19167effffffffffffffffffffffffffffffffffffffffffffffffffffffffffffff1916815260200191505060405180910390f35b3415611dfc57600080fd5b611e1260048080359060200190919050506156e2565b604051808260ff1660ff16815260200191505060405180910390f35b3415611e3957600080fd5b611e4f60048080359060200190919050506156ee565b604051808273ffffffffffffffffffffffffffffffffffffffff1673ffffffffffffffffffffffffffffffffffffffff16815260200191505060405180910390f35b3415611e9c57600080fd5b611eb4600480803515159060200190919050506156fa565b604051808260000b60000b815260200191505060405180910390f35b3415611edb57600080fd5b611ef360048080351515906020019091905050615706565b6040518080602001828103825283818151815260200191508051906020019080838360005b83811015611f33578082015181840152602081019050611f18565b50505050905090810190601f168015611f605780820380516001836020036101000a031916815260200191505b509250505060405180910390f35b3415611f7957600080fd5b611fb160048080357effffffffffffffffffffffffffffffffffffffffffffffffffffffffffffff1916906020019091905050615719565b60405180837effffffffffffffffffffffffffffffffffffffffffffffffffffffffffffff19167effffffffffffffffffffffffffffffffffffffffffffffffffffffffffffff19168152602001821515151581526020019250505060405180910390f35b341561202157600080fd5b612071600480803590602001908201803590602001908080601f0160208091040260200160405190810160405280939291908181526020018383808284378201915050505050509190505061572c565b6040518082815260200191505060405180910390f35b341561209257600080fd5b6120aa60048080351515906020019091905050615738565b60405180826000191660001916815260200191505060405180910390f35b34156120d357600080fd5b61210b60048080357effffffffffffffffffffffffffffffffffffffffffffffffffffffffffffff1916906020019091905050615744565b60405180826000191660001916815260200191505060405180910390f35b341561213457600080fd5b61214a6004808035906020019091905050615750565b6040518082815260200191505060405180910390f35b341561216b57600080fd5b612184600480803560000b90602001909190505061575c565b604051808260ff1660ff16815260200191505060405180910390f35b34156121ab57600080fd5b6121c16004808035906020019091905050615768565b604051808381526020018273ffffffffffffffffffffffffffffffffffffffff1673ffffffffffffffffffffffffffffffffffffffff1681526020019250505060405180910390f35b341561221557600080fd5b61222e600480803560000b90602001909190505061577b565b60405180827effffffffffffffffffffffffffffffffffffffffffffffffffffffffffffff19167effffffffffffffffffffffffffffffffffffffffffffffffffffffffffffff1916815260200191505060405180910390f35b341561229357600080fd5b6122e3600480803590602001908201803590602001908080601f01602080910402602001604051908101604052809392919081815260200183838082843782019150505050505091905050615787565b60405180827effffffffffffffffffffffffffffffffffffffffffffffffffffffffffffff19167effffffffffffffffffffffffffffffffffffffffffffffffffffffffffffff1916815260200191505060405180910390f35b341561234857600080fd5b61236060048080351515906020019091905050615793565b604051808215151515815260200191505060405180910390f35b341561238557600080fd5b61239b600480803590602001909190505061579f565b6040518080602001828103825283818151815260200191508051906020019080838360005b838110156123db5780820151818401526020810190506123c0565b50505050905090810190601f1680156124085780820380516001836020036101000a031916815260200191505b509250505060405180910390f35b341561242157600080fd5b61243a600480803560000b9060200190919050506157b2565b6040518080602001828103825283818151815260200191508051906020019080838360005b8381101561247a57808201518184015260208101905061245f565b50505050905090810190601f1680156124a75780820380516001836020036101000a031916815260200191505b509250505060405180910390f35b34156124c057600080fd5b6124d660048080359060200190919050506157c5565b604051808273ffffffffffffffffffffffffffffffffffffffff1673ffffffffffffffffffffffffffffffffffffffff16815260200191505060405180910390f35b341561252357600080fd5b61253960048080359060200190919050506157d1565b6040518080602001828103825283818151815260200191508051906020019080838360005b8381101561257957808201518184015260208101905061255e565b50505050905090810190601f1680156125a65780820380516001836020036101000a031916815260200191505b509250505060405180910390f35b34156125bf57600080fd5b6125eb600480803573ffffffffffffffffffffffffffffffffffffffff169060200190919050506157e4565b604051808373ffffffffffffffffffffffffffffffffffffffff1673ffffffffffffffffffffffffffffffffffffffff168152602001821515151581526020019250505060405180910390f35b341561264357600080fd5b612693600480803590602001908201803590602001908080601f016020809104026020016040519081016040528093929190818152602001838380828437820191505050505050919050506157f7565b60405180806020018360001916600019168152602001828103825284818151815260200191508051906020019080838360005b838110156126e15780820151818401526020810190506126c6565b50505050905090810190601f16801561270e5780820380516001836020036101000a031916815260200191505b50935050505060405180910390f35b341561272857600080fd5b612778600480803590602001908201803590602001908080601f016020809104026020016040519081016040528093929190818152602001838380828437820191505050505050919050506158ad565b604051808273ffffffffffffffffffffffffffffffffffffffff1673ffffffffffffffffffffffffffffffffffffffff16815260200191505060405180910390f35b34156127c557600080fd5b6127fd60048080357effffffffffffffffffffffffffffffffffffffffffffffffffffffffffffff19169060200190919050506158b9565b6040518082815260200191505060405180910390f35b341561281e57600080fd5b61285660048080357effffffffffffffffffffffffffffffffffffffffffffffffffffffffffffff19169060200190919050506158c5565b6040518082815260200191505060405180910390f35b341561287757600080fd5b61288d60048080359060200190919050506158d1565b60405180827effffffffffffffffffffffffffffffffffffffffffffffffffffffffffffff19167effffffffffffffffffffffffffffffffffffffffffffffffffffffffffffff1916815260200191505060405180910390f35b34156128f257600080fd5b61290860048080359060200190919050506158dd565b604051808260ff1660ff16815260200191505060405180910390f35b341561292f57600080fd5b6129496004808035600019169060200190919050506158e9565b6040518082815260200191505060405180910390f35b341561296a57600080fd5b61298060048080359060200190919050506158f5565b6040518080602001828103825283818151815260200191508051906020019080838360005b838110156129c05780820151818401526020810190506129a5565b50505050905090810190601f1680156129ed5780820380516001836020036101000a031916815260200191505b509250505060405180910390f35b3415612a0657600080fd5b612a3e60048080357effffffffffffffffffffffffffffffffffffffffffffffffffffffffffffff1916906020019091905050615908565b604051808273ffffffffffffffffffffffffffffffffffffffff1673ffffffffffffffffffffffffffffffffffffffff16815260200191505060405180910390f35b3415612a8b57600080fd5b612aa16004808035906020019091905050615914565b604051808381526020018281526020019250505060405180910390f35b3415612ac957600080fd5b612af5600480803573ffffffffffffffffffffffffffffffffffffffff16906020019091905050615927565b604051808273ffffffffffffffffffffffffffffffffffffffff1673ffffffffffffffffffffffffffffffffffffffff16815260200191505060405180910390f35b3415612b4257600080fd5b612b586004808035906020019091905050615933565b6040518082815260200191505060405180910390f35b3415612b7957600080fd5b612b8f600480803590602001909190505061593f565b60405180827effffffffffffffffffffffffffffffffffffffffffffffffffffffffffffff19167effffffffffffffffffffffffffffffffffffffffffffffffffffffffffffff1916815260200191505060405180910390f35b3415612bf457600080fd5b612c20600480803573ffffffffffffffffffffffffffffffffffffffff1690602001909190505061594b565b6040518082815260200191505060405180910390f35b3415612c4157600080fd5b612c6d600480803573ffffffffffffffffffffffffffffffffffffffff16906020019091905050615957565b6040518080602001828103825283818151815260200191508051906020019080838360005b83811015612cad578082015181840152602081019050612c92565b50505050905090810190601f168015612cda5780820380516001836020036101000a031916815260200191505b509250505060405180910390f35b3415612cf357600080fd5b612d43600480803590602001908201803590602001908080601f0160208091040260200160405190810160405280939291908181526020018383808284378201915050505050509190505061596a565b604051808215151515815260200191505060405180910390f35b3415612d6857600080fd5b612d81600480803560ff16906020019091905050615976565b604051808260ff1660ff16815260200191505060405180910390f35b3415612da857600080fd5b612df8600480803590602001908201803590602001908080601f01602080910402602001604051908101604052809392919081815260200183838082843782019150505050505091905050615982565b604051808273ffffffffffffffffffffffffffffffffffffffff1673ffffffffffffffffffffffffffffffffffffffff16815260200191505060405180910390f35b3415612e4557600080fd5b612e95600480803590602001908201803590602001908080601f0160208091040260200160405190810160405280939291908181526020018383808284378201915050505050509190505061598e565b6040518082815260200191505060405180910390f35b3415612eb657600080fd5b612ee2600480803573ffffffffffffffffffffffffffffffffffffffff1690602001909190505061599a565b604051808260000b60000b815260200191505060405180910390f35b3415612f0957600080fd5b612f1f60048080359060200190919050506159a6565b6040518082815260200191505060405180910390f35b3415612f4057600080fd5b612f90600480803590602001908201803590602001908080601f016020809104026020016040519081016040528093929190818152602001838380828437820191505050505050919050506159b2565b6040518080602001828103825283818151815260200191508051906020019080838360005b83811015612fd0578082015181840152602081019050612fb5565b50505050905090810190601f168015612ffd5780820380516001836020036101000a031916815260200191505b509250505060405180910390f35b341561301657600080fd5b61304e60048080357effffffffffffffffffffffffffffffffffffffffffffffffffffffffffffff19169060200190919050506159c5565b60405180837effffffffffffffffffffffffffffffffffffffffffffffffffffffffffffff19167effffffffffffffffffffffffffffffffffffffffffffffffffffffffffffff19168152602001827effffffffffffffffffffffffffffffffffffffffffffffffffffffffffffff19167effffffffffffffffffffffffffffffffffffffffffffffffffffffffffffff191681526020019250505060405180910390f35b34156130fe57600080fd5b613116600480803515159060200190919050506159d8565b6040518080602001828103825283818151815260200191508051906020019080838360005b8381101561315657808201518184015260208101905061313b565b50505050905090810190601f1680156131835780820380516001836020036101000a031916815260200191505b509250505060405180910390f35b341561319c57600080fd5b6131ec600480803590602001908201803590602001908080601f016020809104026020016040519081016040528093929190818152602001838380828437820191505050505050919050506159eb565b6040518080602001828103825283818151815260200191508051906020019080838360005b8381101561322c578082015181840152602081019050613211565b50505050905090810190601f1680156132595780820380516001836020036101000a031916815260200191505b509250505060405180910390f35b341561327257600080fd5b61328b600480803560000b9060200190919050506159fe565b6040518082815260200191505060405180910390f35b34156132ac57600080fd5b6132c26004808035906020019091905050615a0a565b6040518082815260200191505060405180910390f35b34156132e357600080fd5b613333600480803590602001908201803590602001908080601f01602080910402602001604051908101604052809392919081815260200183838082843782019150505050505091905050615a16565b6040518082815260200191505060405180910390f35b341561335457600080fd5b61336c60048080351515906020019091905050615a22565b6040518082815260200191505060405180910390f35b341561338d57600080fd5b6133dd600480803590602001908201803590602001908080601f01602080910402602001604051908101604052809392919081815260200183838082843782019150505050505091905050615a2e565b604051808260ff1660ff16815260200191505060405180910390f35b341561340457600080fd5b61341d600480803560ff16906020019091905050615a3a565b6040518082815260200191505060405180910390f35b341561343e57600080fd5b613458600480803560001916906020019091905050615a46565b604051808260000b60000b815260200191505060405180910390f35b341561347f57600080fd5b6134cf600480803590602001908201803590602001908080601f01602080910402602001604051908101604052809392919081815260200183838082843782019150505050505091905050615a52565b60405180826000191660001916815260200191505060405180910390f35b34156134f857600080fd5b61350e6004808035906020019091905050615a5e565b6040518082815260200191505060405180910390f35b341561352f57600080fd5b6135456004808035906020019091905050615a6a565b6040518080602001828103825283818151815260200191508051906020019080838360005b8381101561358557808201518184015260208101905061356a565b50505050905090810190601f1680156135b25780820380516001836020036101000a031916815260200191505b509250505060405180910390f35b34156135cb57600080fd5b61360360048080357effffffffffffffffffffffffffffffffffffffffffffffffffffffffffffff1916906020019091905050615a7d565b6040518082815260200191505060405180910390f35b341561362457600080fd5b61363a6004808035906020019091905050615a89565b6040518082815260200191505060405180910390f35b341561365b57600080fd5b6136716004808035906020019091905050615a95565b6040518080602001828103825283818151815260200191508051906020019080838360005b838110156136b1578082015181840152602081019050613696565b50505050905090810190601f1680156136de5780820380516001836020036101000a031916815260200191505b509250505060405180910390f35b34156136f757600080fd5b61370d6004808035906020019091905050615aa8565b6040518082815260200191505060405180910390f35b341561372e57600080fd5b61377e600480803590602001908201803590602001908080601f01602080910402602001604051908101604052809392919081815260200183838082843782019150505050505091905050615ab4565b6040518082815260200191505060405180910390f35b341561379f57600080fd5b6137b56004808035906020019091905050615ac0565b604051808260ff1660ff16815260200191505060405180910390f35b34156137dc57600080fd5b6137f26004808035906020019091905050615acc565b6040518080602001828103825283818151815260200191508051906020019080838360005b83811015613832578082015181840152602081019050613817565b50505050905090810190601f16801561385f5780820380516001836020036101000a031916815260200191505b509250505060405180910390f35b341561387857600080fd5b61389060048080351515906020019091905050615adf565b6040518082815260200191505060405180910390f35b34156138b157600080fd5b6138c960048080351515906020019091905050615aeb565b6040518082815260200191505060405180910390f35b34156138ea57600080fd5b61392260048080357effffffffffffffffffffffffffffffffffffffffffffffffffffffffffffff1916906020019091905050615af7565b6040518082815260200191505060405180910390f35b341561394357600080fd5b61395c600480803560ff16906020019091905050615b03565b60405180826000191660001916815260200191505060405180910390f35b341561398557600080fd5b61399e600480803560ff16906020019091905050615b0f565b604051808360ff1660ff168152602001827effffffffffffffffffffffffffffffffffffffffffffffffffffffffffffff19167effffffffffffffffffffffffffffffffffffffffffffffffffffffffffffff191681526020019250505060405180910390f35b3415613a1057600080fd5b613a60600480803590602001908201803590602001908080601f01602080910402602001604051908101604052809392919081815260200183838082843782019150505050505091905050615b22565b60405180827effffffffffffffffffffffffffffffffffffffffffffffffffffffffffffff19167effffffffffffffffffffffffffffffffffffffffffffffffffffffffffffff1916815260200191505060405180910390f35b3415613ac557600080fd5b613adf600480803560001916906020019091905050615b2e565b604051808260ff1660ff16815260200191505060405180910390f35b3415613b0657600080fd5b613b1f600480803560000b906020019091905050615b3a565b60405180826000191660001916815260200191505060405180910390f35b3415613b4857600080fd5b613b62600480803560001916906020019091905050615b46565b60405180826000191660001916815260200191505060405180910390f35b3415613b8b57600080fd5b613bb7600480803573ffffffffffffffffffffffffffffffffffffffff16906020019091905050615b52565b6040518082815260200191505060405180910390f35b3415613bd857600080fd5b613bf2600480803560001916906020019091905050615b5e565b6040518082815260200191505060405180910390f35b3415613c1357600080fd5b613c63600480803590602001908201803590602001908080601f01602080910402602001604051908101604052809392919081815260200183838082843782019150505050505091905050615b6a565b60405180826000191660001916815260200191505060405180910390f35b3415613c8c57600080fd5b613ca460048080351515906020019091905050615b76565b60405180827effffffffffffffffffffffffffffffffffffffffffffffffffffffffffffff19167effffffffffffffffffffffffffffffffffffffffffffffffffffffffffffff1916815260200191505060405180910390f35b3415613d0957600080fd5b613d1f6004808035906020019091905050615b82565b60405180827effffffffffffffffffffffffffffffffffffffffffffffffffffffffffffff19167effffffffffffffffffffffffffffffffffffffffffffffffffffffffffffff1916815260200191505060405180910390f35b3415613d8457600080fd5b613d9a6004808035906020019091905050615b8e565b604051808215151515815260200191505060405180910390f35b3415613dbf57600080fd5b613e0f600480803590602001908201803590602001908080601f01602080910402602001604051908101604052809392919081815260200183838082843782019150505050505091905050615b9a565b6040518082815260200191505060405180910390f35b3415613e3057600080fd5b613e4a600480803560001916906020019091905050615ba6565b60405180827effffffffffffffffffffffffffffffffffffffffffffffffffffffffffffff19167effffffffffffffffffffffffffffffffffffffffffffffffffffffffffffff1916815260200191505060405180910390f35b3415613eaf57600080fd5b613ec8600480803560ff16906020019091905050615bb2565b604051808260000b60000b815260200191505060405180910390f35b3415613eef57600080fd5b613f056004808035906020019091905050615bbe565b60405180827effffffffffffffffffffffffffffffffffffffffffffffffffffffffffffff19167effffffffffffffffffffffffffffffffffffffffffffffffffffffffffffff1916815260200191505060405180910390f35b3415613f6a57600080fd5b613fba600480803590602001908201803590602001908080601f01602080910402602001604051908101604052809392919081815260200183838082843782019150505050505091905050615bca565b60405180827effffffffffffffffffffffffffffffffffffffffffffffffffffffffffffff19167effffffffffffffffffffffffffffffffffffffffffffffffffffffffffffff1916815260200191505060405180910390f35b341561401f57600080fd5b61406f600480803590602001908201803590602001908080601f01602080910402602001604051908101604052809392919081815260200183838082843782019150505050505091905050615bd6565b6040518080602001828103825283818151815260200191508051906020019080838360005b838110156140af578082015181840152602081019050614094565b50505050905090810190601f1680156140dc5780820380516001836020036101000a031916815260200191505b509250505060405180910390f35b34156140f557600080fd5b61410e600480803560ff16906020019091905050615be9565b6040518082815260200191505060405180910390f35b341561412f57600080fd5b61414760048080351515906020019091905050615bf5565b6040518082815260200191505060405180910390f35b341561416857600080fd5b61418060048080351515906020019091905050615c01565b60405180827effffffffffffffffffffffffffffffffffffffffffffffffffffffffffffff19167effffffffffffffffffffffffffffffffffffffffffffffffffffffffffffff1916815260200191505060405180910390f35b34156141e557600080fd5b6141fe600480803560ff16906020019091905050615c0d565b604051808215151515815260200191505060405180910390f35b341561422357600080fd5b6142396004808035906020019091905050615c19565b6040518082815260200191505060405180910390f35b341561425a57600080fd5b614286600480803573ffffffffffffffffffffffffffffffffffffffff16906020019091905050615c25565b60405180826000191660001916815260200191505060405180910390f35b34156142af57600080fd5b6142c56004808035906020019091905050615c31565b6040518082815260200191505060405180910390f35b34156142e657600080fd5b61431e60048080357effffffffffffffffffffffffffffffffffffffffffffffffffffffffffffff1916906020019091905050615c3d565b6040518082815260200191505060405180910390f35b341561433f57600080fd5b61437760048080357effffffffffffffffffffffffffffffffffffffffffffffffffffffffffffff1916906020019091905050615c49565b604051808260ff1660ff16815260200191505060405180910390f35b341561439e57600080fd5b6143b46004808035906020019091905050615c55565b6040518082815260200191505060405180910390f35b34156143d557600080fd5b614425600480803590602001908201803590602001908080601f01602080910402602001604051908101604052809392919081815260200183838082843782019150505050505091905050615c61565b604051808260ff1660ff16815260200191505060405180910390f35b341561444c57600080fd5b614478600480803573ffffffffffffffffffffffffffffffffffffffff16906020019091905050615c6d565b6040518082815260200191505060405180910390f35b341561449957600080fd5b6144af6004808035906020019091905050615c79565b6040518083815260200180602001828103825283818151815260200191508051906020019080838360005b838110156144f55780820151818401526020810190506144da565b50505050905090810190601f1680156145225780820380516001836020036101000a031916815260200191505b50935050505060405180910390f35b341561453c57600080fd5b6145526004808035906020019091905050615d2f565b604051808260000b60000b815260200191505060405180910390f35b341561457957600080fd5b6145b160048080357effffffffffffffffffffffffffffffffffffffffffffffffffffffffffffff1916906020019091905050615d3b565b604051808260000b60000b815260200191505060405180910390f35b34156145d857600080fd5b6145ee6004808035906020019091905050615d47565b604051808273ffffffffffffffffffffffffffffffffffffffff1673ffffffffffffffffffffffffffffffffffffffff16815260200191505060405180910390f35b341561463b57600080fd5b6146516004808035906020019091905050615d53565b6040518082815260200191505060405180910390f35b341561467257600080fd5b61469e600480803573ffffffffffffffffffffffffffffffffffffffff16906020019091905050615d5f565b604051808215151515815260200191505060405180910390f35b34156146c357600080fd5b6146ef600480803573ffffffffffffffffffffffffffffffffffffffff16906020019091905050615d6b565b60405180827effffffffffffffffffffffffffffffffffffffffffffffffffffffffffffff19167effffffffffffffffffffffffffffffffffffffffffffffffffffffffffffff1916815260200191505060405180910390f35b341561475457600080fd5b61476a6004808035906020019091905050615d77565b60405180827effffffffffffffffffffffffffffffffffffffffffffffffffffffffffffff19167effffffffffffffffffffffffffffffffffffffffffffffffffffffffffffff1916815260200191505060405180910390f35b34156147cf57600080fd5b6147e56004808035906020019091905050615d83565b604051808381526020018260ff1660ff1681526020019250505060405180910390f35b341561481357600080fd5b61482b60048080351515906020019091905050615d96565b6040518083151515158152602001827effffffffffffffffffffffffffffffffffffffffffffffffffffffffffffff19167effffffffffffffffffffffffffffffffffffffffffffffffffffffffffffff191681526020019250505060405180910390f35b341561489b57600080fd5b6148eb600480803590602001908201803590602001908080601f01602080910402602001604051908101604052809392919081815260200183838082843782019150505050505091905050615da9565b604051808215151515815260200191505060405180910390f35b341561491057600080fd5b61494860048080357effffffffffffffffffffffffffffffffffffffffffffffffffffffffffffff1916906020019091905050615db5565b60405180827effffffffffffffffffffffffffffffffffffffffffffffffffffffffffffff19167effffffffffffffffffffffffffffffffffffffffffffffffffffffffffffff1916815260200191505060405180910390f35b34156149ad57600080fd5b6149d9600480803573ffffffffffffffffffffffffffffffffffffffff16906020019091905050615dc1565b60405180827effffffffffffffffffffffffffffffffffffffffffffffffffffffffffffff19167effffffffffffffffffffffffffffffffffffffffffffffffffffffffffffff1916815260200191505060405180910390f35b3415614a3e57600080fd5b614a546004808035906020019091905050615dcd565b60405180827effffffffffffffffffffffffffffffffffffffffffffffffffffffffffffff19167effffffffffffffffffffffffffffffffffffffffffffffffffffffffffffff1916815260200191505060405180910390f35b3415614ab957600080fd5b614af160048080357effffffffffffffffffffffffffffffffffffffffffffffffffffffffffffff1916906020019091905050615dd9565b60405180826000191660001916815260200191505060405180910390f35b3415614b1a57600080fd5b614b5260048080357effffffffffffffffffffffffffffffffffffffffffffffffffffffffffffff1916906020019091905050615de5565b6040518082815260200191505060405180910390f35b3415614b7357600080fd5b614bc3600480803590602001908201803590602001908080601f01602080910402602001604051908101604052809392919081815260200183838082843782019150505050505091905050615df1565b60405180827effffffffffffffffffffffffffffffffffffffffffffffffffffffffffffff19167effffffffffffffffffffffffffffffffffffffffffffffffffffffffffffff1916815260200191505060405180910390f35b3415614c2857600080fd5b614c41600480803560000b906020019091905050615dfd565b6040518082815260200191505060405180910390f35b3415614c6257600080fd5b614c786004808035906020019091905050615e09565b604051808260000b60000b815260200191505060405180910390f35b3415614c9f57600080fd5b614cb8600480803560ff16906020019091905050615e15565b60405180827effffffffffffffffffffffffffffffffffffffffffffffffffffffffffffff19167effffffffffffffffffffffffffffffffffffffffffffffffffffffffffffff1916815260200191505060405180910390f35b3415614d1d57600080fd5b614d36600480803560000b906020019091905050615e21565b604051808215151515815260200191505060405180910390f35b3415614d5b57600080fd5b614dab600480803590602001908201803590602001908080601f01602080910402602001604051908101604052809392919081815260200183838082843782019150505050505091905050615e2d565b604051808260000b60000b815260200191505060405180910390f35b3415614dd257600080fd5b614dec600480803560001916906020019091905050615e39565b604051808273ffffffffffffffffffffffffffffffffffffffff1673ffffffffffffffffffffffffffffffffffffffff16815260200191505060405180910390f35b3415614e3957600080fd5b614e4f6004808035906020019091905050615e45565b60405180827effffffffffffffffffffffffffffffffffffffffffffffffffffffffffffff19167effffffffffffffffffffffffffffffffffffffffffffffffffffffffffffff1916815260200191505060405180910390f35b3415614eb457600080fd5b614eec60048080357effffffffffffffffffffffffffffffffffffffffffffffffffffffffffffff1916906020019091905050615e51565b604051808260ff1660ff16815260200191505060405180910390f35b3415614f1357600080fd5b614f296004808035906020019091905050615e5d565b604051808273ffffffffffffffffffffffffffffffffffffffff1673ffffffffffffffffffffffffffffffffffffffff16815260200191505060405180910390f35b3415614f7657600080fd5b614fae60048080357effffffffffffffffffffffffffffffffffffffffffffffffffffffffffffff1916906020019091905050615e69565b604051808215151515815260200191505060405180910390f35b3415614fd357600080fd5b614fe96004808035906020019091905050615e75565b604051808215151515815260200191505060405180910390f35b341561500e57600080fd5b61504660048080357effffffffffffffffffffffffffffffffffffffffffffffffffffffffffffff1916906020019091905050615e81565b6040518080602001828103825283818151815260200191508051906020019080838360005b8381101561508657808201518184015260208101905061506b565b50505050905090810190601f1680156150b35780820380516001836020036101000a031916815260200191505b509250505060405180910390f35b34156150cc57600080fd5b6150e6600480803560001916906020019091905050615e94565b6040518082815260200191505060405180910390f35b341561510757600080fd5b615133600480803573ffffffffffffffffffffffffffffffffffffffff16906020019091905050615ea0565b6040518080602001828103825283818151815260200191508051906020019080838360005b83811015615173578082015181840152602081019050615158565b50505050905090810190601f1680156151a05780820380516001836020036101000a031916815260200191505b509250505060405180910390f35b34156151b957600080fd5b6151d2600480803560000b906020019091905050615eb3565b604051808360000b60000b815260200180602001828103825283818151815260200191508051906020019080838360005b8381101561521e578082015181840152602081019050615203565b50505050905090810190601f16801561524b5780820380516001836020036101000a031916815260200191505b50935050505060405180910390f35b341561526557600080fd5b61527b6004808035906020019091905050615f69565b6040518082815260200191505060405180910390f35b341561529c57600080fd5b6152b26004808035906020019091905050615f75565b60405180826000191660001916815260200191505060405180910390f35b34156152db57600080fd5b61531360048080357effffffffffffffffffffffffffffffffffffffffffffffffffffffffffffff1916906020019091905050615f81565b604051808215151515815260200191505060405180910390f35b341561533857600080fd5b615352600480803560001916906020019091905050615f8d565b604051808360001916600019168152602001821515151581526020019250505060405180910390f35b615383615fa0565b600081915050919050565b60008081915050919050565b60008081915050919050565b6153ae615fa0565b600081915050919050565b60008081915050919050565b60008081915050919050565b60008081915050919050565b60008081915050919050565b6153f1615fa0565b600081915050919050565b60008081915050919050565b60008081915050919050565b60008081915050919050565b60008081915050919050565b60008081915050919050565b60008081915050919050565b60008081915050919050565b60008081915050919050565b60008081915050919050565b60008081915050919050565b60008081915050919050565b615488615fb4565b600081915050919050565b61549b615fa0565b600081915050919050565b60008081915050919050565b6154ba615fb4565b600081915050919050565b60008081915050919050565b6154d9615fb4565b60008060008181818054600181600116156101000203166002900480601f0160208091040260200160405190810160405280929190818152602001828054600181600116156101000203166002900480156155755780601f1061554a57610100808354040283529160200191615575565b820191906000526020600020905b81548152906001019060200180831161555857829003601f168201915b50505050509150935093505050915091565b60008081915050919050565b60008081915050919050565b60008081915050919050565b60008081915050919050565b60008081915050919050565b60008081915050919050565b6155d7615fa0565b600081915050919050565b60008081915050919050565b60008081915050919050565b60008081915050919050565b60008081915050919050565b61561a615fb4565b600081915050919050565b61562d615fb4565b600081915050919050565b60008081915050919050565b60008081915050919050565b615658615fa0565b600081915050919050565b60008081915050919050565b60008081915050919050565b60008081915050919050565b60008081915050919050565b60008081915050919050565b60008081915050919050565b6156b3615fa0565b600081915050919050565b60008081915050919050565b60008081915050919050565b60008081915050919050565b60008081915050919050565b60008081915050919050565b60008081915050919050565b61570e615fb4565b600081915050919050565b6000806000808181935093505050915091565b60008081915050919050565b60008081915050919050565b60008081915050919050565b60008081915050919050565b60008081915050919050565b6000806000808181935093505050915091565b60008081915050919050565b60008081915050919050565b60008081915050919050565b6157a7615fa0565b600081915050919050565b6157ba615fb4565b600081915050919050565b60008081915050919050565b6157d9615fb4565b600081915050919050565b6000806000808181935093505050915091565b6157ff615fa0565b60008060008181818054600181600116156101000203166002900480601f01602080910402602001604051908101604052809291908181526020018280546001816001161561010002031660029004801561589b5780601f106158705761010080835404028352916020019161589b565b820191906000526020600020905b81548152906001019060200180831161587e57829003601f168201915b50505050509150935093505050915091565b60008081915050919050565b60008081915050919050565b60008081915050919050565b60008081915050919050565b60008081915050919050565b60008081915050919050565b6158fd615fa0565b600081915050919050565b60008081915050919050565b6000806000808181935093505050915091565b60008081915050919050565b60008081915050919050565b60008081915050919050565b60008081915050919050565b61595f615fa0565b600081915050919050565b60008081915050919050565b60008081915050919050565b60008081915050919050565b60008081915050919050565b60008081915050919050565b60008081915050919050565b6159ba615fb4565b600081915050919050565b6000806000808181935093505050915091565b6159e0615fa0565b600081915050919050565b6159f3615fb4565b600081915050919050565b60008081915050919050565b60008081915050919050565b60008081915050919050565b60008081915050919050565b60008081915050919050565b60008081915050919050565b60008081915050919050565b60008081915050919050565b60008081915050919050565b615a72615fa0565b600081915050919050565b60008081915050919050565b60008081915050919050565b615a9d615fb4565b600081915050919050565b60008081915050919050565b60008081915050919050565b60008081915050919050565b615ad4615fb4565b600081915050919050565b60008081915050919050565b60008081915050919050565b60008081915050919050565b60008081915050919050565b6000806000808181935093505050915091565b60008081915050919050565b60008081915050919050565b60008081915050919050565b60008081915050919050565b60008081915050919050565b60008081915050919050565b60008081915050919050565b60008081915050919050565b60008081915050919050565b60008081915050919050565b60008081915050919050565b60008081915050919050565b60008081915050919050565b60008081915050919050565b60008081915050919050565b615bde615fa0565b600081915050919050565b60008081915050919050565b60008081915050919050565b60008081915050919050565b60008081915050919050565b60008081915050919050565b60008081915050919050565b60008081915050919050565b60008081915050919050565b60008081915050919050565b60008081915050919050565b60008081915050919050565b60008081915050919050565b6000615c83615fa0565b6000808181808054600181600116156101000203166002900480601f016020809104026020016040519081016040528092919081815260200182805460018160011615610100020316600290048015615d1d5780601f10615cf257610100808354040283529160200191615d1d565b820191906000526020600020905b815481529060010190602001808311615d0057829003601f168201915b50505050509050935093505050915091565b60008081915050919050565b60008081915050919050565b60008081915050919050565b60008081915050919050565b60008081915050919050565b60008081915050919050565b60008081915050919050565b6000806000808181935093505050915091565b6000806000808181935093505050915091565b60008081915050919050565b60008081915050919050565b60008081915050919050565b60008081915050919050565b60008081915050919050565b60008081915050919050565b60008081915050919050565b60008081915050919050565b60008081915050919050565b60008081915050919050565b60008081915050919050565b60008081915050919050565b60008081915050919050565b60008081915050919050565b60008081915050919050565b60008081915050919050565b60008081915050919050565b60008081915050919050565b615e89615fb4565b600081915050919050565b60008081915050919050565b615ea8615fb4565b600081915050919050565b6000615ebd615fb4565b6000808181808054600181600116156101000203166002900480601f016020809104026020016040519081016040528092919081815260200182805460018160011615610100020316600290048015615f575780601f10615f2c57610100808354040283529160200191615f57565b820191906000526020600020905b815481529060010190602001808311615f3a57829003601f168201915b50505050509050935093505050915091565b60008081915050919050565b60008081915050919050565b60008081915050919050565b6000806000808181935093505050915091565b602060405190810160405280600081525090565b6020604051908101604052806000815250905600a165627a7a7230582091818777b4a35bacf6745c5235cdfb65f7329a0d216135fe634750d45a72d9680029",
  "source": "pragma solidity ^0.4.17;\ncontract Sample {\n  bool _bool;\n  int _int;\n  int8 _int8;\n  int256 _int256;\n  uint _uint;\n  uint8 _uint8;\n  uint256 _uint256;\n  address _address;\n  byte _byte;\n  bytes1 _bytes1;\n  bytes32 _bytes32;\n  bytes _bytes;\n  string _string;\n  function Sample() {}\n  function boolFunctionReturnsBool (bool _bool) public pure returns(bool __bool){\n    bool ___bool;\n    return __bool;\n  }\n  event BoolEventReturnsBool(bool __bool);\n  function boolFunctionReturnsInt (bool _bool) public pure returns(int __int){\n    int ___int;\n    return __int;\n  }\n  event BoolEventReturnsInt(int __int);\n  function boolFunctionReturnsInt8 (bool _bool) public pure returns(int8 __int8){\n    int8 ___int8;\n    return __int8;\n  }\n  event BoolEventReturnsInt8(int8 __int8);\n  function boolFunctionReturnsInt256 (bool _bool) public pure returns(int256 __int256){\n    int256 ___int256;\n    return __int256;\n  }\n  event BoolEventReturnsInt256(int256 __int256);\n  function boolFunctionReturnsUint (bool _bool) public pure returns(uint __uint){\n    uint ___uint;\n    return __uint;\n  }\n  event BoolEventReturnsUint(uint __uint);\n  function boolFunctionReturnsUint8 (bool _bool) public pure returns(uint8 __uint8){\n    uint8 ___uint8;\n    return __uint8;\n  }\n  event BoolEventReturnsUint8(uint8 __uint8);\n  function boolFunctionReturnsUint256 (bool _bool) public pure returns(uint256 __uint256){\n    uint256 ___uint256;\n    return __uint256;\n  }\n  event BoolEventReturnsUint256(uint256 __uint256);\n  function boolFunctionReturnsAddress (bool _bool) public pure returns(address __address){\n    address ___address;\n    return __address;\n  }\n  event BoolEventReturnsAddress(address __address);\n  function boolFunctionReturnsByte (bool _bool) public pure returns(byte __byte){\n    byte ___byte;\n    return __byte;\n  }\n  event BoolEventReturnsByte(byte __byte);\n  function boolFunctionReturnsBytes1 (bool _bool) public pure returns(bytes1 __bytes1){\n    bytes1 ___bytes1;\n    return __bytes1;\n  }\n  event BoolEventReturnsBytes1(bytes1 __bytes1);\n  function boolFunctionReturnsBytes32 (bool _bool) public pure returns(bytes32 __bytes32){\n    bytes32 ___bytes32;\n    return __bytes32;\n  }\n  event BoolEventReturnsBytes32(bytes32 __bytes32);\n  function boolFunctionReturnsBytes (bool _bool) public pure returns(bytes __bytes){\n    bytes ___bytes;\n    return __bytes;\n  }\n  event BoolEventReturnsBytes(bytes __bytes);\n  function boolFunctionReturnsString (bool _bool) public pure returns(string __string){\n    string ___string;\n    return __string;\n  }\n  event BoolEventReturnsString(string __string);\n  function boolByteFunctionReturnsBoolByte (bool _bool) public pure returns(bool __bool, byte _byte_){\n    bool ___bool;\n    byte ___byte;\n    return (___bool, ___byte);\n  }\n  function intFunctionReturnsBool (int _int) public pure returns(bool __bool){\n    bool ___bool;\n    return __bool;\n  }\n  event IntEventReturnsBool(bool __bool);\n  function intFunctionReturnsInt (int _int) public pure returns(int __int){\n    int ___int;\n    return __int;\n  }\n  event IntEventReturnsInt(int __int);\n  function intFunctionReturnsInt8 (int _int) public pure returns(int8 __int8){\n    int8 ___int8;\n    return __int8;\n  }\n  event IntEventReturnsInt8(int8 __int8);\n  function intFunctionReturnsInt256 (int _int) public pure returns(int256 __int256){\n    int256 ___int256;\n    return __int256;\n  }\n  event IntEventReturnsInt256(int256 __int256);\n  function intFunctionReturnsUint (int _int) public pure returns(uint __uint){\n    uint ___uint;\n    return __uint;\n  }\n  event IntEventReturnsUint(uint __uint);\n  function intFunctionReturnsUint8 (int _int) public pure returns(uint8 __uint8){\n    uint8 ___uint8;\n    return __uint8;\n  }\n  event IntEventReturnsUint8(uint8 __uint8);\n  function intFunctionReturnsUint256 (int _int) public pure returns(uint256 __uint256){\n    uint256 ___uint256;\n    return __uint256;\n  }\n  event IntEventReturnsUint256(uint256 __uint256);\n  function intFunctionReturnsAddress (int _int) public pure returns(address __address){\n    address ___address;\n    return __address;\n  }\n  event IntEventReturnsAddress(address __address);\n  function intFunctionReturnsByte (int _int) public pure returns(byte __byte){\n    byte ___byte;\n    return __byte;\n  }\n  event IntEventReturnsByte(byte __byte);\n  function intFunctionReturnsBytes1 (int _int) public pure returns(bytes1 __bytes1){\n    bytes1 ___bytes1;\n    return __bytes1;\n  }\n  event IntEventReturnsBytes1(bytes1 __bytes1);\n  function intFunctionReturnsBytes32 (int _int) public pure returns(bytes32 __bytes32){\n    bytes32 ___bytes32;\n    return __bytes32;\n  }\n  event IntEventReturnsBytes32(bytes32 __bytes32);\n  function intFunctionReturnsBytes (int _int) public pure returns(bytes __bytes){\n    bytes ___bytes;\n    return __bytes;\n  }\n  event IntEventReturnsBytes(bytes __bytes);\n  function intFunctionReturnsString (int _int) public pure returns(string __string){\n    string ___string;\n    return __string;\n  }\n  event IntEventReturnsString(string __string);\n  function intAddressFunctionReturnsIntAddress (int _int) public pure returns(int __int, address _address_){\n    int ___int;\n    address ___address;\n    return (___int, ___address);\n  }\n  function int8FunctionReturnsBool (int8 _int8) public pure returns(bool __bool){\n    bool ___bool;\n    return __bool;\n  }\n  event Int8EventReturnsBool(bool __bool);\n  function int8FunctionReturnsInt (int8 _int8) public pure returns(int __int){\n    int ___int;\n    return __int;\n  }\n  event Int8EventReturnsInt(int __int);\n  function int8FunctionReturnsInt8 (int8 _int8) public pure returns(int8 __int8){\n    int8 ___int8;\n    return __int8;\n  }\n  event Int8EventReturnsInt8(int8 __int8);\n  function int8FunctionReturnsInt256 (int8 _int8) public pure returns(int256 __int256){\n    int256 ___int256;\n    return __int256;\n  }\n  event Int8EventReturnsInt256(int256 __int256);\n  function int8FunctionReturnsUint (int8 _int8) public pure returns(uint __uint){\n    uint ___uint;\n    return __uint;\n  }\n  event Int8EventReturnsUint(uint __uint);\n  function int8FunctionReturnsUint8 (int8 _int8) public pure returns(uint8 __uint8){\n    uint8 ___uint8;\n    return __uint8;\n  }\n  event Int8EventReturnsUint8(uint8 __uint8);\n  function int8FunctionReturnsUint256 (int8 _int8) public pure returns(uint256 __uint256){\n    uint256 ___uint256;\n    return __uint256;\n  }\n  event Int8EventReturnsUint256(uint256 __uint256);\n  function int8FunctionReturnsAddress (int8 _int8) public pure returns(address __address){\n    address ___address;\n    return __address;\n  }\n  event Int8EventReturnsAddress(address __address);\n  function int8FunctionReturnsByte (int8 _int8) public pure returns(byte __byte){\n    byte ___byte;\n    return __byte;\n  }\n  event Int8EventReturnsByte(byte __byte);\n  function int8FunctionReturnsBytes1 (int8 _int8) public pure returns(bytes1 __bytes1){\n    bytes1 ___bytes1;\n    return __bytes1;\n  }\n  event Int8EventReturnsBytes1(bytes1 __bytes1);\n  function int8FunctionReturnsBytes32 (int8 _int8) public pure returns(bytes32 __bytes32){\n    bytes32 ___bytes32;\n    return __bytes32;\n  }\n  event Int8EventReturnsBytes32(bytes32 __bytes32);\n  function int8FunctionReturnsBytes (int8 _int8) public pure returns(bytes __bytes){\n    bytes ___bytes;\n    return __bytes;\n  }\n  event Int8EventReturnsBytes(bytes __bytes);\n  function int8FunctionReturnsString (int8 _int8) public pure returns(string __string){\n    string ___string;\n    return __string;\n  }\n  event Int8EventReturnsString(string __string);\n  function int8StringFunctionReturnsInt8String (int8 _int8) public pure returns(int8 __int8, string _string_){\n    int8 ___int8;\n    string ___string;\n    return (___int8, ___string);\n  }\n  function int256FunctionReturnsBool (int256 _int256) public pure returns(bool __bool){\n    bool ___bool;\n    return __bool;\n  }\n  event Int256EventReturnsBool(bool __bool);\n  function int256FunctionReturnsInt (int256 _int256) public pure returns(int __int){\n    int ___int;\n    return __int;\n  }\n  event Int256EventReturnsInt(int __int);\n  function int256FunctionReturnsInt8 (int256 _int256) public pure returns(int8 __int8){\n    int8 ___int8;\n    return __int8;\n  }\n  event Int256EventReturnsInt8(int8 __int8);\n  function int256FunctionReturnsInt256 (int256 _int256) public pure returns(int256 __int256){\n    int256 ___int256;\n    return __int256;\n  }\n  event Int256EventReturnsInt256(int256 __int256);\n  function int256FunctionReturnsUint (int256 _int256) public pure returns(uint __uint){\n    uint ___uint;\n    return __uint;\n  }\n  event Int256EventReturnsUint(uint __uint);\n  function int256FunctionReturnsUint8 (int256 _int256) public pure returns(uint8 __uint8){\n    uint8 ___uint8;\n    return __uint8;\n  }\n  event Int256EventReturnsUint8(uint8 __uint8);\n  function int256FunctionReturnsUint256 (int256 _int256) public pure returns(uint256 __uint256){\n    uint256 ___uint256;\n    return __uint256;\n  }\n  event Int256EventReturnsUint256(uint256 __uint256);\n  function int256FunctionReturnsAddress (int256 _int256) public pure returns(address __address){\n    address ___address;\n    return __address;\n  }\n  event Int256EventReturnsAddress(address __address);\n  function int256FunctionReturnsByte (int256 _int256) public pure returns(byte __byte){\n    byte ___byte;\n    return __byte;\n  }\n  event Int256EventReturnsByte(byte __byte);\n  function int256FunctionReturnsBytes1 (int256 _int256) public pure returns(bytes1 __bytes1){\n    bytes1 ___bytes1;\n    return __bytes1;\n  }\n  event Int256EventReturnsBytes1(bytes1 __bytes1);\n  function int256FunctionReturnsBytes32 (int256 _int256) public pure returns(bytes32 __bytes32){\n    bytes32 ___bytes32;\n    return __bytes32;\n  }\n  event Int256EventReturnsBytes32(bytes32 __bytes32);\n  function int256FunctionReturnsBytes (int256 _int256) public pure returns(bytes __bytes){\n    bytes ___bytes;\n    return __bytes;\n  }\n  event Int256EventReturnsBytes(bytes __bytes);\n  function int256FunctionReturnsString (int256 _int256) public pure returns(string __string){\n    string ___string;\n    return __string;\n  }\n  event Int256EventReturnsString(string __string);\n  function int256BytesFunctionReturnsInt256Bytes (int256 _int256) public pure returns(int256 __int256, bytes _bytes_){\n    int256 ___int256;\n    bytes ___bytes;\n    return (___int256, ___bytes);\n  }\n  function uintFunctionReturnsBool (uint _uint) public pure returns(bool __bool){\n    bool ___bool;\n    return __bool;\n  }\n  event UintEventReturnsBool(bool __bool);\n  function uintFunctionReturnsInt (uint _uint) public pure returns(int __int){\n    int ___int;\n    return __int;\n  }\n  event UintEventReturnsInt(int __int);\n  function uintFunctionReturnsInt8 (uint _uint) public pure returns(int8 __int8){\n    int8 ___int8;\n    return __int8;\n  }\n  event UintEventReturnsInt8(int8 __int8);\n  function uintFunctionReturnsInt256 (uint _uint) public pure returns(int256 __int256){\n    int256 ___int256;\n    return __int256;\n  }\n  event UintEventReturnsInt256(int256 __int256);\n  function uintFunctionReturnsUint (uint _uint) public pure returns(uint __uint){\n    uint ___uint;\n    return __uint;\n  }\n  event UintEventReturnsUint(uint __uint);\n  function uintFunctionReturnsUint8 (uint _uint) public pure returns(uint8 __uint8){\n    uint8 ___uint8;\n    return __uint8;\n  }\n  event UintEventReturnsUint8(uint8 __uint8);\n  function uintFunctionReturnsUint256 (uint _uint) public pure returns(uint256 __uint256){\n    uint256 ___uint256;\n    return __uint256;\n  }\n  event UintEventReturnsUint256(uint256 __uint256);\n  function uintFunctionReturnsAddress (uint _uint) public pure returns(address __address){\n    address ___address;\n    return __address;\n  }\n  event UintEventReturnsAddress(address __address);\n  function uintFunctionReturnsByte (uint _uint) public pure returns(byte __byte){\n    byte ___byte;\n    return __byte;\n  }\n  event UintEventReturnsByte(byte __byte);\n  function uintFunctionReturnsBytes1 (uint _uint) public pure returns(bytes1 __bytes1){\n    bytes1 ___bytes1;\n    return __bytes1;\n  }\n  event UintEventReturnsBytes1(bytes1 __bytes1);\n  function uintFunctionReturnsBytes32 (uint _uint) public pure returns(bytes32 __bytes32){\n    bytes32 ___bytes32;\n    return __bytes32;\n  }\n  event UintEventReturnsBytes32(bytes32 __bytes32);\n  function uintFunctionReturnsBytes (uint _uint) public pure returns(bytes __bytes){\n    bytes ___bytes;\n    return __bytes;\n  }\n  event UintEventReturnsBytes(bytes __bytes);\n  function uintFunctionReturnsString (uint _uint) public pure returns(string __string){\n    string ___string;\n    return __string;\n  }\n  event UintEventReturnsString(string __string);\n  function uintUint8FunctionReturnsUintUint8 (uint _uint) public pure returns(uint __uint, uint8 _uint8_){\n    uint ___uint;\n    uint8 ___uint8;\n    return (___uint, ___uint8);\n  }\n  function uint8FunctionReturnsBool (uint8 _uint8) public pure returns(bool __bool){\n    bool ___bool;\n    return __bool;\n  }\n  event Uint8EventReturnsBool(bool __bool);\n  function uint8FunctionReturnsInt (uint8 _uint8) public pure returns(int __int){\n    int ___int;\n    return __int;\n  }\n  event Uint8EventReturnsInt(int __int);\n  function uint8FunctionReturnsInt8 (uint8 _uint8) public pure returns(int8 __int8){\n    int8 ___int8;\n    return __int8;\n  }\n  event Uint8EventReturnsInt8(int8 __int8);\n  function uint8FunctionReturnsInt256 (uint8 _uint8) public pure returns(int256 __int256){\n    int256 ___int256;\n    return __int256;\n  }\n  event Uint8EventReturnsInt256(int256 __int256);\n  function uint8FunctionReturnsUint (uint8 _uint8) public pure returns(uint __uint){\n    uint ___uint;\n    return __uint;\n  }\n  event Uint8EventReturnsUint(uint __uint);\n  function uint8FunctionReturnsUint8 (uint8 _uint8) public pure returns(uint8 __uint8){\n    uint8 ___uint8;\n    return __uint8;\n  }\n  event Uint8EventReturnsUint8(uint8 __uint8);\n  function uint8FunctionReturnsUint256 (uint8 _uint8) public pure returns(uint256 __uint256){\n    uint256 ___uint256;\n    return __uint256;\n  }\n  event Uint8EventReturnsUint256(uint256 __uint256);\n  function uint8FunctionReturnsAddress (uint8 _uint8) public pure returns(address __address){\n    address ___address;\n    return __address;\n  }\n  event Uint8EventReturnsAddress(address __address);\n  function uint8FunctionReturnsByte (uint8 _uint8) public pure returns(byte __byte){\n    byte ___byte;\n    return __byte;\n  }\n  event Uint8EventReturnsByte(byte __byte);\n  function uint8FunctionReturnsBytes1 (uint8 _uint8) public pure returns(bytes1 __bytes1){\n    bytes1 ___bytes1;\n    return __bytes1;\n  }\n  event Uint8EventReturnsBytes1(bytes1 __bytes1);\n  function uint8FunctionReturnsBytes32 (uint8 _uint8) public pure returns(bytes32 __bytes32){\n    bytes32 ___bytes32;\n    return __bytes32;\n  }\n  event Uint8EventReturnsBytes32(bytes32 __bytes32);\n  function uint8FunctionReturnsBytes (uint8 _uint8) public pure returns(bytes __bytes){\n    bytes ___bytes;\n    return __bytes;\n  }\n  event Uint8EventReturnsBytes(bytes __bytes);\n  function uint8FunctionReturnsString (uint8 _uint8) public pure returns(string __string){\n    string ___string;\n    return __string;\n  }\n  event Uint8EventReturnsString(string __string);\n  function uint8ByteFunctionReturnsUint8Byte (uint8 _uint8) public pure returns(uint8 __uint8, byte _byte_){\n    uint8 ___uint8;\n    byte ___byte;\n    return (___uint8, ___byte);\n  }\n  function uint256FunctionReturnsBool (uint256 _uint256) public pure returns(bool __bool){\n    bool ___bool;\n    return __bool;\n  }\n  event Uint256EventReturnsBool(bool __bool);\n  function uint256FunctionReturnsInt (uint256 _uint256) public pure returns(int __int){\n    int ___int;\n    return __int;\n  }\n  event Uint256EventReturnsInt(int __int);\n  function uint256FunctionReturnsInt8 (uint256 _uint256) public pure returns(int8 __int8){\n    int8 ___int8;\n    return __int8;\n  }\n  event Uint256EventReturnsInt8(int8 __int8);\n  function uint256FunctionReturnsInt256 (uint256 _uint256) public pure returns(int256 __int256){\n    int256 ___int256;\n    return __int256;\n  }\n  event Uint256EventReturnsInt256(int256 __int256);\n  function uint256FunctionReturnsUint (uint256 _uint256) public pure returns(uint __uint){\n    uint ___uint;\n    return __uint;\n  }\n  event Uint256EventReturnsUint(uint __uint);\n  function uint256FunctionReturnsUint8 (uint256 _uint256) public pure returns(uint8 __uint8){\n    uint8 ___uint8;\n    return __uint8;\n  }\n  event Uint256EventReturnsUint8(uint8 __uint8);\n  function uint256FunctionReturnsUint256 (uint256 _uint256) public pure returns(uint256 __uint256){\n    uint256 ___uint256;\n    return __uint256;\n  }\n  event Uint256EventReturnsUint256(uint256 __uint256);\n  function uint256FunctionReturnsAddress (uint256 _uint256) public pure returns(address __address){\n    address ___address;\n    return __address;\n  }\n  event Uint256EventReturnsAddress(address __address);\n  function uint256FunctionReturnsByte (uint256 _uint256) public pure returns(byte __byte){\n    byte ___byte;\n    return __byte;\n  }\n  event Uint256EventReturnsByte(byte __byte);\n  function uint256FunctionReturnsBytes1 (uint256 _uint256) public pure returns(bytes1 __bytes1){\n    bytes1 ___bytes1;\n    return __bytes1;\n  }\n  event Uint256EventReturnsBytes1(bytes1 __bytes1);\n  function uint256FunctionReturnsBytes32 (uint256 _uint256) public pure returns(bytes32 __bytes32){\n    bytes32 ___bytes32;\n    return __bytes32;\n  }\n  event Uint256EventReturnsBytes32(bytes32 __bytes32);\n  function uint256FunctionReturnsBytes (uint256 _uint256) public pure returns(bytes __bytes){\n    bytes ___bytes;\n    return __bytes;\n  }\n  event Uint256EventReturnsBytes(bytes __bytes);\n  function uint256FunctionReturnsString (uint256 _uint256) public pure returns(string __string){\n    string ___string;\n    return __string;\n  }\n  event Uint256EventReturnsString(string __string);\n  function uint256UintFunctionReturnsUint256Uint (uint256 _uint256) public pure returns(uint256 __uint256, uint _uint_){\n    uint256 ___uint256;\n    uint ___uint;\n    return (___uint256, ___uint);\n  }\n  function addressFunctionReturnsBool (address _address) public pure returns(bool __bool){\n    bool ___bool;\n    return __bool;\n  }\n  event AddressEventReturnsBool(bool __bool);\n  function addressFunctionReturnsInt (address _address) public pure returns(int __int){\n    int ___int;\n    return __int;\n  }\n  event AddressEventReturnsInt(int __int);\n  function addressFunctionReturnsInt8 (address _address) public pure returns(int8 __int8){\n    int8 ___int8;\n    return __int8;\n  }\n  event AddressEventReturnsInt8(int8 __int8);\n  function addressFunctionReturnsInt256 (address _address) public pure returns(int256 __int256){\n    int256 ___int256;\n    return __int256;\n  }\n  event AddressEventReturnsInt256(int256 __int256);\n  function addressFunctionReturnsUint (address _address) public pure returns(uint __uint){\n    uint ___uint;\n    return __uint;\n  }\n  event AddressEventReturnsUint(uint __uint);\n  function addressFunctionReturnsUint8 (address _address) public pure returns(uint8 __uint8){\n    uint8 ___uint8;\n    return __uint8;\n  }\n  event AddressEventReturnsUint8(uint8 __uint8);\n  function addressFunctionReturnsUint256 (address _address) public pure returns(uint256 __uint256){\n    uint256 ___uint256;\n    return __uint256;\n  }\n  event AddressEventReturnsUint256(uint256 __uint256);\n  function addressFunctionReturnsAddress (address _address) public pure returns(address __address){\n    address ___address;\n    return __address;\n  }\n  event AddressEventReturnsAddress(address __address);\n  function addressFunctionReturnsByte (address _address) public pure returns(byte __byte){\n    byte ___byte;\n    return __byte;\n  }\n  event AddressEventReturnsByte(byte __byte);\n  function addressFunctionReturnsBytes1 (address _address) public pure returns(bytes1 __bytes1){\n    bytes1 ___bytes1;\n    return __bytes1;\n  }\n  event AddressEventReturnsBytes1(bytes1 __bytes1);\n  function addressFunctionReturnsBytes32 (address _address) public pure returns(bytes32 __bytes32){\n    bytes32 ___bytes32;\n    return __bytes32;\n  }\n  event AddressEventReturnsBytes32(bytes32 __bytes32);\n  function addressFunctionReturnsBytes (address _address) public pure returns(bytes __bytes){\n    bytes ___bytes;\n    return __bytes;\n  }\n  event AddressEventReturnsBytes(bytes __bytes);\n  function addressFunctionReturnsString (address _address) public pure returns(string __string){\n    string ___string;\n    return __string;\n  }\n  event AddressEventReturnsString(string __string);\n  function addressBoolFunctionReturnsAddressBool (address _address) public pure returns(address __address, bool _bool_){\n    address ___address;\n    bool ___bool;\n    return (___address, ___bool);\n  }\n  function byteFunctionReturnsBool (byte _byte) public pure returns(bool __bool){\n    bool ___bool;\n    return __bool;\n  }\n  event ByteEventReturnsBool(bool __bool);\n  function byteFunctionReturnsInt (byte _byte) public pure returns(int __int){\n    int ___int;\n    return __int;\n  }\n  event ByteEventReturnsInt(int __int);\n  function byteFunctionReturnsInt8 (byte _byte) public pure returns(int8 __int8){\n    int8 ___int8;\n    return __int8;\n  }\n  event ByteEventReturnsInt8(int8 __int8);\n  function byteFunctionReturnsInt256 (byte _byte) public pure returns(int256 __int256){\n    int256 ___int256;\n    return __int256;\n  }\n  event ByteEventReturnsInt256(int256 __int256);\n  function byteFunctionReturnsUint (byte _byte) public pure returns(uint __uint){\n    uint ___uint;\n    return __uint;\n  }\n  event ByteEventReturnsUint(uint __uint);\n  function byteFunctionReturnsUint8 (byte _byte) public pure returns(uint8 __uint8){\n    uint8 ___uint8;\n    return __uint8;\n  }\n  event ByteEventReturnsUint8(uint8 __uint8);\n  function byteFunctionReturnsUint256 (byte _byte) public pure returns(uint256 __uint256){\n    uint256 ___uint256;\n    return __uint256;\n  }\n  event ByteEventReturnsUint256(uint256 __uint256);\n  function byteFunctionReturnsAddress (byte _byte) public pure returns(address __address){\n    address ___address;\n    return __address;\n  }\n  event ByteEventReturnsAddress(address __address);\n  function byteFunctionReturnsByte (byte _byte) public pure returns(byte __byte){\n    byte ___byte;\n    return __byte;\n  }\n  event ByteEventReturnsByte(byte __byte);\n  function byteFunctionReturnsBytes1 (byte _byte) public pure returns(bytes1 __bytes1){\n    bytes1 ___bytes1;\n    return __bytes1;\n  }\n  event ByteEventReturnsBytes1(bytes1 __bytes1);\n  function byteFunctionReturnsBytes32 (byte _byte) public pure returns(bytes32 __bytes32){\n    bytes32 ___bytes32;\n    return __bytes32;\n  }\n  event ByteEventReturnsBytes32(bytes32 __bytes32);\n  function byteFunctionReturnsBytes (byte _byte) public pure returns(bytes __bytes){\n    bytes ___bytes;\n    return __bytes;\n  }\n  event ByteEventReturnsBytes(bytes __bytes);\n  function byteFunctionReturnsString (byte _byte) public pure returns(string __string){\n    string ___string;\n    return __string;\n  }\n  event ByteEventReturnsString(string __string);\n  function byteBytes1FunctionReturnsByteBytes1 (byte _byte) public pure returns(byte __byte, bytes1 _bytes1_){\n    byte ___byte;\n    bytes1 ___bytes1;\n    return (___byte, ___bytes1);\n  }\n  function bytes1FunctionReturnsBool (bytes1 _bytes1) public pure returns(bool __bool){\n    bool ___bool;\n    return __bool;\n  }\n  event Bytes1EventReturnsBool(bool __bool);\n  function bytes1FunctionReturnsInt (bytes1 _bytes1) public pure returns(int __int){\n    int ___int;\n    return __int;\n  }\n  event Bytes1EventReturnsInt(int __int);\n  function bytes1FunctionReturnsInt8 (bytes1 _bytes1) public pure returns(int8 __int8){\n    int8 ___int8;\n    return __int8;\n  }\n  event Bytes1EventReturnsInt8(int8 __int8);\n  function bytes1FunctionReturnsInt256 (bytes1 _bytes1) public pure returns(int256 __int256){\n    int256 ___int256;\n    return __int256;\n  }\n  event Bytes1EventReturnsInt256(int256 __int256);\n  function bytes1FunctionReturnsUint (bytes1 _bytes1) public pure returns(uint __uint){\n    uint ___uint;\n    return __uint;\n  }\n  event Bytes1EventReturnsUint(uint __uint);\n  function bytes1FunctionReturnsUint8 (bytes1 _bytes1) public pure returns(uint8 __uint8){\n    uint8 ___uint8;\n    return __uint8;\n  }\n  event Bytes1EventReturnsUint8(uint8 __uint8);\n  function bytes1FunctionReturnsUint256 (bytes1 _bytes1) public pure returns(uint256 __uint256){\n    uint256 ___uint256;\n    return __uint256;\n  }\n  event Bytes1EventReturnsUint256(uint256 __uint256);\n  function bytes1FunctionReturnsAddress (bytes1 _bytes1) public pure returns(address __address){\n    address ___address;\n    return __address;\n  }\n  event Bytes1EventReturnsAddress(address __address);\n  function bytes1FunctionReturnsByte (bytes1 _bytes1) public pure returns(byte __byte){\n    byte ___byte;\n    return __byte;\n  }\n  event Bytes1EventReturnsByte(byte __byte);\n  function bytes1FunctionReturnsBytes1 (bytes1 _bytes1) public pure returns(bytes1 __bytes1){\n    bytes1 ___bytes1;\n    return __bytes1;\n  }\n  event Bytes1EventReturnsBytes1(bytes1 __bytes1);\n  function bytes1FunctionReturnsBytes32 (bytes1 _bytes1) public pure returns(bytes32 __bytes32){\n    bytes32 ___bytes32;\n    return __bytes32;\n  }\n  event Bytes1EventReturnsBytes32(bytes32 __bytes32);\n  function bytes1FunctionReturnsBytes (bytes1 _bytes1) public pure returns(bytes __bytes){\n    bytes ___bytes;\n    return __bytes;\n  }\n  event Bytes1EventReturnsBytes(bytes __bytes);\n  function bytes1FunctionReturnsString (bytes1 _bytes1) public pure returns(string __string){\n    string ___string;\n    return __string;\n  }\n  event Bytes1EventReturnsString(string __string);\n  function bytes1BoolFunctionReturnsBytes1Bool (bytes1 _bytes1) public pure returns(bytes1 __bytes1, bool _bool_){\n    bytes1 ___bytes1;\n    bool ___bool;\n    return (___bytes1, ___bool);\n  }\n  function bytes32FunctionReturnsBool (bytes32 _bytes32) public pure returns(bool __bool){\n    bool ___bool;\n    return __bool;\n  }\n  event Bytes32EventReturnsBool(bool __bool);\n  function bytes32FunctionReturnsInt (bytes32 _bytes32) public pure returns(int __int){\n    int ___int;\n    return __int;\n  }\n  event Bytes32EventReturnsInt(int __int);\n  function bytes32FunctionReturnsInt8 (bytes32 _bytes32) public pure returns(int8 __int8){\n    int8 ___int8;\n    return __int8;\n  }\n  event Bytes32EventReturnsInt8(int8 __int8);\n  function bytes32FunctionReturnsInt256 (bytes32 _bytes32) public pure returns(int256 __int256){\n    int256 ___int256;\n    return __int256;\n  }\n  event Bytes32EventReturnsInt256(int256 __int256);\n  function bytes32FunctionReturnsUint (bytes32 _bytes32) public pure returns(uint __uint){\n    uint ___uint;\n    return __uint;\n  }\n  event Bytes32EventReturnsUint(uint __uint);\n  function bytes32FunctionReturnsUint8 (bytes32 _bytes32) public pure returns(uint8 __uint8){\n    uint8 ___uint8;\n    return __uint8;\n  }\n  event Bytes32EventReturnsUint8(uint8 __uint8);\n  function bytes32FunctionReturnsUint256 (bytes32 _bytes32) public pure returns(uint256 __uint256){\n    uint256 ___uint256;\n    return __uint256;\n  }\n  event Bytes32EventReturnsUint256(uint256 __uint256);\n  function bytes32FunctionReturnsAddress (bytes32 _bytes32) public pure returns(address __address){\n    address ___address;\n    return __address;\n  }\n  event Bytes32EventReturnsAddress(address __address);\n  function bytes32FunctionReturnsByte (bytes32 _bytes32) public pure returns(byte __byte){\n    byte ___byte;\n    return __byte;\n  }\n  event Bytes32EventReturnsByte(byte __byte);\n  function bytes32FunctionReturnsBytes1 (bytes32 _bytes32) public pure returns(bytes1 __bytes1){\n    bytes1 ___bytes1;\n    return __bytes1;\n  }\n  event Bytes32EventReturnsBytes1(bytes1 __bytes1);\n  function bytes32FunctionReturnsBytes32 (bytes32 _bytes32) public pure returns(bytes32 __bytes32){\n    bytes32 ___bytes32;\n    return __bytes32;\n  }\n  event Bytes32EventReturnsBytes32(bytes32 __bytes32);\n  function bytes32FunctionReturnsBytes (bytes32 _bytes32) public pure returns(bytes __bytes){\n    bytes ___bytes;\n    return __bytes;\n  }\n  event Bytes32EventReturnsBytes(bytes __bytes);\n  function bytes32FunctionReturnsString (bytes32 _bytes32) public pure returns(string __string){\n    string ___string;\n    return __string;\n  }\n  event Bytes32EventReturnsString(string __string);\n  function bytes32BoolFunctionReturnsBytes32Bool (bytes32 _bytes32) public pure returns(bytes32 __bytes32, bool _bool_){\n    bytes32 ___bytes32;\n    bool ___bool;\n    return (___bytes32, ___bool);\n  }\n  function bytesFunctionReturnsBool (bytes _bytes) public pure returns(bool __bool){\n    bool ___bool;\n    return __bool;\n  }\n  event BytesEventReturnsBool(bool __bool);\n  function bytesFunctionReturnsInt (bytes _bytes) public pure returns(int __int){\n    int ___int;\n    return __int;\n  }\n  event BytesEventReturnsInt(int __int);\n  function bytesFunctionReturnsInt8 (bytes _bytes) public pure returns(int8 __int8){\n    int8 ___int8;\n    return __int8;\n  }\n  event BytesEventReturnsInt8(int8 __int8);\n  function bytesFunctionReturnsInt256 (bytes _bytes) public pure returns(int256 __int256){\n    int256 ___int256;\n    return __int256;\n  }\n  event BytesEventReturnsInt256(int256 __int256);\n  function bytesFunctionReturnsUint (bytes _bytes) public pure returns(uint __uint){\n    uint ___uint;\n    return __uint;\n  }\n  event BytesEventReturnsUint(uint __uint);\n  function bytesFunctionReturnsUint8 (bytes _bytes) public pure returns(uint8 __uint8){\n    uint8 ___uint8;\n    return __uint8;\n  }\n  event BytesEventReturnsUint8(uint8 __uint8);\n  function bytesFunctionReturnsUint256 (bytes _bytes) public pure returns(uint256 __uint256){\n    uint256 ___uint256;\n    return __uint256;\n  }\n  event BytesEventReturnsUint256(uint256 __uint256);\n  function bytesFunctionReturnsAddress (bytes _bytes) public pure returns(address __address){\n    address ___address;\n    return __address;\n  }\n  event BytesEventReturnsAddress(address __address);\n  function bytesFunctionReturnsByte (bytes _bytes) public pure returns(byte __byte){\n    byte ___byte;\n    return __byte;\n  }\n  event BytesEventReturnsByte(byte __byte);\n  function bytesFunctionReturnsBytes1 (bytes _bytes) public pure returns(bytes1 __bytes1){\n    bytes1 ___bytes1;\n    return __bytes1;\n  }\n  event BytesEventReturnsBytes1(bytes1 __bytes1);\n  function bytesFunctionReturnsBytes32 (bytes _bytes) public pure returns(bytes32 __bytes32){\n    bytes32 ___bytes32;\n    return __bytes32;\n  }\n  event BytesEventReturnsBytes32(bytes32 __bytes32);\n  function bytesFunctionReturnsBytes (bytes _bytes) public pure returns(bytes __bytes){\n    bytes ___bytes;\n    return __bytes;\n  }\n  event BytesEventReturnsBytes(bytes __bytes);\n  function bytesFunctionReturnsString (bytes _bytes) public pure returns(string __string){\n    string ___string;\n    return __string;\n  }\n  event BytesEventReturnsString(string __string);\n  function bytesBytes32FunctionReturnsBytesBytes32 (bytes _bytes) public pure returns(bytes __bytes, bytes32 _bytes32_){\n    bytes ___bytes;\n    bytes32 ___bytes32;\n    return (___bytes, ___bytes32);\n  }\n  function stringFunctionReturnsBool (string _string) public pure returns(bool __bool){\n    bool ___bool;\n    return __bool;\n  }\n  event StringEventReturnsBool(bool __bool);\n  function stringFunctionReturnsInt (string _string) public pure returns(int __int){\n    int ___int;\n    return __int;\n  }\n  event StringEventReturnsInt(int __int);\n  function stringFunctionReturnsInt8 (string _string) public pure returns(int8 __int8){\n    int8 ___int8;\n    return __int8;\n  }\n  event StringEventReturnsInt8(int8 __int8);\n  function stringFunctionReturnsInt256 (string _string) public pure returns(int256 __int256){\n    int256 ___int256;\n    return __int256;\n  }\n  event StringEventReturnsInt256(int256 __int256);\n  function stringFunctionReturnsUint (string _string) public pure returns(uint __uint){\n    uint ___uint;\n    return __uint;\n  }\n  event StringEventReturnsUint(uint __uint);\n  function stringFunctionReturnsUint8 (string _string) public pure returns(uint8 __uint8){\n    uint8 ___uint8;\n    return __uint8;\n  }\n  event StringEventReturnsUint8(uint8 __uint8);\n  function stringFunctionReturnsUint256 (string _string) public pure returns(uint256 __uint256){\n    uint256 ___uint256;\n    return __uint256;\n  }\n  event StringEventReturnsUint256(uint256 __uint256);\n  function stringFunctionReturnsAddress (string _string) public pure returns(address __address){\n    address ___address;\n    return __address;\n  }\n  event StringEventReturnsAddress(address __address);\n  function stringFunctionReturnsByte (string _string) public pure returns(byte __byte){\n    byte ___byte;\n    return __byte;\n  }\n  event StringEventReturnsByte(byte __byte);\n  function stringFunctionReturnsBytes1 (string _string) public pure returns(bytes1 __bytes1){\n    bytes1 ___bytes1;\n    return __bytes1;\n  }\n  event StringEventReturnsBytes1(bytes1 __bytes1);\n  function stringFunctionReturnsBytes32 (string _string) public pure returns(bytes32 __bytes32){\n    bytes32 ___bytes32;\n    return __bytes32;\n  }\n  event StringEventReturnsBytes32(bytes32 __bytes32);\n  function stringFunctionReturnsBytes (string _string) public pure returns(bytes __bytes){\n    bytes ___bytes;\n    return __bytes;\n  }\n  event StringEventReturnsBytes(bytes __bytes);\n  function stringFunctionReturnsString (string _string) public pure returns(string __string){\n    string ___string;\n    return __string;\n  }\n  event StringEventReturnsString(string __string);\n  function stringUint256FunctionReturnsStringUint256 (string _string) public pure returns(string __string, uint256 _uint256_){\n    string ___string;\n    uint256 ___uint256;\n    return (___string, ___uint256);\n  }\n\n}",
  "sourcePath": "/Users/billy/Documents/htdocs/dapp-scratch/contracts/SampleContract.sol",
  "compiler": {
    "name": "solc",
    "version": "0.4.18+commit.9cf6e910.Emscripten.clang"
  },
  "schemaVersion": "1.0.1",
  "updatedAt": "2017-11-08T17:10:51.916Z"
}